:020000040000FA
:1000000028162020C1020000C5020000C70200001F
:1000100000000000000000000000000000000000E0
:10002000000000000000000000000000C902000005
:100030000000000000000000CB020000CD02000024
:10004000CF020000C12F00001D3300002D3400003E
:10005000CF020000CF020000CF020000CF0200005C
:1000600000000000CF020000CF02000000000000EE
:100070000000000089330000E13300003533000048
:10008000DD320000FD320000BD320000CD32000044
:100090000D330000ED320000000000000000000001
:1000A000CF020000CF0200000000000000000000AE
:1000B000CF02000000000000CF020000CF020000CD
:1000C00000F002F800F0D1F812A030C80838241867
:1000D0002D18AC4201D100F0C8F80FCCA246AB46B7
:1000E0000CA730CF2D1B083F3F197C427F1E544484
:1000F0002D090426F441641EAC4201D300F0B5F88A
:100100000126334200D0FB1A3343984754465D46DC
:10011000DFE70000445300006453000000000000CB
:10012000103A02D378C878C1FAD8520701D330C840
:1001300030C101D504680C60704700000000000069
:100140007047000000000000002300240025002666
:10015000103A01D378C1FBD8520700D330C100D583
:100160000B60704710B56E2902D101F003F810BD85
:10017000702902D101F03DF910BD662902D104F0C9
:1001800091FF10BD652902D104F08CFF10BD6729D5
:1001900002D104F087FF10BD612902D104F08AFF6B
:1001A00010BD03681B0A01D380231943692902D1BA
:1001B00000F0AAFF10BD642902D100F0A5FF10BD18
:1001C000752902D100F0A0FF10BD6F2902D101F006
:1001D000BBF810BD782902D101F0F8F810BDE9296B
:1001E00002D101F057F810BDE42902D101F052F814
:1001F00010BDF52902D101F04DF810BDEF2902D153
:1002000001F0AEF810BDF82902D101F0EDF810BDF3
:100210000368DB0901D380231943632902D101F06C
:10022000D0FD10BD732902D101F0D3FD10BDE3292B
:1002300002D101F0DDFD10BDF32902D101F0E0FD96
:1002400010BD002010BD1FB501F090FE040000207D
:10025000002104F0ADFE401C60600020002104F08D
:1002600091FEE0601FBD10B510BD01F057FE1146B4
:10027000FFF7E9FF04F004F802F0ECF903B4FFF72C
:10028000F2FF03BC03F0FCF870B505460C461646B9
:1002900002E00FCC0FC5103E102EFAD2082E02D36A
:1002A00003CC03C5083E042E07D301CC01C5361F7D
:1002B00003E021782970641C6D1C761EF9D270BD94
:1002C00006480047FEE7FEE7FEE7FEE7FEE7FEE73B
:1002D00003480449044A054B70470000C100000070
:1002E000280220202816202028062020280620204A
:1002F0000FB41CB5084B06AA7B44694600900598CC
:1003000000F051FF04460020694600F05FFF2046E0
:100310001CBC08BC04B01847D10E000030B5441C0A
:1003200003E00178401C00290DD08107F9D10B4B67
:10033000DD0104C8D11A91432940FAD0001B0A06F6
:1003400003D0C01E30BD001B30BD0A0401D0801E8A
:1003500030BD0902FCD0401E30BD0000010101018A
:10036000F8B5042A2CD3830712D00B78491C0370EC
:10037000401C521E83070BD00B78491C0370401C95
:10038000521E830704D00B78491C0370401C521E78
:100390008B079B0F05D0C91ADF002023DE1B08C97D
:1003A0000AE0FFF771FFF8BD1D4608C9FD401C4675
:1003B000B4402C4310C0121F042AF5D2F308C91A06
:1003C000521EF0D40B78491C0370401C521EEAD414
:1003D0000B78491C0370401C012AE4D40978017091
:1003E000F8BD01E004C0091F0429FBD28B0701D529
:1003F0000280801CC90700D00270704700290BD012
:10040000C30702D00270401C491E022904D383078F
:1004100002D50280801C891EE3E70022EEE700225D
:10042000DFE70000002203098B422CD3030A8B4232
:1004300011D300239C464EE003460B433CD40022DC
:1004400043088B4231D303098B421CD3030A8B42EE
:1004500001D394463FE0C3098B4201D3CB01C01ABC
:10046000524183098B4201D38B01C01A5241430987
:100470008B4201D34B01C01A524103098B4201D375
:100480000B01C01A5241C3088B4201D3CB00C01AE2
:10049000524183088B4201D38B00C01A524143085A
:1004A0008B4201D34B00C01A5241411A00D201467F
:1004B0005241104670475DE0CA0F00D04942031018
:1004C00000D3404253409C46002203098B422DD367
:1004D000030A8B4212D38901FC2212BA030A8B420F
:1004E0000CD3890192118B4208D3890192118B425E
:1004F00004D389013AD0921100E08909C3098B42E3
:1005000001D3CB01C01A524183098B4201D38B0125
:10051000C01A524143098B4201D34B01C01A5241C8
:1005200003098B4201D30B01C01A5241C3088B420D
:1005300001D3CB00C01A524183088B4201D38B00F8
:10054000C01A5241D9D243088B4201D34B00C01A82
:100550005241411A00D201465241104663465B1097
:1005600001D34042002B00D54942704763465B10DF
:1005700000D3404201B50549002802DC491C08406F
:1005800000E00846C046C04602BD00BFFFFFFF7F37
:100590007047704770470000F0B50C46871A9C41C1
:1005A0000D46861A9D4103D2C01BA141D219634159
:1005B0000D0D1F0DC94EEC1BAE435CD07F057F0DAA
:1005C0000026002F51D02D05AC46A943DD020123A2
:1005D000ED0A1B051D4320231B1B24D41746E740AF
:1005E000381871412F46E740CC199D4028183146F4
:1005F00061410C0D27D161449A4013D50023401C62
:10060000594152000ED14008400001224B005205D2
:10061000D34207D305204007C14201D5B04900E0CD
:10062000B0493046F0BD6B00002A00D001229A1874
:100630001F23203C1B1B01D5002302E0E5402818A6
:1006400071410C0DD7D0012424050919C407CD0729
:1006500040084908E40F28436144002CD5D0002409
:10066000401C61419A40D0D1CDE76A05520DD9D1E5
:10067000C90FC907D5E79C4D4E00002801D00124C1
:1006800000E0002434195F00002A01D0012600E0B8
:100690000026BE19954FAC420CD8AE420AD8B442DF
:1006A00006D001256D05EC42BCD010461946F0BDC0
:1006B0009942FCD000203946F0BDF0B51FB40C467D
:1006C0000F46811A9F412546861A9D4106D2012573
:1006D000ED076F40401ABC4152187B41210D1E0DA1
:1006E0008D1BAC467D4D8D437ED075056D0D7CD048
:1006F0000D05AE46AC431B031B0B794D52429D4189
:10070000202366469B1B14D31746F7403818002653
:100710000090744160462F460741E41900989D40BF
:100720002818664116D4714671189A4025D50123C0
:1007300020E093182A466A415200002B00D0521C38
:100740001E23203E9B1B002B61DD3541EE17281830
:100750006641E8D5001876415B1C9A4000D3401CE6
:100760004B05F3181524E34010D3002B52D07146EB
:100770007118D30FC01802D3491C05B0F0BD012376
:10078000DB079A42F9D140084000F6E70122520502
:10079000B21801D1002853D00123CC0ADB029943BF
:1007A000891E002A08D1020C03D0020C0004103963
:1007B00002E00246002020390023550B05D1120229
:1007C0000823550B01D152010D23550C01D1120103
:1007D0001B1DD50C01D192009B1C150D01D152009F
:1007E0005B1C2025EE1A01E02CE022E00546F540D6
:1007F00015439840CA1AE10769181305C918002A59
:10080000BBDA032040070818C10FC9070FE0714683
:100810006118B2E7F10740080843711071444A00BB
:100820000CD001235B059A42A7D2C90FC90700204B
:10083000A3E74905490D26D1002001E00028F4D1A5
:1008400000219AE7284D6600002801D0012100E030
:10085000002171185F00002A01D0012600E0002667
:10086000BE19224FA94210D8AE420ED8B14208D0CC
:1008700001256D05E94206D01946A80241401046FF
:100880007BE79C4201D0214677E70020394674E798
:1008900010B50C465C4005D50124E4076340FFF722
:1008A0000CFF10BDFFF778FE10BD30B40C465C4065
:1008B00004D50124E407634030BC6DE630BCFCE69F
:1008C00070B50124E40761400D465D4002D4FFF796
:1008D00063FE70BD6340FFF7F0FE70BDFF070000D0
:1008E0000000F0FF0000F07F0000E0FF0000F87F54
:1008F000F0B5F94D0C091E092C402E402F468BB047
:10090000A7437DD0B543FCD0002E7AD0002CFCD07C
:100910000D465D40ED0F2543AC1BFF25AD0464196A
:100920000894C502440DC9022143500DDC02044362
:100930000120C00701430443D2020191200C110C95
:1009400000958C46010423468B430A9161460904B5
:10095000E24D8A430991010A7D4449198039097899
:1009600005464D4301266D18F605751B6943C90CF4
:10097000640B891C4C436418B5012C1B250C2E04F8
:10098000B4434C434D43210C691889090591009DDE
:10099000E90701D00121C90704912C460199670894
:1009A000CD072F434C08059DE10B4D432D0C2946E7
:1009B0006646754302950D4645432E46029D7D1BB6
:1009C000B44100950D465D4301942C0C2F040D4657
:1009D0005543AE462D0C3D43029503947546049C49
:1009E0002D04641B049406D2029C039D641C002603
:1009F00075410395029401AC70CC009F7D1B01E012
:100A00003EE162E1B4410904009507910194059922
:100A1000A4086143090C0C464443650BE7040C46EB
:100A200066467443A646640B3C43039502947446A1
:100A3000049DE4042C1B049406D2029C039D641CB8
:100A4000002675410395029401AC70CC009F7D1B7C
:100A5000B44101940C465C430095650FE7000C46D9
:100A60005443A646640F3C43039502947446049D88
:100A7000E4002C1B049406D2029C039D641C0026F7
:100A800075410395029401AC70CC009F7D1BB4416D
:100A9000AE09AF06049DC900AD092F43049DA4060D
:100AA000AD060495079D344369180791059DE10B38
:100AB0004D432D0C29466646754302950D46454328
:100AC0002E46029D7D1BB44100950D465D43019469
:100AD0002C0C2F040D465543AE462D0C3D4302957C
:100AE00003947546049C2D04641B049406D2029C56
:100AF000039D641C002675410395029401AC70CCE3
:100B0000009F7D1BB44101948C050694079C890AC3
:100B1000611800950791019C0599A4086143090C8F
:100B20000D464543680BEF040D46644665436C0B68
:100B30003C43049FED047D1BAC4602D20025641C9F
:100B40006841009E019D371B854108465843019529
:100B50000C46460FC5005443600F28436546E40029
:100B60002C1B02D20025401C6E41019D3F1AB5414D
:100B70002846BD09800628438446A009BF064E02C8
:100B80000699A40676180743079D002068410A9934
:100B9000079019430020099B00906046FF191343FA
:100BA0004041E20F64003A43A4460446D71A8C4100
:100BB000A04203D90120009020463A46C70F94185E
:100BC00040416246D20F2243644664000494009C74
:100BD000BE466400D71AA446044602978C41774665
:100BE000002F01D1A04204D96046401C8446029ADD
:100BF0002046C40FA64694184041049A0546D20FD9
:100C0000224364466400D31A8D417146002901D104
:100C1000A84202D928461A46641C10430122002823
:100C200000D0164361020020079B891904465C41ED
:100C30000223002C02DB491813466441089DCE0AAA
:100C40002D145D194B056705E10A2C050D1908994E
:100C50003E43C9076940002B08D0934006D30022C9
:100C6000761C5141002B01D1760876001C4A002DDC
:100C700043DB154241D0AA433FD030460BB0F0BD14
:100C800006180D464D41174C7642AC411AD39518C3
:100C90001C465C41134A6D42A24113D30122520506
:100CA0004C00D4420AD15C00D4420BD04B4002D558
:100CB00092021143E2E749004908DFE75940C90FB2
:100CC000C90718E000200849D8E7054801420DD1BE
:100CD0000342F7D0F2E700000000FF07684700007A
:100CE0000000F07F0000E0FF0000F87F114859404D
:100CF0000143C01241400020C0E70123089A9B062F
:100D00009A4205DC032252078918C90FC907B5E7C3
:100D1000052252078918074A1143D2125140ADE704
:100D200070B515461C4602460B4628462146FFF77D
:100D3000DFFD70BDFFFFFF7F30B50346CA02400DE7
:100D40001043164D164C0A1502D02043002A06DB2C
:100D5000AA1A002A12DDD040FF2A0BDC30BD520552
:100D6000520D01D140004008AA1A07D4D040404299
:100D7000FF2A01DD002030BD0028FCDD4A00002BE9
:100D800001D0012000E00020101801225205D042BD
:100D9000F0D8C817C043604030BD00001E040000FA
:100DA000000000801F22030C02D10F22000402D099
:100DB000030E03D004E00020014670470002083A09
:100DC000030F01D10001121F830F01D18000921E79
:100DD000002801DB4000521E120551184205C012C6
:100DE000411810467047C10FC90700D04042012288
:100DF00092071143D6E701218907D3E7F0B58B4C61
:100E00000F09254689B0BD437BD01D092646AE4358
:100E1000FAD00E465E402740F60F3E43254071D083
:100E200024012142FBD0FF24AD19A4042D1B0395FE
:100E300001252D05DB02DB0AC9022B43C90A294320
:100E40001E010901040F130F050121431701880B2F
:100E5000820391432D098C46A90B1E438A039543B7
:100E6000B30B9A0396433F09BA0B9403A743029628
:100E70002E467E430497B6464E19D7190C46019666
:100E8000544305977E43371B7646BF1B3601B64653
:100E9000BE0B361900967646BC043719009C01D368
:100EA000641C00946400002F01D001263443029E8C
:100EB000049F754366467E430496760034196E009F
:100EC00034190094029C019E1C196643751BAE46A2
:100ED000069465464519059C05956C43594375462E
:100EE0000891691A0191049E01465143A41B049183
:100EF000611A009C0791E10605D0610901221143A6
:100F000002E072E06EE06109089D00272C0A2D06C0
:100F10006918049D7C412A0A2D066918019D6241C9
:100F2000AC0DAD026D185441079A910D92025519FE
:100F30006141029A644658435443069B059A5A43BA
:100F4000121A131B9A0E9B015B187A41010B0005C4
:100F5000C3185141220A200644195A419A4200D22C
:100F6000491C01204002814203D315230226F64387
:100F700002E014230326F6432020C51AA940174691
:100F8000AF40DA400A4320460399D8400914731849
:100F900019055118039A3843D2075140AC4009D083
:100FA0000122944006D30022401C5141002C01D163
:100FB000400840001E4A934212D301220398920631
:100FC000904207DB0520400709181A480143C01268
:100FD000414004E0032040070818C10FC907002062
:100FE00009B0F0BD0020F107FAE705180C464C41A6
:100FF00011486D42A04115D394181A465A410E4823
:10100000644290410ED301204A004005824209D338
:101010005A00824206D35940C90F084AC907002026
:101020001143DDE700200649DAE700000000FF0772
:10103000FE070000FFFFFF7F0000E0FF0000F07FE1
:101040000000F87F70B5044685690068C10601D5C7
:10105000302600E02026C00707D070BD6268304609
:10106000A1689047206A401C20626D1EF6D570BDB5
:1010700070B5044685690078C00707D170BD626805
:10108000A16820209047206A401C20626D1EF6D582
:1010900070BD09684A0501D540B27047C905FCD545
:1010A00000B2704709684A0501D5C0B27047C9054A
:1010B000FCD580B2704770B50C460546012A05D0B4
:1010C0002878800600D5EA69002302E0012305E0C4
:1010D0005B1C934202D2E05C0028F9D1A869E618B3
:1010E000C01AA861286AC01828622846FFF7AAFF1C
:1010F00004E06A682078A968641C9047B442F8D379
:101100002846FFF7B5FF70BDF7B5002575291068B3
:10111000009914A611D0FFF7BCFF002802DA404264
:1011200011A608E0009909688A0701D50FA602E018
:10113000490704D50EA6012501E0FFF7B3FF009F84
:101140000024243704E000F080FE30313955641C5F
:101150000028F8D12B4632462146009800F057FA75
:10116000FEBD0000000000002D0000002B0000006C
:101170002000000011680268006A530501D508705C
:1011800009E0D30501D5088005E0130602D5C21792
:1011900005C100E0086001207047000001694A1C99
:1011A00002610878704700B58FB002910021059167
:1011B000054901937944039111460490684600F073
:1011C00025F90FB000BD0000E5FFFFFF0A681070B1
:1011D000521C0A6070470000F7B50446154686B0F9
:1011E0002B487844002703C83E460090019111E047
:1011F00007986A467100415A02A800F005FE411C9A
:1012000007D02178890603D5E269391891420ED8B2
:101210003F18761C2078800602D5E069B84206DDCA
:10122000AE42E5DB07987100405A0028E0D1A06982
:10123000C01BA0612046FFF705FF154878445A38C7
:1012400003C800900020019116E041006A4607980B
:10125000415A02A800F0D8FD0590401C0AD0002594
:1012600005E0626802A8A168405D90476D1C059882
:101270008542F6D30498401CB0420490E5DB206A16
:10128000C01920622046FFF7F3FE09B0F0BD000050
:101290005E3F0000F7B5D21D0025D20815A6D2008A
:1012A000F52905CA11D0002A05DA002140429141F2
:1012B00011A60A4608E0009909688B0701D50FA618
:1012C00002E0490701D50EA601251146009F002422
:1012D000243704E000F05EF930323A55641C0246CF
:1012E0000A43F7D12B4632462146009800F08FF989
:1012F000FEBD0000000000002D0000002B000000DB
:101300002000000070B504460021243408E0550791
:10131000D2086D0F303565545D072A43DB08491C40
:1013200015461D43F3D10468002310A2250708D5F4
:1013300020252C400C4304D0C46901230CA2641E58
:10134000C46100F064F970BD10B504462146106810
:10135000FFF7A8FE002302462046FFF7D3FF10BD8B
:10136000D21DD108C9000CC9CCE700000000000064
:1013700030000000F8B50F460188090502D5224C5F
:101380007C4402E0204C7C440E3405460021243588
:1013900008E016071209360FA65D6E541E07324389
:1013A0001B09491C16461E43F3D12246047800232C
:1013B000240705D5702F06D0002901D00223113251
:1013C00000F025F9F8BD01231032F9E770B50446A5
:1013D0000D4621461068FFF765FE002302462946A8
:1013E0002046FFF7C7FF70BDD21DD308DB000CCB32
:1013F000C0E730B403682024126823430360082345
:10140000C36130BC0023B5E7C83D0000F3B5044616
:10141000002081B020622046E1688847002872D011
:10142000252802D06268A168ABE0594F00267F44AE
:101430002046E16888472028054608DB312D06D282
:10144000781920380078002801D00643F0E7B0076B
:1014500001D5042086430020E0610746A0612A2DC3
:101460000AD0284603F086FD002827D0B8000019CE
:10147000303D0090856119E00298BA00121902C847
:10148000916102902046E1688847012F054617D1F7
:10149000E06900281FDA202086431CE000980A211A
:1014A0008069484300994019303888612046E168D6
:1014B0008847054603F05EFD0028EFD1012F0AD0D2
:1014C0002E2D08D12046E168884705462020064396
:1014D0007F1C022FC3DBA069002803DA4042A06111
:1014E00001200643F00701D0102086436C2D0BD05D
:1014F000682D09D04C2D3CD06A2D38D0742D38D0B1
:101500007A2D36D016E040E0E1682F462046884725
:10151000B842054609D16C2F29D001208002E1682C
:10152000064320468847054604E06C2F1DD0FF2067
:1015300001300643002D28D028464138192803D809
:101540000120C00206432035204626602946029A23
:101550001646FEF707FE002810D001280BD0F61D16
:10156000F008C0000830029055E74020E1E78020F5
:10157000D5E70020D3E7361D02964CE7626828467F
:10158000A1689047206A401C44E7206AFEBD000025
:10159000423D00000B4670B50246890780080843AB
:1015A00019469D08141AA941250908070543080989
:1015B0002C194841250A01060D43010A2C19414105
:1015C000200C0D0428430D0C00194D410021401939
:1015D0004D41C00869070843E908840F8D00254381
:1015E000840024184D4124196D41121BAB4107E0C2
:1015F0000925ED432C11521963410024401C61411F
:101600001C460A250026551BB441F1D270BDFFB51A
:1016100004460D4681B0243000902168880604D528
:101620001022E0699143216000E00120A84201DD21
:10163000471B00E000270498A1697A191018081ABE
:10164000A0612078C00602D42046FFF7FBFC0026EC
:1016500008E003986268A168805D9047206A401C9A
:10166000761C206204988642F3DB2078C0060AD5F7
:101670002046FFF7E7FC06E06268A168302090474B
:10168000206A401C206238467F1E0028F4DC07E0F8
:1016900000986268A168405D9047206A401C206203
:1016A00028466D1E0028F3DC2046FFF7E1FC207879
:1016B000000602D5022005B0F0BD0120FBE70000C6
:1016C000FFB50C461E468FB003CA089009914F0023
:1016D0007D0D00D16D1E002108460020C04603216B
:1016E000099A89050840002A03DA82008018400818
:1016F0000840800D01280A9002DD0020C0430A90B6
:10170000089807430DD0F048F049281848430714BB
:10171000189800281DD07542291E1DDD0A984242E6
:101720001BE01898012802D00020302104E000209E
:10173000F24305E02154401CB042FBDB304600225E
:10174000189B002121540F998B600A60486013B0E8
:10175000F0BDBD1B6D1CDFE70A9A002900DA694263
:101760000BA800F04BFC0BAB07CB03AB07C30899EE
:10177000099800F0AFFC6B4607C30146D44809182E
:10178000002D00910BDDD24903980A9A4942401876
:10179000002303A90390684600F00CFF08E00399BA
:1017A0000A9A0023081803A90390684600F0ACFECB
:1017B0006B4607C30004000C03D00020C04341085F
:1017C00000E01046189A002A03D000220092154625
:1017D0001EE0751E05D4FFF7DDFE303262556D1E2A
:1017E000F9D501220843079602D000227F1C04E0AD
:1017F0002078302801D100227F1E002A069787D04A
:101800001EE0112D07DAFFF7C5FE303262556D1C60
:1018100002460A43F5D1084303D00098002819D0A6
:101820000EE00021681E05E0235C625C63542254D4
:10183000401E491C8142F7DBA81B401E07950690FD
:10184000079A18990020A0540F98079B069A816068
:101850000CC07CE711260020189059E7D21DF0B586
:101860000D460446D10893B0C90003C90C900D91F0
:1018700003F052FB02460D98C00F01D02D2007E067
:101880002068810701D52B2002E04007C00F4001EE
:10189000032A0F9001D0072A05DB0346294620467C
:1018A00000F068FB0EE12078800601D5E76900E0D2
:1018B00006272846652D04D0662814D0672D69D1E7
:1018C0002DE00020112F009001DB112300E07B1C94
:1018D0000CAA03A910A8FFF7F3FE1199002610988F
:1018E0007D1C0E9142E001203B460CAAC0070B90E4
:1018F0000120009003A910A8FFF7E2FE119D1298A5
:101900001099002600280E9501D1781C0D18781B1F
:1019100002D446427D1C761EE81B00903AE0012F5F
:1019200000DA01270020112F009001DD112300E0D3
:101930003B460CAA03A910A8FFF7C2FE11993D4629
:10194000109800260E91217809070BD40E99A94210
:1019500000DA0D4603A9012D04DD4A19203AD27F91
:10196000302A06D0B84201DA011D04DA01210091C3
:101970000FE06D1EEFE7002802DC86192D1A03E048
:10198000411CA94200DD0D46801B401C0090012037
:10199000C0070B902078000705D40098A84202DB0E
:1019A0000020C043009069460020C8720B980121B6
:1019B00002AF0337C907884225D0022010902B20A0
:1019C00011900B9800280BDA40420B902D201190BB
:1019D00006E00B9800F039FA30317F1E0B90397019
:1019E0001099481E00291090F3DC0B980028F0D1C4
:1019F00011987F1E38702088000501D5452000E031
:101A000065207F1E387001A8C01BC01D0B900F9869
:101A1000002800D0012041190098C01709180B9820
:101A20000818A169081A401EA0612078C00602D4D7
:101A30002046FFF707FB0F98002805D06268A168D1
:101A40009047206A401C20622078C00625D5204699
:101A5000FFF7F8FA21E0002E07DB0E98B04204DD14
:101A600003A86268805DA16802E06268A168302016
:101A70009047206A761C401C20620098401E002877
:101A800000900AD100F072FAC06862680168405C98
:101A9000A1689047206A401C206228466D1E0028DD
:101AA000D9DC07E062683878A1687F1C9047206A1B
:101AB000401C20620B99481E00290B90F2DC204646
:101AC000FFF7D6FA032042E601FCFFFF104D0000AD
:101AD000E1DFFFFFD21DF0B504460D46D0088DB002
:101AE000C000466807683146384603F015FA0246DA
:101AF000F00F01D02D2307E02068810701D52B23AB
:101B000002E04007C00F43016846002B037001D07C
:101B1000012000E00020032A0A9001D0072A04DBFC
:101B20002946204600F026FA2DE12078800601D4CF
:101B30000D2500E0E5697000400D0D2D01904BDA98
:101B4000300D00210B9008460020C0460321890576
:101B50000840002E05DA82008018C20F10184010CD
:101B600008408015012801DD0020C043A9000023A2
:101B7000182906D39C460A460123183A1B07D3406E
:101B800003E001221205CA4094460C31202902D3F9
:101B90003A46203900E032468A40002802DD002A19
:101BA00006D119E0002817D10121C9078A4213D3B1
:101BB000194663467F185E41002806D10120C00700
:101BC000824202D1084687439E430B98310D8142E1
:101BD00002D00198401C01902088000502D571496F
:101BE000794402E06F49794419396B460A983022EA
:101BF0001A540A980A7C401C1A54401C0A900198F6
:101C0000002801DC302000E031201872019A012008
:101C1000002A02D0644BD21804E072003A4302D08A
:101C2000614A521C0192002D02DC2278120703D572
:101C30006A462E20507202200022864694460CE00E
:101C400032033601120F6D1E8B5C02AA13546246DA
:101C5000521C401C9446052A01DA002DF0DC0022BB
:101C600002AE08E03B0F3F01CB5C521C6D1E3354AB
:101C7000401C082A01DA002DF4DC23689A0601D5FD
:101C800011E0401E704504DD3218203AD27F302A20
:101C9000F7D0002807DD3218203AD27F2E2A02D151
:101CA0001A0700D4401E002D03DD3E223254401C92
:101CB0006D1E497C31540199401C002906DA2D2102
:101CC000471C315401984042019003E02B21471CEE
:101CD000315401987D21C900884206DBFEF7ACFB38
:101CE0003030F0557F1C019101E0642808DB019839
:101CF0006421FEF7A1FB3030F0557F1C019101E01B
:101D00000A2806DB01980A21FEF796FB3030F055D1
:101D10007F1C01980A21FEF78FFB3031F1550A989C
:101D2000A1697F1C7A191018081AA0612078C006D2
:101D300002D42046FFF786F9216A6E460A980818F1
:101D4000206204E062683078A168761C90470A98A7
:101D5000401E0A90401CF5D12078C00602D52046CE
:101D6000FFF770F902AE09E03078761C3E280DD0FE
:101D70006268A1689047206A401C20627F1EF3D2EF
:101D80002046FFF775F90DB00320F0BD206A401919
:101D9000206203E06268A168302090476D1EEDD399
:101DA000F8E70000B435000001FCFFFF10B54369FF
:101DB000002B02D0C046C04601E0FFF77CF90120AD
:101DC00010BD1278014624310A7000224A700122A7
:101DD000ECE711680022D243E8E710B54369002B15
:101DE00002D0C046C04601E0FFF7F6F9012010BD61
:101DF00012880146243182840022C2840122ECE749
:101E000011680022D243E8E7F8B516460C460546AD
:101E100000F0A4F80368FF200230C05C012807D05E
:101E2000FF2C0FD8185D00280CD001202C70F8BDB5
:101E3000FF333246214608331868C7182846002366
:101E4000B847F8BD0020C043F8BD01468008081A15
:101E500002091018020A1018020C1018C00882009B
:101E600012185200891A01E0401C0A390A29FBD2D3
:101E700070470000F8B5264C4E00069DA6420AD8D1
:101E8000A64201D1002806D15E00A64203D8A64290
:101E90000AD1002A08D00D242404254233D0294633
:101EA000002000F0DFFBF8BD0C461C4311D4994222
:101EB00007D0C81A02D3EFF30080F8BDEFF300801B
:101EC000F8BD801A02D3EFF30080F8BDEFF3008075
:101ED000F8BD09242407E5008B4207D0581A02D325
:101EE000EFF3008006E0EFF3008007E0101A03D361
:101EF000EFF30080A04303E0EFF30080A04328430A
:101F000080F30088F8BD009500F0C4FBF8BD000028
:101F10000000E0FF00487047D00020207546FFF722
:101F2000F9FFAE46050069465346C008C000854625
:101F300018B020B5FEF7CCF960BCB64600260027E5
:101F4000C0C5C0C5C0C5C0C5C0C5C0C5C0C5C0C569
:101F5000403D490849008D467047000010B500F02B
:101F600005F8001D10BD00BF493000000048704753
:101F7000F0002020F8B51F46044601230068DB026C
:101F8000032601461840072A05DB002801D017A5C3
:101F900006E017A504E0002801D016A500E016A56C
:101FA000102081432160A069C01E002FA06101D0D4
:101FB000401EA0612046FFF745F8002F09D03846A3
:101FC0006268A1689047206A401C2062C01C2062A1
:101FD00006E0206AFAE762682878A1686D1C9047DD
:101FE000761EF8D22046FFF743F8F8BD4E414E006A
:101FF0006E616E00494E4600696E6600F7B5164682
:102000008AB0334878446C4603467C33C06F5A68C4
:102010009B680DC42E487844763003AC0DC80DC4BF
:102020003720C001081837211B30FEF705FA054696
:102030000C46803D1B3C02D56442012000E000209C
:102040000027099010E0E0070CD00C2020497843CD
:10205000794432464C3941186846012300F054FA5D
:102060006B4607C364107F1C002CECD1184F7F44D3
:102070002E3F16E0E80712D02001C0190EC80691C5
:10208000089307920068F04201D1981908903246EF
:10209000012306A903A800F037FA03AB07C36D10AC
:1020A000641C002DE6D10998002806D03246694606
:1020B000012303A800F07EFA05E0012332466946B9
:1020C00003A800F021FA0A9B07C30DB0F0BD000081
:1020D000A4310000034640000A4610B5400D0BD065
:1020E0000121C9070F24A40200191C03640821431D
:1020F000540D2143D20207E000210120F2E7D40F62
:10210000490021435200401E0029F8DADB0FDB07AB
:10211000184310BDFFB50D46144685B04868516898
:1021200002F0E2FE00910190A868A16802F0DCFED6
:1021300002910390A868616802F0D6FE029A121814
:102140008242029201D2012000E00020019A0B1885
:10215000D2180028019202D08A4202D903E08A42B2
:1021600001D2012000E00020009908180090686862
:10217000A16802F0B9FE029A12188242029201D2BC
:10218000012000E00020019A0B18D21800280192CB
:1021900002D08A4202D903E08A4201D2012000E043
:1021A0000020009908180090286821684000490024
:1021B000400849084018FA49471814E001994000BE
:1021C000C90F08430090019802994000C90F0843C5
:1021D0000190029803994000C90F084302900398A8
:1021E00040007F1E039000980028E7DA0898002836
:1021F00001D0EC4E00E00026B74201DA012000E0F9
:102200000020002804902AD0F71BF806C00E15D035
:10221000029B2021091A039A8B401A430392029AC7
:10222000019BC2408B401A430292019A009BC2401C
:102230008B4000991A430192C14000917B110DD04F
:102240006F460320C11A03D500218200B95003E074
:102250008A008100BA587A50401EF3D53746039859
:102260000299002800D0012001430898029100281B
:1022700008460CD0002800D001200199019A490598
:1022800008430121D20AC902D202019200E00121D1
:102290000E9B0122D207012B02D0002B03D013E0AA
:1022A000002807D120E0904204D890420CD1019B35
:1022B0000B4209D0019B5918019105D10099491C85
:1022C000009101D17F1C009200280DD010210846FA
:1022D0000020C0460498002806D00F98002803D09C
:1022E000082108460020C04628682168019B009A02
:1022F0004840C10F0598C90739430EC009B0F0BD69
:10230000FFB587B0099A08980899536892684068A1
:10231000896896460022039317469446089A1268E5
:102320005300099A5B081268520052089A1A9E4B91
:10233000D4180A9A002A01D0352200E040220692E1
:102340000022012315460492DB07059324E0002DAB
:1023500005D175460346039E4D1BB34109D375460F
:102360006646039B491B049D9841059B7519AC4625
:102370005F4163463B4308D0059B049EDD0776081A
:102380002E435B080496059301E0521E641EC50FA0
:10239000ED0749184041521C069B9A42D7DB002D9D
:1023A00004D17546039A6B1A824101D203200CE0D6
:1023B000039A0B466B404240134303D0014303D0C2
:1023C000012002E0022000E000206146019100218E
:1023D000009702910A99002905D061464002014305
:1023E000704B019102E08007002302909C4201DAC9
:1023F000012000E0002007003AD01A1BD006C00ED2
:1024000015D0029D2021019C091AC5408C4025430E
:10241000029C8C4000D001242543019C0295009D24
:10242000C4408D4000992C430194C1400091541147
:102430001DD06D460221002202290CD10320001B71
:1024400007E0002804DB8600AE59002E00D00122F0
:10245000401C0328F5DB081B02D588002A5004E045
:102460008000285810438A00A850491EE3D51C4616
:102470000A98002802980CD0002800D00120019969
:10248000019A490508430121D20AC902D2020192E8
:1024900000E00121109B0122D207012B02D0002B6A
:1024A00003D013E0002807D11FE0904204D89042E7
:1024B0000CD1019B0B4209D0019B5918019105D108
:1024C0000099491C009101D1641C009200280CD095
:1024D000102108460020C046002F06D01198002881
:1024E00003D0082108460020C04608980999019A9F
:1024F000009B006809684840C10F0798C90721433D
:1025000082600AC00BB0F0BD00B585B001930092A7
:102510000A460146002302A8FFF7FCFD02A807C8EF
:1025200005B000BDFFB50A461F4685B00799019367
:1025300001230091014602A8FFF7ECFD02990398E0
:10254000049ECA0F4900D20700920F224908920246
:102550008C1A0021002800DB0C46450013486D084A
:10256000844214D3079A002A04DA441E0026104D30
:10257000F64302E004460D460E46102108460020B0
:10258000C046002F03D0042108460020C046200585
:10259000E90A0843009908436905F20A1143ADE6C8
:1025A00002C0FFFF013C0000FF3F0000FF070000EA
:1025B000FFFFFF7F00B585B0019300920A460146F8
:1025C000002302A8FFF79CFE02A807C8A8E7FFB5F2
:1025D0000A461F4685B007990193012300910146E1
:1025E00002A8FFF78DFE02990398049ECA0F4900C6
:1025F000D20700920F22490892028C1A002100286B
:1026000000DB0C46450011486D08844214D3079A3C
:10261000002A04DA441E00260D4DF64302E004466B
:102620000D460E46102108460020C046002F03D05C
:10263000042108460020C0462005E90A0843009905
:1026400008436905F20A114358E60000FF0700003D
:10265000FFFFFF7F10B50446C046C0462046FDF789
:102660000DFE10BDC80212D54803400F002804D04B
:10267000C803C043012188407047EFF30080000188
:10268000000903210907084380F3008870470020F0
:102690007047000010B500200249029A00F048F887
:1026A00010BD00000000F87F024670B50A43920793
:1026B0002AD11E4DEE0104C808C9541B944334406E
:1026C00017D0D0B2D9B2401A2106014310D190B22E
:1026D00099B2401A210401430AD110021902000ADA
:1026E000090A401A2102014302D1100E190E401AA4
:1026F00070BD9A42DFD010BA19BA884201D90120C0
:1027000070BD0020C04370BD02780B78401C491C8E
:10271000002A09D09A4207D102780B78401C491C44
:10272000002A01D09A42EFD0D01A70BD01010101F8
:1027300010B50C461107090F092904D00A290AD03F
:1027400008290CD104E011460820FFF78BFF06E0B2
:10275000510606D501E0510601D50120C0072146EA
:1027600010BDD10607D501010909CC084907000EA3
:102770000006044309E0410F20024907000A014313
:10278000200E00061D22D14101430846E7E7000064
:1027900081B0009000990120C2026648885001B0C3
:1027A0007047C04681B000900099674A67488850DA
:1027B00001B0704783B00290019100920298019994
:1027C000084300990843A149086003B07047C04618
:1027D0009E480068072108407047C04682B00190BB
:1027E0000199881E001F00BFFCD2009002B0704704
:1027F00084B00390029101920398006800900098C1
:1028000001998843009000980299019A1140084369
:102810000399086004B0704784B00390029101925C
:1028200003980068009000980199884300900098F0
:102830000299019A114008430399086004B0704757
:1028400084B0039002910192039800680090009870
:1028500001998843009000980299019A1140084319
:102860000399086004B0704784B00390029101920C
:1028700003980068009000980199884300900098A0
:102880000299019A114008430399086004B0704707
:1028900081B0009000990120C2022648885001B002
:1028A0007047C04681B0009000990120C2022148C3
:1028B000885001B07047C04610B584B0069C0390A4
:1028C00002910192009302980199084300990843EC
:1028D000069908430349084303998900074A885029
:1028E00004B010BD8100040081B000900098810008
:1028F000024A0020885001B07047C0460480424020
:1029000081B000900099104A1048885001B070477B
:1029100081B0009000990C4A0C48885001B0704773
:1029200081B0009000990120C2020248885001B095
:102930007047C0460100002681B000900099024A0D
:102940000248885001B0704704080000030000B13D
:1029500080B584B0039002910192039902980143DB
:10296000019801433F200204CE48FFF77DFF04B0E9
:1029700080BDC04680B586B0059000F087F8FFE7BF
:1029800000F0B8F8012189030840884201D0FFE730
:10299000F6E70598417E2948039001220192FFF74E
:1029A00063FF05982021415C254802900322FFF730
:1029B0005BFFFFF70DFF01460198049100210422FF
:1029C000FFF7F8FE02980599496A09681D4A1160E7
:1029D0000599496A49681C4A116004991B4A1160AB
:1029E0000599C9694906490C7F221202FFF73CFF8D
:1029F0000398059A11680907090B53681B039BB2DA
:102A0000C91893681B071B0DC918D36819431369AC
:102A1000194353691943127E11430D4AFFF724FFEE
:102A200000F05CF8FFE700F065F80121490208407A
:102A3000884201D0FFE7F6E706B080BD20010B40D9
:102A400024010B4028010B402C010B400013404097
:102A500072FF0F0070490868012212079043086056
:102A60007047C0465F49086801229043086070477C
:102A70005C4908680122904308607047594908681A
:102A800001221202904308607047C0465549086809
:102A900001221202904308607047C0465E490868F0
:102AA00001221207104308607047C046A149086818
:102AB00001221203104308607047C04602490868AB
:102AC00010221043086070473C010B4045490868DC
:102AD00001221202104308607047C046414908684D
:102AE00001221202104308607047C0460348006884
:102AF0007047C046014800687047C04604020B405A
:102B000080B5FFF7F3FF012149060840400E80BD64
:102B1000014800687047C04650010B4081B0014633
:102B20006846017000780249086001B07047C046ED
:102B300008030B4080B582B0019001991F20020666
:102B40005848FFF769FE02B080BDC04680B582B02C
:102B5000014601A8018001880F2002027548FFF795
:102B60005BFE02B080BDC04680B582B0014601A8C0
:102B70000170007801030F2002034A48FFF74CFE62
:102B800002B080BD80B586B005AB0193188004917A
:102B900003A802900270FFF76BFF0198008800F015
:102BA00023F8049800F02EF802980E4A11680123C9
:102BB000194311600078C00700280DD0FFE7FFF728
:102BC0006DFFFFE7FFF796FF0121090208408842E9
:102BD00001D0FFE7F6E702E0FFF73CFFFFE706B0B2
:102BE00080BDC04608010B4080B582B0014601A8F7
:102BF00001800188032002030748FFF735FE02B079
:102C000080BDC04680B582B0019001990248FF2284
:102C1000FFF72AFE02B080BD10010B4081B00146D3
:102C20006846017000780249086001B07047C046EC
:102C30000C010B4080B582B0019001990878C00763
:102C4000C00D89784118FF2204320B48FFF70CFEB3
:102C50000A490B48086001984078C007002806D050
:102C6000FFE705490868102210430860FFE70349A1
:102C70000448086002B080BD14010B4014030B40EF
:102C8000010000910200009180B582B0014601A8C8
:102C900001800188012042020248FFF7BDFD02B019
:102CA00080BDC04638010B4080B582B0014601A806
:102CB0000170017802480322FFF7AEFD02B080BD2B
:102CC00000010B4080B582B0014601A80170017877
:102CD00018483022FFF7A0FD02B080BD014902482C
:102CE000086070472C030B400100000E80B582B0D5
:102CF000014601A801700078FFF790FFFFE7FFF79A
:102D0000F9FE012149050840884201D0FFE7F6E7B6
:102D1000084908680122120410430860FFE7FFF722
:102D2000E9FE10210840102801D0FFE7F7E702B0C4
:102D300080BDC04604010B400949086805221043C4
:102D40000860704781B00090054904200860009831
:102D5000401E0449086004490020086001B0704723
:102D600010E000E014E000E018E000E081B0009026
:102D700000990120C2028748885001B07047C046C0
:102D800081B0009000998C4A4148885001B070474A
:102D900082B00190009100980199024A885002B0D7
:102DA0007047C0464810000081B000900099112083
:102DB0000202885801239843885001B0704781B0BF
:102DC000009000991120020288580123184388506E
:102DD00001B0704781B0009000990120C2026D4897
:102DE000885001B07047C04681B0009000988121A2
:102DF00049014058C0B201B07047000080B582B0B0
:102E0000019000910198FFF7CFFF0198112109026D
:102E10004018009A11889378194392881143084A00
:102E2000FFF70EFD01982D494018009A9179D3794A
:102E30001943127A11437E22FFF702FD02B080BDD2
:102E40001867020081B0009000984749405801215E
:102E5000084001B07047C04681B0009000984249D8
:102E6000405804210840800801B0704781B00090AC
:102E7000009802494058C0B201B0704724110000C8
:102E800081B0009000994C4A0148885001B07047C9
:102E9000030000B180B584B00390029101920398C1
:102EA0000B49401802990B4AFFF7A2FC03980A4904
:102EB000401801993F22FFF79BFC0399074A8818A5
:102EC000895801221140FFF793FC04B080BDC04631
:102ED00010110000FFFF0000141100000411000099
:102EE00082B001900091009800780199044A8850BE
:102EF00000984078019901221203885002B070476F
:102F00000810000080B582B0019000910198112155
:102F10000902401800990322D203FFF769FC02B0AE
:102F200080BD82B0019068460170007801998922C5
:102F30005201885002B0704782B001900091009910
:102F400008784A78104349880843019911221202EF
:102F50008850009948688968090408430199024A21
:102F6000885002B07047C0460811000081B0009040
:102F700000990120C2020748885001B07047C0463E
:102F800081B0009000990120C2020248885001B02F
:102F90007047C0460100002681B000900099064AA3
:102FA0000648885001B0704781B000900099024AED
:102FB0000248885001B0704704080000010000B1C9
:102FC00080B584B003A90020087002A908703B48AE
:102FD000006881214901405801900198002830D0B3
:102FE000FFE70198411E03A8017000780F280EDC4E
:102FF000FFE7324800683249405803A909780907B9
:10300000C90EC8400321084002A908700EE02B48F1
:1030100000689D214901405803A909780907C90E94
:10302000C8400321084002A90870FFE703A8007800
:1030300083002448C25802A800782349C958904701
:103040003AE01E48406881214901405801900198AA
:10305000002830D0FFE70198411E03A801700078D6
:103060000F280EDCFFE7154840681549405803A9B2
:1030700009780907C90EC8400321084002A9087051
:103080000EE00E4840689D214901405803A9097887
:103090000907C90EC8400321084002A90870FFE7CC
:1030A00003A8007883000748C25802A800780649A0
:1030B000C9589047FFE7FFE704B080BD800020209B
:1030C00090130000000020206001202080B582B015
:1030D0000920FFF709FC0A20FFF706FC0720FFF78D
:1030E00003FC0820FFF700FC0021009101200204EE
:1030F000C3042720FFF7E0FB02B080BD80B586B097
:1031000005A9002001900870FFF714FD0198012225
:1031100011059204FFF71CFCFFF7E0FDFFE7FFF746
:10312000EFFC002801D1FFE7F9E7FFF7F1FC03907E
:103130000120010542040020FFF70AFCFFF7CEFD45
:10314000FFE7FFF7DDFC002801D1FFE7F9E7FFF714
:10315000DFFC049003997D20C00048430499FDF7EB
:1031600061F902900298FDF746FE00220D4B01F036
:10317000F4FE00280FD1FFE70298FDF73CFE002285
:10318000D243094B01F0DEFE002804D1FFE705A978
:1031900001200870FFE705A800780121084006B06B
:1031A00080BDC04600289F40FF579F4080B582B039
:1031B00000200090FFF7B2FC012001904002FFF7D1
:1031C000C5FC0098FFF770FDFFF74CFCFFF756FCBD
:1031D000019A032000030A21FFF7D4FC1648FFF7E9
:1031E000C9FBFFE7FFF78AFF00280FD1FFE7FFF7D2
:1031F00045FCFFF76BFCFFE7FFF778FC0121490274
:103200000840884201D0FFE7F6E7EBE71020FFF720
:1032100059FD0920FFF7A8FC0848FFF70BFDFFF751
:1032200045FCFFF74BFC01204002FFF72DFD00207D
:10323000FFF75CFD02B080BD445200004052000028
:1032400080B55020FFF77EFDFFF776FD80BD0000C2
:1032500080B502491848FFF76FFE80BD6C52000030
:1032600080B500F009F8FFF731FFFFF79FFFFFF788
:10327000EFFFFFF7E5FF80BD80B584B00C480190FB
:10328000FFF746FB0B480290FFF742FB0A4803900A
:10329000FFF78AFE0198FFF705FB0298FFF702FB94
:1032A0000398FFF76DFE1020FFF798FA04B080BD79
:1032B00000000A4000200A400000034080B51B487F
:1032C00002681B4801680020904780BD80B5174800
:1032D0004268174841680020904780BD80B5134878
:1032E0008268134881680020904780BD80B50F48F0
:1032F00082690F4881690020904780BD80B50B48E6
:10330000C2680B48C1680020904780BD80B507485F
:103310000269074801690020904780BD80B50348D5
:103320004269034841690020904780BDF401202094
:103330008800202080B582B01148FFF755FD014676
:1033400001910B280BD0FFE701980C2810D1FFE763
:1033500048480268484801680220904709E045480B
:103360000268454801680120904700F043FA00E0F8
:10337000FFE704480168ED48FFF70AFD02B080BD91
:10338000008010403090104080B582B0E848FFF7D0
:103390002BFD014601910B280BD0FFE701980C286B
:1033A00011D1FFE733484268334841680220904713
:1033B0000AE030484268304841680120904706489A
:1033C0000068804700E0FFE704480168D848FFF73D
:1033D000DFFC02B080BDC046C40020203010104089
:1033E00080B582B0D348FFF7FFFC014601910B285E
:1033F0000BD0FFE701980C280ED1FFE71D4882682B
:103400001D4881680220904707E01A4882681A48E0
:1034100081680120904700E0FFE703480168C54844
:10342000FFF7B6FC02B080BD3030104080B582B0EE
:10343000C148FFF7D9FC014601910B280BD0FFE7EB
:1034400001980C280ED1FFE70A48C2680A48C168F3
:103450000220904707E00748C2680748C16801207A
:10346000904700E0FFE705480168B348FFF790FC8C
:1034700002B080BDA4002020100220203010504057
:1034800081B0009001B0704710B58AB009AC2070CF
:1034900008A8017007A90A7006A90B700078102807
:1034A0000AD1FFE708A8017806A8007801400120AA
:1034B0001029029014D0FFE708A801780020002905
:1034C00001900AD1FFE708A8007806A9097808400A
:1034D0001038411E88410190FFE701980290FFE7F4
:1034E0000298012108403A49E72200F02FF909A883
:1034F0000178490905AA117000781F21084004A924
:10350000087007A800780390039832490843039095
:1035100006A80078401E009013284BD80098810020
:1035200001A040588746C046793500007F3500002D
:10353000813500008D350000B5350000B53500003F
:10354000B5350000B5350000B5350000B5350000D3
:10355000B5350000B5350000B5350000B5350000C3
:10356000B5350000B5350000993500009B350000E9
:10357000A7350000A9350000002003901AE019E0EB
:103580000398012109040843039013E003980121E3
:103590004904084303900DE00CE00398012149061B
:1035A0000843039006E005E003980121490608431B
:1035B0000390FFE7039805A90978490104AA127846
:1035C0008A180549895C8900044A88500AB010BDF0
:1035D000C353000080000400785200000480424081
:1035E00080B582B0019000F00BF8FFF739FE00F0D3
:1035F00045FE01F05BFB00F0E1FD02B080BD000084
:1036000080B592B040480090FFF77AF93F480190AA
:10361000FFF776F90098FFF73BF90198FFF738F9C3
:103620003B480290FFF7ACFB3A480390FFF7A8FB3A
:103630000298FFF79BFB0398FFF798FB364804902E
:10364000FFF79EFB35480590FFF79AFB344806903C
:10365000FFF796FB33480790FFF792FB324808903C
:10366000FFF78EFB0498FFF781FB0598FFF77EFBC1
:103670000698FFF77BFB0798FFF778FB0898FFF7A2
:1036800075FB2A480990FFF7FBFB29480A90FFF7D2
:10369000F7FB28480B90FFF7F3FB27480C90FFF748
:1036A000EFFB0998FFF796FB0A98FFF793FB0B983F
:1036B000FFF790FB0C98FFF78DFB20480D90FFF76C
:1036C0003BF91F480E90FFF737F90D98FFF728F9DF
:1036D0000E98FFF725F9012080070F90FFF762F899
:1036E00018481090FFF75EF80F98FFF751F8109800
:1036F000FFF74EF814481190FFF74EFC1198FFF7B2
:1037000035FC12B080BDC04600000A4000200A40CF
:10371000000086400020864000400840008086402F
:1037200000A0864000000940000087400080104053
:103730000000104000201040000050400080464033
:1037400000A04640002000400000034080B584B047
:1037500003AB187002910192FFE703A800780028DC
:1037600005D1FFE710480078002801D1FFE718E0F5
:103770000E480078002802D0FFE7FFE7FEE70B497C
:103780000878401C087000F069FD00F0EBF9FFE7D5
:103790000299019A0648002300F03EF800F00AF86A
:1037A000F6E704B080BDC046C800202030012020CC
:1037B0007553000082B00020019000900190FFE757
:1037C0000198FF2813D8FFE700200090FFE700983A
:1037D000000C002806D1FFE700BFFFE70098401C5F
:1037E0000090F4E7FFE70198401C0190E8E702B081
:1037F0007047000080B582B005490191002001F0BA
:1038000017FB01990348012200F006FA02B080BDBF
:10381000480120204901202070B5FFB0A5B0A39039
:10382000A291A192A0939EA9002008809DA9088042
:103830009CA9099108809BA908809AA90880A29850
:10384000FCF76CFD09990880BF480088002804D067
:10385000FFE7BD4800698047FFE7BC4800780028C3
:1038600000D16DE1B8480088002800D145E1B64894
:103870000890C3689AAA1188481C1080A39A002057
:103880009847A2989F90A298FCF748FD08999CAA97
:10389000108048888979FCF7C5FD9BA90880FFE75F
:1038A0009F98411C9F9100214056002801D0FFE7BE
:1038B000F6E79DA900200880FFE79DA80188002069
:1038C000012907900DDCFFE7002105919CA8415ECE
:1038D00001200029069001DA0598069006980790C5
:1038E000FFE70798C00700281AD0FFE79F98401EFF
:1038F0009F909F98002140562F2806D0FFE79F9861
:10390000002140565C2805D1FFE79D98401C9DA9E9
:103910000880FFE7FFE79C98401E9CA90880CCE741
:1039200000219CA8405E002809D4FFE79F98401C16
:103930009F909F9A88495AA8FCF7DAFC11E09DA84D
:103940000088002806D1FFE79F9A84495AA8FCF70F
:10395000CFFC05E09F9A80495AA8FCF7C9FCFFE715
:10396000FFE79EA900200880FFE79EA8008804903A
:103970005AA8FCF7D3FC00229BA9895EFCF752FDF4
:1039800001460498491C884245D2FFE79DA90020C2
:103990000880FFE79DA8008800229BA9895E8842D5
:1039A00024DAFFE75AA8FCF7B9FC9DA909889EAA6A
:1039B000138800249BAA125F5A438918884201D2B7
:1039C000FFE713E09DA908889EAA138800249BAAFC
:1039D000125F5A4382185AA8805C0A884AA9885400
:1039E000FFE79D98401C9DA90880D3E79DA801880A
:1039F0004AAA002050545449CB68CC799A994D1C5E
:103A00009AAE3580614389B29847FFE79E98401C83
:103A10009EA90880A9E7A19A51495AA80390FCF7EA
:103A200067FC039A4848C368C1799A98441C9AADC8
:103A30002C80484381B200209847A09800285BD092
:103A4000FFE79EA900200880FFE79EA8008802905B
:103A5000A098FCF763FC00229BA9895EFCF7E2FCBE
:103A600001460298491C884245D2FFE79DA90020E3
:103A70000880FFE79DA8008800229BA9895E8842F4
:103A800024DAFFE7A098FCF749FC9DA909889EAAC3
:103A9000138800249BAA125F5A438918884201D2D6
:103AA000FFE713E0A0989DA90A889EAB1C8800251B
:103AB0009BAB5B5F6343D218805C0A884AA9885439
:103AC000FFE79D98401C9DA90880D3E79DA8018829
:103AD0004AAA002050541C49CB68CC799A994D1CB5
:103AE0009AAE3580614389B29847FFE79E98401CA3
:103AF0009EA90880A9E7FFE721E0012001020AA8AA
:103B0000FCF78BFC10488168A3988847A098002890
:103B100009D0FFE7A29AA19BA09800900D490AA89E
:103B2000FCF7E6FB06E0A29AA19B09490AA8FCF76C
:103B3000DFFBFFE7044881680AA88847FFE7FFE743
:103B40007FB025B070BDC046340120202002202067
:103B50003253000047530000825300008B53000093
:103B600060530000704782B00190009102B070472E
:103B700010B585B004900391039A049902918B7952
:103B8000C8790002C318087A0404487A00060019AC
:103B9000C0188018020E4A72020C0A728871000A5C
:103BA000C871FFE7049901918A7CC87C00028218E1
:103BB000087D0304487D0006C01880188B79CA79F7
:103BC0001202D2180B7A1B04497A0906C9188918FF
:103BD00088421FD8FFE7049900918A7CC87C0002C4
:103BE0008218087D0304487D0006C01882188B796E
:103BF000C8790002C318087A0404487A000600193C
:103C0000C018801A020E4A72020C0A728871000AE9
:103C1000C871C7E705B010BD10B592B011901091F2
:103C20000F921198411E8841E449B022FFF78EFDA2
:103C30000EA9002008700D90FFE71098002804D10D
:103C4000FFE70EA903200870B3E111980078052161
:103C5000084204D0FFE70EA904200870A9E11199D9
:103C600008780422104308700F9811998B7BCA7B47
:103C70001202D2180B7C1B04497C0906C91889184A
:103C8000884200D98BE111990C918A7CC87C000292
:103C90008218087D0304487D0006C01880188B79BF
:103CA000CA791202D2180B7A1B04497A0906C9187C
:103CB0008918401A0D900F980D99884200D8E5E0B8
:103CC000119840780B90002809D0FFE70B98012845
:103CD00049D0FFE70B98022800D18DE0D5E011997B
:103CE00009918A78C8780002821808790304487913
:103CF0000006C01880188B79CA791202D2180B7A84
:103D00001B04497A0906C9188918401810990D9A98
:103D1000FCF726FB11980D99FFF72AFF11990A91DC
:103D20008A78C87800028218087903044879000666
:103D3000C01880188B79CA791202D2180B7A1B042A
:103D4000497A0906C9188918401810990D9BC91895
:103D50000F9AD21AFCF704FB11980F990D9A891A41
:103D6000FFF706FF91E0119907918A78C878000261
:103D700082180879030448790006C01880188B79E6
:103D8000CA791202D2180B7A1B04497A0906C9189B
:103D900089184900401810990D9A5200FCF7E0FA72
:103DA00011980D99FFF7E4FE119908918A78C87867
:103DB000000282180879030448790006C0188018A8
:103DC0008B79CA791202D2180B7A1B04497A090638
:103DD000C91889184900401810990D9B5A00891874
:103DE0000F9AD21A5200FCF7BBFA11980F990D9A4C
:103DF000891AFFF7BDFE48E0119905918A78C878C5
:103E0000000282180879030448790006C018801857
:103E10008B79CA791202D2180B7A1B04497A0906E7
:103E2000C91889188900401810990D9A9200FCF75A
:103E300097FA11980D99FFF79BFE119906918A78D0
:103E4000C878000282180879030448790006C0186F
:103E500080188B79CA791202D2180B7A1B04497A1E
:103E60000906C91889188900401810990D9B9A00F5
:103E700089180F9AD21A9200FCF706FA11980F9936
:103E80000D9A891AFFF774FEFFE772E011984078E7
:103E90000490002808D0FFE70498012824D0FFE709
:103EA0000498022842D063E0119903918A78C87877
:103EB000000282180879030448790006C0188018A7
:103EC0008B79CA791202D2180B7A1B04497A090637
:103ED000C9188918401810990F9AFCF741FA1198DF
:103EE0000F99FFF745FE43E0119902918A78C8784F
:103EF000000282180879030448790006C018801867
:103F00008B79CA791202D2180B7A1B04497A0906F6
:103F1000C91889184900401810990F9A5200FCF7E7
:103F20001FFA11980F99FFF723FE21E011990191D3
:103F30008A78C87800028218087903044879000654
:103F4000C01880188B79CA791202D2180B7A1B0418
:103F5000497A0906C91889188900401810990F9ADA
:103F60009200FCF7FDF911980F99FFF701FEFFE7AA
:103F7000FFE70F9A119900918B7BC87B0002C31851
:103F8000087C0404487C00060019C018801A020E40
:103F90004A74020C0A748873000AC87303E00EA9FD
:103FA00005200870FFE711990878FB22104008707F
:103FB000FFE70EA8007812B010BDC046985300006D
:103FC00083B002A908700878420901A802700A7833
:103FD0001F210A4069460A70007882009D48805877
:103FE0002722D20180580978C8400121084003B037
:103FF0007047C04610B58AB009AC207008A801709F
:1040000007A90A7006A90B70007810280AD1FFE7EB
:1040100008A8017806A80078014001201029029024
:1040200014D0FFE708A801780020002901900AD1E8
:10403000FFE708A8007806A9097808401038411E53
:1040400088410190FFE701980290FFE70298012163
:1040500008405249B522FFF779FB09A801784909C0
:1040600005AA117000781F21084004A908700020DB
:10407000039003984A490843039006A80078401E1D
:10408000009013284FD80098810001A0405887461F
:10409000E1400000E7400000F1400000FB4000006C
:1040A0002741000027410000274100002741000070
:1040B0002741000027410000274100002741000060
:1040C0002741000027410000274100002741000050
:1040D000054100000F410000194100001B41000094
:1040E000002003901FE003980121084303901AE089
:1040F00003982E490843039015E003982A49084382
:10410000039010E003980121084303900BE003980B
:1041100024490843039006E005E00398012149067D
:1041200008430390FFE7039805A90978490104AA09
:1041300012788A181E49895C89001E4A885008A88E
:104140000078102812D1FFE704A8017801208840E8
:1041500005A909788A003F498958174A885009A853
:10416000007807A9097800F043F8FFE706A800786F
:10417000032806D1FFE709A80078002100F038F8ED
:10418000FFE706A80078042806D1FFE709A8007811
:10419000012100F02DF8FFE70AB010BDC353000065
:1041A0008000040001000002010002000100010083
:1041B0007852000004804240D012000080B584B0E4
:1041C0001021019100220292112303931046FFF760
:1041D00011FF0199029A039B0120FFF70BFF019940
:1041E000029A039B0E20FFF705FF04B080BD00007C
:1041F00084B00A4603A9087002A802700A7852091E
:1042000001AB1A7009781F2211406A4611700078BC
:1042100000280ED0FFE7684600780123834001A8FC
:10422000007881000B4841580B4A88581843885041
:104230000EE0684600780123834001A800788100E1
:104240000448415895204201885818438850FFE798
:1042500004B07047800020209012000006480068DB
:10426000002802D1FFE772B6FFE703480168491C46
:10427000016000687047C046E001202070470000E0
:10428000F0B5BDB000203C904A48FFF7A9F94B209B
:104290000C90C10103200E90474A484B00F038FDB6
:1042A0000C98800000F004FD0E98454900F0ECFDEC
:1042B00000F090F801463BA80F9001700278414948
:1042C00010A80D90FCF714F80D990E9800F0DCFD85
:1042D0000F98007868280FD0FFE73BA80078702877
:1042E0000AD0FFE73A49032000F0CEFDFFE77D202A
:1042F000C00000F0DDFCFAE73349032000F0C4FD04
:10430000FFE758483B2137AA06920E2300F038F900
:10431000069800F0AEF80146069836AA079211807A
:10432000801C00F0A6F80146069835AA0892118074
:10433000001D00F09EF80146069834AA0A921180EA
:10434000801D00F096F80146069833AA0992118064
:10435000083000F08EF80146069832AC21800A3011
:1043600000F087F80146069831AD29800C3000F046
:1043700080F8079A089B099907460A9830AE37805B
:104380000027D25FDB5FC05FC95FE45FED5FF65F70
:10439000049603950294019100900C4910A80B908B
:1043A000FBF7A6FF0B99032000F06EFD642000F0E0
:1043B0007FFCA6E700B4C4042220030023200300EE
:1043C000CF520000F05200001953000002530000C9
:1043D000B452000080B586B00020009021480390C0
:1043E00068210A22012300F04FF8642000F060FCED
:1043F0000398752100F08CF8014604A8017000783C
:10440000682809D0FFE704A80078702804D0FFE7E7
:10441000049805A9087021E0124801906B2101223F
:1044200000F018FC01981921072200F013FC0198F4
:104430001A21032200F00EFC01981B210022029297
:1044400000F008FC0198029A1C2100F003FC642093
:1044500000F02EFC049805A90870FFE705A8007875
:1044600006B080BDE401202082B00190009102B02E
:10447000704781B000900099087800024978401890
:1044800000B201B070470000B0B58AB004460E9883
:10449000099408AC2170079206A901910B7005A937
:1044A000029108700998411E8841F3490091164A0B
:1044B000FFF74CF900990198029A00781278801A57
:1044C000421E9041114AFFF741F901980299027882
:1044D000099B1A600978099A51600899099A117222
:1044E0000799099AD1600078102103910122049262
:1044F0001123FFF77FFD02980399049A0078122395
:10450000FFF778FD0AB0B0BDDE020000DF02000058
:1045100080B586B0059004A8019001700598411EF1
:104520008841D549FF22E832FFF710F903A902912B
:1045300000200870059800F033FA0598017A4906C2
:10454000090E00F09BF901990598097800F096F999
:10455000059800F025FA0598017A4900491CC9B26E
:1045600000F08CF90598012100F054F802990870C8
:10457000059800F081FA0298007806B080BDC04628
:1045800010B586B0059004A80190017003920293C3
:104590000598411E8841B84900911D4AFFF7D6F899
:1045A00000990398421E904101225202FFF7CEF873
:1045B000059800F0F5F90598017A4906090E00F012
:1045C0005DF901990598097800F058F9059800F00F
:1045D000E7F90598017A4900491CC9B200F04EF983
:1045E000FFE70298411E029100280BD0FFE70598D3
:1045F00002994A42514100F00DF803994A1C039276
:104600000870EEE7059800F037FA06B010BDC04616
:10461000FF01000080B58AB0099008A801700998D0
:10462000411E8841DB49C322FFF790F807A900200B
:10463000087006A908200870099800681F22014622
:10464000114001238B4040098100D34841589520F7
:1046500042018858184388500998C0680590FFE7C0
:104660000598411E0591002801D0FFE7F8E7099859
:1046700040681F220146114001238B404009810000
:10468000C5484158C54A885818438850FFE706AACC
:104690001078411E1170002842D0FFE70998006889
:1046A0001F220146114001238B4040098100F04840
:1046B0004158952042018858184388500998C0688D
:1046C0000490FFE70498411E0491002801D0FFE701
:1046D000F8E7099800681F220146114001238B402A
:1046E00040098100E2484158E24A885818438850FE
:1046F0000998C0680390FFE70398411E03910028C2
:1047000001D0FFE7F8E70798400001900998007989
:10471000FFF756FC01460198084307A90870B6E761
:10472000099800681F220146114001238B4040096F
:104730008100CF484158952042018858184388503D
:104740000998C0680290FFE70298411E0291002874
:1047500001D0FFE7F8E7099808A9097800F004F804
:1047600007A800780AB080BD70B586B0059004A88F
:10477000019001700598411E8841F3496A22FEF7B5
:10478000E5FF0198059909681F230A461A4001248C
:10479000944049098A00ED498A5895214B01D15826
:1047A0002143D1500078002810D0FFE705984068D9
:1047B0001F220146114001238B4040098100E3483C
:1047C0004158E34A88581843885010E005984068DB
:1047D0001F220146114001238B4040098100DB4824
:1047E000415895204201885818438850FFE70598A2
:1047F000C0680390FFE70398411E0391002801D091
:10480000FFE7F8E7059800681F22014611400123E1
:104810008B4040098100CD484158CD4A8858184303
:1048200088500598C0680290FFE70298411E0291E7
:10483000002801D0FFE7F8E7059800681F2401462B
:10484000214001231E468E4040098100BF48425846
:1048500095214D01515931435151059949680A46F5
:1048600022409340490989004158F94A8858184321
:10487000885006B070BDC046EE53000080B586B0CB
:10488000059004A801700598411E8841EE49A822B0
:10489000FEF75CFF03A980200870FFE703A80078FB
:1048A00000286FD0FFE704A8007803A90978084220
:1048B00010D0FFE7059840681F22014611400123F0
:1048C0008B4040098100E1484158E14A885818432B
:1048D000885010E0059840681F22014611400123CE
:1048E0008B4040098100D9484158952042018858A1
:1048F00018438850FFE703A9087840080870059816
:10490000C06840080290FFE70298411E029100280B
:1049100001D0FFE7F8E7059800681F220146114023
:1049200001238B4040098100C8484158C84A885833
:10493000184388500598C0680190FFE70198411E10
:104940000191002801D0FFE7F8E7059800681F22D1
:104950000146114001238B4040098100BB4841586A
:10496000952042018858184388500598C06840082F
:104970000090FFE70098411E0091002801D0FFE75A
:10498000F8E78BE7059800F0E5F8401E411E8841E6
:1049900006B080BDEE530000800020209012000081
:1049A00070B584B003900398411E8841BE494122EE
:1049B000FEF7CCFE039800681F250146294001231D
:1049C0001E468E4040098100A0484458A04AA15884
:1049D0003143A150039949680C462C40A340490932
:1049E000890041588858184388500398C06802903D
:1049F000FFE70298411E0291002801D0FFE7F8E787
:104A0000039840681F220146114001238B40400952
:104A100081008E484158952042018858184388509B
:104A20000398C0680190FFE70198411E019100289A
:104A300001D0FFE7F8E7039800681F220146114004
:104A400001238B4040098100804841589520420154
:104A50008858184388500398C0680090FFE7009872
:104A6000411E0091002801D0FFE7F8E704B070BDB7
:104A7000800020209012000070B584B0039003984D
:104A8000411E884188495522FEF760FE0398406820
:104A90001F250146294001231E468E404009810002
:104AA0006A48445895214A01A1583143A1500399BD
:104AB00009680C462C40A340490989004158885890
:104AC000184388500398C0680290FFE70298411E7F
:104AD0000291002801D0FFE7F8E7039800681F2241
:104AE0000146114001238B4040098100574841583D
:104AF000574A8858184388500398C0680190FFE7C8
:104B00000198411E0191002801D0FFE7F8E70398C2
:104B100040681F220146114001238B40400981005B
:104B20004A4841584A4A8858184388500398C068F0
:104B30000090FFE70098411E0091002801D0FFE798
:104B4000F8E704B070BDC046EE530000800020209E
:104B50009012000070B586B005900598411E8841FE
:104B600051498622FEF7F2FD04A90020087005983D
:104B700000681F240146214001231E468E40400943
:104B800081003248425895214D01515931435151CC
:104B9000059949680A4622409340490989004158CD
:104BA0002B4A8858184388500598C0680390FFE73F
:104BB0000398411E0391002801D0FFE7F8E705980C
:104BC00000681F220146114001238B4040098100EB
:104BD0001E4841581E4A8858184388500598C06896
:104BE0000290FFE70298411E0291002801D0FFE7E2
:104BF000F8E705980079FFF7E3F9002804D0FFE70C
:104C000004A901200870FFE7059800681F220146EB
:104C1000114001238B40400981000C4841589520E8
:104C200042018858184388500598C0680190FFE7F2
:104C30000198411E0191002801D0FFE7F8E704A880
:104C4000007806B070BDC046EE5300008000202002
:104C50009012000080B586B0059004A80190017004
:104C600003A8029002700598411E88410E49FF2258
:104C70003A32FEF76BFD0598FFF792FE0598017A30
:104C80004906090EFFF7FAFD019905980978FFF723
:104C9000F5FD029905980978FFF7F0FD0598FFF7F3
:104CA000EBFE06B080BDC046EE530000704700002A
:104CB00081B000900F49104808601049002008603A
:104CC0000F4905200860FFE70098411E0091002869
:104CD0000ED0FFE7FFE70A480068C003002801D4B0
:104CE000FFE7F8E706490868012210430860EBE790
:104CF00001B0704714E000E08038010018E000E0E7
:104D000010E000E0704782B00190009102B070475F
:104D100010B592B011AC0794207010910F920E93C1
:104D20000F9801040A0FC0B210211323FEF7ACFB49
:104D30000E9801040A0FC0B2002105910423FEF76A
:104D4000A3FB0798007881006648069040583249D6
:104D5000FEF7C6F8069807990978890040582F4948
:104D6000FEF74CF806980799097889004058012108
:104D7000C903FEF7C7F8079801782948294A08921D
:104D80000329099001D0089809900998019010987A
:104D9000FCF731F8024605980B460199FBF7A8FD90
:104DA000059AFF239B05FCF729F80D910C900C98B0
:104DB0000D99FBF7C1FF01460BA8049001800C99E7
:104DC00002910D9903910088FCF70DF802460298B4
:104DD0000B460399FBF769FD059A134BFCF70EF898
:104DE000059A124BFBF754FDFBF7A6FF0499079BAE
:104DF000044606980AAA14801B789B00C0580988AC
:104E00001288FEF747F807990698097889004058F4
:104E1000FDF7D5FF12B010BD485400004A54000001
:104E2000D0129341D0128341000050400000E03F77
:104E300080B584B003AA0092107002910298411EBE
:104E4000884127499E22FEF781FC009801AA002193
:104E500011700078810023484058FDF7FDFF0028BD
:104E60000DD1FFE703A8007881001E484058FDF7E8
:104E7000FDFF0299087001A901200870FFE701A851
:104E8000007804B080BDC04680B582B001AA107021
:104E900000910098411E884111496C22FEF756FC92
:104EA000FFE700980078002818D0FFE7FFE701A887
:104EB000007881000B484058FDF7C4FF002801D05E
:104EC000FFE7F4E701A80078810006484058009900
:104ED0004A1C00920978FEF724F8E2E702B080BD90
:104EE0001D540000B4002020F8B5040C8BB22646F7
:104EF00082B25E43104658430D0C370C3604002135
:104F00008019164679416E43370C360480192646BF
:104F100079416E438919F8BD4900CA020243100065
:104F200000D004204A0D01D001221043044A490D4B
:104F3000914201D102210843012800D10520704788
:104F4000FF07000010B500F049F8EFF30080800083
:104F500001D5012010BD002010BD10B500F070F883
:104F6000EFF300804000800F012801D0012010BD28
:104F7000002010BD30380A2801D2012070470020DF
:104F80007047000010B500290AD00878002807D023
:104F900005487844FDF788FB002801D0002010BDAB
:104FA0000248784410BD0000E6040000DE04000062
:104FB00010B500290AD00878002807D005487844A1
:104FC000FDF772FB002801D0002010BD0248784494
:104FD00010BD0000D6040000CE04000070B501250D
:104FE0002D050C001C4310D4EC4206D4AC420AD46C
:104FF000994200D070BD904270BDE94217D4EB4297
:1050000015D4994270BD894270BDEC4206D5AC42C0
:10501000F9D58B4200D070BD824270BD6D004C004E
:10502000EC4204D25C00EC4201D28B4270BD034CD6
:1050300030B4FCF71FFF30BC70BD00BF1900130473
:1050400070B501252D050C001C4310D4EC4206D48C
:10505000AC420AD4994200D070BD904270BDE94282
:1050600017D4EB4215D4994270BD894270BDEC4211
:1050700006D5AC42F9D58B4200D070BD824270BDDE
:105080006D004C00EC4204D25C00EC4201D28B4239
:1050900070BD034C30B4FCF7EDFE30BC70BD00BFFA
:1050A0001900160403B402487844844603BC6047E0
:1050B000B1C7FFFF03B402487844844603BC60478D
:1050C00019CAFFFF80807F7E7D7C7B7A7978777636
:1050D00076757473727171706F6E6E6D6C6C6B6AD5
:1050E0006A69686867666665646463636261616073
:1050F000605F5F5E5E5D5D5C5C5B5B5A5A595958F0
:105100005857575656555555545453535252525159
:10511000515050504F4F4F4E4E4D4D4D4C4C4C4BAF
:105120004B4B4A4A4A4949494848484747474746F6
:105130004646454545444444444343434342424232
:105140004241414100000000000000003031323394
:1051500034353637383941424344454640305800AB
:1051600030313233343536373839616263646566DD
:105170004030780004000008000000000000000239
:1051800000010000103031323334353637383961A0
:105190006263646566787000303132333435363797
:1051A000383941424344454658500000024000000F
:1051B000000000A00000000005400000000000C842
:1051C000000000000C4000000000409C00000000B7
:1051D000194000000020BCBE000000003440000068
:1051E000BFC91B8E00000004B5400000504BCFD05B
:1051F0006607E2CF010000006C4100003E8251AA28
:10520000DFEEA73401000000D9420000DCB5A0E2C7
:105210003A301F97FFFFFFFFB4450000FD25A0C8EF
:10522000E9A3C14FFFFFFFFFFF3F00000000008028
:1052300000000000FF3F00000000008000000000B0
:105240000100030003000000000000000000000057
:10525000000000000000000010000000000100003D
:1052600007000000010000002C00C4410000000005
:1052700000000000000000000001060708090A0DF8
:10528000121314152122232425262728292D2E34F4
:1052900035363A3B020304050B0C0E0F101116179E
:1052A00018191A1B1C1D1E1F202A2B2C2F303132BF
:1052B000333738394552524F523A204D50553630D7
:1052C0003530204E4F5420464F554E440D0A000DA8
:1052D0000A4D53504D304733353037204D505536F9
:1052E000303530204843303520544553540D0A00A2
:1052F00057484F5F414D5F493D3078253032580D5A
:105300000A0025642C25642C25642C25642C256436
:105310002C25642C25640D0A0061782C61792C61A0
:105320007A2C74656D702C67782C67792C677A0DF0
:105330000A000D0A66696C65202573206C696E652C
:105340002025642E0D0A000D0A66696C6520257300
:10535000206C696E652025643A2025732E0D0A00A5
:105360006C696E653A202564004C6F67206D65732B
:105370007361676500417373657274206572726F43
:10538000720066696C653A2025730066696C653A3F
:10539000206D646B2F2573002E2E2F2E2E2F6C69FF
:1053A000627261726965732F7A665F636F6D6D6F8C
:1053B0006E2F7A665F636F6D6D6F6E5F6669666F85
:1053C0002E63002E2E2F2E2E2F6C69627261726951
:1053D00065732F7A665F6472697665722F7A665F8D
:1053E0006472697665725F6770696F2E63002E2E36
:1053F0002F2E2E2F6C69627261726965732F7A6627
:105400005F6472697665722F7A665F647269766529
:10541000725F736F66745F6969632E63002E2E2F4F
:105420002E2E2F6C69627261726965732F7A665FC6
:105430006472697665722F7A665F647269766572E6
:105440005F756172742E6300080000001800000090
:105450000030000000000000A855000000002020DF
:10546000D00000002001000078560000D00020206D
:1054700058150000480100001C0000004300000017
:10548000F8FFFFFF0C0000000E0000000F000000FE
:105490002E0000001001000043000000F8FFFFFF95
:1054A0000040404040404040404041414141414037
:1054B00040404040404040404040404040404040EC
:1054C000400502020202020202020202020202027B
:1054D0000220202020202020202020020202020280
:1054E00002029090909090901010101010101010D8
:1054F00010101010101010101010101002020202E4
:105500000202888888888888080808080808080827
:105510000808080808080808080808080202020223
:10552000400000000000000000000000000000003B
:10553000000000000000000000000000000000006B
:10554000000000000000000000000000000000005B
:10555000000000000000000000000000000000004B
:10556000000000000000000000000000000000003B
:10557000000000000000000000000000000000002B
:10558000000000000000000000000000000000001B
:10559000000000000000000000000000000000000B
:1055A0000000000000000000673B0000673B0000B7
:1055B000673B0000673B0000673B0000673B000063
:1055C000673B0000673B0000673B0000673B000053
:1055D000673B0000673B0000673B0000673B000043
:1055E000673B0000673B0000673B0000673B000033
:1055F000673B0000673B0000673B0000673B000023
:10560000673B0000673B0000673B0000673B000012
:10561000673B0000673B0000673B0000673B000002
:10562000673B0000673B000000000A4000200A4082
:1056300069440000694400006944000069440000B6
:10564000694400006944000069440000074D0000FF
:10565000074D0000074D0000074D0000008010407E
:10566000000010400020104000005040054D000098
:08567000010000000000000031
:04000005000000C136
:00000001FF
