:020000040000FA
:10000000A0202020C1020000C5020000C70200009D
:1000100000000000000000000000000000000000E0
:10002000000000000000000000000000C902000005
:100030000000000000000000CB020000CD02000024
:10004000CF020000FD320000593600007137000079
:10005000CF020000CF020000CF020000CF0200005C
:1000600000000000CF020000CF02000000000000EE
:1000700000000000C5360000213700007136000086
:100080001936000039360000F93500000936000045
:100090004936000029360000000000000000000082
:1000A000CF020000CF0200000000000000000000AE
:1000B000CF02000000000000CF020000CF020000CD
:1000C00000F002F800F0D1F812A030C80838241867
:1000D0002D18AC4201D100F0C8F80FCCA246AB46B7
:1000E0000CA730CF2D1B083F3F197C427F1E544484
:1000F0002D090426F441641EAC4201D300F0B5F88A
:100100000126334200D0FB1A3343984754465D46DC
:10011000DFE70000A4A40000C4A400000000000069
:10012000103A02D378C878C1FAD8520701D330C840
:1001300030C101D504680C60704700000000000069
:100140007047000000000000002300240025002666
:10015000103A01D378C1FBD8520700D330C100D583
:100160000B60704710B56E2902D101F04BF910BD3C
:10017000702902D101F085FA10BD662902D109F07B
:1001800083FD10BD652902D109F07EFD10BD6729F0
:1001900002D109F079FD10BD612902D109F07CFD81
:1001A00010BD03681B0A01D380231943692902D1BA
:1001B00001F0F2F810BD642902D101F0EDF810BD94
:1001C000752902D101F0E8F810BD6F2902D101F0C4
:1001D00003FA10BD782902D101F040FA10BDE929D7
:1001E00002D101F09FF910BDE42902D101F09AF982
:1001F00010BDF52902D101F095F910BDEF2902D10A
:1002000001F0F6F910BDF82902D101F035FA10BD60
:100210000368DB0901D380231943632902D101F06C
:1002200018FF10BD732902D101F01BFF10BDE32997
:1002300002D101F025FF10BDF32902D101F028FF02
:1002400010BD002010BD1FB502F00AF80400002008
:10025000002109F01BFB401C60600020002109F018
:10026000FFFAE0601FBD10B510BD01F0D1FF1146CF
:10027000FFF7E9FF06F04EFC02F066FB03B4FFF760
:10028000F2FF03BC03F0D0FA70B505460C461646E3
:1002900002E00FCC0FC5103E102EFAD2082E02D36A
:1002A00003CC03C5083E042E07D301CC01C5361F7D
:1002B00003E021782970641C6D1C761EF9D270BD94
:1002C00006480047FEE7FEE7FEE7FEE7FEE7FEE73B
:1002D00003480449044A054B70470000C100000070
:1002E000A00C2020A0202020A0102020A010202042
:1002F0000FB41CB5084B06AA7B44694600900598CC
:1003000001F099F804460020694601F0A7F820465C
:100310001CBC08BC04B018476111000030B5441C77
:1003200003E00178401C00290DD08107F9D10B4B67
:10033000DD0104C8D11A91432940FAD0001B0A06F6
:1003400003D0C01E30BD001B30BD0A0401D0801E8A
:1003500030BD0902FCD0401E30BD0000010101018A
:10036000F8B5042A2CD3830712D00B78491C0370EC
:10037000401C521E83070BD00B78491C0370401C95
:10038000521E830704D00B78491C0370401C521E78
:100390008B079B0F05D0C91ADF002023DE1B08C97D
:1003A0000AE0FFF771FFF8BD1D4608C9FD401C4675
:1003B000B4402C4310C0121F042AF5D2F308C91A06
:1003C000521EF0D40B78491C0370401C521EEAD414
:1003D0000B78491C0370401C012AE4D40978017091
:1003E000F8BD01E004C0091F0429FBD28B0701D529
:1003F0000280801CC90700D00270704700290BD012
:10040000C30702D00270401C491E022904D383078F
:1004100002D50280801C891EE3E70022EEE700225D
:10042000DFE70000002203098B422CD3030A8B4232
:1004300011D300239C464EE003460B433CD40022DC
:1004400043088B4231D303098B421CD3030A8B42EE
:1004500001D394463FE0C3098B4201D3CB01C01ABC
:10046000524183098B4201D38B01C01A5241430987
:100470008B4201D34B01C01A524103098B4201D375
:100480000B01C01A5241C3088B4201D3CB00C01AE2
:10049000524183088B4201D38B00C01A524143085A
:1004A0008B4201D34B00C01A5241411A00D201467F
:1004B0005241104670475DE0CA0F00D04942031018
:1004C00000D3404253409C46002203098B422DD367
:1004D000030A8B4212D38901FC2212BA030A8B420F
:1004E0000CD3890192118B4208D3890192118B425E
:1004F00004D389013AD0921100E08909C3098B42E3
:1005000001D3CB01C01A524183098B4201D38B0125
:10051000C01A524143098B4201D34B01C01A5241C8
:1005200003098B4201D30B01C01A5241C3088B420D
:1005300001D3CB00C01A524183088B4201D38B00F8
:10054000C01A5241D9D243088B4201D34B00C01A82
:100550005241411A00D201465241104663465B1097
:1005600001D34042002B00D54942704763465B10DF
:1005700000D3404201B50549002802DC491C08406F
:1005800000E00846C046C04602BD00BFFFFFFF7F37
:100590007047704770470000F0B50C46871A9C41C1
:1005A0000D46861A9D4103D2C01BA141D219634159
:1005B0000D0D1F0DC94EEC1BAE435CD07F057F0DAA
:1005C0000026002F51D02D05AC46A943DD020123A2
:1005D000ED0A1B051D4320231B1B24D41746E740AF
:1005E000381871412F46E740CC199D4028183146F4
:1005F00061410C0D27D161449A4013D50023401C62
:10060000594152000ED14008400001224B005205D2
:10061000D34207D305204007C14201D5B04900E0CD
:10062000B0493046F0BD6B00002A00D001229A1874
:100630001F23203C1B1B01D5002302E0E5402818A6
:1006400071410C0DD7D0012424050919C407CD0729
:1006500040084908E40F28436144002CD5D0002409
:10066000401C61419A40D0D1CDE76A05520DD9D1E5
:10067000C90FC907D5E79C4D4E00002801D00124C1
:1006800000E0002434195F00002A01D0012600E0B8
:100690000026BE19954FAC420CD8AE420AD8B442DF
:1006A00006D001256D05EC42BCD010461946F0BDC0
:1006B0009942FCD000203946F0BDF0B51FB40C467D
:1006C0000F46811A9F412546861A9D4106D2012573
:1006D000ED076F40401ABC4152187B41210D1E0DA1
:1006E0008D1BAC467D4D8D437ED075056D0D7CD048
:1006F0000D05AE46AC431B031B0B794D52429D4189
:10070000202366469B1B14D31746F7403818002653
:100710000090744160462F460741E41900989D40BF
:100720002818664116D4714671189A4025D50123C0
:1007300020E093182A466A415200002B00D0521C38
:100740001E23203E9B1B002B61DD3541EE17281830
:100750006641E8D5001876415B1C9A4000D3401CE6
:100760004B05F3181524E34010D3002B52D07146EB
:100770007118D30FC01802D3491C05B0F0BD012376
:10078000DB079A42F9D140084000F6E70122520502
:10079000B21801D1002853D00123CC0ADB029943BF
:1007A000891E002A08D1020C03D0020C0004103963
:1007B00002E00246002020390023550B05D1120229
:1007C0000823550B01D152010D23550C01D1120103
:1007D0001B1DD50C01D192009B1C150D01D152009F
:1007E0005B1C2025EE1A01E02CE022E00546F540D6
:1007F00015439840CA1AE10769181305C918002A59
:10080000BBDA032040070818C10FC9070FE0714683
:100810006118B2E7F10740080843711071444A00BB
:100820000CD001235B059A42A7D2C90FC90700204B
:10083000A3E74905490D26D1002001E00028F4D1A5
:1008400000219AE7284D6600002801D0012100E030
:10085000002171185F00002A01D0012600E0002667
:10086000BE19224FA94210D8AE420ED8B14208D0CC
:1008700001256D05E94206D01946A80241401046FF
:100880007BE79C4201D0214677E70020394674E798
:1008900010B50C465C4005D50124E4076340FFF722
:1008A0000CFF10BDFFF778FE10BD30B40C465C4065
:1008B00004D50124E407634030BC6DE630BCFCE69F
:1008C00070B50124E40761400D465D4002D4FFF796
:1008D00063FE70BD6340FFF7F0FE70BDFF070000D0
:1008E0000000F0FF0000F07F0000E0FF0000F87F54
:1008F000F0B5F94D0C091E092C402E402F468BB047
:10090000A7437DD0B543FCD0002E7AD0002CFCD07C
:100910000D465D40ED0F2543AC1BFF25AD0464196A
:100920000894C502440DC9022143500DDC02044362
:100930000120C00701430443D2020191200C110C95
:1009400000958C46010423468B430A9161460904B5
:10095000E24D8A430991010A7D4449198039097899
:1009600005464D4301266D18F605751B6943C90CF4
:10097000640B891C4C436418B5012C1B250C2E04F8
:10098000B4434C434D43210C691889090591009DDE
:10099000E90701D00121C90704912C460199670894
:1009A000CD072F434C08059DE10B4D432D0C2946E7
:1009B0006646754302950D4645432E46029D7D1BB6
:1009C000B44100950D465D4301942C0C2F040D4657
:1009D0005543AE462D0C3D43029503947546049C49
:1009E0002D04641B049406D2029C039D641C002603
:1009F00075410395029401AC70CC009F7D1B01E012
:100A00003EE162E1B4410904009507910194059922
:100A1000A4086143090C0C464443650BE7040C46EB
:100A200066467443A646640B3C43039502947446A1
:100A3000049DE4042C1B049406D2029C039D641CB8
:100A4000002675410395029401AC70CC009F7D1B7C
:100A5000B44101940C465C430095650FE7000C46D9
:100A60005443A646640F3C43039502947446049D88
:100A7000E4002C1B049406D2029C039D641C0026F7
:100A800075410395029401AC70CC009F7D1BB4416D
:100A9000AE09AF06049DC900AD092F43049DA4060D
:100AA000AD060495079D344369180791059DE10B38
:100AB0004D432D0C29466646754302950D46454328
:100AC0002E46029D7D1BB44100950D465D43019469
:100AD0002C0C2F040D465543AE462D0C3D4302957C
:100AE00003947546049C2D04641B049406D2029C56
:100AF000039D641C002675410395029401AC70CCE3
:100B0000009F7D1BB44101948C050694079C890AC3
:100B1000611800950791019C0599A4086143090C8F
:100B20000D464543680BEF040D46644665436C0B68
:100B30003C43049FED047D1BAC4602D20025641C9F
:100B40006841009E019D371B854108465843019529
:100B50000C46460FC5005443600F28436546E40029
:100B60002C1B02D20025401C6E41019D3F1AB5414D
:100B70002846BD09800628438446A009BF064E02C8
:100B80000699A40676180743079D002068410A9934
:100B9000079019430020099B00906046FF191343FA
:100BA0004041E20F64003A43A4460446D71A8C4100
:100BB000A04203D90120009020463A46C70F94185E
:100BC00040416246D20F2243644664000494009C74
:100BD000BE466400D71AA446044602978C41774665
:100BE000002F01D1A04204D96046401C8446029ADD
:100BF0002046C40FA64694184041049A0546D20FD9
:100C0000224364466400D31A8D417146002901D104
:100C1000A84202D928461A46641C10430122002823
:100C200000D0164361020020079B891904465C41ED
:100C30000223002C02DB491813466441089DCE0AAA
:100C40002D145D194B056705E10A2C050D1908994E
:100C50003E43C9076940002B08D0934006D30022C9
:100C6000761C5141002B01D1760876001C4A002DDC
:100C700043DB154241D0AA433FD030460BB0F0BD14
:100C800006180D464D41174C7642AC411AD39518C3
:100C90001C465C41134A6D42A24113D30122520506
:100CA0004C00D4420AD15C00D4420BD04B4002D558
:100CB00092021143E2E749004908DFE75940C90FB2
:100CC000C90718E000200849D8E7054801420DD1BE
:100CD0000342F7D0F2E700000000FF074C9300004A
:100CE0000000F07F0000E0FF0000F87F114859404D
:100CF0000143C01241400020C0E70123089A9B062F
:100D00009A4205DC032252078918C90FC907B5E7C3
:100D1000052252078918074A1143D2125140ADE704
:100D200070B515461C4602460B4628462146FFF77D
:100D3000DFFD70BDFFFFFF7F30B50346CA02400DE7
:100D40001043164D164C0A1502D02043002A06DB2C
:100D5000AA1A002A12DDD040FF2A0BDC30BD520552
:100D6000520D01D140004008AA1A07D4D040404299
:100D7000FF2A01DD002030BD0028FCDD4A00002BE9
:100D800001D0012000E00020101801225205D042BD
:100D9000F0D8C817C043604030BD00001E040000FA
:100DA000000000801F22030C02D10F22000402D099
:100DB000030E03D004E00020014670470002083A09
:100DC000030F01D10001121F830F01D18000921E79
:100DD000002801DB4000521E120551184205C012C6
:100DE000411810467047C10FC90700D04042012288
:100DF00092071143D6E701218907D3E7F0B58B4C61
:100E00000F09254689B0BD437BD01D092646AE4358
:100E1000FAD00E465E402740F60F3E43254071D083
:100E200024012142FBD0FF24AD19A4042D1B0395FE
:100E300001252D05DB02DB0AC9022B43C90A294320
:100E40001E010901040F130F050121431701880B2F
:100E5000820391432D098C46A90B1E438A039543B7
:100E6000B30B9A0396433F09BA0B9403A743029628
:100E70002E467E430497B6464E19D7190C46019666
:100E8000544305977E43371B7646BF1B3601B64653
:100E9000BE0B361900967646BC043719009C01D368
:100EA000641C00946400002F01D001263443029E8C
:100EB000049F754366467E430496760034196E009F
:100EC00034190094029C019E1C196643751BAE46A2
:100ED000069465464519059C05956C43594375462E
:100EE0000891691A0191049E01465143A41B049183
:100EF000611A009C0791E10605D0610901221143A6
:100F000002E072E06EE06109089D00272C0A2D06C0
:100F10006918049D7C412A0A2D066918019D6241C9
:100F2000AC0DAD026D185441079A910D92025519FE
:100F30006141029A644658435443069B059A5A43BA
:100F4000121A131B9A0E9B015B187A41010B0005C4
:100F5000C3185141220A200644195A419A4200D22C
:100F6000491C01204002814203D315230226F64387
:100F700002E014230326F6432020C51AA940174691
:100F8000AF40DA400A4320460399D8400914731849
:100F900019055118039A3843D2075140AC4009D083
:100FA0000122944006D30022401C5141002C01D163
:100FB000400840001E4A934212D301220398920631
:100FC000904207DB0520400709181A480143C01268
:100FD000414004E0032040070818C10FC907002062
:100FE00009B0F0BD0020F107FAE705180C464C41A6
:100FF00011486D42A04115D394181A465A410E4823
:10100000644290410ED301204A004005824209D338
:101010005A00824206D35940C90F084AC907002026
:101020001143DDE700200649DAE700000000FF0772
:10103000FE070000FFFFFF7F0000E0FF0000F07FE1
:101040000000F87F0121C9050123411842001B0659
:10105000D3185B0E0AD0C1100722D20689184007A8
:101060005242D14201D5520089187047090208D571
:101070000146002A03D0C10FC9070020704710465F
:101080007047420202D0002002497047072109053B
:101090000143F4E70000F87FF0B5FF252D04C609F1
:1010A000C209FF2704462E400137CB093E43484082
:1010B0002A402B400746002A6BD0002B69D0AA4259
:1010C00067D0AB4265D0002800DA32460125ED0535
:1010D00029432C4309022002090AD21A4B0C7F240F
:1010E000E31A434C000A7C44E35C7D242404121977
:1010F00014145B00A218884201D3521C00E0400087
:1011000049420C465C4324115C43DB016415E3183F
:10111000040A5C43C502200D0C4644436419250AA9
:101120005D432303EC0C0D46654300030019EB18E7
:101130004C42A34201D35B18401CD4052018002B5D
:1011400007D05B00C91804D3401C002901D1400816
:1011500040003F2189048A4209D3002A08DC110695
:10116000090F04D0032149074018C00FC007F0BD84
:1011700001224100120689187F2252069142F6D2BE
:1011800005214907C84201D59010F0BDFF20C005D8
:10119000F0BD002F00DA32461648AA4207D2AB4211
:1011A00005D21902090E17D0F80FC007F0BDFF25B0
:1011B00063002D06AB42F9D84900A942F6D8AB42EC
:1011C00001D1A942F2D0A94201D1002101E0610080
:1011D0004908D0050843F0BD1102090EFBD0FF20DD
:1011E0000243D005F0BD0A460146104654E7000010
:1011F0003E8C00000000C07F10B501469E24000216
:10120000CA15A307002A02D01843002A04DBA21A39
:10121000002A0CDDD04010BD1206120E01D1400094
:101220004008A21A03D4D04040420028F3DDFF2238
:1012300048001206904201D9002010BDC817C043D3
:10124000584010BD0102C21504D00123DB07194329
:10125000002A0ADB9E239A1A02D40846D04070471F
:10126000FF2241001206914201D900207047C017A9
:10127000C04370471F22030C02D10F2200041CD070
:10128000030E01D10002083A030F01D10001121F21
:10129000830F01D18000921E002801DB4000521E06
:1012A000D2055118021251181922904004D3491C3A
:1012B000002801D14908490008467047C10FC907F5
:1012C00000D04042012292071143D3E70121890750
:1012D000D0E770B5044685690068C10601D530269F
:1012E00000E02026C00707D070BD62683046A168C4
:1012F0009047206A401C20626D1EF6D570BD70B507
:10130000044685690078C00707D170BD6268A1688E
:1013100020209047206A401C20626D1EF6D570BDCB
:1013200009684A0501D540B27047C905FCD500B22D
:10133000704709684A0501D5C0B27047C905FCD598
:1013400080B2704770B50C460546012A05D0287852
:10135000800600D5EA69002302E0012305E05B1C5A
:10136000934202D2E05C0028F9D1A869E618C01ABD
:10137000A861286AC01828622846FFF7AAFF04E07F
:101380006A682078A968641C9047B442F8D328465C
:10139000FFF7B5FF70BD0000F7B50025752910688F
:1013A000009914A611D0FFF7BBFF002802DA4042D3
:1013B00011A608E0009909688A0701D50FA602E086
:1013C000490704D50EA6012501E0FFF7B2FF009FF3
:1013D0000024243704E000F080FE30313955641CCD
:1013E0000028F8D12B4632462146009800F057FAE3
:1013F000FEBD0000000000002D0000002B000000DA
:101400002000000011680268006A530501D50870C9
:1014100009E0D30501D5088005E0130602D5C217FF
:1014200005C100E0086001207047000001694A1C06
:1014300002610878704700B58FB0029100210591D4
:10144000054901937944039111460490684600F0E0
:1014500025F90FB000BD0000E5FFFFFF0A6810701E
:10146000521C0A6070470000F7B50446154686B066
:101470002B487844002703C83E460090019111E0B4
:1014800007986A467100415A02A800F005FE411C07
:1014900007D02178890603D5E269391891420ED820
:1014A0003F18761C2078800602D5E069B84206DD38
:1014B000AE42E5DB07987100405A0028E0D1A069F0
:1014C000C01BA0612046FFF704FF154878445A3836
:1014D00003C800900020019116E041006A46079879
:1014E000415A02A800F0D8FD0590401C0AD0002502
:1014F00005E0626802A8A168405D90476D1C0598F0
:101500008542F6D30498401CB0420490E5DB206A83
:10151000C01920622046FFF7F2FE09B0F0BD0000BE
:10152000F2880000F7B5D21D0025D20815A6D2001A
:10153000F52905CA11D0002A05DA0021404291415F
:1015400011A60A4608E0009909688B0701D50FA685
:1015500002E0490701D50EA601251146009F00248F
:10156000243704E000F05EF930323A55641C02463C
:101570000A43F7D12B4632462146009800F08FF9F6
:10158000FEBD0000000000002D0000002B00000048
:101590002000000070B504460021243408E05507FF
:1015A000D2086D0F303565545D072A43DB08491CAE
:1015B00015461D43F3D10468002310A2250708D562
:1015C00020252C400C4304D0C46901230CA2641EC6
:1015D000C46100F064F970BD10B50446214610687E
:1015E000FFF7A7FE002302462046FFF7D3FF10BDFA
:1015F000D21DD108C9000CC9CCE7000000000000D2
:1016000030000000F8B50F460188090502D5224CCC
:101610007C4402E0204C7C440E34054600212435F5
:1016200008E016071209360FA65D6E541E073243F6
:101630001B09491C16461E43F3D122460478002399
:10164000240705D5702F06D0002901D002231132BE
:1016500000F025F9F8BD01231032F9E770B5044612
:101660000D4621461068FFF764FE00230246294616
:101670002046FFF7C7FF70BDD21DD308DB000CCB9F
:10168000C0E730B4036820241268234303600823B2
:10169000C36130BC0023B5E75C870000F3B50446A6
:1016A000002081B020622046E1688847002872D07F
:1016B000252802D06268A168ABE0594F00267F441C
:1016C0002046E16888472028054608DB312D06D2F0
:1016D000781920380078002801D00643F0E7B007D9
:1016E00001D5042086430020E0610746A0612A2D31
:1016F0000AD0284608F0ADF8002827D0B800001915
:10170000303D0090856119E00298BA00121902C8B4
:10171000916102902046E1688847012F054617D164
:10172000E06900281FDA202086431CE000980A2187
:101730008069484300994019303888612046E16843
:101740008847054608F085F80028EFD1012F0AD018
:101750002E2D08D12046E168884705462020064303
:101760007F1C022FC3DBA069002803DA4042A0617E
:1017700001200643F00701D0102086436C2D0BD0CA
:10178000682D09D04C2D3CD06A2D38D0742D38D01E
:101790007A2D36D016E040E0E1682F462046884793
:1017A000B842054609D16C2F29D001208002E1689A
:1017B000064320468847054604E06C2F1DD0FF20D5
:1017C00001300643002D28D028464138192803D877
:1017D0000120C00206432035204626602946029A91
:1017E0001646FEF7BFFC002810D001280BD0F61DCE
:1017F000F008C0000830029055E74020E1E7802063
:10180000D5E70020D3E7361D02964CE762682846EC
:10181000A1689047206A401C44E7206AFEBD000092
:10182000D68600000B4670B502468907800808433B
:1018300019469D08141AA9412509080705430809F6
:101840002C194841250A01060D43010A2C19414172
:10185000200C0D0428430D0C00194D4100214019A6
:101860004D41C00869070843E908840F8D002543EE
:10187000840024184D4124196D41121BAB4107E02F
:101880000925ED432C11521963410024401C61418C
:101890001C460A250026551BB441F1D270BDFFB588
:1018A00004460D4681B0243000902168880604D596
:1018B0001022E0699143216000E00120A84201DD8F
:1018C000471B00E000270498A1697A191018081A2C
:1018D000A0612078C00602D42046FFF7FAFC00265B
:1018E00008E003986268A168805D9047206A401C08
:1018F000761C206204988642F3DB2078C0060AD565
:101900002046FFF7E6FC06E06268A16830209047B9
:10191000206A401C206238467F1E0028F4DC07E065
:1019200000986268A168405D9047206A401C206270
:1019300028466D1E0028F3DC2046FFF7E0FC2078E7
:10194000000602D5022005B0F0BD0120FBE7000033
:10195000FFB50C461E468FB003CA089009914F0090
:101960007D0D00D16D1E002108460020C0460321D8
:10197000099A89050840002A03DA82008018400885
:101980000840800D01280A9002DD0020C0430A9023
:10199000089807430DD0F048F04928184843071429
:1019A000189800281DD07542291E1DDD0A98424254
:1019B0001BE01898012802D00020302104E000200C
:1019C000F24305E02154401CB042FBDB30460022CC
:1019D000189B002121540F998B600A60486013B056
:1019E000F0BDBD1B6D1CDFE70A9A002900DA6942D1
:1019F0000BA800F07DFC0BAB07CB03AB07C308992A
:101A0000099800F0E1FC6B4607C30146D448091869
:101A1000002D00910BDDD24903980A9A49424018E3
:101A2000002303A90390684600F03EFF08E00399F5
:101A30000A9A0023081803A90390684600F0DEFE06
:101A40006B4607C30004000C03D00020C0434108CC
:101A500000E01046189A002A03D000220092154692
:101A60001EE0751E05D4FFF7DDFE303262556D1E97
:101A7000F9D501220843079602D000227F1C04E01A
:101A80002078302801D100227F1E002A069787D0B7
:101A90001EE0112D07DAFFF7C5FE303262556D1CCE
:101AA00002460A43F5D1084303D00098002819D014
:101AB0000EE00021681E05E0235C625C6354225442
:101AC000401E491C8142F7DBA81B401E079506906B
:101AD000079A18990020A0540F98079B069A8160D6
:101AE0000CC07CE711260020189059E7D21DF0B5F4
:101AF0000D460446D10893B0C90003C90C900D915E
:101B000007F040FE02460D98C00F01D02D2007E0DF
:101B10002068810701D52B2002E04007C00F40015B
:101B2000032A0F9001D0072A05DB034629462046E9
:101B300000F09AFB0EE12078800601D5E76900E00D
:101B400006272846652D04D0662814D0672D69D154
:101B50002DE00020112F009001DB112300E07B1C01
:101B60000CAA03A910A8FFF7F3FE119900261098FC
:101B70007D1C0E9142E001203B460CAAC0070B9051
:101B80000120009003A910A8FFF7E2FE119D129812
:101B90001099002600280E9501D1781C0D18781B8D
:101BA00002D446427D1C761EE81B00903AE0012FCD
:101BB00000DA01270020112F009001DD112300E041
:101BC0003B460CAA03A910A8FFF7C2FE11993D4697
:101BD000109800260E91217809070BD40E99A9427E
:101BE00000DA0D4603A9012D04DD4A19203AD27FFF
:101BF000302A06D0B84201DA011D04DA0121009131
:101C00000FE06D1EEFE7002802DC86192D1A03E0B5
:101C1000411CA94200DD0D46801B401C00900120A4
:101C2000C0070B902078000705D40098A84202DB7B
:101C30000020C043009069460020C8720B98012123
:101C400002AF0337C907884225D0022010902B200D
:101C500011900B9800280BDA40420B902D20119028
:101C600006E00B9800F039FA30317F1E0B90397086
:101C70001099481E00291090F3DC0B980028F0D131
:101C800011987F1E38702088000501D5452000E09E
:101C900065207F1E387001A8C01BC01D0B900F98D7
:101CA000002800D0012041190098C01709180B988E
:101CB0000818A169081A401EA0612078C00602D445
:101CC0002046FFF706FB0F98002805D06268A16840
:101CD0009047206A401C20622078C00625D5204607
:101CE000FFF7F7FA21E0002E07DB0E98B04204DD83
:101CF00003A86268805DA16802E06268A168302084
:101D00009047206A761C401C20620098401E0028E4
:101D100000900AD100F0A4FAC06862680168405CD3
:101D2000A1689047206A401C206228466D1E00284A
:101D3000D9DC07E062683878A1687F1C9047206A88
:101D4000401C20620B99481E00290B90F2DC2046B3
:101D5000FFF7D5FA032042E601FCFFFF104D00001B
:101D6000E1DFFFFFD21DF0B504460D46D0088DB06F
:101D7000C000466807683146384607F003FD024652
:101D8000F00F01D02D2307E02068810701D52B2318
:101D900002E04007C00F43016846002B037001D0EA
:101DA000012000E00020032A0A9001D0072A04DB6A
:101DB0002946204600F058FA2DE12078800601D40B
:101DC0000D2500E0E5697000400D0D2D01904BDA06
:101DD000300D00210B9008460020C04603218905E4
:101DE0000840002E05DA82008018C20F101840103B
:101DF00008408015012801DD0020C043A900002310
:101E0000182906D39C460A460123183A1B07D340DB
:101E100003E001221205CA4094460C31202902D366
:101E20003A46203900E032468A40002802DD002A86
:101E300006D119E0002817D10121C9078A4213D31E
:101E4000194663467F185E41002806D10120C0076D
:101E5000824202D1084687439E430B98310D81424E
:101E600002D00198401C01902088000502D57149DC
:101E7000794402E06F49794419396B460A98302257
:101E80001A540A980A7C401C1A54401C0A90019863
:101E9000002801DC302000E031201872019A012076
:101EA000002A02D0644BD21804E072003A4302D0F8
:101EB000614A521C0192002D02DC2278120703D5E0
:101EC0006A462E20507202200022864694460CE07C
:101ED00032033601120F6D1E8B5C02AA1354624648
:101EE000521C401C9446052A01DA002DF0DC002229
:101EF00002AE08E03B0F3F01CB5C521C6D1E335419
:101F0000401C082A01DA002DF4DC23689A0601D56A
:101F100011E0401E704504DD3218203AD27F302A8D
:101F2000F7D0002807DD3218203AD27F2E2A02D1BE
:101F30001A0700D4401E002D03DD3E223254401CFF
:101F40006D1E497C31540199401C002906DA2D216F
:101F5000471C315401984042019003E02B21471C5B
:101F6000315401987D21C900884206DBFEF764FAEE
:101F70003030F0557F1C019101E0642808DB0198A6
:101F80006421FEF759FA3030F0557F1C019101E0D1
:101F90000A2806DB01980A21FEF74EFA3030F05588
:101FA0007F1C01980A21FEF747FA3031F1550A9853
:101FB000A1697F1C7A191018081AA0612078C00640
:101FC00002D42046FFF785F9216A6E460A98081860
:101FD000206204E062683078A168761C90470A9815
:101FE000401E0A90401CF5D12078C00602D520463C
:101FF000FFF76FF902AE09E03078761C3E280DD06D
:102000006268A1689047206A401C20627F1EF3D25C
:102010002046FFF774F90DB00320F0BD206A401987
:10202000206203E06268A168302090476D1EEDD306
:10203000F8E70000487F000001FCFFFF10B543698E
:10204000002B02D0C046C04601E0FFF77BF901201B
:1020500010BD1278014624310A7000224A70012214
:10206000ECE711680022D243E8E710B54369002B82
:1020700002D0C046C04601E0FFF7F6F9012010BDCE
:1020800012880146243182840022C2840122ECE7B6
:1020900011680022D243E8E7F8B516460C4605461B
:1020A00000F0D6F80368FF200230C05C012807D09A
:1020B000FF2C0FD8185D00280CD001202C70F8BD23
:1020C000FF333246214608331868C71828460023D4
:1020D000B847F8BD0020C043F8BD01468008081A83
:1020E00002091018020A1018020C1018C008820009
:1020F00012185200891A01E0401C0A390A29FBD241
:1021000070470000F8B5264C4E00069DA6420AD83E
:10211000A64201D1002806D15E00A64203D8A642FD
:102120000AD1002A08D00D242404254233D02946A0
:10213000002000F011FCF8BD0C461C4311D499425C
:1021400007D0C81A02D3EFF30080F8BDEFF3008088
:10215000F8BD801A02D3EFF30080F8BDEFF30080E2
:10216000F8BD09242407E5008B4207D0581A02D392
:10217000EFF3008006E0EFF3008007E0101A03D3CE
:10218000EFF30080A04303E0EFF30080A043284377
:1021900080F30088F8BD009500F0F6FBF8BD000064
:1021A0000000E0FF10B5FF231B0644009C421DD831
:1021B0004C009C421AD80346124A0B4307D4401ADB
:1021C00002D3EFF3008010BDEFF3008010BD081ABA
:1021D00003D3EFF30080904305E0EFF3008001218B
:1021E0009043C907084380F3008810BD0D231B04EA
:1021F0001A4204D01146002000F0AEFB10BD00F0E2
:10220000CDFB10BD0000009000487047E00020208A
:102210007546FFF7F9FFAE46050069465346C0080C
:10222000C000854618B020B5FEF752F860BCB6462F
:1022300000260027C0C5C0C5C0C5C0C5C0C5C0C533
:10224000C0C5C0C5403D490849008D4670470000E3
:1022500010B500F005F8001D10BD00BF317600007C
:102260000048704700012020F8B51F4604460123AE
:102270000068DB02032601461840072A05DB002818
:1022800001D017A506E017A504E0002801D016A587
:1022900000E016A5102081432160A069C01E002F18
:1022A000A06101D0401EA0612046FFF712F8002F68
:1022B00009D038466268A1689047206A401C2062B5
:1022C000C01C206206E0206AFAE762682878A168EC
:1022D0006D1C9047761EF8D22046FFF710F8F8BD27
:1022E0004E414E006E616E00494E4600696E6600BA
:1022F000F7B516468AB0334878446C4603467C33BB
:10230000C06F5A689B680DC42E487844763003AC81
:102310000DC80DC43720C001081837211B30FEF747
:102320008BF805460C46803D1B3C02D564420120DB
:1023300000E000200027099010E0E0070CD00C20FE
:1023400020497843794432464C3941186846012384
:1023500000F054FA6B4607C364107F1C002CECD1CC
:10236000184F7F442E3F16E0E80712D02001C01915
:102370000EC80691089307920068F04201D198199F
:1023800008903246012306A903A800F037FA03ABF0
:1023900007C36D10641C002DE6D10998002806D0F3
:1023A00032466946012303A800F07EFA05E00123C6
:1023B0003246694603A800F021FA0A9B07C30DB014
:1023C000F0BD0000D47A0000034640000A4610B574
:1023D000400D0BD00121C9070F24A40200191C03D2
:1023E00064082143540D2143D20207E0002101205B
:1023F000F2E7D40F490021435200401E0029F8DAC9
:10240000DB0FDB07184310BDFFB50D46144685B042
:102410004868516807F09EF900910190A868A1688A
:1024200007F098F902910390A868616807F092F9A3
:10243000029A12188242029201D2012000E000208A
:10244000019A0B18D2180028019202D08A4202D9B0
:1024500003E08A4201D2012000E000200099081820
:1024600000906868A16807F075F9029A1218824214
:10247000029201D2012000E00020019A0B18D2182C
:102480000028019202D08A4202D903E08A4201D296
:10249000012000E0002000990818009028682168B9
:1024A00040004900400849084018FA49471814E01C
:1024B00001994000C90F084300900198029940001B
:1024C000C90F08430190029803994000C90F0843BF
:1024D0000290039840007F1E039000980028E7DADE
:1024E0000898002801D0EC4E00E00026B74201DA3F
:1024F000012000E00020002804902AD0F71BF806F5
:10250000C00E15D0029B2021091A039A8B401A4352
:102510000392029A019BC2408B401A430292019A95
:10252000009BC2408B4000991A430192C140009128
:102530007B110DD06F460320C11A03D50021820004
:10254000B95003E08A008100BA587A50401EF3D592
:10255000374603980299002800D0012001430898CB
:102560000291002808460CD0002800D001200199D3
:10257000019A490508430121D20AC902D2020192F7
:1025800000E001210E9B0122D207012B02D0002B7B
:1025900003D013E0002807D120E0904204D89042F5
:1025A0000CD1019B0B4209D0019B5918019105D117
:1025B0000099491C009101D17F1C009200280DD088
:1025C000102108460020C0460498002806D00F9825
:1025D000002803D0082108460020C046286821684A
:1025E000019B009A4840C10F0598C90739430EC0A6
:1025F00009B0F0BDFFB587B0099A089808995368EB
:10260000926840688968964600220393174694466C
:10261000089A12685300099A5B081268520052081F
:102620009A1A9E4BD4180A9A002A01D0352200E04B
:10263000402206920022012315460492DB070593EF
:1026400024E0002D05D175460346039E4D1BB34182
:1026500009D375466646039B491B049D9841059B1B
:102660007519AC465F4163463B4308D0059B049E09
:10267000DD0776082E435B080496059301E0521EA1
:10268000641EC50FED0749184041521C069B9A4233
:10269000D7DB002D04D17546039A6B1A824101D213
:1026A00003200CE0039A0B466B404240134303D0D7
:1026B000014303D0012002E0022000E00020614637
:1026C00001910021009702910A99002905D06146E5
:1026D00040020143704B019102E080070023029009
:1026E0009C4201DA012000E0002007003AD01A1BCA
:1026F000D006C00E15D0029D2021019C091AC540AC
:102700008C402543029C8C4000D001242543019C31
:102710000295009DC4408D4000992C430194C14016
:10272000009154111DD06D460221002202290CD1C6
:102730000320001B07E0002804DB8600AE59002EB2
:1027400000D00122401C0328F5DB081B02D58800BD
:102750002A5004E08000285810438A00A850491EDF
:10276000E3D51C460A98002802980CD0002800D017
:1027700001200199019A490508430121D20AC902A1
:10278000D202019200E00121109B0122D207012B0D
:1027900002D0002B03D013E0002807D11FE09042A5
:1027A00004D890420CD1019B0B4209D0019B5918CF
:1027B000019105D10099491C009101D1641C00923E
:1027C00000280CD0102108460020C046002F06D05B
:1027D0001198002803D0082108460020C046089818
:1027E0000999019A009B006809684840C10F079841
:1027F000C907214382600AC00BB0F0BD00B585B0A7
:10280000019300920A460146002302A8FFF7FCFD4F
:1028100002A807C805B000BDFFB50A461F4685B02F
:102820000799019301230091014602A8FFF7ECFDEF
:1028300002990398049ECA0F4900D20700920F2202
:10284000490892028C1A0021002800DB0C46450042
:1028500013486D08844214D3079A002A04DA441EF0
:102860000026104DF64302E004460D460E461021A8
:1028700008460020C046002F03D00421084600204F
:10288000C0462005E90A0843009908436905F20A91
:102890001143ADE602C0FFFF013C0000FF3F000016
:1028A000FF070000FFFFFF7F00B585B00193009296
:1028B0000A460146002302A8FFF79CFE02A807C8AB
:1028C000A8E7FFB50A461F4685B007990193012383
:1028D0000091014602A8FFF78DFE02990398049E1D
:1028E000CA0F4900D20700920F22490892028C1A9F
:1028F0000021002800DB0C46450011486D08844289
:1029000014D3079A002A04DA441E00260D4DF6431C
:1029100002E004460D460E46102108460020C0463F
:10292000002F03D0042108460020C0462005E90AF4
:102930000843009908436905F20A114358E600006C
:10294000FF070000FFFFFF7F10B50446C046C046EA
:102950002046FDF793FC10BDC80212D54803400F76
:10296000002804D0C803C043012188407047EFF31A
:1029700000800001000903210907084380F3008853
:10298000704700207047000010B500200249029AED
:1029900000F050F810BD00000000F87F10B50248AC
:1029A00000F048F810BD00000000C07F024670B57E
:1029B0000A4392072AD11E4DEE0104C808C9541BD0
:1029C0009443344017D0D0B2D9B2401A2106014303
:1029D00010D190B299B2401A210401430AD11002D9
:1029E0001902000A090A401A2102014302D1100EFD
:1029F000190E401A70BD9A42DFD010BA19BA884237
:102A000001D9012070BD0020C04370BD02780B7851
:102A1000401C491C002A09D09A4207D102780B7841
:102A2000401C491C002A01D09A42EFD0D01A70BD38
:102A30000101010110B50C461107090F092904D045
:102A40000A290AD008290CD104E011460820FFF712
:102A500083FF06E0510606D501E0510601D50120AD
:102A6000C007214610BDD10607D501010909CC08D0
:102A70004907000E0006044309E0410F2002490700
:102A8000000A0143200E00061D22D14101430846E1
:102A9000E7E7000081B0009000990120C20266487B
:102AA000885001B07047C04681B000900099674AD5
:102AB0006748885001B0704783B00290019100923E
:102AC00002980199084300990843A149086003B09E
:102AD0007047C0469E480068072108407047C046BE
:102AE00082B001900199881E001F00BFFCD20090A7
:102AF00002B0704784B0039002910192039800687D
:102B00000090009801998843009000980299019ADA
:102B1000114008430399086004B0704784B00390E3
:102B200002910192039800680090009801998843EF
:102B3000009000980299019A114008430399086097
:102B400004B0704784B0039002910192039800682A
:102B50000090009801998843009000980299019A8A
:102B6000114008430399086004B0704784B0039093
:102B7000029101920398006800900098019988439F
:102B8000009000980299019A114008430399086047
:102B900004B0704781B0009000990120C20226481D
:102BA000885001B07047C04681B000900099012064
:102BB000C2022148885001B07047C04610B584B0A9
:102BC000069C039002910192009302980199084398
:102BD000009908430699084303490843039989006B
:102BE000074A885004B010BD8100040081B00090F5
:102BF00000988100024A0020885001B07047C0460A
:102C00000480424081B000900099104A10488850DA
:102C100001B0704781B0009000990C4A0C48885070
:102C200001B0704781B0009000990120C2020248B3
:102C3000885001B07047C0460100002681B0009066
:102C40000099024A0248885001B070470408000009
:102C5000030000B180B584B0039002910192039902
:102C600002980143019801433F200204CE48FFF738
:102C70007DFF04B080BDC04680B586B0059000F0F1
:102C800087F8FFE700F0B8F801218903084088427F
:102C900001D0FFE7F6E70598417E2948039001221D
:102CA0000192FFF763FF05982021415C25480290BF
:102CB0000322FFF75BFFFFF70DFF01460198049128
:102CC00000210422FFF7F8FE02980599496A096875
:102CD0001D4A11600599496A49681C4A11600499A6
:102CE0001B4A11600599C9694906490C7F221202E5
:102CF000FFF73CFF0398059A11680907090B536811
:102D00001B039BB2C91893681B071B0DC918D36816
:102D100019431369194353691943127E11430D4A2C
:102D2000FFF724FF00F05CF8FFE700F065F80121F1
:102D300049020840884201D0FFE7F6E706B080BDAF
:102D400020010B4024010B4028010B402C010B40BB
:102D50000013404072FF0F007049086801221207FB
:102D6000904308607047C0465F490868012290435D
:102D7000086070475C49086801229043086070470A
:102D80005949086801221202904308607047C04602
:102D90005549086801221202904308607047C046F6
:102DA0005E49086801221207104308607047C04658
:102DB000A149086801221203104308607047C04609
:102DC0000249086810221043086070473C010B401C
:102DD0004549086801221202104308607047C04646
:102DE0004149086801221202104308607047C0463A
:102DF000034800687047C046014800687047C046F5
:102E000004020B4080B5FFF7F3FF0121490608409B
:102E1000400E80BD014800687047C04650010B401D
:102E200081B001466846017000780249086001B02F
:102E30007047C04608030B4080B582B001900199ED
:102E40001F2002065848FFF769FE02B080BDC04649
:102E500080B582B0014601A8018001880F200202DE
:102E60007548FFF75BFE02B080BDC04680B582B0FA
:102E7000014601A80170007801030F2002034A48AF
:102E8000FFF74CFE02B080BD80B586B005AB019364
:102E90001880049103A802900270FFF76BFF01985D
:102EA000008800F023F8049800F02EF802980E4AEB
:102EB00011680123194311600078C00700280DD064
:102EC000FFE7FFF76DFFFFE7FFF796FF012109021C
:102ED0000840884201D0FFE7F6E702E0FFF73CFF39
:102EE000FFE706B080BDC04608010B4080B582B048
:102EF000014601A801800188032002030748FFF76B
:102F000035FE02B080BDC04680B582B00190019907
:102F10000248FF22FFF72AFE02B080BD10010B40DD
:102F200081B001466846017000780249086001B02E
:102F30007047C0460C010B4080B582B001900199EA
:102F40000878C007C00D89784118FF2204320B4869
:102F5000FFF70CFE0A490B48086001984078C0074B
:102F6000002806D0FFE705490868102210430860D2
:102F7000FFE703490448086002B080BD14010B401C
:102F800014030B40010000910200009180B582B053
:102F9000014601A801800188012042020248FFF792
:102FA000BDFD02B080BDC04638010B4080B582B087
:102FB000014601A80170017802480322FFF7AEFD27
:102FC00002B080BD00010B4080B582B0014601A86F
:102FD0000170017818483022FFF7A0FD02B080BDD3
:102FE00001490248086070472C030B400100000EA5
:102FF00080B582B0014601A801700078FFF790FF0C
:10300000FFE7FFF7F9FE012149050840884201D09A
:10301000FFE7F6E708490868012212041043086038
:10302000FFE7FFF7E9FE10210840102801D0FFE775
:10303000F7E702B080BDC04604010B4009490868AB
:10304000052210430860704781B0009005490420B4
:1030500008600098401E0449086004490020086088
:1030600001B0704710E000E014E000E018E000E07C
:1030700081B0009000990120C2029548885001B0AB
:103080007047C04681B0009000999A4A4F488850D6
:1030900001B0704782B00190009100980199024AF6
:1030A000885002B07047C0464810000081B00090C0
:1030B000009911200202885801239843885001B0DA
:1030C0007047000082B001900091009B01990F4A67
:1030D00088589843885002B07047C04681B000902D
:1030E000009911200202885801231843885001B02A
:1030F0007047000082B001900091009B0199034A43
:1031000088581843885002B07047C0462810000005
:1031100081B0009000990120C2026D48885001B032
:103120007047C04681B00090009881214901405805
:10313000C0B201B07047000080B582B0019000912C
:103140000198FFF7B3FF0198112109024018009A76
:1031500011889378194392881143084AFFF7F2FCCB
:1031600001982D494018009A9179D3791943127A20
:1031700011437E22FFF7E6FC02B080BD1867020013
:1031800081B000900098474940580121084001B0A3
:103190007047C04681B000900098424940580421D1
:1031A0000840800801B0704781B000900098024943
:1031B0004058C0B201B070472411000081B00090A7
:1031C00000994C4A0148885001B07047030000B193
:1031D00080B584B003900291019203980B49401886
:1031E00002990B4AFFF786FC03980A494018019997
:1031F0003F22FFF77FFC0399074A8818895801226C
:103200001140FFF777FC04B080BDC04610110000EC
:10321000FFFF0000141100000411000082B00190B3
:103220000091009800780199044A885000984078ED
:10323000019901221203885002B070470810000063
:1032400080B582B0019000910198112109024018C7
:1032500000990322D203FFF74DFC02B080BD82B07B
:1032600001906846017000780199892252018850C6
:1032700002B0704782B001900091009908784A78B6
:10328000104349880843019911221202885000997D
:1032900048688968090408430199024A885002B0C5
:1032A0007047C0460811000081B0009000990120CD
:1032B000C2020748885001B07047C04681B00090F4
:1032C00000990120C2020248885001B07047C046F0
:1032D0000100002681B000900099064A06488850F7
:1032E00001B0704781B000900099024A02488850AE
:1032F00001B0704704080000010000B180B584B03F
:1033000003A90020087002A908703B4800688121C9
:103310004901405801900198002830D0FFE70198FA
:10332000411E03A8017000780F280EDCFFE7324829
:1033300000683249405803A909780907C90EC840F6
:103340000321084002A908700EE02B4800689D2167
:103350004901405803A909780907C90EC84003214B
:10336000084002A90870FFE703A8007883002448FA
:10337000C25802A800782349C95890473AE01E482D
:10338000406881214901405801900198002830D0BF
:10339000FFE70198411E03A8017000780F280EDC9A
:1033A000FFE7154840681549405803A909780907FF
:1033B000C90EC8400321084002A908700EE00E485B
:1033C00040689D214901405803A909780907C90EA1
:1033D000C8400321084002A90870FFE703A800784D
:1033E00083000748C25802A800780649C958904788
:1033F000FFE7FFE704B080BD8000202090130000AD
:1034000000002020700A202080B582B00920FFF73C
:10341000EDFB0A20FFF7EAFB0720FFF7E7FB082098
:10342000FFF7E4FB0021009101200204C3042720E0
:10343000FFF7C4FB02B080BD80B586B005A90020AF
:1034400001900870FFF7F8FC019801221105920421
:10345000FFF700FCFFF7C4FDFFE7FFF7D3FC0028F0
:1034600001D1FFE7F9E7FFF7D5FC03900120010543
:1034700042040020FFF7EEFBFFF7B2FDFFE7FFF786
:10348000C1FC002801D1FFE7F9E7FFF7C3FC049076
:1034900003997D20C00048430499FCF7C3FF0290C4
:1034A0000298FDF7A8FC00220D4B06F08CF90028CD
:1034B0000FD1FFE70298FDF79EFC0022D243094B93
:1034C00006F076F9002804D1FFE705A9012008706D
:1034D000FFE705A800780121084006B080BDC0467E
:1034E00000289F40FF579F4080B582B00020009089
:1034F000FFF796FC012001904002FFF7A9FC00981D
:10350000FFF754FDFFF730FCFFF73AFC019A032068
:1035100000030A21FFF7B8FC1648FFF7ADFBFFE7F1
:10352000FFF78AFF00280FD1FFE7FFF729FCFFF71D
:103530004FFCFFE7FFF75CFC01214902084088428D
:1035400001D0FFE7F6E7EBE71020FFF73DFD09208C
:10355000FFF78CFC0848FFF7EFFCFFF729FCFFF7AB
:103560002FFC01204002FFF711FD0020FFF740FD76
:1035700002B080BD14A1000010A1000080B5502051
:10358000FFF762FDFFF75AFD80BD000080B50249DC
:103590001848FFF76FFE80BD3CA1000080B500F029
:1035A00009F8FFF731FFFFF79FFFFFF7EFFFFFF786
:1035B000E5FF80BD80B584B00C480190FFF72AFB81
:1035C0000B480290FFF726FB0A480390FFF78AFE9C
:1035D0000198FFF7E9FA0298FFF7E6FA0398FFF778
:1035E0006DFE1020FFF77CFA04B080BD00000A4099
:1035F00000200A400000034080B51B4802681B48B9
:1036000001680020904780BD80B517484268174880
:1036100041680020904780BD80B5134882681348F8
:1036200081680020904780BD80B50F4882690F48AF
:1036300081690020904780BD80B50B48C2680B4867
:10364000C1680020904780BD80B5074802690748DF
:1036500001690020904780BD80B503484269034856
:1036600041690020904780BD6C0B20208C002020F9
:1036700080B582B01148FFF755FD014601910B2836
:103680000BD0FFE701980C2810D1FFE74B480268E8
:103690004B4801680220904709E0484802684848C2
:1036A00001680120904702F005F900E0FFE70448B7
:1036B00001680248FFF7EEFC02B080BD00801040B8
:1036C0003090104080B582B01248FFF72BFD0146C4
:1036D00001910B280BD0FFE701980C2811D1FFE7CF
:1036E0003648426836484168022090470AE033482D
:1036F0004268334841680120904707480068804786
:1037000000E0FFE7054801680248FFF7C3FC02B08C
:1037100080BDC04600001040D8002020301010406E
:1037200080B582B01048FFF7FDFC014601910B28DF
:103730000BD0FFE701980C280ED1FFE71F488268E5
:103740001F4881680220904707E01C4882681C4897
:1037500081680120904700E0FFE7044801680248C3
:10376000FFF798FC02B080BD0020104030301040C0
:1037700080B582B01048FFF7D5FC014601910B28B7
:103780000BD0FFE701980C280ED1FFE70B48C26869
:103790000B48C1680220904707E00848C268084803
:1037A000C1680120904700E0FFE706480168024831
:1037B000FFF770FC02B080BD00005040AC0020203C
:1037C000980B20203010504081B0014668460170AF
:1037D0000021405600280DD4FFE7684601781F20DD
:1037E00001400120884004490860BFF34F8FBFF3B8
:1037F0006F8FFFE701B0704780E100E081B00146C4
:103800006846017000214056002809D4FFE7684649
:1038100001781F2001400120884002490860FFE72D
:1038200001B0704700E100E081B0009001B0704746
:1038300010B58AB009AC207008A8017007A90A70F9
:1038400006A90B70007810280AD1FFE708A80178B4
:1038500006A80078014001201029029014D0FFE74B
:1038600008A801780020002901900AD1FFE708A8E4
:10387000007806A9097808401038411E8841019057
:10388000FFE701980290FFE70298012108403A49BA
:10389000E72201F0BBFF09A80178490905AA1170C8
:1038A00000781F21084004A9087007A80078039039
:1038B000039832490843039006A80078401E009000
:1038C00013284BD80098810001A040588746C04675
:1038D000213900002739000029390000353900005E
:1038E0005D3900005D3900005D3900005D39000080
:1038F0005D3900005D3900005D3900005D39000070
:103900005D3900005D3900005D3900005D3900005F
:1039100041390000433900004F390000513900009F
:10392000002003901AE019E00398012109040843DC
:10393000039013E0039801214904084303900DE02C
:103940000CE00398012149060843039006E005E0D6
:1039500003980121490608430390FFE7039805A94E
:103960000978490104AA12788A180549895C8900F6
:10397000044A88500AB010BDB5A4000080000400BD
:1039800048A100000480424081B0009000990020CE
:10399000086000994860009988600099C8600099A3
:1039A000086101B0704780B582B00190019800684D
:1039B00000900198FFF7E8FF00980199086002B0B5
:1039C00080BD000080B582B001900091FFE70098B3
:1039D000164905F026FF002806D1FFE70098164992
:1039E00005F0CEFF0090F2E7FFE70098104905F0E0
:1039F00002FF002806D1FFE700980E4905F0C0FF3E
:103A00000090F2E700980199096805F0E9FE0028A6
:103A100006D1FFE701990020C86001998860FFE79F
:103A200000980199086002B080BDC0460000344390
:103A3000000034C30000B4430000B4C310B590B01C
:103A4000159C149C139C129C0F900E910D920C933C
:103A50000F9800680E9906F0AFF80B900B9805F0E0
:103A60004FFE0F9948600F9A089250681599D268D6
:103A7000079206F049F8079905F082FF0899C86097
:103A80000F98C068149902F04AFD0F99C8600F9909
:103A90004868896806F090F8099015981D4905F066
:103AA000C0FE002803D1FFE71598069002E01A48EF
:103AB0000690FFE709980699FDF7EEFA0A900F992C
:103AC000486888600D9802900F99059148680190A8
:103AD0000C98C96806F018F80199024602980392FA
:103AE00006F012F8039905F04BFF049012980A991A
:103AF00006F00AF8049905F043FF059908610F984C
:103B00000069139902F00BFD0F9908610F98006985
:103B100010B010BD6F12833A0AD7233C80B58CB029
:103B20000B900A91099208930A99488A498B49088F
:103B3000401A07A9088007980B9988810A990A8B6F
:103B400064205043898BFCF76DFC05900598FDF7C8
:103B5000BDFB2C49FDF7A0FA049004987F21C9050C
:103B600005F05FFE002804D1FFE77F20C005049028
:103B7000FFE70498244905F0C7FF244905F000FF3A
:103B80000390002107A8405E0721C94388420ADB51
:103B9000FFE7002107A8405E082804DCFFE706A92C
:103BA0000020088010E0002107A8405E012805DB06
:103BB000FFE70798083806A9088004E0079808304E
:103BC00006A90880FFE7FFE7002106A8405EFDF791
:103BD00075FB0F4905F098FF02900398029905F0D4
:103BE000CFFE0C49019100F06BF809990860039829
:103BF000029905F0E1FF019900F062F80899086068
:103C00000CB080BD0000F041000070C10000E04138
:103C1000EC51383E0000184281B00090009900201D
:103C2000C88100990882009A012191740099C87492
:103C3000009948610099886101B0704782B0019095
:103C40006846017000980199087001990020488029
:103C50000199C8800199088102B0704782B001467D
:103C6000684601700078052803D3FFE7B848019043
:103C700006E0684600788100034840580190FFE75D
:103C8000019802B07047C0468CA0000080B582B099
:103C900001900198002801D1FFE70CE00198074945
:103CA000FCF7BDFB0199002008700199487001984C
:103CB000FFF7B2FFFFE702B080BDC0461C0800005E
:103CC00080B584B0029001910298019905F0A9FD98
:103CD000002803D1FFE70198039012E002980199B0
:103CE0000122D207514005F086FD002806D1FFE7EA
:103CF00001980121C9074840039002E0029803900F
:103D0000FFE7039804B080BD80B582B001900199AF
:103D1000C889088201990020C874019948610199F5
:103D2000886101980721FFF789FF02B080BD00007C
:103D300080B58CB00B900A9109920B980A210491DE
:103D4000415E7F20C005059020480029069001D4DF
:103D5000059806900499069807900B98405E0028F5
:103D60000FD1FFE70B980C21415E7F20C005029028
:103D700016480029039001D40298039003980790F5
:103D8000FFE70B9840883C21FCF74CFB014608A854
:103D900001800078C007002806D0FFE707980121BE
:103DA000C90748400790FFE707980949019105F0C6
:103DB000ABFE01990A9A106007980122D207504081
:103DC00005F0A2FE099908600CB080BD000080BF1C
:103DD0000000404180B584B00290019100920299A8
:103DE000887C401C88740298807C012804D8FFE7F6
:103DF00003A90120087024E0029900208874029829
:103E0000C089400A002804D0FFE703A900200870F9
:103E100017E0019800F03CF80299CA8992008918CD
:103E20008883009800F034F80299CA8992008918B2
:103E3000C8830299C889401CC88103A90120087061
:103E4000FFE703A8007804B080BD83B0019001981B
:103E5000002804D1FFE702A90020087013E00198B0
:103E6000017801200129009007D0FFE70198007830
:103E7000801E414248410090FFE700980121084020
:103E800002A90870FFE702A8007803B0704700009D
:103E900080B586B0059005981A4905F035FE049066
:103EA00004980190002105F0A6FC01463F20000681
:103EB000BF22120602920029039001D102980390BA
:103EC0000198039905F05CFD049004980E4905F0F3
:103ED000A8FC002803D1FFE70B4804900CE00498ED
:103EE000C721090605F087FC002804D1FFE7C72099
:103EF00000060490FFE7FFE70498FDF77DF906B0A0
:103F000080BDC0460000204100FEFF4682B0019007
:103F10006846017000980199487002B0704700002F
:103F200082B001466846017000780B2803D3FFE792
:103F30000748019006E06846007881000348405831
:103F40000190FFE7019802B07047C046A0A00000B2
:103F5000E6A1000082B001900198017B00200029B9
:103F6000009022D0FFE70198417B002000290090BB
:103F70001BD0FFE70198817B00200029009014D01E
:103F8000FFE70198017C00203C2900900DD3FFE75A
:103F90000198418B00200029009006D0FFE701988E
:103FA000808B411E88410090FFE700980121084066
:103FB00002B0704784B003900398017B0020002971
:103FC000029014D0FFE70398417B00200029029063
:103FD0000DD0FFE70398017C0120002200923129D7
:103FE000019001D80098019001980290FFE7029893
:103FF0000121084004B0704780B58CB00B900A9145
:1040000009920B98002808D0FFE70A98002804D0EE
:10401000FFE70998002801D1FFE71DE20999002078
:104020000860099948600B980078099908720B9804
:104030004078099948720A980078002810D1FFE763
:104040000B980021FFF7FAFD0B98FFF7E5FD0B98A1
:104050000078099908720B98407809994872FBE139
:104060000B98007800280BD1FFE70B9900204870CF
:104070000B98FFF7D1FD0B980121FFF7DFFDFFE75C
:104080000B984088F549884205D0FFE70B9948888E
:10409000401C4880FFE70A98FFF75CFF08A90870FA
:1040A0000A98FFF787FF07A908700B98007804901B
:1040B0000A2800D9C6E10498810001A0405887462B
:1040C00043440000ED4000006B410000C941000086
:1040D00015420000B1420000FB4200000343000013
:1040E000D74300003F4400004144000007A8007887
:1040F000002806D0FFE70A98406800F0B5F9039061
:1041000003E00A9840680390FFE703980999086064
:1041100007A80078002806D0FFE70A98806800F01A
:10412000A3F9029003E00A9880680290FFE70298E2
:104130000999486008A80078002815D0FFE70A9878
:1041400040880B9948810A99488A498B4908401A46
:104150000B998881099900200860099948600B989B
:104160000321FFF76BFDFFE76DE10A98406800F05F
:104170007BF9099908600A98806800F075F9099937
:10418000486008A80078002815D0FFE70A98408802
:104190000B9948810A99488A498B4908401A0B991A
:1041A0008881099900200860099948600B980321CB
:1041B000FFF744FD07E00B99002088800B98012150
:1041C000FFF73CFDFFE73EE108A80078002804D097
:1041D000FFE70B990020C8800EE00B99C888401CAF
:1041E000C8800B98C0880A2805D3FFE70B980121E7
:1041F000FFF724FD27E1FFE70B984088142808D338
:10420000FFE70B98FFF708FD0B980421FFF716FD59
:10421000FFE718E10B9840889249884208D3FFE7EE
:104220000B980221FFF772FE0B98FFF76DFD0AE174
:1042300008A8007800280AD0FFE70B990020C88062
:104240000B980A99099A131DFFF768FC1AE00B985E
:10425000C0888249884205D0FFE70B99C888401C76
:10426000C880FFE709997E480860099948600B9863
:10427000C0880A2805D3FFE70B980521FFF7DEFC6D
:10428000E1E0FFE70B9809994A680968FFF7A2FD8A
:10429000014606A801700078002808D1FFE70B98B6
:1042A0000321FFF733FE0B98FFF72EFDFFE7CAE06F
:1042B00009996B480860099948600B9809994A6800
:1042C0000968FFF787FD014606A8017000780028FD
:1042D00008D1FFE70B980321FFF718FE0B98FFF7B3
:1042E00013FD09E00B984088C82804D3FFE70B981A
:1042F000FFF70AFDFFE7FFE7A5E00B98FFF704FDD6
:10430000A1E00B98C0890521FCF78CF805A908806D
:104310000B98008A0988884211DCFFE70A984078E8
:1043200000280CD0FFE70B9800894C49884205D043
:10433000FFE70B990889401C0881FFE703E00B9910
:1043400000200881FFE70B980089032805D3FFE7C9
:104350000B980821FFF772FC75E00B98C07C0028D1
:104360002CD1FFE70B98008A002805D1FFE70B98B6
:104370000821FFF763FC66E00B99088A401E08825B
:104380000B98018A890040181C21405E00F078F8E3
:104390000121C907019148400B9948610B98018A96
:1043A000890040181E21405E00F06AF801994840DB
:1043B0000B9988610B990220C874FFE70B9840693C
:1043C000099908600B988069099948600B99C87C25
:1043D000401EC87437E00A98407800280CD0FFE7E8
:1043E0000B9800891D49884205D0FFE70B99088981
:1043F000401C0881FFE703E00B9900200881FFE7DC
:104400000B980089032805D3FFE70B980921FFF7D4
:1044100015FC18E00B98408880084B2809D3FFE76B
:104420000B980421FFF772FD0B980A21FFF706FC99
:1044300009E00B9809990A1DFFF77AFC03E002E0F6
:1044400001E0FFE7FFE70B980078099908720B98E5
:10445000407809994872FFE70CB080BDFFFF00006B
:1044600000003041EE02000080B582B0019001985A
:10447000024905F049FB02B080BDC046ABAAAA3E86
:1044800080B582B0014601A801800021405EFCF7A2
:1044900015FF0249FCF700FE02B080BD000020417C
:1044A00081B000900099087800024978401800B265
:1044B00001B0704780B586B0354804908F2109015E
:1044C000FBF7ADFFE120410201200390314A324B5E
:1044D00004F0A2FA04F05EFF3020102100910022C7
:1044E00005921123019301F085FE0099019B039A27
:1044F0000720029001F07EFE04F0D8F805F0A0F845
:104500000498243003F0ECFE0498403003F0E8FEF9
:1045100002F068FA0498643002F060F80498783089
:10452000FFF7B4FB04981D494018FFF72DFA0498D3
:104530001B49401803F0AAF802F03EFC00F036FEDA
:104540001848194900F092FB0298059901F050FFB4
:10455000C82004F017F80298039901F049FF059864
:1045600005F062F8049A01460398D16105F05CF801
:104570000499024605980A620C4A885400F0CCFB64
:104580000B4800F063FB0B4800F060FB06B080BDF9
:10459000400120202620010027200100C80800003B
:1045A000DC0800002D5100006D5200009C08000046
:1045B0007EA2000046A20000B0B5C8B0FFE70A2006
:1045C00003F0E0FFFE4916910868401C086000F007
:1045D000F7FC014647A80170007800F019FA169818
:1045E000006804F013FF16990868452252018918E3
:1045F00004F06CFE16985C3002F014FA1698807B7A
:10460000002803D0FFE702F079FE02E002F0A6FCEA
:10461000FFE702F0CDFB0146F0488161807B002876
:104620000BD0FFE7ED48808880084A2805D8FFE7CF
:10463000EA498888401C8880FFE7E848817B0020A1
:10464000002915900ED0FFE7E448808881080120FA
:10465000002213924A29149001D8139814901498A8
:104660001590FFE71599012001403DA80170002138
:104670003C913B91007800281AD0FFE7D748007C96
:10468000032815D0FFE7D548007C042807D0FFE7B2
:10469000D2487830FFF7D9FB002809D0FFE7CF498F
:1046A000084664305C313CAA3BAB01F0EFFFFFE70A
:1046B0000020109046904590449043904290419045
:1046C00040903F903D983FAA11921070C348014618
:1046D0005C318B785370898851803C9940913B992B
:1046E000419145214B01C11812914C7C14738C7C73
:1046F0005473C45C02252C4064089473C35C042486
:1047000023409B08D3738B7B13744B8853828B8815
:104710009382CB88D3820B8913834B8953838989F6
:1047200091837821415C3EAA1170007C022808D157
:10473000FFE7F348AA49421878303FA9FFF75CFC2D
:104740000EE03C9AEE48A649425041183B9848601A
:104750003DA80078421E9041087200204872FFE791
:104760003EA80078E6497822895C88420BD0FFE7B2
:10477000E3487821405C012805D1FFE7E048643038
:1047800001F02CFFFFE73DA80078002805D0FFE7E7
:10479000DB48934940580F9002E000200F90FFE75C
:1047A0000F983A903DA80078002805D0FFE7D4483C
:1047B0008C4940580E9002E000200E90FFE70E98C2
:1047C00039903DA80078002871D0FFE7CC48007CE4
:1047D00003286CD1FFE7CA490D91CA4808180C900C
:1047E0004969FFF7EFF80C980D9989697F4A0392A0
:1047F0004122120602927E4A0192002300937D4AD2
:10480000FFF71CF90C9902460D98389249683791C8
:10481000C07B002812D1FFE73798774905F001F8EF
:10482000002807D1FFE73798744905F007F80028FA
:1048300004D1FFE7B2490120C8731CE0B048C07B37
:10484000002817D0FFE737986D4904F0EAFF0028E9
:1048500010D1FFE737987F21C90504F0CCFF00286D
:1048600008D1FFE7F4480021C173A6494018FFF7BB
:104870009AF8FFE7FFE7F048C07B002803D1FFE785
:1048800000203890FFE738980121C90748403A9046
:1048900038983990E8480A9024305A490B9103F02F
:1048A0006BFD0A980B99403003F066FD0CE0E2487E
:1048B000089024304C49099103F05EFD089809994D
:1048C000403003F059FDFFE739993A9800F084FE33
:1048D000D948007C022826D1FFE73EA80078D649B7
:1048E000494A895C88421ED0FFE73EA80078FFF75E
:1048F00017FB0590D048D14940180490007AFFF783
:104900000FFB014604980691407AFFF7A7F9059A34
:10491000069B00903D4917A80790FBF7E9FC079814
:1049200000F094F9FFE7C448007C022809D1FFE7B2
:10493000C1483549405C092803D1FFE700F03AFE41
:10494000FFE7BD480189491C0181008914280AD369
:10495000FFE7B949002008813DA80078399A3A99C3
:1049600000F0E8FDFFE7B448C188491CC180C08859
:10497000322807D3FFE7B0490020C880302001F07B
:1049800069FDFFE7AC484189491C418140893228D3
:104990000DD3FFE700F0B6F9002808D1FFE7A649DC
:1049A000002048813DA8007800F0F6FCFFE7A2480F
:1049B0008189491C81818089C8280DD302E0C046C5
:1049C000400120209C49002088813DA80078399A28
:1049D0003A9900F09DF8FFE7F1E5C046400120203C
:1049E000940800009808000000007A440AD7233C8D
:1049F00000009041CDCC4C3F000020C00000204082
:104A0000000080BF000016449C080000A3A2000024
:104A100080B58CB001460BA801700078002801D148
:104A2000FFE76BE00BA80078012803D1FFE700F057
:104A3000C1FD63E00BA80078142818D1FFE700F04F
:104A4000B9FD32490020039000F010FC7D20049055
:104A5000800002F071F8039802F048FA0498C00050
:104A600003F090FD00F052F900F056F946E00BA873
:104A7000007815281DD1FFE700F09CFD6E487149B4
:104A8000401802F0FDFDFCF7DDFA02460B461E4918
:104A900005A80290FBF72CFC0299002000F0E6FB31
:104AA0007D20C00003F06EFD00F030F900F034F915
:104AB00024E00B986049019108740120887300205C
:104AC0008880C87302F074F90146019841610D496C
:104AD00040180090FEF767FF009801994969FEF7BA
:104AE00071FF01987830FFF7D1F80198643001F038
:104AF00075FD00F0C7FC00F0B3F8FFE70CB080BD17
:104B000040012020C8080000A2A3000072A30000FA
:104B1000F0B5EFB003466EA803706D916C9200780B
:104B2000199045481890454940181690007AFFF7AB
:104B3000F7F9014616981A91407AFFF78FF8014667
:104B400018982A915C21415C219101465C31042234
:104B50008C5E4521490140181B90457C867C877BF3
:104B60004188299181882891C188279100892690C0
:104B70006D98FCF741FB25906C98FCF73DFB0146D6
:104B800018982491C06A2E49179104F0BDFFFCF7D4
:104B900033FB1799024618982392806C04F0B4FFF7
:104BA000FCF72AFB0146189822918069FCF74AFA23
:104BB0000246189820921F912249401802F060FD89
:104BC000FCF740FA199A1A9B1E901B9840691D9099
:104BD0001B9880691C901B98006A14901C98139075
:104BE0001D9812901E9811911F99109020980F9166
:104BF00021990E9022980D9023980C9024980B9058
:104C000025980A9026980990279808902898079048
:104C1000299806902A980597049603950294019185
:104C2000009009492CA82B90FBF762FB2B9800F011
:104C30000DF86FB0F0BDC046400120209408000080
:104C40000000C842DC080000BEA2000080B582B0AF
:104C500001900199012004F0B5F802B080BD000078
:104C60007B49002008707D490870704710B586B0F8
:104C70000590049105987749086004987649086082
:104C8000734801210170774A00201070744A107037
:104C9000724A117003A90870FFE703A8007803287F
:104CA0002DDCFFE703A801900178AA48405C0021B1
:104CB000029101220092042301F09CFA009B019AC8
:104CC00002981178CC00BD490B551478E4000C19FA
:104CD00063701378DB00CB1898701378DB00CB1867
:104CE00098801378DB00CB1898711278D20089185D
:104CF000C871FFE70398401C03A90870CDE706B010
:104D000010BDC046F64800787047C046F4490120FF
:104D10000870F4490870704710B592B0F0480078F8
:104D200000280AD0FFE74B480068002805D0FFE7BD
:104D300049480068002801D1FFE787E0454801683D
:104D4000002005908847059811A90870FFE711A871
:104D50000078032876D8FFE7F348007811994018C7
:104D60000AA9087009A900200870FFE709A80078BF
:104D700014280BD8FFE709A802780BA92020885433
:104D8000FFE70998401C09A90870EFE70BA900206C
:104D900048750AA80078072847D8FFE70AA80178CD
:104DA000CA00D14989184968089107AA00211170E1
:104DB00006AA022111700178DA4802783E202023E9
:104DC00003939142049001D00398049004980BA996
:104DD0000870FFE7089807A90978415600200029C4
:104DE00002900DD0FFE706A8017801200022009272
:104DF0001529019001D30098019001980290FFE7D6
:104E00000298C00700280FD0FFE7089807AA11787A
:104E1000405C06A90C780BAB18550798401C107025
:104E20000698401C0870D5E7FFE70B480268119808
:104E30004000C0B20BA99047FFE71198401C11A990
:104E4000087084E7A74900200870FFE712B010BD82
:104E50004C0B2020480B2020500B2020880B2020BA
:104E6000F40A2020890B202080B584B0014603A8D5
:104E700001700178CA0051498918029101783548BA
:104E8000405C01F09DF9014601A80170007802998B
:104E90000978884207D0FFE70198029908700299C3
:104EA000002088703AE002988078022835D8FFE721
:104EB00002998878401C88700298807803282BD14A
:104EC000FFE70298407801A90978884223D0FFE7DC
:104ED00001980299487001A80078002806D1FFE7E0
:104EE0000299002088800299C87113E00298808896
:104EF000632809D8FFE70298C079002804D1FFE7AA
:104F0000029901208871FFE70299002088800299A8
:104F1000C871FFE7FFE7FFE7FFE7FFE70298407888
:104F2000002814D1FFE70298808863280ED8FFE795
:104F300002998888401C888002988088642804D15F
:104F4000FFE702990120C871FFE7FFE7FFE704B020
:104F500080BDC0460CA1000082B0014668460170C9
:104F60000078C10015484018C07901280BD1FFE72F
:104F700068460078C100114841180220C87101A993
:104F80000120087003E001A900200870FFE701A8D4
:104F9000007802B07047C04682B001AA1070107845
:104FA000C000064908188379684603701278D20059
:104FB0008A1800219171007802B070470A0B2020F6
:104FC00080B584B002A900200870FFE702A800782D
:104FD00003280ADCFFE702A80078FFF745FFFFE798
:104FE0000298401C02A90870F0E70320FFF7B4FF05
:104FF000002806D1FFE70320FFF7CEFF002806D0E8
:10500000FFE7FFF783FE03A90120087063E034483F
:10501000007800280ED1FFE700200090FFF7BCFFCA
:105020000120FFF7B9FF0220FFF7B6FF009803A9A0
:10503000087050E00020FFF7AFFF002814D0FFE712
:1050400038480078002804D1FFE736490720087067
:1050500004E034490878401E0870FFE700F046F885
:10506000204901200870FFE70120FFF795FF002885
:1050700012D0FFE72B480178491C017000780828FE
:1050800004D3FFE7274900200870FFE700F02EF85F
:10509000144901200870FFE70220FFF77DFF002878
:1050A0000DD0FFE71F480078C1000F48405C01A900
:1050B0000870FFF7D5FD019803A908700BE00948B7
:1050C0000078002803D0FFE7FFF726FEFFE703A9DB
:1050D00000200870FFE703A8007804B080BDC04638
:1050E0004C0B2020880B2020CCA000000D4800781D
:1050F0000D490978884205DAFFE70A4800780A492D
:1051000008700EE00748007807490978091D8842B1
:1051100006D3FFE703480078C01E03490870FFE785
:10512000FFE77047890B2020F40A202080B584B067
:1051300003A90870212000F093F90020019000F0ED
:105140008FF97F2000F08CF9222000F089F9019876
:1051500000F086F9072000F083F9C948009002F0BA
:1051600007FF0098017A4906090E02F06FFE0098C9
:10517000402102F06BFE019802A90880FFE702A817
:105180000088800A00280BD1FFE703A80178BC48FB
:1051900002F05CFEFFE70298401C02A90880EEE7DF
:1051A000B74802F051FF04B080BDC04680B584B05E
:1051B0001C200090B2483C210A221F2302F084FCEC
:1051C000642003F0DFF9AE2000F04AF9D52000F0AA
:1051D00047F9802000F044F9A82000F041F93F2071
:1051E00000F03EF9D32000F03BF90020039000F0DE
:1051F00037F94020029000F033F98D2000F030F9AB
:10520000142000F02DF9202000F02AF9039800F076
:1052100027F9A12000F024F9C82000F021F9DA20B4
:1052200000F01EF9122000F01BF9812000F018F99F
:105230007F2000F015F9D92000F012F9F12000F0DC
:105240000FF9DB2000F00CF9029800F009F9A42016
:1052500000F006F9A62000F003F9AF2000F000F9F5
:105260000398FFF763FF04B080BDC04680B58CB0E3
:105270000BAA059210700A9109A9002004900870E9
:10528000212000F0EDF8049800F0EAF87F2000F00B
:10529000E7F8222000F0E4F80598007800F0E0F844
:1052A0000598007800F0DCF87548069002F060FE82
:1052B0000698017A4906090E02F0C8FD06984021B9
:1052C00002F0C4FDFFE70A99002009560029039067
:1052D0000DD0FFE709A801780120002201927A2968
:1052E000029001D30198029002980390FFE703987F
:1052F000C007002839D0FFE70A980021405620282F
:1053000006DBFFE70A98002140567F2804DBFFE711
:1053100008A90020087005E00A980078203808A93C
:105320000870FFE707A900200870FFE707A80078CA
:10533000052816D8FFE708A800780621414315483C
:10534000401807A90978415C4D4802F07FFD099893
:10535000401C09A90870FFE70798401C07A90870BE
:10536000E4E70A98401C0A90ADE7FFE7002109A88E
:105370004056002809D4FFE74148002102F066FDAD
:105380000998401C09A90870F0E73D4802F05CFE4E
:105390000CB080BD649E000080B594B013A9079145
:1053A000087027490020FFF761FFBA4809907F493C
:1053B000405CFEF7B5FD024622490DA80890FAF7B9
:1053C00097FF08990220FFF751FF099845214901ED
:1053D00040180A90417C1C481C4A0B9200290C90F2
:1053E00001D10B980C9008980A990C9A8B7B18495C
:1053F000FAF77EFF08990420FFF738FF0798017835
:105400001448154A05920029069001D10598069086
:105410000998069903918069FBF714FE039A0346E5
:10542000089804930B460499019300910B49FAF7ED
:105430005FFF08990620FFF719FF14B080BDC04632
:105440008AA30000AEA3000000A400006EA3000029
:10545000B6A3000081A3000085A3000096A300006E
:1054600080B582B001A908706946002008700198D3
:1054700048700348022202F0D5FE02B080BDC0464B
:10548000300A202080B582B082480190243000216B
:10549000009102F084FF00990198403002F07FFFF4
:1054A000009804F0C1F80199C861012004F0BCF82B
:1054B0000199086203F074F902B080BD80B586B02E
:1054C00005900598754904F01FFB0490049801901D
:1054D000002104F090F901463F200006BF22120689
:1054E00002920029039001D1029803900198039938
:1054F00004F046FA049004980D4904F092F900284B
:1055000003D1FFE70A4804900CE00498C72109067C
:1055100004F071F9002804D1FFE7C72000060490C9
:10552000FFE7FFE70498FBF767FE06B080BDC046C3
:1055300000FEFF4680B586B0034605A803700491BF
:1055400003925449194A895C01AA117000215170D3
:105550000078002806D0FFE701A94878012210430F
:105560004870FFE74B481149405C0A2806D1FFE725
:1055700001A94878082210434870FFE745480C49C4
:10558000425C01A900918A705C22805CC87004981A
:10559000FFF794FF009988800398FFF78FFF01467B
:1055A0000098C18003F0D0FF06B080BD9C080000C9
:1055B0009D08000080B53748002181738180C17348
:1055C000017404494018FEF7EEF9FFF75BFFFFF79F
:1055D0009DFB80BDC8080000B0B590B00F900E9143
:1055E0000F992C480790243002F0D9FE07980E99A5
:1055F000403002F0D4FE07980078C007002801D0A0
:10560000FFE745E000240494204604F00DF80D90D7
:105610000120069004F008F80C900D9A1D480390A4
:10562000C169891A0B910C99026A891A0A910D991C
:10563000C1610C9901620B990A9A174BC01802F0CC
:1056400035F803980B99009424307F22D3050293F8
:10565000124A019202F0F8FE019A029B0146039859
:1056600009AD059529800A990094403002F0ECFEBE
:105670000146049808AA11800899494209B203F02A
:105680006BF8049A05990698895E03F065F8FFE7C0
:1056900010B0B0BD40012020DC0800000000204117
:1056A00080B582B0019000F00BF8FDF777FF00F0B5
:1056B00035FF02F065FF00F081FE02B080BD000002
:1056C00080B592B040480090FDF79CFA3F480190A9
:1056D000FDF798FA0098FDF75DFA0198FDF75AFA80
:1056E0003B480290FDF7CEFC3A480390FDF7CAFC18
:1056F0000298FDF7BDFC0398FDF7BAFC364804900C
:10570000FDF7C0FC35480590FDF7BCFC3448069019
:10571000FDF7B8FC33480790FDF7B4FC3248089019
:10572000FDF7B0FC0498FDF7A3FC0598FDF7A0FC7D
:105730000698FDF79DFC0798FDF79AFC0898FDF781
:1057400097FC2A480990FDF739FD29480A90FDF792
:1057500035FD28480B90FDF731FD27480C90FDF7EB
:105760002DFD0998FDF7D4FC0A98FDF7D1FC0B98A4
:10577000FDF7CEFC0C98FDF7CBFC20480D90FDF713
:105780005DFA1F480E90FDF759FA0D98FDF74AFA99
:105790000E98FDF747FA012080070F90FDF784F976
:1057A00018481090FDF780F90F98FDF773F91098DD
:1057B000FDF770F914481190FDF78CFD1198FDF775
:1057C00073FD12B080BDC04600000A4000200A40B0
:1057D000000086400020864000400840008086404F
:1057E00000A0864000000940000087400080104073
:1057F0000000104000201040000050400080464053
:1058000000A04640002000400000034080B584B066
:1058100003AB187002910192FFE703A800780028FB
:1058200005D1FFE710480078002801D1FFE718E014
:105830000E480078002802D0FFE7FFE7FEE70B499B
:105840000878401C087000F059FE00F0EBF9FFE703
:105850000299019A0648002300F03EF800F00AF889
:10586000F6E704B080BDC046DC002020400A2020BE
:1058700067A4000082B00020019000900190FFE733
:105880000198FF2813D8FFE700200090FFE7009859
:10589000000C002806D1FFE700BFFFE70098401C7E
:1058A0000090F4E7FFE70198401C0190E8E702B0A0
:1058B0007047000080B582B005490191002003F0D7
:1058C0003BF901990348012200F0A6FA02B080BD1D
:1058D000580A2020590A202070B5FFB0A5B0A39027
:1058E000A291A192A0939EA9002008809DA9088062
:1058F0009CA9099108809BA908809AA90880A29870
:10590000FAF70CFD09990880BF480088002804D0E8
:10591000FFE7BD4800698047FFE7BC4800780028E2
:1059200000D16DE1B8480088002800D145E1B648B3
:105930000890C3689AAA1188481C1080A39A002076
:105940009847A2989F90A298FAF7E8FC08999CAA19
:10595000108048888979FAF765FD9BA90880FFE7E0
:105960009F98411C9F9100214056002801D0FFE7DD
:10597000F6E79DA900200880FFE79DA80188002088
:10598000012907900DDCFFE7002105919CA8415EED
:1059900001200029069001DA0598069006980790E4
:1059A000FFE70798C00700281AD0FFE79F98401E1E
:1059B0009F909F98002140562F2806D0FFE79F9880
:1059C000002140565C2805D1FFE79D98401C9DA909
:1059D0000880FFE7FFE79C98401E9CA90880CCE761
:1059E00000219CA8405E002809D4FFE79F98401C36
:1059F0009F909F9A88495AA8FAF77AFC11E09DA8CF
:105A00000088002806D1FFE79F9A84495AA8FAF730
:105A10006FFC05E09F9A80495AA8FAF769FCFFE7F6
:105A2000FFE79EA900200880FFE79EA80088049059
:105A30005AA8FAF773FC00229BA9895EFAF7F2FCD8
:105A400001460498491C884245D2FFE79DA90020E1
:105A50000880FFE79DA8008800229BA9895E8842F4
:105A600024DAFFE75AA8FAF759FC9DA909889EAAEB
:105A7000138800249BAA125F5A438918884201D2D6
:105A8000FFE713E09DA908889EAA138800249BAA1B
:105A9000125F5A4382185AA8805C0A884AA988541F
:105AA000FFE79D98401C9DA90880D3E79DA8018829
:105AB0004AAA002050545449CB68CC799A994D1C7D
:105AC0009AAE3580614389B29847FFE79E98401CA3
:105AD0009EA90880A9E7A19A51495AA80390FAF70C
