:020000040000FA
:10000000205A2020C1020000C5020000C7020000E3
:1000100000000000000000000000000000000000E0
:10002000000000000000000000000000C902000005
:100030000000000000000000CB020000CD02000024
:10004000CF020000E9480000454C00005D4D000073
:10005000CF020000CF020000CF020000CF0200005C
:1000600000000000CF020000CF02000000000000EE
:1000700000000000B14C00000D4D00005D4C000080
:10008000054C0000254C0000E54B0000F54B00003E
:10009000354C0000154C000000000000000000007E
:1000A000CF020000CF0200000000000000000000AE
:1000B000CF02000000000000CF020000CF020000CD
:1000C00000F002F800F0D1F812A030C80838241867
:1000D0002D18AC4201D100F0C8F80FCCA246AB46B7
:1000E0000CA730CF2D1B083F3F197C427F1E544484
:1000F0002D090426F441641EAC4201D300F0B5F88A
:100100000126334200D0FB1A3343984754465D46DC
:10011000DFE700007CDD00009CDD00000000000047
:10012000103A02D378C878C1FAD8520701D330C840
:1001300030C101D504680C60704700000000000069
:100140007047000000000000002300240025002666
:10015000103A01D378C1FBD8520700D330C100D583
:100160000B60704710B56E2902D101F0B9F910BDCE
:10017000702902D101F0F3FA10BD662902D10DF009
:1001800025F810BD652902D10DF020F810BD6729B2
:1001900002D10DF01BF810BD612902D10DF01EF83F
:1001A00010BD03681B0A01D380231943692902D1BA
:1001B00001F060F910BD642902D101F05BF910BDB6
:1001C000752902D101F056F910BD6F2902D101F055
:1001D00071FA10BD782902D101F0AEFA10BDE929FB
:1001E00002D101F00DFA10BDE42902D101F008FAA4
:1001F00010BDF52902D101F003FA10BDEF2902D19B
:1002000001F064FA10BDF82902D101F0A3FA10BD83
:100210000368DB0901D380231943632902D102F06B
:100220000CFB10BD732902D102F00FFB10BDE329B6
:1002300002D102F019FB10BDF32902D102F01CFB20
:1002400010BD002010BD1FB503F0BEF80400002053
:1002500000210CF057FD401C6060002000210CF0D4
:100260003BFDE0601FBD10B510BD03F085F81146E1
:10027000FFF7E9FF09F068FA03F02AFC03B4FFF77F
:10028000F2FF03BC04F0C6FD70B505460C461646E9
:1002900002E00FCC0FC5103E102EFAD2082E02D36A
:1002A00003CC03C5083E042E07D301CC01C5361F7D
:1002B00003E021782970641C6D1C761EF9D270BD94
:1002C00006480047FEE7FEE7FEE7FEE7FEE7FEE73B
:1002D00003480449044A054B70470000C100000070
:1002E00020462020205A2020204A2020204A20205A
:1002F0000FB41CB5084B06AA7B44694600900598CC
:1003000001F007F904460020694601F015F920467E
:100310001CBC08BC04B018473D1200000FB400B567
:100320008DB010A909900B900020C04300910A9055
:1003300000200C90074878440690074878446A46A5
:1003400007900F9909A801F09FFC0DB008BC04B0FC
:1003500018470000731900008D19000030B5441CC7
:1003600003E00178401C00290DD08107F9D10B4B27
:10037000DD0104C8D11A91432940FAD0001B0A06B6
:1003800003D0C01E30BD001B30BD0A0401D0801E4A
:1003900030BD0902FCD0401E30BD0000010101014A
:1003A000F8B5042A2CD3830712D00B78491C0370AC
:1003B000401C521E83070BD00B78491C0370401C55
:1003C000521E830704D00B78491C0370401C521E38
:1003D0008B079B0F05D0C91ADF002023DE1B08C93D
:1003E0000AE0FFF751FFF8BD1D4608C9FD401C4655
:1003F000B4402C4310C0121F042AF5D2F308C91AC6
:10040000521EF0D40B78491C0370401C521EEAD4D3
:100410000B78491C0370401C012AE4D40978017050
:10042000F8BD01E004C0091F0429FBD28B0701D5E8
:100430000280801CC90700D00270704700290BD0D1
:10044000C30702D00270401C491E022904D383074F
:1004500002D50280801C891EE3E70022EEE700221D
:10046000DFE70000024670B50A4392072AD11E4D0D
:10047000EE0104C808C9541B9443344017D0D0B2CD
:10048000D9B2401A2106014310D190B299B2401A54
:10049000210401430AD110021902000A090A401A74
:1004A0002102014302D1100E190E401A70BD9A426A
:1004B000DFD010BA19BA884201D9012070BD0020DE
:1004C000C04370BD02780B78401C491C002A09D03B
:1004D0009A4207D102780B78401C491C002A01D0AF
:1004E0009A42EFD0D01A70BD010101010022030928
:1004F0008B422CD3030A8B4211D300239C464EE03F
:1005000003460B433CD4002243088B4231D30309FA
:100510008B421CD3030A8B4201D394463FE0C309AC
:100520008B4201D3CB01C01A524183098B4201D3C4
:100530008B01C01A524143098B4201D34B01C01AAF
:10054000524103098B4201D30B01C01A5241C30827
:100550008B4201D3CB00C01A524183088B4201D396
:100560008B00C01A524143088B4201D34B00C01A82
:100570005241411A00D201465241104670475DE097
:10058000CA0F00D04942031000D3404253409C465A
:10059000002203098B422DD3030A8B4212D3890117
:1005A000FC2212BA030A8B420CD3890192118B42AE
:1005B00008D3890192118B4204D389013AD0921158
:1005C00000E08909C3098B4201D3CB01C01A524113
:1005D00083098B4201D38B01C01A524143098B42DC
:1005E00001D34B01C01A524103098B4201D30B01C5
:1005F000C01A5241C3088B4201D3CB00C01A5241EA
:1006000083088B4201D38B00C01A5241D9D24308D0
:100610008B4201D34B00C01A5241411A00D201460D
:100620005241104663465B1001D34042002B00D577
:100630004942704763465B1000D3404201B505490B
:10064000002802DC491C084000E00846C046C046BD
:1006500002BD00BFFFFFFF7F70477047704700007B
:10066000F0B50C46871A9C410D46861A9D4103D26F
:10067000C01BA141D21963410D0D1F0DC94EEC1BCA
:10068000AE435CD07F057F0D0026002F51D02D0595
:10069000AC46A943DD020123ED0A1B051D432023BF
:1006A0001B1B24D41746E740381871412F46E740FA
:1006B000CC199D402818314661410C0D27D1614469
:1006C0009A4013D50023401C594152000ED14008D6
:1006D000400001224B005205D34207D305204007BA
:1006E000C14201D5B04900E0B0493046F0BD6B00D1
:1006F000002A00D001229A181F23203C1B1B01D581
:10070000002302E0E540281871410C0DD7D00124E8
:1007100024050919C407CD0740084908E40F2843F8
:100720006144002CD5D00024401C61419A40D0D1B6
:10073000CDE76A05520DD9D1C90FC907D5E79C4D40
:100740004E00002801D0012400E0002434195F008D
:10075000002A01D0012600E00026BE19954FAC42C8
:100760000CD8AE420AD8B44206D001256D05EC4241
:10077000BCD010461946F0BD9942FCD00020394645
:10078000F0BDF0B51FB40C460F46811A9F412546B7
:10079000861A9D4106D20125ED076F40401ABC41E3
:1007A00052187B41210D1E0D8D1BAC467D4D8D4396
:1007B0007ED075056D0D7CD00D05AE46AC431B0398
:1007C0001B0B794D52429D41202366469B1B14D33F
:1007D0001746F740381800260090744160462F46AF
:1007E0000741E41900989D402818664116D47146C7
:1007F00071189A4025D5012320E093182A466A41B2
:100800005200002B00D0521C1E23203E9B1B002BAD
:1008100061DD3541EE1728186641E8D500187641AC
:100820005B1C9A4000D3401C4B05F3181524E34091
:1008300010D3002B52D071467118D30FC01802D3B9
:10084000491C05B0F0BD0123DB079A42F9D14008ED
:100850004000F6E701225205B21801D1002853D01A
:100860000123CC0ADB029943891E002A08D1020C1D
:1008700003D0020C0004103902E0024600202039A7
:100880000023550B05D112020823550B01D152014B
:100890000D23550C01D112011B1DD50C01D1920065
:1008A0009B1C150D01D152005B1C2025EE1A01E0A6
:1008B0002CE022E00546F54015439840CA1AE107AE
:1008C00069181305C918002ABBDA03204007081865
:1008D000C10FC9070FE071466118B2E7F107400880
:1008E0000843711071444A000CD001235B059A4201
:1008F000A7D2C90FC9070020A3E74905490D26D192
:10090000002001E00028F4D100219AE7284D66007C
:10091000002801D0012100E0002171185F00002AA9
:1009200001D0012600E00026BE19224FA94210D8AE
:10093000AE420ED8B14208D001256D05E94206D07D
:100940001946A802414010467BE79C4201D021464F
:1009500077E70020394674E710B50C465C4005D5B2
:100960000124E4076340FFF70CFF10BDFFF778FE9A
:1009700010BD30B40C465C4004D50124E40763404C
:1009800030BC6DE630BCFCE670B50124E407614084
:100990000D465D4002D4FFF763FE70BD6340FFF774
:1009A000F0FE70BDFF0700000000F0FF0000F07FC8
:1009B0000000E0FF0000F87FF0B5F94D0C091E09BA
:1009C0002C402E402F468BB0A7437DD0B543FCD0A2
:1009D000002E7AD0002CFCD00D465D40ED0F254353
:1009E000AC1BFF25AD0464190894C502440DC9026F
:1009F0002143500DDC0204430120C007014304439E
:100A0000D2020191200C110C00958C460104234662
:100A10008B430A9161460904E24D8A430991010A18
:100A20007D4449198039097805464D4301266D18E2
:100A3000F605751B6943C90C640B891C4C4364188B
:100A4000B5012C1B250C2E04B4434C434D43210C03
:100A5000691889090591009DE90701D00121C9079D
:100A600004912C4601996708CD072F434C08059D3A
:100A7000E10B4D432D0C29466646754302950D4604
:100A800045432E46029D7D1BB44100950D465D43B6
:100A900001942C0C2F040D465543AE462D0C3D43BE
:100AA000029503947546049C2D04641B049406D29D
:100AB000029C039D641C002675410395029401ACC1
:100AC00070CC009F7D1B01E03EE162E1B44109046E
:100AD0000095079101940599A4086143090C0C46FF
:100AE0004443650BE7040C4666467443A646640B14
:100AF0003C43039502947446049DE4042C1B049427
:100B000006D2029C039D641C002675410395029445
:100B100001AC70CC009F7D1BB44101940C465C433A
:100B20000095650FE7000C465443A646640F3C430E
:100B3000039502947446049DE4002C1B049406D291
:100B4000029C039D641C002675410395029401AC30
:100B500070CC009F7D1BB441AE09AF06049DC90057
:100B6000AD092F43049DA406AD060495079D3443AB
:100B700069180791059DE10B4D432D0C29466646EA
:100B8000754302950D4645432E46029D7D1BB4419B
:100B900000950D465D4301942C0C2F040D465543E2
:100BA000AE462D0C3D43029503947546049C2D04DE
:100BB000641B049406D2029C039D641C00267541AC
:100BC0000395029401AC70CC009F7D1BB44101944D
:100BD0008C050694079C890A611800950791019C71
:100BE0000599A4086143090C0D464543680BEF04C1
:100BF0000D46644665436C0B3C43049FED047D1B2E
:100C0000AC4602D20025641C6841009E019D371B42
:100C100085410846584301950C46460FC50054438C
:100C2000600F28436546E4002C1B02D20025401CBF
:100C30006E41019D3F1AB5412846BD0980062843F3
:100C40008446A009BF064E020699A40676180743FB
:100C5000079D002068410A99079019430020099BCD
:100C600000906046FF1913434041E20F64003A438D
:100C7000A4460446D71A8C41A04203D90120009013
:100C800020463A46C70F941840416246D20F22438D
:100C9000644664000494009CBE466400D71AA446CF
:100CA000044602978C417746002F01D1A04204D917
:100CB0006046401C8446029A2046C40FA6469418FB
:100CC0004041049A0546D20F224364466400D31A79
:100CD0008D417146002901D1A84202D928461A4601
:100CE000641C10430122002800D01643610200203A
:100CF000079B891904465C410223002C02DB49183A
:100D000013466441089DCE0A2D145D194B056705F5
:100D1000E10A2C050D1908993E43C9076940002BCB
:100D200008D0934006D30022761C5141002B01D1FC
:100D3000760876001C4A002D43DB154241D0AA43B9
:100D40003FD030460BB0F0BD06180D464D41174C54
:100D50007642AC411AD395181C465C41134A6D4249
:100D6000A24113D3012252054C00D4420AD15C00A7
:100D7000D4420BD04B4002D592021143E2E7490026
:100D80004908DFE75940C90FC90718E000200849A2
:100D9000D8E7054801420DD10342F7D0F2E7000041
:100DA0000000FF07F8C700000000F07F0000E0FF30
:100DB0000000F87F114859400143C0124140002013
:100DC000C0E70123089A9B069A4205DC03225207DA
:100DD0008918C90FC907B5E7052252078918074ABC
:100DE0001143D2125140ADE770B515461C4602467C
:100DF0000B4628462146FFF7DFFD70BDFFFFFF7F52
:100E000030B50346CA02400D1043164D164C0A1564
:100E100002D02043002A06DBAA1A002A12DDD040A5
:100E2000FF2A0BDC30BD5205520D01D140004008B5
:100E3000AA1A07D4D0404042FF2A01DD002030BD6D
:100E40000028FCDD4A00002B01D0012000E000203A
:100E5000101801225205D042F0D8C817C043604094
:100E600030BD00001E040000000000801F22030CA3
:100E700002D10F22000402D0030E03D004E00020B0
:100E8000014670470002083A030F01D10001121F0A
:100E9000830F01D18000921E002801DB4000521E0A
:100EA000120551184205C012411810467047C10F73
:100EB000C90700D04042012292071143D6E7012121
:100EC0008907D3E7F0B58B4C0F09254689B0BD43A0
:100ED0007BD01D092646AE43FAD00E465E40274021
:100EE000F60F3E43254071D024012142FBD0FF2460
:100EF000AD19A4042D1B039501252D05DB02DB0A8A
:100F0000C9022B43C90A29431E010901040F130F0B
:100F1000050121431701880B820391432D098C465B
:100F2000A90B1E438A039543B30B9A0396433F09CB
:100F3000BA0B9403A74302962E467E430497B64607
:100F40004E19D7190C460196544305977E43371B1B
:100F50007646BF1B3601B646BE0B3619009676465E
:100F6000BC043719009C01D3641C00946400002F5A
:100F700001D001263443029E049F754366467E439A
:100F80000496760034196E0034190094029C019E78
:100F90001C196643751BAE46069465464519059CAB
:100FA00005956C43594375460891691A0191049E51
:100FB00001465143A41B0491611A009C0791E1066C
:100FC00005D061090122114302E072E06EE061097F
:100FD000089D00272C0A2D066918049D7C412A0AC9
:100FE0002D066918019D6241AC0DAD026D1854418A
:100FF000079A910D920255196141029A644658432D
:101000005443069B059A5A43121A131B9A0E9B01CE
:101010005B187A41010B0005C3185141220A2006D2
:1010200044195A419A4200D2491C0120400281428F
:1010300003D315230226F64302E014230326F643C6
:101040002020C51AA9401746AF40DA400A4320467F
:101050000399D8400914731819055118039A384395
:10106000D2075140AC4009D00122944006D300225F
:10107000401C5141002C01D1400840001E4A9342BF
:1010800012D3012203989206904207DB0520400705
:1010900009181A480143C012414004E003204007E8
:1010A0000818C10FC907002009B0F0BD0020F107E2
:1010B000FAE705180C464C4111486D42A04115D382
:1010C00094181A465A410E48644290410ED30120AA
:1010D0004A004005824209D35A00824206D3594051
:1010E000C90F084AC90700201143DDE7002006495F
:1010F000DAE700000000FF07FE070000FFFFFF7FA8
:101100000000E0FF0000F07F0000F87F0121C9052A
:101110000123411842001B06D3185B0E0AD0C110F0
:101120000722D206891840075242D14201D5520007
:1011300089187047090208D50146002A03D0C10F5B
:10114000C9070020704710467047420202D00020B5
:1011500002497047072109050143F4E70000F87FC1
:10116000F0B5FF252D04C609C209FF2704462E400D
:101170000137CB093E4348402A402B400746002A0E
:101180006BD0002B69D0AA4267D0AB4265D0002853
:1011900000DA32460125ED0529432C4309022002DD
:1011A000090AD21A4B0C7F24E31A434C000A7C44F0
:1011B000E35C7D242404121914145B00A2188842F5
:1011C00001D3521C00E0400049420C465C4324110C
:1011D0005C43DB016415E318040A5C43C502200D7F
:1011E0000C4644436419250A5D432303EC0C0D4669
:1011F000654300030019EB184C42A34201D35B186E
:10120000401CD4052018002B07D05B00C91804D35C
:10121000401C002901D1400840003F2189048A4236
:1012200009D3002A08DC1106090F04D0032149075D
:101230004018C00FC007F0BD0122410012068918F6
:101240007F2252069142F6D205214907C84201D5B4
:101250009010F0BDFF20C005F0BD002F00DA32462F
:101260001648AA4207D2AB4205D21902090E17D07E
:10127000F80FC007F0BDFF2563002D06AB42F9D87B
:101280004900A942F6D8AB4201D1A942F2D0A94205
:1012900001D1002101E061004908D0050843F0BDFB
:1012A0001102090EFBD0FF200243D005F0BD0A4613
:1012B0000146104654E70000EAC000000000C07F6D
:1012C00010B501469E240002CA15A307002A02D0C9
:1012D0001843002A04DBA21A002A0CDDD04010BDFE
:1012E0001206120E01D140004008A21A03D4D040C9
:1012F00040420028F3DDFF2248001206904201D947
:10130000002010BDC817C043584010BD0102C215CF
:1013100004D00123DB071943002A0ADB9E239A1A13
:1013200002D40846D0407047FF2241001206914285
:1013300001D900207047C017C04370471F22030C1B
:1013400002D10F2200041CD0030E01D10002083A82
:10135000030F01D10001121F830F01D18000921EE3
:10136000002801DB4000521ED2055118021251180C
:101370001922904004D3491C002801D14908490092
:1013800008467047C10FC90700D0404201229207AA
:101390001143D3E701218907D0E710B500F012FE11
:1013A000006810BD10B5044600F00CFE046010BDCE
:1013B00070B5044685690068C10601D5302600E095
:1013C0002026C00707D070BD62683046A1689047EC
:1013D000206A401C20626D1EF6D570BD70B50446B3
:1013E00085690078C00707D170BD6268A1682020B8
:1013F0009047206A401C20626D1EF6D570BD0968BA
:101400004A0501D540B27047C905FCD500B2704706
:1014100009684A0501D5C0B27047C905FCD580B23C
:10142000704770B50C460546012A05D0287880061D
:1014300000D5EA69002302E0012305E05B1C93422A
:1014400002D2E05C0028F9D1A869E618C01AA861A8
:10145000286AC01828622846FFF7AAFF04E06A68D5
:101460002078A968641C9047B442F8D32846FFF757
:10147000B5FF70BDF7B5002575291068009914A651
:1014800011D0FFF7BCFF002802DA404211A608E0A5
:10149000009909688A0701D50FA602E0490704D51B
:1014A0000EA6012501E0FFF7B3FF009F00242437BB
:1014B00004E001F097FE30313955641C0028F8D162
:1014C0002B4632462146009800F0DEFDFEBD0000AE
:1014D000000000002D0000002B0000002000000094
:1014E00011680268006A530501D5087009E0D30548
:1014F00001D5088005E0130602D5C21705C100E03A
:10150000086001207047000001694A1C02610878E8
:10151000704700B58FB002910021059105490193F4
:101520007944039111460490684600F025F90FB004
:1015300000BD0000E5FFFFFF0A681070521C0A6042
:1015400070470000F7B50446154686B02B4878442E
:10155000002703C83E460090019111E007986A46B3
:101560007100415A02A801F01CFE411C07D02178ED
:10157000890603D5E269391891420ED83F18761CC6
:101580002078800602D5E069B84206DDAE42E5DB90
:1015900007987100405A0028E0D1A069C01BA061E3
:1015A0002046FFF705FF154878445A3803C80090D5
:1015B0000020019116E041006A460798415A02A8AE
:1015C00001F0EFFD0590401C0AD0002505E062689F
:1015D00002A8A168405D90476D1C05988542F6D32E
:1015E0000498401CB0420490E5DB206AC0192062D8
:1015F0002046FFF7F3FE09B0F0BD00008ABD0000F1
:10160000F7B5D21D0025D20815A6D200F52905CAC6
:1016100011D0002A05DA00214042914111A60A4664
:1016200008E0009909688B0701D50FA602E0490779
:1016300001D50EA601251146009F0024243704E0A1
:1016400000F0DCFC30323A55641C02460A43F7D104
:101650002B4632462146009800F016FDFEBD0000E4
:10166000000000002D0000002B0000002000000002
:1016700070B504460021243408E05507D2086D0FE8
:10168000303565545D072A43DB08491C15461D4368
:10169000F3D10468002310A2250708D520252C408B
:1016A0000C4304D0C46901230CA2641EC46100F081
:1016B000EBFC70BD10B5044621461068FFF7A8FE8C
:1016C000002302462046FFF7D3FF10BDD21DD108EC
:1016D000C9000CC9CCE70000000000003000000089
:1016E000F8B50F460188090502D5224C7C4402E07A
:1016F000204C7C440E3405460021243508E01607B2
:101700001209360FA65D6E541E0732431B09491C91
:1017100016461E43F3D1224604780023240705D53C
:10172000702F06D0002901D00223113200F0ACFC4A
:10173000F8BD01231032F9E770B504460D46214685
:101740001068FFF765FE0023024629462046FFF792
:10175000C7FF70BDD21DD308DB000CCBC0E730B48F
:10176000036820241268234303600823C36130BC4C
:101770000023B5E7F4BB0000F3B50446002081B0B8
:1017800020622046E1688847002872D0252802D0D0
:101790006268A168ABE0594F00267F442046E168AB
:1017A00088472028054608DB312D06D278192038D5
:1017B0000078002801D00643F0E7B00701D50420E7
:1017C00086430020E0610746A0612A2D0AD0284602
:1017D0000BF017FA002827D0B8000019303D009010
:1017E000856119E00298BA00121902C8916102904D
:1017F0002046E1688847012F054617D1E069002897
:101800001FDA202086431CE000980A2180694843A3
:1018100000994019303888612046E16888470546BC
:101820000BF0EFF90028EFD1012F0AD02E2D08D1AF
:101830002046E16888470546202006437F1C022F8A
:10184000C3DBA069002803DA4042A06101200643FF
:10185000F00701D0102086436C2D0BD0682D09D0E5
:101860004C2D3CD06A2D38D0742D38D07A2D36D0FE
:1018700016E040E0E1682F4620468847B84205461A
:1018800009D16C2F29D001208002E168064320464F
:101890008847054604E06C2F1DD0FF200130064329
:1018A000002D28D028464138192803D80120C0022D
:1018B00006432035204626602946029A1646FEF742
:1018C00051FC002810D001280BD0F61DF008C000F4
:1018D0000830029055E74020E1E78020D5E700205E
:1018E000D3E7361D02964CE762682846A168904708
:1018F000206A401C44E7206AFEBD00006EBB000069
:10190000FFB51C460025ED4385B0002000900190F6
:101910009F685E68A16906986D1C88470290216ADD
:1019200088470028F6D10298401C0CD003204002C2
:101930008643002F19DD700614D502982B2809D094
:101940002D280FD103E00020C04309B0F0BD0120D5
:1019500080020643A16906986D1C88477F1E002FF0
:10196000029002DD0298302803D00798002828D082
:1019700024E00120A169400206436D1C06987F1EE9
:101980008847002F029003DD782805D0582803D01F
:101990000798002810D011E00798002801D01028DF
:1019A0000CD10120A169400286436D1C06987F1E60
:1019B00088470290102000E008200790C01703908D
:1019C00016E00A20F9E70120039B40020643079A2C
:1019D000019900987F1E00F0F9FA029AD317801837
:1019E000594101910090A16906986D1C88470290A9
:1019F000002F06DD0799029800F042FF00280290B0
:101A0000E1DAE16906988847B00502D40120C043B5
:101A10009BE7F00710D1700610D5700505D500982A
:101A2000019B002241429A4101E0019A00992068FD
:101A3000031D2360006806C0284686E72068011D54
:101A400021600068019A0099F5E7FFB51D4600275F
:101A5000FF4383B05C68002001909E68A9690498E8
:101A60007F1C88470090296A88470028F6D1009893
:101A7000401C0CD0032040028443002E19DD600678
:101A800014D500982B2809D02D280FD103E0002071
:101A9000C04307B0F0BD012080020443A969049847
:101AA0007F1C8847761E002E009002DD00983028AB
:101AB00003D00598002825D035E00120A96940020F
:101AC0000443761E04987F1C8847002E009003DD97
:101AD000782805D0582803D00598002810D022E097
:101AE0000598002801D010281DD10120A9694002C5
:101AF0008443761E04987F1C88470090102002E0E3
:101B0000082000E00A2005900DE00121059A490215
:101B10000C430199761E514308180190A969049855
:101B20007F1C88470090002E05DD0599009800F085
:101B3000A7FE0028E9DAE96904988847A00502D4DD
:101B40000120C043A5E7E00722D1600611D560055A
:101B5000019800D5404229680A1D2A6009682205BB
:101B600001D5087014E0220701D5088010E0086054
:101B70000EE02868011D29600068210502D5019941
:101B8000017005E02107019901D5018000E00160A5
:101B900038467EE7FFB5144683B00020002600904B
:101BA0005068019091699768049888470C99054698
:101BB0000698084305D009E0A1690498761C884777
:101BC0000546216A284688470028F5D1681C03D0BD
:101BD0000198C00704D017E00020C04307B0F0BD53
:101BE0002068011D2160006800900DE00198C00789
:101BF00004D1009805700098401C0090A169761CE3
:101C000004987F1E88470546002F1CDD681C1AD0EB
:101C1000069800280FD0E817C00E4019411140095E
:101C20008A000699400151182A1A0968012090403B
:101C30000142DBD107E00C980028D7D12846216A61
:101C400088470028D2D0E169049888470C9800287A
:101C500007D1002E05DD0198C00702D100980021B0
:101C60000170A068B84204DD0C98002804D0002F51
:101C700002D00120C043B1E73046AFE702685118F7
:101C8000137801601846704710B5D1600549794452
:101C9000516105497944116200211161114600F03A
:101CA000FFFD10BDEBFFFFFFDF0300004268002ACD
:101CB00008D001680B78491C002B03D0521E06C0C7
:101CC000184670470121C160881E70474268002A8B
:101CD0000BD0C3680168002B07D183688B4204D006
:101CE000491E521C06C0002070470020C0437047A8
:101CF000FFB5144687B000200190506803909768A4
:101D00000020029006460490059091690898884743
:101D1000109905460A98084305D009E0A16908987A
:101D2000761C88470546216A284688470028F5D151
:101D3000681C03D00398C00704D02CE00020C043E7
:101D40000BB0F0BD2068011D21600068019022E009
:101D500004AA6846E9B201F003FA411C07D0801CCE
:101D600009D0002002900398C00707D00DE0E16978
:101D70000898884746E00120029007E068460188FD
:101D8000019801800198801C01907F1EA16908982C
:101D9000761C88470546002F1CDD681C1AD00A985F
:101DA00000280FD0E817C00E4019411140098A00E1
:101DB0000A99400151182A1A0968012090400142ED
:101DC000C6D107E010980028C2D12846216A88476A
:101DD0000028BDD0E169089888470298002811D1F1
:101DE0001098002806D1002E04DD0398C00701D109
:101DF00001990880A068B84204DD1098002804D03A
:101E0000002F02D00120C0439AE7304698E7FFB583
:101E1000144685B00020009050680190966800201C
:101E200002900546039091690698884710990746E5
:101E30000898084305D009E0A16906986D1C8847F9
:101E40000746216A384688470028F5D1781C03D018
:101E50000198C00704D01CE00020C04309B0F0BDC9
:101E60002068011D21600068009012E00198C00701
:101E700009D1B9B2009802AA01F093F9411C34D0FB
:101E8000009908180090A1696D1C0698761E884775
:101E90000746002E14DD781C12D00898002807D0C1
:101EA0003B460F9A0E9901F04BF90028DED107E06E
:101EB00010980028DAD13846216A88470028D5D002
:101EC000E169069888471098002806D1002D04DDA6
:101ED0000198C00701D100990870A068B04204DDE4
:101EE0001098002804D0002E02D00120C043B5E78E
:101EF0002846B3E7FFB5144683B000273D46506837
:101F00000190916996680498884700900E99069808
:101F1000084305D009E0A16904986D1C884700902A
:101F2000216A009888470028F5D10098401C03D00A
:101F30000198C00704D014E00020C04307B0F0BDF2
:101F40002068011D216007680BE00198C00702D1DD
:101F500000983880BF1CA1696D1C0498761E8847C4
:101F60000090002E15DD0098401C12D00698002825
:101F700007D0009B0D9A0C9901F0E2F80028E4D1FB
:101F800007E00E980028E0D1216A009888470028D1
:101F9000DBD0E169049888470E98002805D1002D10
:101FA00003DD0198C00700D13880A068B04204DD8D
:101FB0000E98002804D0002E02D00120C043BDE7B7
:101FC0002846BBE700487047E000202043435143C8
:101FD00030B55C18010C130C0D4692B25D4380B213
:101FE00051432C19054655430A0C09044D19624109
:101FF0005843010C00044019514130BD0B4670B5E7
:10200000024689078008084319469D08141AA94109
:1020100025090807054308092C194841250A010626
:102020000D43010A2C194141200C0D0428430D0CCD
:1020300000194D41002140194D41C008690708436E
:10204000E908840F8D002543840024184D4124198C
:102050006D41121BAB4107E00925ED432C115219CC
:1020600063410024401C61411C460A250026551B83
:10207000B441F1D270BD10B5044601F09DF900687D
:10208000005DC007C00F10BDFFB504460D4681B00E
:10209000243000902168880604D51022E06991431D
:1020A000216000E00120A84201DD471B00E000277D
:1020B0000498A1697A191018081AA0612078C0063E
:1020C00002D42046FFF774F9002608E003986268FE
:1020D000A168805D9047206A401C761C20620498AD
:1020E0008642F3DB2078C0060AD52046FFF760F968
:1020F00006E06268A16830209047206A401C206298
:1021000038467F1E0028F4DC07E000986268A1686A
:10211000405D9047206A401C206228466D1E0028C2
:10212000F3DC2046FFF75AF92078000602D502209A
:1021300005B0F0BD0120FBE7FFB50C461E468FB091
:1021400003CA089009914F007D0D00D16D1E00213A
:1021500008460020C0460321099A89050840002A44
:1021600003DA8200801840080840800D01280A9098
:1021700002DD0020C0430A90089807430DD0F048C4
:10218000F049281848430714189800281DD07542B4
:10219000291E1DDD0A9842421BE01898012802D032
:1021A0000020302104E00020F24305E02154401CCF
:1021B000B042FBDB30460022189B002121540F99CE
:1021C0008B600A60486013B0F0BDBD1B6D1CDFE77B
:1021D0000A9A002900DA69420BA801F04DF90BAB0D
:1021E00007CB03AB07C30899099801F0B1F96B4617
:1021F00007C30146D4480918002D00910BDDD249D0
:1022000003980A9A49424018002303A9039068469C
:1022100001F00EFC08E003990A9A0023081803A9AC
:102220000390684601F0AEFB6B4607C30004000C48
:1022300003D00020C043410800E01046189A002A4D
:1022400003D00022009215461EE0751E05D4FFF74C
:10225000D5FE303262556D1EF9D50122084307962E
:1022600002D000227F1C04E02078302801D1002217
:102270007F1E002A069787D01EE0112D07DAFFF790
:10228000BDFE303262556D1C02460A43F5D108434B
:1022900003D00098002819D00EE00021681E05E048
:1022A000235C625C63542254401E491C8142F7DB6C
:1022B000A81B401E07950690079A18990020A05465
:1022C0000F98079B069A81600CC07CE711260020BE
:1022D000189059E7D21DF0B50D460446D10893B0C9
:1022E000C90003C90C900D910AF09AFB02460D98A3
:1022F000C00F01D02D2007E02068810701D52B20D9
:1023000002E04007C00F4001032A0F9001D0072AC6
:1023100005DB03462946204601F06AF80EE12078E5
:10232000800601D5E76900E006272846652D04D020
:10233000662814D0672D69D12DE00020112F009060
:1023400001DB112300E07B1C0CAA03A910A8FFF7F6
:10235000F3FE1199002610987D1C0E9142E0012099
:102360003B460CAAC0070B900120009003A910A8BF
:10237000FFF7E2FE119D12981099002600280E9595
:1023800001D1781C0D18781B02D446427D1C761EA4
:10239000E81B00903AE0012F00DA01270020112FFE
:1023A000009001DD112300E03B460CAA03A910A810
:1023B000FFF7C2FE11993D46109800260E91217834
:1023C00009070BD40E99A94200DA0D4603A9012D85
:1023D00004DD4A19203AD27F302A06D0B84201DA09
:1023E000011D04DA012100910FE06D1EEFE70028C6
:1023F00002DC86192D1A03E0411CA94200DD0D46BE
:10240000801B401C00900120C0070B902078000723
:1024100005D40098A84202DB0020C0430090694622
:102420000020C8720B98012102AF0337C907884208
:1024300025D0022010902B2011900B9800280BDA49
:1024400040420B902D20119006E00B9800F0CAFE40
:1024500030317F1E0B9039701099481E0029109062
:10246000F3DC0B980028F0D111987F1E387020887B
:10247000000501D5452000E065207F1E387001A8C9
:10248000C01BC01D0B900F98002800D001204119DF
:102490000098C01709180B980818A169081A401E5F
:1024A000A0612078C00602D42046FEF781FF0F9875
:1024B000002805D06268A1689047206A401C20620D
:1024C0002078C00625D52046FEF772FF21E0002EB9
:1024D00007DB0E98B04204DD03A86268805DA16846
:1024E00002E06268A16830209047206A761C401C98
:1024F00020620098401E002800900AD100F064FF7E
:10250000C06862680168405CA1689047206A401C0E
:10251000206228466D1E0028D9DC07E06268387802
:10252000A1687F1C9047206A401C20620B99481EBE
:1025300000290B90F2DC2046FEF750FF032042E614
:1025400001FCFFFF104D0000E1DFFFFFD21DF0B5E1
:1025500004460D46D0088DB0C00046680768314675
:1025600038460AF05DFA0246F00F01D02D2307E04D
:102570002068810701D52B2302E04007C00F4301EB
:102580006846002B037001D0012000E00020032AE0
:102590000A9001D0072A04DB2946204600F028FFD4
:1025A0002DE12078800601D40D2500E0E56970005A
:1025B000400D0D2D01904BDA300D00210B90084697
:1025C0000020C046032189050840002E05DA82005C
:1025D0008018C20F1018401008408015012801DD36
:1025E0000020C043A9000023182906D39C460A46B0
:1025F0000123183A1B07D34003E001221205CA4009
:1026000094460C31202902D33A46203900E0324664
:102610008A40002802DD002A06D119E0002817D1DF
:102620000121C9078A4213D3194663467F185E41C8
:10263000002806D10120C007824202D10846874304
:102640009E430B98310D814202D00198401C0190AD
:102650002088000502D57149794402E06F49794428
:1026600019396B460A9830221A540A980A7C401C81
:102670001A54401C0A900198002801DC302000E028
:1026800031201872019A0120002A02D0644BD2181E
:1026900004E072003A4302D0614A521C0192002DBC
:1026A00002DC2278120703D56A462E2050720220DF
:1026B0000022864694460CE032033601120F6D1E4E
:1026C0008B5C02AA13546246521C401C9446052A95
:1026D00001DA002DF0DC002202AE08E03B0F3F01E2
:1026E000CB5C521C6D1E3354401C082A01DA002DAD
:1026F000F4DC23689A0601D511E0401E704504DD24
:102700003218203AD27F302AF7D0002807DD32185D
:10271000203AD27F2E2A02D11A0700D4401E002D63
:1027200003DD3E223254401C6D1E497C3154019918
:10273000401C002906DA2D21471C315401984042E3
:10274000019003E02B21471C315401987D21C900E1
:10275000884206DBFDF7D4FE3030F0557F1C019136
:1027600001E0642808DB01986421FDF7C9FE3030E0
:10277000F0557F1C019101E00A2806DB01980A212F
:10278000FDF7BEFE3030F0557F1C01980A21FDF7A1
:10279000B7FE3031F1550A98A1697F1C7A191018DB
:1027A000081AA0612078C00602D42046FEF700FE79
:1027B000216A6E460A980818206204E06268307840
:1027C000A168761C90470A98401E0A90401CF5D1DB
:1027D0002078C00602D52046FEF7EAFD02AE09E0E9
:1027E0003078761C3E280DD06268A1689047206A38
:1027F000401C20627F1EF3D22046FEF7EFFD0DB095
:102800000320F0BD206A4019206203E06268A168DD
:10281000302090476D1EEDD3F8E70000D4AC0000E7
:1028200001FCFFFF10B54369002B02D0C046C04633
:1028300001E0FEF7F6FD012010BD127801462431BB
:102840000A7000224A700122ECE711680022D2438C
:10285000E8E710B54369002B02D0C046C04601E04E
:10286000FEF770FE012010BD1288014624318284DB
:102870000022C2840122ECE711680022D243E8E77B
:102880003A2800D23038202302469A43412A01D305
:1028900010463738884201D30020C04370470000FB
:1028A000F3B50C468FB000200C90012000260E904E
:1028B00008460C3003906269039801219047051E79
:1028C0002ED0252D2DD0216A8847002818D0626986
:1028D000039801219047216A88470028F7D162694F
:1028E000411E0398904700E0761CA1690F98884725
:1028F000216A88470028F7D1E1690F988847DAE70D
:10290000A1690F988847A842074601D1761CD2E7F3
:10291000E1690F9888477F1C02D10C98002877D076
:102920006BE16269039800273D46394690472A28A3
:102930000CD16269039801219047012506E00A2124
:102940004F433F18303FEBD4102005436269039892
:1029500001219047014630390A2903D2AC498F4200
:10296000DEDCECE7E90600D4AA4F6C280AD04C283C
:1029700010D0682824D06A282ED074280CD07A2849
:102980000AD00DE062690398012190476C2823D09A
:1029900004211CE02020054362690398012190472F
:1029A000A760652865604FD026DC582839D01ADC2E
:1029B000452849D012DC252834D04128B0D143E045
:1029C0006269039801219047682802D008210D43CD
:1029D000E6E70120C002DEE70220DCE7462833D02C
:1029E00047289DD130E05B2870D061282CD0632827
:1029F0006CD0642894D161E06F284FD009DC662840
:102A000022D0672820D0692826D06E2817D12EE042
:102A1000EFE070284DD073286FD075284ED07828FD
:102A20000DD154E0A1690F9888472528054600D1AB
:102A30006CE7E1690F9888476D1C00D16DE7DCE019
:102A40000A224CE00A2252E0012023466A460F99EE
:102A5000C0430AF0CBFBC5E040212846234608438B
:102A60006060A80701D5002239E000223FE0E807B6
:102A700000D020E72068011D21600068290501D5EC
:102A8000067018E7290701D5068014E7A90703D5C2
:102A9000F117066041600EE706600CE7402128460A
:102AA000234608436060A80701D5082217E00822E2
:102AB0001DE0594928460840606016E0402128463C
:102AC000234608436060A807BCD5B9E715E040215C
:102AD000284608436060A80707D523461022012036
:102AE0000F99C043FEF70CFF7CE010222346012023
:102AF0000F99C043FEF7A9FF74E0002163280B463D
:102B00000191009102910D9102D05B2807D03BE02A
:102B1000E80601D40120A0600120009034E0E068C4
:102B200001210D906269039890475E2807D101202A
:102B30000190E06801210D90626903989047216936
:102B4000002906D10B4604AA8F00491C0829D3513D
:102B5000FADB002851D02169002926D00298401CB8
:102B6000029062690398012190475D28F1D1019894
:102B7000002808D0002004AB8100401C5A58D243E2
:102B800008285A50F8DB04AB2069002820791CD0B3
:102B90004007029A00980D9B0092224602901F481F
:102BA0000F991DD5FFF7A6F91CE0C117C90E09182A
:102BB0004A114909930004AA9A184901411A136855
:102BC0000120884003431360CBE7400722461348A7
:102BD0000F9902D5FFF78CF804E0FEF7DBFF01E068
:102BE000FFF715F900280ADA401C06D10E980028D4
:102BF00003D00020C04311B0F0BD0C98FBE7E907FB
:102C000002D10C99491C0C91361800200E9052E606
:102C1000CCCCCC0CFFFFFF7FF1F7FFFFFEFFFFFFE7
:102C2000FFB58BB00878FF2806D0491C2D2805D0A9
:102C300000230020009009E000200EE00123F8E7C7
:102C4000009A0A2462438018491C00900878FF28E3
:102C5000F6D1002B02D00098404200900025039549
:102C60002C460D9800782D2801D02B2815D10D99D0
:102C7000491C2D280D9102D0002003900DE0012069
:102C8000FBE7401C214600270A223B460D902846C0
:102C9000FFF79CF935183C464C410D980678FF2EFD
:102CA000EFD1002108460020C0460399002902D038
:102CB0008100401840080002860F012E01DD002629
:102CC000F6430E9900984718284620430BD0FF2062
:102CD000F530C7421ADA0398C1070B98002E4160FD
:102CE0000ADD012009E00398C1070B9841600B99A8
:102CF000002008600FB0F0BD00200B990860FFF7BE
:102D000061F902210160182108461AE0FF20F53020
:102D1000874219DD002E02DAFC48784401E0FC48C5
:102D2000784406C80B9806C00B9803994068C907F9
:102D300008430B994860FFF745F90221016014210F
:102D400008460020C046D5E7002108460020C046BE
:102D500039000A9001D5724200E03246002900DABB
:102D6000794207A800F088FB07AB07CB04AB07C389
:102D7000E848009000200146214304D12C46054636
:102D8000E44920390091210C0904014306D1290CA2
:102D900024040C4300992D0410390091210E0906DA
:102DA000014306D1290E24020C4300992D02083953
:102DB0000091210F0907014306D1290F24010C437B
:102DC00000992D01091F0091A10F8907014306D128
:102DD000A90FA4000C430099AD00891E0091E10FDA
:102DE000C907084304D100986D196441401E009042
:102DF000002F0295019406DD32466846012304A99E
:102E000000F0CEFD05E001233246684604A900F03B
:102E10001CFE044603980D46002802D00120C0077E
:102E20004440002108460020C0460A99BA4E484056
:102E30000007800F07D160004008284303D06000DE
:102E4000400DB04214D1FFF7BDF8022101606000CF
:102E5000400DB0420CD1B148784406C80B9806C06A
:102E60000B98E10FC907406808430B99486041E798
:102E70000B9844600B9805603CE7FFB51F4695B082
:102E8000002000250C909E685C68ED43139000F0D4
:102E90009BFAC0680168405C1490B96916986D1C73
:102EA00088470A90396A88470028F6D10A98401C5A
:102EB0000AD00D20C0018443002E12DD0A982B2871
:102EC00009D02D280DD103E00020C04319B0F0BD7A
:102ED000012080020443B96916986D1C8847761E4C
:102EE0000A90600504A901D52D2000E02B206A4638
:102EF000491C107410A8002E0D910B903BDD0A9810
:102F0000692805D0492803D06E2801D04E281DD14C
:102F10003B46039002200296179A1699C0430095EB
:102F200001940AF073F9C11CD0D10FE0B969169869
:102F30006D1C88470A900120761E400204431798B2
:102F400005601398401C002E139014DD0A98302859
:102F5000ECD0782801D058280DD1139801280AD137
:102F60003B460296179A1699001F009501940AF0A5
:102F700045F9C11CAAD114990A98884245D18020EC
:102F8000044308E00C981799401E0C900120400261
:102F90000443681C0860B9696D1C1698761E884742
:102FA00030280A90EED030E01499884205D12006EE
:102FB00003D480200443761E1DE00A9809F021FE08
:102FC000002825D001210A9849020C430D9908AA2E
:102FD00003323038761E914208D208700D98401C9A
:102FE0000D90200607D50C98401E03E0200602D461
:102FF0000C98401C0C90A00502D51799681C08601D
:10300000B96916986D1C88470A90002ECCDC59E0EF
:10301000002E57DD0A98652801D0452852D1A00519
:1030200050D50320B969000284436D1C1698761EA2
:103030008847002E0A900CDD2B2804D02D2808D1BB
:10304000FF2001300443B96916986D1C8847761E2D
:103050000A90E00501D52D2100E02B210B9801708D
:103060000B98401C0B90009025E0012012A9400213
:1030700004430B980131761E88420ED20A980B99B0
:1030800030380006000E087003D100990B98884272
:103090000AD90B98401C0B9006E0E00501D52048AA
:1030A00001E01F4840420C90B96916986D1C884792
:1030B0000A9017980560002E04DD0A9809F0A1FD1A
:1030C0000028D2D1F969169888470D99FF2004AAE3
:1030D00008700B99087000200E900F900C9B10A99F
:1030E0000EA8FFF79DFDA00502D40120C043EDE628
:1030F0002420044216D0E00720D138680F9A0E9998
:10310000031D3B60006806C018E000009AB1000093
:103110008CB100003E400000FF07000054B00000EA
:10312000F1D8FFFF0EA9684609F0A4FCE00705D11D
:103130003868009A011D3960006802602846C5E6BB
:1031400010B509E00488801C9C4205D1002A01D0FA
:10315000002010BD012010BD491EF3D2104610BD45
:10316000F8B516460C46054600F026F90368FF2020
:103170000230C05C012805D0185D00280ED0012067
:103180002C80F8BDFF333246214604331868C71837
:1031900068460023B84700992980F8BD0020C04345
:1031A000F8BDF8B516460C46054600F005F903686B
:1031B000FF200230C05C012807D0FF2C0FD8185D1B
:1031C00000280CD001202C70F8BDFF333246214678
:1031D00008331868C71828460023B847F8BD0020F0
:1031E000C043F8BD01468008081A02091018020AF7
:1031F0001018020C1018C008820012185200891A08
:1032000001E0401C0A390A29FBD27047F8B5264C68
:103210004E00069DA6420AD8A64201D1002806D13A
:103220005E00A64203D8A6420AD1002A08D00D2487
:103230002404254233D02946002000F051FCF8BD7B
:103240000C461C4311D4994207D0C81A02D3EFF39D
:103250000080F8BDEFF30080F8BD801A02D3EFF3D1
:103260000080F8BDEFF30080F8BD09242407E500D5
:103270008B4207D0581A02D3EFF3008006E0EFF339
:10328000008007E0101A03D3EFF30080A04303E0AF
:10329000EFF30080A043284380F30088F8BD009539
:1032A00000F036FCF8BD00000000E0FF70B50546F8
:1032B0004800440D124B0020002C0AD0634008D077
:1032C0009A4206DA6642B24203DD120540195141C4
:1032D00070BD002C08D0002B09D0C90FC907002AE7
:1032E000F6DB084A114370BDC90FC90770BD2846F7
:1032F0000A03104302D00020034970BD284670BD68
:10330000FF0700000000F07F0000F87F10B5FF23EA
:103310001B0644009C421DD84C009C421AD8034610
:10332000124A0B4307D4401A02D3EFF3008010BDBA
:10333000EFF3008010BD081A03D3EFF30080904331
:1033400005E0EFF3008001219043C907084380F3B3
:10335000008810BD0D231B041A4204D01146002022
:1033600000F0BEFB10BD00F0DDFB10BD00000090C2
:1033700000487047E00020207546FFF7F9FFAE4691
:10338000050069465346C008C000854618B020B500
:10339000FCF79EFF60BCB64600260027C0C5C0C52E
:1033A000C0C5C0C5C0C5C0C5C0C5C0C5403D490831
:1033B00049008D467047000010B500F005F8001D6B
:1033C00010BD00BF41990000004870470001202057
:1033D00010B5202A04DB0146203A9140002010BDA0
:1033E000914020239C1A0346E3401943904010BDAE
:1033F000F8B51F46044601230068DB020326014698
:103400001840072A05DB002801D017A506E017A5FC
:1034100004E0002801D016A500E016A51020814385
:103420002160A069C01E002FA06101D0401EA061D4
:103430002046FDF7BDFF002F09D038466268A1681D
:103440009047206A401C2062C01C206206E0206A6F
:10345000FAE762682878A1686D1C9047761EF8D25A
:103460002046FDF7BBFFF8BD4E414E006E616E0079
:10347000494E4600696E6600F7B516468AB0334875
:1034800078446C4603467C33C06F5A689B680DC411
:103490002E487844763003AC0DC80DC43720C001E7
:1034A000081837211B30FDF72BF805460C46803DE8
:1034B0001B3C02D56442012000E000200027099057
:1034C00010E0E0070CD00C202049784379443246C4
:1034D0004C3941186846012300F054FA6B4607C383
:1034E00064107F1C002CECD1184F7F442E3F16E057
:1034F000E80712D02001C0190EC806910893079260
:103500000068F04201D1981908903246012306A9BB
:1035100003A800F037FA03AB07C36D10641C002D3D
:10352000E6D10998002806D032466946012303A84F
:1035300000F07EFA05E001233246694603A800F058
:1035400021FA0A9B07C30DB0F0BD0000C09E000029
:10355000034640000A4610B5400D0BD00121C907B3
:103560000F24A40200191C0364082143540D2143B5
:10357000D20207E000210120F2E7D40F49002143E5
:103580005200401E0029F8DADB0FDB07184310BD9C
:10359000FFB50D46144685B04868516809F028FA11
:1035A00000910190A868A16809F022FA02910390A5
:1035B000A868616809F01CFA029A12188242029205
:1035C00001D2012000E00020019A0B18D218002837
:1035D000019202D08A4202D903E08A4201D201203C
:1035E00000E000200099081800906868A16809F0C0
:1035F000FFF9029A12188242029201D2012000E0E1
:103600000020019A0B18D2180028019202D08A4299
:1036100002D903E08A4201D2012000E00020009993
:1036200008180090286821684000490040084908AF
:103630004018FA49471814E001994000C90F08439F
:103640000090019802994000C90F08430190029828
:1036500003994000C90F08430290039840007F1E61
:10366000039000980028E7DA0898002801D0EC4E73
:1036700000E00026B74201DA012000E00020002827
:1036800004902AD0F71BF806C00E15D0029B20210B
:10369000091A039A8B401A430392029A019BC24073
:1036A0008B401A430292019A009BC2408B400099C2
:1036B0001A430192C14000917B110DD06F46032047
:1036C000C11A03D500218200B95003E08A008100AD
:1036D000BA587A50401EF3D537460398029900280D
:1036E00000D00120014308980291002808460CD020
:1036F000002800D001200199019A490508430121C1
:10370000D20AC902D202019200E001210E9B0122DD
:10371000D207012B02D0002B03D013E0002807D1E1
:1037200020E0904204D890420CD1019B0B4209D07A
:10373000019B5918019105D10099491C009101D1B3
:103740007F1C009200280DD0102108460020C046A2
:103750000498002806D00F98002803D008210846B6
:103760000020C04628682168019B009A4840C10F8C
:103770000598C90739430EC009B0F0BDFFB587B041
:10378000099A08980899536892684068896896462B
:103790000022039317469446089A12685300099A28
:1037A0005B081268520052089A1A9E4BD4180A9A63
:1037B000002A01D0352200E0402206920022012397
:1037C00015460492DB07059324E0002D05D17546CC
:1037D0000346039E4D1BB34109D375466646039BC2
:1037E000491B049D9841059B7519AC465F41634692
:1037F0003B4308D0059B049EDD0776082E435B08FB
:103800000496059301E0521E641EC50FED0749188A
:103810004041521C069B9A42D7DB002D04D17546CD
:10382000039A6B1A824101D203200CE0039A0B46E3
:103830006B404240134303D0014303D0012002E018
:10384000022000E0002061460191002100970291D2
:103850000A99002905D0614640020143704B01914D
:1038600002E08007002302909C4201DA012000E080
:10387000002007003AD01A1BD006C00E15D0029DBA
:103880002021019C091AC5408C402543029C8C4094
:1038900000D001242543019C0295009DC4408D4029
:1038A00000992C430194C140009154111DD06D46E4
:1038B0000221002202290CD10320001B07E000286E
:1038C00004DB8600AE59002E00D00122401C0328E4
:1038D000F5DB081B02D588002A5004E08000285838
:1038E00010438A00A850491EE3D51C460A980028B8
:1038F00002980CD0002800D001200199019A4905B6
:1039000008430121D20AC902D202019200E001213A
:10391000109B0122D207012B02D0002B03D013E011
:10392000002807D11FE0904204D890420CD1019B9F
:103930000B4209D0019B5918019105D10099491CEE
:10394000009101D1641C009200280CD0102108467F
:103950000020C046002F06D01198002803D008216F
:1039600008460020C04608980999019A009B006803
:1039700009684840C10F0798C907214382600AC0FF
:103980000BB0F0BD00B585B0019300920A46014628
:10399000002302A8FFF7FCFD02A807C805B000BD80
:1039A000FFB50A461F4685B0079901930123009190
:1039B000014602A8FFF7ECFD02990398049ECA0F86
:1039C0004900D20700920F22490892028C1A002166
:1039D000002800DB0C46450013486D08844214D3D0
:1039E000079A002A04DA441E0026104DF64302E02E
:1039F00004460D460E46102108460020C046002F02
:103A000003D0042108460020C0462005E90A0843E7
:103A1000009908436905F20A1143ADE602C0FFFFB1
:103A2000013C0000FF3F0000FF070000FFFFFF7F99
:103A300000B585B0019300920A460146002302A812
:103A4000FFF79CFE02A807C8A8E7FFB50A461F4675
:103A500085B00799019301230091014602A8FFF761
:103A60008DFE02990398049ECA0F4900D207009266
:103A70000F22490892028C1A0021002800DB0C4614
:103A8000450011486D08844214D3079A002A04DACD
:103A9000441E00260D4DF64302E004460D460E4638
:103AA000102108460020C046002F03D004210846FC
:103AB0000020C0462005E90A08430099084369052B
:103AC000F20A114358E60000FF070000FFFFFF7FE6
:103AD00010B50446C046C0462046FCF7CFFB10BDDB
:103AE000C80212D54803400F002804D0C803C043C1
:103AF000012188407047EFF3008000010009032195
:103B00000907084380F300887047002070470000D1
:103B100010B500200249029A00F082FA10BD0000A0
:103B20000000F87F10B5024800F07AFA10BD0000DE
:103B30000000C07FFFB51F4689B013981299400559
:103B4000C00FC00705900020079005460446461E9A
:103B5000049002903C20491C12910690B9690A9881
:103B6000884703901498401E14901498002841DD53
:103B700003982E2816D01021FEF782FE002834DB91
:103B800001210491079901431AD0069900290CDB01
:103B9000069AC117FFF71CFC054306980C43001F4B
:103BA000069006E0012002900EE0002801D00120DE
:103BB0000543012007900298002805D1361D03E037
:103BC0000298002800D0361F1298401C1290B96944
:103BD0000A98884703901498401E1490049800286F
:103BE000C3D00B9912980860BFE70398702808D0DB
:103BF000502806D0F9690A9888470498002815D0FB
:103C000051E00020039001200290049800280AD07F
:103C10001298401C1290B9690A9888471499491E55
:103C20000029149106DCF9690A9888470120C043ED
:103C30000DB0F0BD2B2804D02D280DD10020C0439D
:103C400002901298401C1290B9690A9888471499FA
:103C5000491E00291491E6DD411CE4D00A21FEF73B
:103C60000FFE0028DFDB03990A2251430818039056
:103C70001298401C1290B9690A9888470A21FEF7E9
:103C8000FFFD14990B9A491E149112991160149911
:103C9000002901DD0028E6DAF9690A9888470299C7
:103CA0000398484386191398242108400490284615
:103CB000204304D0A10F8907090002D006E005982F
:103CC0009BE0A90FA4000C43AD00B61EE10FC9078D
:103CD000080002D16D196441761E0498002803D0B3
:103CE0000B2002905D4803E0282002907D20C04315
:103CF0008642039007DA811B029808184128029037
:103D000001DD41200290029A01200021521EFFF79E
:103D10005FFB024628400B462140084301D00120AA
:103D200000E0002007900020521EC04343412A407B
:103D300023401A4301D0012000E00020079906909B
:103D4000014352D0002108460020C0460321059AB5
:103D500089050840002A05D082008018C20F10187B
:103D6000401008408015012802DD0020C04301E01A
:103D7000012815D0401C38D00798002835D0069867
:103D800000280DD1029A01200021FFF721FB2840D5
:103D90002140084301D0012000E00020002824D069
:103DA000029A01200021FFF713FB034640198C46BD
:103DB00061412A1A8C410FD30298402807DD0498EC
:103DC000039E002801D0343E02E0173E00E0761C3E
:103DD00001240025E40708E05B1E62460024E4435A
:103DE0006241DD43D44305400C4003980121081A89
:103DF000B04206DA1A490598084301900020009065
:103E00000EE060006205010BE80A1043059A00907D
:103E100068460A4313490A433146019208F096FE68
:103E2000049800280AD01398C00714D13868019A62
:103E30000099031D3B60006806C00CE002A86946BB
:103E400008F018FE1398C00705D13868029A011DC2
:103E50003960006802601298EAE6000002FCFFFF89
:103E60000000F07F0000F03FFFB51D4687B01198BD
:103E7000484A109C129E40051399C00F761EC00739
:103E80000243019200220092FF22D2051043202219
:103E900091434929059003D017464E2928D04FE079
:103EA0003DA002AA0BC801270BC2A9690898641C8F
:103EB0008847761E014607D402A8C05D002803D0BB
:103EC0002022914381420AD0E96908988847032F4C
:103ED00036D0082F34D00120C0430BB0F0BD7F1C7A
:103EE000032F01D0082FE0D10999601C0860DCE79E
:103EF000A9690898641C8847761E2DD4B8434128C8
:103F00002AD1A9690898641C8847761E24D4B8432E
:103F10004E2821D1A9690898641C8847019901227B
:103F2000D204114301910599D200114305910999D9
:103F3000761E0C6001D4282806D0E96908988847C5
:103F40001198C00712D023E0A9690898641C88471B
:103F5000761E01D4002803DAE96908988847BAE791
:103F60002928F1D10998641C0460E9E711982421FB
:103F7000084207D02868019A0099031D2B60006849
:103F800006C005E028680599021D2A6000680160E6
:103F90002046A2E70000F07F494E46494E49545959
:103FA000000000000246C80FC00781434B0030B537
:103FB0004B405B009B0D20D01923DB06C918012361
:103FC0001B05994220DB0324A40704251346AB40BC
:103FD0000BD3002B04D1EB0613409B00E34204D427
:103FE00001246407002312195941FF231B0599423C
:103FF0000BD2C9000143500F09E0CB0204D50143A5
:104000000803024305D0054830BDFF21C905084318
:1040100030BD084607210905884330BD0000C07F38
:1040200010B50C461107090F092904D00A290AD036
:1040300008290CD104E011460820FFF751FD06E0E5
:10404000510606D501E0510601D50120C0072146E1
:1040500010BDD10607D501010909CC084907000E9A
:104060000006044309E0410F20024907000A01430A
:10407000200E00061D22D14101430846E7E700005B
:1040800081B0009000990120C2026648885001B0BA
:104090007047C04681B000900099674A67488850D1
:1040A00001B0704783B0029001910092029801998B
:1040B000084300990843A149086003B07047C0460F
:1040C0009E480068072108407047C04682B00190B2
:1040D0000199881E001F00BFFCD2009002B07047FB
:1040E00084B00390029101920398006800900098B8
:1040F00001998843009000980299019A1140084361
:104100000399086004B0704784B003900291019253
:1041100003980068009000980199884300900098E7
:104120000299019A114008430399086004B070474E
:1041300084B0039002910192039800680090009867
:1041400001998843009000980299019A1140084310
:104150000399086004B0704784B003900291019203
:104160000398006800900098019988430090009897
:104170000299019A114008430399086004B07047FE
:1041800081B0009000990120C2022648885001B0F9
:104190007047C04681B0009000990120C2022148BA
:1041A000885001B07047C04610B584B0069C03909B
:1041B00002910192009302980199084300990843E3
:1041C000069908430349084303998900074A885020
:1041D00004B010BD8100040081B0009000988100FF
:1041E000024A0020885001B07047C0460480424017
:1041F00081B000900099104A1048885001B0704773
:1042000081B0009000990C4A0C48885001B070476A
:1042100081B0009000990120C2020248885001B08C
:104220007047C0460100002681B000900099024A04
:104230000248885001B0704704080000030000B134
:1042400080B584B0039002910192039902980143D2
:10425000019801433F200204CE48FFF77DFF04B0E0
:1042600080BDC04680B586B0059000F087F8FFE7B6
:1042700000F0B8F8012189030840884201D0FFE727
:10428000F6E70598417E2948039001220192FFF745
:1042900063FF05982021415C254802900322FFF727
:1042A0005BFFFFF70DFF01460198049100210422F6
:1042B000FFF7F8FE02980599496A09681D4A1160DE
:1042C0000599496A49681C4A116004991B4A1160A2
:1042D0000599C9694906490C7F221202FFF73CFF84
:1042E0000398059A11680907090B53681B039BB2D1
:1042F000C91893681B071B0DC918D36819431369A4
:10430000194353691943127E11430D4AFFF724FFE5
:1043100000F05CF8FFE700F065F801214902084071
:10432000884201D0FFE7F6E706B080BD20010B40D0
:1043300024010B4028010B402C010B40001340408E
:1043400072FF0F007049086801221207904308604D
:104350007047C0465F490868012290430860704773
:104360005C49086801229043086070475949086811
:1043700001221202904308607047C0465549086800
:1043800001221202904308607047C0465E490868E7
:1043900001221207104308607047C046A14908680F
:1043A00001221203104308607047C04602490868A2
:1043B00010221043086070473C010B4045490868D3
:1043C00001221202104308607047C0464149086844
:1043D00001221202104308607047C046034800687B
:1043E0007047C046014800687047C04604020B4051
:1043F00080B5FFF7F3FF012149060840400E80BD5C
:10440000014800687047C04650010B4081B001462A
:104410006846017000780249086001B07047C046E4
:1044200008030B4080B582B0019001991F2002065D
:104430005848FFF769FE02B080BDC04680B582B023
:10444000014601A8018001880F2002027548FFF78C
:104450005BFE02B080BDC04680B582B0014601A8B7
:104460000170007801030F2002034A48FFF74CFE59
:1044700002B080BD80B586B005AB01931880049171
:1044800003A802900270FFF76BFF0198008800F00C
:1044900023F8049800F02EF802980E4A11680123C0
:1044A000194311600078C00700280DD0FFE7FFF71F
:1044B0006DFFFFE7FFF796FF0121090208408842E0
:1044C00001D0FFE7F6E702E0FFF73CFFFFE706B0A9
:1044D00080BDC04608010B4080B582B0014601A8EE
:1044E00001800188032002030748FFF735FE02B070
:1044F00080BDC04680B582B0019001990248FF227C
:10450000FFF72AFE02B080BD10010B4081B00146CA
:104510006846017000780249086001B07047C046E3
:104520000C010B4080B582B0019001990878C0075A
:10453000C00D89784118FF2204320B48FFF70CFEAA
:104540000A490B48086001984078C007002806D047
:10455000FFE705490868102210430860FFE7034998
:104560000448086002B080BD14010B4014030B40E6
:10457000010000910200009180B582B0014601A8BF
:1045800001800188012042020248FFF7BDFD02B010
:1045900080BDC04638010B4080B582B0014601A8FD
:1045A0000170017802480322FFF7AEFD02B080BD22
:1045B00000010B4080B582B0014601A8017001786E
:1045C00018483022FFF7A0FD02B080BD0149024823
:1045D000086070472C030B400100000E80B582B0CC
:1045E000014601A801700078FFF790FFFFE7FFF791
:1045F000F9FE012149050840884201D0FFE7F6E7AE
:10460000084908680122120410430860FFE7FFF719
:10461000E9FE10210840102801D0FFE7F7E702B0BB
:1046200080BDC04604010B400949086805221043BB
:104630000860704781B00090054904200860009828
:10464000401E0449086004490020086001B070471A
:1046500010E000E014E000E018E000E081B000901D
:1046600000990120C2029548885001B07047C046A9
:1046700081B0009000999A4A4F48885001B0704725
:1046800082B00190009100980199024A885002B0CE
:104690007047C0464810000081B00090009911207A
:1046A0000202885801239843885001B070470000E7
:1046B00082B001900091009B01990F4A885898435D
:1046C000885002B07047C04681B000900099112018
:1046D0000202885801231843885001B07047000037
:1046E00082B001900091009B0199034A88581843B9
:1046F000885002B07047C0462810000081B000907A
:1047000000990120C2026D48885001B07047C04630
:1047100081B000900098812149014058C0B201B099
:104720007047000080B582B0019000910198FFF7BA
:10473000B3FF0198112109024018009A118893785B
:10474000194392881143084AFFF7F2FC01982D495A
:104750004018009A9179D3791943127A11437E2235
:10476000FFF7E6FC02B080BD1867020081B0009040
:104770000098474940580121084001B07047C046A1
:1047800081B00090009842494058042108408008B8
:1047900001B0704781B00090009802494058C0B203
:1047A00001B070472411000081B0009000994C4A7C
:1047B0000148885001B07047030000B180B584B053
:1047C00003900291019203980B49401802990B4AF9
:1047D000FFF786FC03980A49401801993F22FFF72A
:1047E0007FFC0399074A8818895801221140FFF776
:1047F00077FC04B080BDC04610110000FFFF000030
:10480000141100000411000082B001900091009882
:1048100000780199044A8850009840780199012253
:104820001203885002B070470810000080B582B0B3
:10483000019000910198112109024018009903226A
:10484000D203FFF74DFC02B080BD82B001906846F4
:1048500001700078019989225201885002B0704796
:1048600082B001900091009908784A7810434988F5
:1048700008430199112212028850009948688968FA
:10488000090408430199024A885002B07047C046A3
:104890000811000081B0009000990120C202074871
:1048A000885001B07047C04681B000900099012047
:1048B000C2020248885001B07047C046010000267D
:1048C00081B000900099064A0648885001B07047B0
:1048D00081B000900099024A0248885001B07047A8
:1048E00004080000010000B180B584B003A90020D5
:1048F000087002A908703B480068812149014058AE
:1049000001900198002830D0FFE70198411E03A8CC
:10491000017000780F280EDCFFE73248006832494A
:10492000405803A909780907C90EC8400321084067
:1049300002A908700EE02B4800689D2149014058EB
:1049400003A909780907C90EC8400321084002A934
:104950000870FFE703A8007883002448C25802A823
:1049600000782349C95890473AE01E4840688121A1
:104970004901405801900198002830D0FFE7019884
:10498000411E03A8017000780F280EDCFFE71548D0
:1049900040681549405803A909780907C90EC8405D
:1049A0000321084002A908700EE00E4840689D21CE
:1049B0004901405803A909780907C90EC8400321D5
:1049C000084002A90870FFE703A8007883000748A1
:1049D000C25802A800780649C9589047FFE7FFE788
:1049E00004B080BD80002020901300000000202033
:1049F0001C43202080B582B00920FFF7EDFB0A2080
:104A0000FFF7EAFB0720FFF7E7FB0820FFF7E4FBCF
:104A10000021009101200204C3042720FFF7C4FBFA
:104A200002B080BD80B586B005A900200190087055
:104A3000FFF7F8FC0198012211059204FFF700FC32
:104A4000FFF7C4FDFFE7FFF7D3FC002801D1FFE724
:104A5000F9E7FFF7D5FC039001200105420400208F
:104A6000FFF7EEFBFFF7B2FDFFE7FFF7C1FC002801
:104A700001D1FFE7F9E7FFF7C3FC049003997D201C
:104A8000C00048430499FBF731FD02900298FCF7FF
:104A900016FA00220D4B08F06EF800280FD1FFE740
:104AA0000298FCF70CFA0022D243094B08F058F8A0
:104AB000002804D1FFE705A901200870FFE705A839
:104AC00000780121084006B080BDC04600289F4004
:104AD000FF579F4080B582B000200090FFF796FC02
:104AE000012001904002FFF7A9FC0098FFF754FD58
:104AF000FFF730FCFFF73AFC019A032000030A217C
:104B0000FFF7B8FC1648FFF7ADFBFFE7FFF78AFF9A
:104B100000280FD1FFE7FFF729FCFFF74FFCFFE765
:104B2000FFF75CFC012149020840884201D0FFE701
:104B3000F6E7EBE71020FFF73DFD0920FFF78CFCBF
:104B40000848FFF7EFFCFFF729FCFFF72FFC0120D7
:104B50004002FFF711FD0020FFF740FD02B080BDCD
:104B600088D6000084D6000080B55020FFF762FD93
:104B7000FFF75AFD80BD000080B502491848FFF7D5
:104B80006FFE80BDB0D6000080B500F009F8FFF7D9
:104B900031FFFFF79FFFFFF7EFFFFFF7E5FF80BD56
:104BA00080B584B00C480190FFF72AFB0B480290B7
:104BB000FFF726FB0A480390FFF78AFE0198FFF7EC
:104BC000E9FA0298FFF7E6FA0398FFF76DFE102066
:104BD000FFF77CFA04B080BD00000A4000200A40C4
:104BE0000000034080B51B4802681B480168002094
:104BF000904780BD80B5174842681748416800203B
:104C0000904780BD80B513488268134881680020B2
:104C1000904780BD80B50F4882690F4881690020A8
:104C2000904780BD80B50B48C2680B48C168002022
:104C3000904780BD80B50748026907480169002098
:104C4000904780BD80B50348426903484169002010
:104C5000904780BDEC4420208C00202080B582B09D
:104C60001148FFF755FD014601910B280BD0FFE7D6
:104C700001980C2810D1FFE74B4802684B480168A7
:104C80000220904709E0484802684848016801202E
:104C9000904703F0F1F900E0FFE70448016802489B
:104CA000FFF7EEFC02B080BD008010403090104055
:104CB00080B582B01248FFF72BFD014601910B2809
:104CC0000BD0FFE701980C2811D1FFE73648426866
:104CD00036484168022090470AE03348426833482A
:104CE00041680120904707480068804700E0FFE7DF
:104CF000054801680248FFF7C3FC02B080BDC0460A
:104D000000001040D80020203010104080B582B044
:104D10001048FFF7FDFC014601910B280BD0FFE77F
:104D200001980C280ED1FFE71F4882681F48816850
:104D30000220904707E01C4882681C4881680120D7
:104D4000904700E0FFE7044801680248FFF798FC3D
:104D500002B080BD002010403030104080B582B0DD
:104D60001048FFF7D5FC014601910B280BD0FFE757
:104D700001980C280ED1FFE70B48C2680B48C168A8
:104D80000220904707E00848C2680848C16801202F
:104D9000904700E0FFE7064801680248FFF770FC13
:104DA00002B080BD00005040AC0020201C452020F7
:104DB0003010504081B001466846017000214056D5
:104DC00000280DD4FFE7684601781F20014001202C
:104DD000884004490860BFF34F8FBFF36F8FFFE730
:104DE00001B0704780E100E081B001466846017083
:104DF00000214056002809D4FFE7684601781F20AB
:104E000001400120884002490860FFE701B0704777
:104E100000E100E081B0009001B0704710B58AB0A9
:104E200009AC207008A8017007A90A7006A90B70C8
:104E3000007810280AD1FFE708A8017806A80078B2
:104E4000014001201029029014D0FFE708A8017842
:104E50000020002901900AD1FFE708A8007806A9E0
:104E6000097808401038411E88410190FFE70198F9
:104E70000290FFE70298012108403A49E72203F037
:104E8000A7F809A80178490905AA117000781F211F
:104E9000084004A9087007A80078039003983249D5
:104EA0000843039006A80078401E009013284BD8B2
:104EB0000098810001A040588746C0460D4F000071
:104EC000134F0000154F0000214F0000494F000014
:104ED000494F0000494F0000494F0000494F000072
:104EE000494F0000494F0000494F0000494F000062
:104EF000494F0000494F0000494F00002D4F00006E
:104F00002F4F00003B4F00003D4F0000002003905A
:104F10001AE019E00398012109040843039013E003
:104F2000039801214904084303900DE00CE0039825
:104F3000012149060843039006E005E0039801219A
:104F4000490608430390FFE7039805A9097849013A
:104F500004AA12788A180549895C8900044A885095
:104F60000AB010BD86DD000080000400BCD6000041
:104F70000480424081B000900099002008600099B0
:104F80004860009988600099C8600099086101B084
:104F9000704780B582B00190019800680090019838
:104FA000FFF7E8FF00980199086002B080BD00009B
:104FB00080B582B001900091FFE70098164907F094
:104FC00008FE002806D1FFE70098164907F07AFF8F
:104FD0000090F2E7FFE70098104907F0E4FD002891
:104FE00006D1FFE700980E4907F06CFF0090F2E74A
:104FF00000980199096807F0CBFD002806D1FFE76A
:1050000001990020C86001998860FFE70098019924
:10501000086002B080BDC04600003443000034C3C5
:105020000000B4430000B4C310B590B0159C149CAC
:10503000139C129C0F900E910D920C930F98006888
:105040000E9908F05BF80B900B9807F0A7FC0F99EE
:1050500048600F9A089250681599D268079207F035
:10506000F5FF079907F02EFF0899C8600F98C068F0
:10507000149903F036FE0F99C8600F994868896843
:1050800008F03CF8099015981D4907F0A2FD00288A
:1050900003D1FFE71598069002E01A480690FFE753
:1050A00009980699FCF75CF80A900F99486888609F
:1050B0000D9802900F990591486801900C98C96865
:1050C00007F0C4FF019902460298039207F0BEFF61
:1050D000039907F0F7FE049012980A9907F0B6FFBB
:1050E000049907F0EFFE059908610F98006913997C
:1050F00003F0F7FD0F9908610F98006910B010BD1B
:105100006F12833A0AD7233C80B58CB00B900A917A
:10511000099208930A99488A498B4908401A07A9B5
:10512000088007980B9988810A990A8B642050435C
:10513000898BFBF7DBF905900598FCF72BF92C49D7
:10514000FCF70EF8049004987F21C90507F041FD93
:10515000002804D1FFE77F20C0050490FFE70498F2
:10516000244907F073FF244907F0ACFE03900021A7
:1051700007A8405E0721C94388420ADBFFE70021F8
:1051800007A8405E082804DCFFE706A90020088085
:1051900010E0002107A8405E012805DBFFE7079823
:1051A000083806A9088004E00798083006A9088096
:1051B000FFE7FFE7002106A8405EFCF7E3F80F4990
:1051C00007F044FF02900398029907F07BFE0C4918
:1051D000019100F06BF8099908600398029907F0B3
:1051E0008DFF019900F062F8089908600CB080BD4D
:1051F0000000F041000070C10000E041EC51383E79
:105200000000184281B0009000990020C8810099E8
:105210000882009A012191740099C874009948612C
:105220000099886101B0704782B0019068460170B2
:105230000098019908700199002048800199C88060
:105240000199088102B0704782B00146684601703A
:105250000078052803D3FFE7B848019006E06846C8
:1052600000788100034840580190FFE7019802B0A0
:105270007047C04600D6000080B582B0019001980A
:10528000002801D1FFE70CE001980749FBF7E7F898
:10529000019900200870019948700198FFF7B2FF4A
:1052A000FFE702B080BDC0461C08000080B584B096
:1052B000029001910298019907F08BFC002803D11C
:1052C000FFE70198039012E0029801990122D207AA
:1052D000514007F068FC002806D1FFE70198012142
:1052E000C9074840039002E002980390FFE7039843
:1052F00004B080BD80B582B001900199C889088250
:1053000001990020C8740199486101998861019848
:105310000721FFF789FF02B080BD000080B58CB087
:105320000B900A9109920B980A210491415E7F200B
:10533000C005059020480029069001D405980690E4
:105340000499069807900B98405E00280FD1FFE75C
:105350000B980C21415E7F20C00502901648002961
:10536000039001D40298039003980790FFE70B98ED
:1053700040883C21FBF7BAF8014608A80180007874
:10538000C007002806D0FFE707980121C907484059
:105390000790FFE707980949019107F057FE019927
:1053A0000A9A106007980122D207504007F04EFE7B
:1053B000099908600CB080BD000080BF000040412A
:1053C00080B584B00290019100920299887C401CC3
:1053D00088740298807C012804D8FFE703A9012083
:1053E000087024E00299002088740298C089400A5D
:1053F000002804D0FFE703A90020087017E00198F7
:1054000000F03CF80299CA899200891888830098B4
:1054100000F034F80299CA8992008918C883029969
:10542000C889401CC88103A901200870FFE703A8B0
:10543000007804B080BD83B001900198002804D1A9
:10544000FFE702A90020087013E00198017801200D
:105450000129009007D0FFE701980078801E4142A3
:1054600048410090FFE700980121084002A9087018
:10547000FFE702A8007803B07047000080B586B04F
:10548000059005981A4907F0E1FD049004980190F1
:10549000002107F088FB01463F200006BF221206CC
:1054A00002920029039001D1029803900198039978
:1054B00007F008FD049004980E4907F08AFB0028C5
:1054C00003D1FFE70B4804900CE00498C7210906BC
:1054D00007F069FB002804D1FFE7C720000604900D
:1054E000FFE7FFE70498FBF7EBFE06B080BDC04680
:1054F0000000204100FEFF4682B001906846017026
:1055000000980199487002B07047000082B00146CF
:105510006846017000780B2803D3FFE70748019025
:1055200006E0684600788100034840580190FFE794
:10553000019802B07047C04614D6000077D800002A
:1055400082B001900198017B00200029009022D0B8
:10555000FFE70198417B0020002900901BD0FFE766
:105560000198817B00200029009014D0FFE701986A
:10557000017C00203C2900900DD3FFE70198418B6E
:1055800000200029009006D0FFE70198808B411E83
:1055900088410090FFE700980121084002B0704761
:1055A00084B003900398017B00200029029014D05E
:1055B000FFE70398417B0020002902900DD0FFE710
:1055C0000398017C0120002200923129019001D82A
:1055D0000098019001980290FFE70298012108408D
:1055E00004B0704780B58CB00B900A9109920B986B
:1055F000002808D0FFE70A98002804D0FFE70998A0
:10560000002801D1FFE71DE20999002008600999EF
:1056100048600B980078099908720B9840780999AE
:1056200048720A980078002810D1FFE70B980021F3
:10563000FFF7FAFD0B98FFF7E5FD0B980078099945
:1056400008720B98407809994872FBE10B98007832
:1056500000280BD1FFE70B99002048700B98FFF74B
:10566000D1FD0B980121FFF7DFFDFFE70B98408884
:10567000F549884205D0FFE70B994888401C4880CF
:10568000FFE70A98FFF75CFF08A908700A98FFF780
:1056900087FF07A908700B98007804900A2800D9A2
:1056A000C6E10498810001A0405887462F5A0000A7
:1056B000D956000057570000B557000001580000A8
:1056C0009D580000E7580000EF580000C359000043
:1056D0002B5A00002D5A000007A80078002806D099
:1056E000FFE70A98406800F0B5F9039003E00A98D4
:1056F00040680390FFE703980999086007A80078BD
:10570000002806D0FFE70A98806800F0A3F902900D
:1057100003E00A9880680290FFE7029809994860C0
:1057200008A80078002815D0FFE70A9840880B9950
:1057300048810A99488A498B4908401A0B998881FF
:10574000099900200860099948600B980321FFF728
:105750006BFDFFE76DE10A98406800F07BF909995D
:1057600008600A98806800F075F90999486008A8EF
:105770000078002815D0FFE70A9840880B994881E7
:105780000A99488A498B4908401A0B9988810999D6
:1057900000200860099948600B980321FFF744FD39
:1057A00007E00B99002088800B980121FFF73CFD52
:1057B000FFE73EE108A80078002804D0FFE70B9936
:1057C0000020C8800EE00B99C888401CC8800B9848
:1057D000C0880A2805D3FFE70B980121FFF724FDB5
:1057E00027E1FFE70B984088142808D3FFE70B98C0
:1057F000FFF708FD0B980421FFF716FDFFE718E1FE
:105800000B9840889249884208D3FFE70B98022101
:10581000FFF772FE0B98FFF76DFD0AE108A800780C
:1058200000280AD0FFE70B990020C8800B980A993E
:10583000099A131DFFF768FC1AE00B98C08882498B
:10584000884205D0FFE70B99C888401CC880FFE755
:1058500009997E480860099948600B98C0880A2811
:1058600005D3FFE70B980521FFF7DEFCE1E0FFE73A
:105870000B9809994A680968FFF7A2FD014606A836
:1058800001700078002808D1FFE70B980321FFF78B
:1058900033FE0B98FFF72EFDFFE7CAE009996B482E
:1058A0000860099948600B9809994A680968FFF7E8
:1058B00087FD014606A801700078002808D1FFE79F
:1058C0000B980321FFF718FE0B98FFF713FD09E073
:1058D0000B984088C82804D3FFE70B98FFF70AFD10
:1058E000FFE7FFE7A5E00B98FFF704FDA1E00B98A9
:1058F000C0890521FAF7FAFD05A908800B98008AEE
:105900000988884211DCFFE70A98407800280CD00B
:10591000FFE70B9800894C49884205D0FFE70B99B7
:105920000889401C0881FFE703E00B9900200881EB
:10593000FFE70B980089032805D3FFE70B980821A0
:10594000FFF772FC75E00B98C07C00282CD1FFE7B4
:105950000B98008A002805D1FFE70B980821FFF774
:1059600063FC66E00B99088A401E08820B98018A46
:10597000890040181C21405E00F078F80121C90719
:10598000019148400B9948610B98018A89004018A1
:105990001E21405E00F06AF8019948400B99886129
:1059A0000B990220C874FFE70B98406909990860B9
:1059B0000B988069099948600B99C87C401EC8748F
:1059C00037E00A98407800280CD0FFE70B98008950
:1059D0001D49884205D0FFE70B990889401C0881C2
:1059E000FFE703E00B9900200881FFE70B9800898F
:1059F000032805D3FFE70B980921FFF715FC18E0F2
:105A00000B98408880084B2809D3FFE70B980421A6
:105A1000FFF772FD0B980A21FFF706FC09E00B98CF
:105A200009990A1DFFF77AFC03E002E001E0FFE7B5
:105A3000FFE70B980078099908720B98407809994C
:105A40004872FFE70CB080BDFFFF0000000030414E
:105A5000EE02000080B582B001900198024907F083
:105A6000F5FA02B080BDC046ABAAAA3E80B582B0AE
:105A7000014601A801800021405EFBF783FC02493A
:105A8000FBF76EFB02B080BD0000204181B00090AA
:105A90000099087800024978401800B201B07047B8
:105AA00080B582B001900198002107F07CF80028B1
:105AB00006D1FFE701980121C9074840009002E0A4
:105AC00001980090FFE7009802B080BD80B586B0D5
:105AD0003A4804903A49FAF7C2FC049939480862F6
