:020000040000FA
:1000000090592020C1020000C5020000C702000074
:1000100000000000000000000000000000000000E0
:10002000000000000000000000000000C902000005
:100030000000000000000000CB020000CD02000024
:10004000CF020000FD320000593600007137000079
:10005000CF020000CF020000CF020000CF0200005C
:1000600000000000CF020000CF02000000000000EE
:1000700000000000C5360000213700007136000086
:100080001936000039360000F93500000936000045
:100090004936000029360000000000000000000082
:1000A000CF020000CF0200000000000000000000AE
:1000B000CF02000000000000CF020000CF020000CD
:1000C00000F002F800F0D1F812A030C80838241867
:1000D0002D18AC4201D100F0C8F80FCCA246AB46B7
:1000E0000CA730CF2D1B083F3F197C427F1E544484
:1000F0002D090426F441641EAC4201D300F0B5F88A
:100100000126334200D0FB1A3343984754465D46DC
:10011000DFE7000064C2000084C2000000000000AD
:10012000103A02D378C878C1FAD8520701D330C840
:1001300030C101D504680C60704700000000000069
:100140007047000000000000002300240025002666
:10015000103A01D378C1FBD8520700D330C100D583
:100160000B60704710B56E2902D101F08FF910BDF8
:10017000702902D101F0C9FA10BD662902D10BF035
:1001800041FA10BD652902D10BF03CFA10BD672978
:1001900002D10BF037FA10BD612902D10BF03AFA07
:1001A00010BD03681B0A01D380231943692902D1BA
:1001B00001F036F910BD642902D101F031F910BD0A
:1001C000752902D101F02CF910BD6F2902D101F07F
:1001D00047FA10BD782902D101F084FA10BDE9294F
:1001E00002D101F0E3F910BDE42902D101F0DEF9FA
:1001F00010BDF52902D101F0D9F910BDEF2902D1C6
:1002000001F03AFA10BDF82902D101F079FA10BDD7
:100210000368DB0901D380231943632902D101F06C
:100220005CFF10BD732902D101F05FFF10BDE3290F
:1002300002D101F069FF10BDF32902D101F06CFF7A
:1002400010BD002010BD1FB502F04EF804000020C4
:1002500000210AF0D9FF401C6060002000210AF054
:10026000BDFFE0601FBD10B510BD02F015F81146CE
:10027000FFF7E9FF07F052FF02F0AAFB03B4FFF714
:10028000F2FF03BC03F0D0FA70B505460C461646E3
:1002900002E00FCC0FC5103E102EFAD2082E02D36A
:1002A00003CC03C5083E042E07D301CC01C5361F7D
:1002B00003E021782970641C6D1C761EF9D270BD94
:1002C00006480047FEE7FEE7FEE7FEE7FEE7FEE73B
:1002D00003480449044A054B70470000C100000070
:1002E000904520209059202090492020904920209E
:1002F0000FB41CB5084B06AA7B44694600900598CC
:1003000001F0DDF804460020694601F0EBF82046D4
:100310001CBC08BC04B01847E911000030B5441CEF
:1003200003E00178401C00290DD08107F9D10B4B67
:10033000DD0104C8D11A91432940FAD0001B0A06F6
:1003400003D0C01E30BD001B30BD0A0401D0801E8A
:1003500030BD0902FCD0401E30BD0000010101018A
:10036000F8B5042A2CD3830712D00B78491C0370EC
:10037000401C521E83070BD00B78491C0370401C95
:10038000521E830704D00B78491C0370401C521E78
:100390008B079B0F05D0C91ADF002023DE1B08C97D
:1003A0000AE0FFF771FFF8BD1D4608C9FD401C4675
:1003B000B4402C4310C0121F042AF5D2F308C91A06
:1003C000521EF0D40B78491C0370401C521EEAD414
:1003D0000B78491C0370401C012AE4D40978017091
:1003E000F8BD01E004C0091F0429FBD28B0701D529
:1003F0000280801CC90700D00270704700290BD012
:10040000C30702D00270401C491E022904D383078F
:1004100002D50280801C891EE3E70022EEE700225D
:10042000DFE70000024670B50A4392072AD11E4D4D
:10043000EE0104C808C9541B9443344017D0D0B20D
:10044000D9B2401A2106014310D190B299B2401A94
:10045000210401430AD110021902000A090A401AB4
:100460002102014302D1100E190E401A70BD9A42AA
:10047000DFD010BA19BA884201D9012070BD00201E
:10048000C04370BD02780B78401C491C002A09D07B
:100490009A4207D102780B78401C491C002A01D0EF
:1004A0009A42EFD0D01A70BD010101010022030968
:1004B0008B422CD3030A8B4211D300239C464EE07F
:1004C00003460B433CD4002243088B4231D303093B
:1004D0008B421CD3030A8B4201D394463FE0C309ED
:1004E0008B4201D3CB01C01A524183098B4201D305
:1004F0008B01C01A524143098B4201D34B01C01AF0
:10050000524103098B4201D30B01C01A5241C30867
:100510008B4201D3CB00C01A524183088B4201D3D6
:100520008B00C01A524143088B4201D34B00C01AC2
:100530005241411A00D201465241104670475DE0D7
:10054000CA0F00D04942031000D3404253409C469A
:10055000002203098B422DD3030A8B4212D3890157
:10056000FC2212BA030A8B420CD3890192118B42EE
:1005700008D3890192118B4204D389013AD0921198
:1005800000E08909C3098B4201D3CB01C01A524153
:1005900083098B4201D38B01C01A524143098B421C
:1005A00001D34B01C01A524103098B4201D30B0105
:1005B000C01A5241C3088B4201D3CB00C01A52412A
:1005C00083088B4201D38B00C01A5241D9D2430811
:1005D0008B4201D34B00C01A5241411A00D201464E
:1005E0005241104663465B1001D34042002B00D5B8
:1005F0004942704763465B1000D3404201B505494C
:10060000002802DC491C084000E00846C046C046FD
:1006100002BD00BFFFFFFF7F7047704770470000BB
:10062000F0B50C46871A9C410D46861A9D4103D2AF
:10063000C01BA141D21963410D0D1F0DC94EEC1B0A
:10064000AE435CD07F057F0D0026002F51D02D05D5
:10065000AC46A943DD020123ED0A1B051D432023FF
:100660001B1B24D41746E740381871412F46E7403A
:10067000CC199D402818314661410C0D27D16144A9
:100680009A4013D50023401C594152000ED1400816
:10069000400001224B005205D34207D305204007FA
:1006A000C14201D5B04900E0B0493046F0BD6B0011
:1006B000002A00D001229A181F23203C1B1B01D5C1
:1006C000002302E0E540281871410C0DD7D0012429
:1006D00024050919C407CD0740084908E40F284339
:1006E0006144002CD5D00024401C61419A40D0D1F7
:1006F000CDE76A05520DD9D1C90FC907D5E79C4D81
:100700004E00002801D0012400E0002434195F00CD
:10071000002A01D0012600E00026BE19954FAC4208
:100720000CD8AE420AD8B44206D001256D05EC4281
:10073000BCD010461946F0BD9942FCD00020394685
:10074000F0BDF0B51FB40C460F46811A9F412546F7
:10075000861A9D4106D20125ED076F40401ABC4123
:1007600052187B41210D1E0D8D1BAC467D4D8D43D6
:100770007ED075056D0D7CD00D05AE46AC431B03D8
:100780001B0B794D52429D41202366469B1B14D37F
:100790001746F740381800260090744160462F46EF
:1007A0000741E41900989D402818664116D4714607
:1007B00071189A4025D5012320E093182A466A41F2
:1007C0005200002B00D0521C1E23203E9B1B002BEE
:1007D00061DD3541EE1728186641E8D500187641ED
:1007E0005B1C9A4000D3401C4B05F3181524E340D2
:1007F00010D3002B52D071467118D30FC01802D3FA
:10080000491C05B0F0BD0123DB079A42F9D140082D
:100810004000F6E701225205B21801D1002853D05A
:100820000123CC0ADB029943891E002A08D1020C5D
:1008300003D0020C0004103902E0024600202039E7
:100840000023550B05D112020823550B01D152018B
:100850000D23550C01D112011B1DD50C01D19200A5
:100860009B1C150D01D152005B1C2025EE1A01E0E6
:100870002CE022E00546F54015439840CA1AE107EE
:1008800069181305C918002ABBDA032040070818A5
:10089000C10FC9070FE071466118B2E7F1074008C0
:1008A0000843711071444A000CD001235B059A4241
:1008B000A7D2C90FC9070020A3E74905490D26D1D2
:1008C000002001E00028F4D100219AE7284D6600BD
:1008D000002801D0012100E0002171185F00002AEA
:1008E00001D0012600E00026BE19224FA94210D8EF
:1008F000AE420ED8B14208D001256D05E94206D0BE
:100900001946A802414010467BE79C4201D021468F
:1009100077E70020394674E710B50C465C4005D5F2
:100920000124E4076340FFF70CFF10BDFFF778FEDA
:1009300010BD30B40C465C4004D50124E40763408C
:1009400030BC6DE630BCFCE670B50124E4076140C4
:100950000D465D4002D4FFF763FE70BD6340FFF7B4
:10096000F0FE70BDFF0700000000F0FF0000F07F08
:100970000000E0FF0000F87FF0B5F94D0C091E09FA
:100980002C402E402F468BB0A7437DD0B543FCD0E2
:10099000002E7AD0002CFCD00D465D40ED0F254393
:1009A000AC1BFF25AD0464190894C502440DC902AF
:1009B0002143500DDC0204430120C00701430443DE
:1009C000D2020191200C110C00958C4601042346A3
:1009D0008B430A9161460904E24D8A430991010A59
:1009E0007D4449198039097805464D4301266D1823
:1009F000F605751B6943C90C640B891C4C436418CC
:100A0000B5012C1B250C2E04B4434C434D43210C43
:100A1000691889090591009DE90701D00121C907DD
:100A200004912C4601996708CD072F434C08059D7A
:100A3000E10B4D432D0C29466646754302950D4644
:100A400045432E46029D7D1BB44100950D465D43F6
:100A500001942C0C2F040D465543AE462D0C3D43FE
:100A6000029503947546049C2D04641B049406D2DD
:100A7000029C039D641C002675410395029401AC01
:100A800070CC009F7D1B01E03EE162E1B4410904AE
:100A90000095079101940599A4086143090C0C463F
:100AA0004443650BE7040C4666467443A646640B54
:100AB0003C43039502947446049DE4042C1B049467
:100AC00006D2029C039D641C002675410395029486
:100AD00001AC70CC009F7D1BB44101940C465C437B
:100AE0000095650FE7000C465443A646640F3C434F
:100AF000039502947446049DE4002C1B049406D2D2
:100B0000029C039D641C002675410395029401AC70
:100B100070CC009F7D1BB441AE09AF06049DC90097
:100B2000AD092F43049DA406AD060495079D3443EB
:100B300069180791059DE10B4D432D0C294666462A
:100B4000754302950D4645432E46029D7D1BB441DB
:100B500000950D465D4301942C0C2F040D46554322
:100B6000AE462D0C3D43029503947546049C2D041E
:100B7000641B049406D2029C039D641C00267541EC
:100B80000395029401AC70CC009F7D1BB44101948D
:100B90008C050694079C890A611800950791019CB1
:100BA0000599A4086143090C0D464543680BEF0401
:100BB0000D46644665436C0B3C43049FED047D1B6E
:100BC000AC4602D20025641C6841009E019D371B83
:100BD00085410846584301950C46460FC5005443CD
:100BE000600F28436546E4002C1B02D20025401C00
:100BF0006E41019D3F1AB5412846BD098006284334
:100C00008446A009BF064E020699A406761807433B
:100C1000079D002068410A99079019430020099B0D
:100C200000906046FF1913434041E20F64003A43CD
:100C3000A4460446D71A8C41A04203D90120009053
:100C400020463A46C70F941840416246D20F2243CD
:100C5000644664000494009CBE466400D71AA4460F
:100C6000044602978C417746002F01D1A04204D957
:100C70006046401C8446029A2046C40FA64694183B
:100C80004041049A0546D20F224364466400D31AB9
:100C90008D417146002901D1A84202D928461A4641
:100CA000641C10430122002800D01643610200207A
:100CB000079B891904465C410223002C02DB49187A
:100CC00013466441089DCE0A2D145D194B05670536
:100CD000E10A2C050D1908993E43C9076940002B0C
:100CE00008D0934006D30022761C5141002B01D13D
:100CF000760876001C4A002D43DB154241D0AA43FA
:100D00003FD030460BB0F0BD06180D464D41174C94
:100D10007642AC411AD395181C465C41134A6D4289
:100D2000A24113D3012252054C00D4420AD15C00E7
:100D3000D4420BD04B4002D592021143E2E7490066
:100D40004908DFE75940C90FC90718E000200849E2
:100D5000D8E7054801420DD10342F7D0F2E7000081
:100D60000000FF0740AC00000000F07F0000E0FF43
:100D70000000F87F114859400143C0124140002053
:100D8000C0E70123089A9B069A4205DC032252071A
:100D90008918C90FC907B5E7052252078918074AFC
:100DA0001143D2125140ADE770B515461C460246BC
:100DB0000B4628462146FFF7DFFD70BDFFFFFF7F92
:100DC00030B50346CA02400D1043164D164C0A15A5
:100DD00002D02043002A06DBAA1A002A12DDD040E6
:100DE000FF2A0BDC30BD5205520D01D140004008F6
:100DF000AA1A07D4D0404042FF2A01DD002030BDAE
:100E00000028FCDD4A00002B01D0012000E000207A
:100E1000101801225205D042F0D8C817C0436040D4
:100E200030BD00001E040000000000801F22030CE3
:100E300002D10F22000402D0030E03D004E00020F0
:100E4000014670470002083A030F01D10001121F4A
:100E5000830F01D18000921E002801DB4000521E4A
:100E6000120551184205C012411810467047C10FB3
:100E7000C90700D04042012292071143D6E7012161
:100E80008907D3E7F0B58B4C0F09254689B0BD43E0
:100E90007BD01D092646AE43FAD00E465E40274061
:100EA000F60F3E43254071D024012142FBD0FF24A0
:100EB000AD19A4042D1B039501252D05DB02DB0ACA
:100EC000C9022B43C90A29431E010901040F130F4C
:100ED000050121431701880B820391432D098C469C
:100EE000A90B1E438A039543B30B9A0396433F090C
:100EF000BA0B9403A74302962E467E430497B64648
:100F00004E19D7190C460196544305977E43371B5B
:100F10007646BF1B3601B646BE0B3619009676469E
:100F2000BC043719009C01D3641C00946400002F9A
:100F300001D001263443029E049F754366467E43DA
:100F40000496760034196E0034190094029C019EB8
:100F50001C196643751BAE46069465464519059CEB
:100F600005956C43594375460891691A0191049E91
:100F700001465143A41B0491611A009C0791E106AC
:100F800005D061090122114302E072E06EE06109BF
:100F9000089D00272C0A2D066918049D7C412A0A09
:100FA0002D066918019D6241AC0DAD026D185441CA
:100FB000079A910D920255196141029A644658436D
:100FC0005443069B059A5A43121A131B9A0E9B010F
:100FD0005B187A41010B0005C3185141220A200613
:100FE00044195A419A4200D2491C012040028142D0
:100FF00003D315230226F64302E014230326F64307
:101000002020C51AA9401746AF40DA400A432046BF
:101010000399D8400914731819055118039A3843D5
:10102000D2075140AC4009D00122944006D300229F
:10103000401C5141002C01D1400840001E4A9342FF
:1010400012D3012203989206904207DB0520400745
:1010500009181A480143C012414004E00320400728
:101060000818C10FC907002009B0F0BD0020F10722
:10107000FAE705180C464C4111486D42A04115D3C2
:1010800094181A465A410E48644290410ED30120EA
:101090004A004005824209D35A00824206D3594091
:1010A000C90F084AC90700201143DDE7002006499F
:1010B000DAE700000000FF07FE070000FFFFFF7FE8
:1010C0000000E0FF0000F07F0000F87F0121C9056B
:1010D0000123411842001B06D3185B0E0AD0C11031
:1010E0000722D206891840075242D14201D5520048
:1010F00089187047090208D50146002A03D0C10F9C
:10110000C9070020704710467047420202D00020F5
:1011100002497047072109050143F4E70000F87F01
:10112000F0B5FF252D04C609C209FF2704462E404D
:101130000137CB093E4348402A402B400746002A4E
:101140006BD0002B69D0AA4267D0AB4265D0002893
:1011500000DA32460125ED0529432C43090220021D
:10116000090AD21A4B0C7F24E31A434C000A7C4430
:10117000E35C7D242404121914145B00A218884235
:1011800001D3521C00E0400049420C465C4324114C
:101190005C43DB016415E318040A5C43C502200DBF
:1011A0000C4644436419250A5D432303EC0C0D46A9
:1011B000654300030019EB184C42A34201D35B18AE
:1011C000401CD4052018002B07D05B00C91804D39D
:1011D000401C002901D1400840003F2189048A4277
:1011E00009D3002A08DC1106090F04D0032149079E
:1011F0004018C00FC007F0BD012241001206891837
:101200007F2252069142F6D205214907C84201D5F4
:101210009010F0BDFF20C005F0BD002F00DA32466F
:101220001648AA4207D2AB4205D21902090E17D0BE
:10123000F80FC007F0BDFF2563002D06AB42F9D8BB
:101240004900A942F6D8AB4201D1A942F2D0A94245
:1012500001D1002101E061004908D0050843F0BD3B
:101260001102090EFBD0FF200243D005F0BD0A4653
:101270000146104654E7000032A500000000C07F80
:1012800010B501469E240002CA15A307002A02D009
:101290001843002A04DBA21A002A0CDDD04010BD3E
:1012A0001206120E01D140004008A21A03D4D04009
:1012B00040420028F3DDFF2248001206904201D987
:1012C000002010BDC817C043584010BD0102C21510
:1012D00004D00123DB071943002A0ADB9E239A1A54
:1012E00002D40846D0407047FF22410012069142C6
:1012F00001D900207047C017C04370471F22030C5C
:1013000002D10F2200041CD0030E01D10002083AC2
:10131000030F01D10001121F830F01D18000921E23
:10132000002801DB4000521ED2055118021251184C
:101330001922904004D3491C002801D149084900D2
:1013400008467047C10FC90700D0404201229207EA
:101350001143D3E701218907D0E770B504468569B9
:101360000068C10601D5302600E02026C00707D05E
:1013700070BD62683046A1689047206A401C2062B8
:101380006D1EF6D570BD70B5044685690078C0073E
:1013900007D170BD6268A16820209047206A401C78
:1013A00020626D1EF6D570BD09684A0501D540B2B0
:1013B0007047C905FCD500B2704709684A0501D5D8
:1013C000C0B27047C905FCD580B2704770B50C46F5
:1013D0000546012A05D02878800600D5EA69002351
:1013E00002E0012305E05B1C934202D2E05C00288E
:1013F000F9D1A869E618C01AA861286AC01828623D
:101400002846FFF7AAFF04E06A682078A968641CF0
:101410009047B442F8D32846FFF7B5FF70BD0000EF
:10142000F7B5002575291068009914A611D0FFF7AB
:10143000BBFF002802DA404211A608E000990968C3
:101440008A0701D50FA602E0490704D50EA601259B
:1014500001E0FFF7B2FF009F0024243704E000F012
:1014600080FE30313955641C0028F8D12B463246B5
:101470002146009800F057FAFEBD00000000000071
:101480002D0000002B000000200000001168026801
:10149000006A530501D5087009E0D30501D508801D
:1014A00005E0130602D5C21705C100E0086001205F
:1014B0007047000001694A1C02610878704700B556
:1014C0008FB0029100210591054901937944039160
:1014D00011460490684600F025F90FB000BD0000E9
:1014E000E5FFFFFF0A681070521C0A607047000099
:1014F000F7B50446154686B02B487844002703C844
:101500003E460090019111E007986A467100415AE9
:1015100002A800F005FE411C07D02178890603D5FA
:10152000E269391891420ED83F18761C207880065F
:1015300002D5E069B84206DDAE42E5DB07987100EE
:10154000405A0028E0D1A069C01BA0612046FFF7E7
:1015500004FF154878445A3803C8009000200191D0
:1015600016E041006A460798415A02A800F0D8FDEB
:101570000590401C0AD0002505E0626802A8A16819
:10158000405D90476D1C05988542F6D30498401C39
:10159000B0420490E5DB206AC01920622046FFF7C4
:1015A000F2FE09B0F0BD0000E6A10000F7B5D21DC3
:1015B0000025D20815A6D200F52905CA11D0002AA7
:1015C00005DA00214042914111A60A4608E000993F
:1015D00009688B0701D50FA602E0490701D50EA6C1
:1015E00001251146009F0024243704E000F05EF935
:1015F00030323A55641C02460A43F7D12B46324634
:101600002146009800F08FF9FEBD000000000000A8
:101610002D0000002B0000002000000070B50446E3
:101620000021243408E05507D2086D0F3035655489
:101630005D072A43DB08491C15461D43F3D10468A6
:10164000002310A2250708D520252C400C4304D0E8
:10165000C46901230CA2641EC46100F064F970BD6A
:1016600010B5044621461068FFF7A7FE0023024686
:101670002046FFF7D3FF10BDD21DD108C9000CC909
:10168000CCE700000000000030000000F8B50F4675
:101690000188090502D5224C7C4402E0204C7C44A0
:1016A0000E3405460021243508E016071209360FCE
:1016B000A65D6E541E0732431B09491C16461E4385
:1016C000F3D1224604780023240705D5702F06D0D5
:1016D000002901D00223113200F025F9F8BD0123C1
:1016E0001032F9E770B504460D4621461068FFF741
:1016F00064FE0023024629462046FFF7C7FF70BD5F
:10170000D21DD308DB000CCBC0E730B40368202423
:101710001268234303600823C36130BC0023B5E78C
:1017200050A00000F3B50446002081B0206220469E
:10173000E1688847002872D0252802D06268A16835
:10174000ABE0594F00267F442046E16888472028B7
:10175000054608DB312D06D278192038007800289C
:1017600001D00643F0E7B00701D5042086430020EE
:10177000E0610746A0612A2D0AD0284609F027FD1E
:10178000002827D0B8000019303D0090856119E08D
:101790000298BA00121902C8916102902046E168CD
:1017A0008847012F054617D1E06900281FDA20205D
:1017B00086431CE000980A2180694843009940193B
:1017C000303888612046E1688847054609F0FFFC0B
:1017D0000028EFD1012F0AD02E2D08D12046E16834
:1017E00088470546202006437F1C022FC3DBA069E3
:1017F000002803DA4042A06101200643F00701D02F
:10180000102086436C2D0BD0682D09D04C2D3CD078
:101810006A2D38D0742D38D07A2D36D016E040E0BD
:10182000E1682F4620468847B842054609D16C2F0B
:1018300029D001208002E1680643204688470546FA
:1018400004E06C2F1DD0FF2001300643002D28D06E
:1018500028464138192803D80120C0020643203504
:10186000204626602946029A1646FEF77BFC002891
:1018700010D001280BD0F61DF008C00008300290EF
:1018800055E74020E1E78020D5E70020D3E7361D6B
:1018900002964CE762682846A1689047206A401C7F
:1018A00044E7206AFEBD0000CA9F00000B4670B5E9
:1018B000024689078008084319469D08141AA94161
:1018C00025090807054308092C194841250A01067E
:1018D0000D43010A2C194141200C0D0428430D0C25
:1018E00000194D41002140194D41C00869070843C6
:1018F000E908840F8D002543840024184D412419E4
:101900006D41121BAB4107E00925ED432C11521923
:1019100063410024401C61411C460A250026551BDA
:10192000B441F1D270BDFFB504460D4681B02430FC
:1019300000902168880604D51022E0699143216057
:1019400000E00120A84201DD471B00E000270498C9
:10195000A1697A191018081AA0612078C00602D46B
:101960002046FFF7FAFC002608E003986268A168A9
:10197000805D9047206A401C761C20620498864255
:10198000F3DB2078C0060AD52046FFF7E6FC06E028
:101990006268A16830209047206A401C2062384667
:1019A0007F1E0028F4DC07E000986268A168405DB3
:1019B0009047206A401C206228466D1E0028F3DCF8
:1019C0002046FFF7E0FC2078000602D5022005B093
:1019D000F0BD0120FBE70000FFB50C461E468FB0AE
:1019E00003CA089009914F007D0D00D16D1E0021A2
:1019F00008460020C0460321099A89050840002AAC
:101A000003DA8200801840080840800D01280A90FF
:101A100002DD0020C0430A90089807430DD0F0482B
:101A2000F049281848430714189800281DD075421B
:101A3000291E1DDD0A9842421BE01898012802D099
:101A40000020302104E00020F24305E02154401C36
:101A5000B042FBDB30460022189B002121540F9935
:101A60008B600A60486013B0F0BDBD1B6D1CDFE7E2
:101A70000A9A002900DA69420BA800F07DFC0BAB42
:101A800007CB03AB07C30899099800F0E1FC6B464C
:101A900007C30146D4480918002D00910BDDD24937
:101AA00003980A9A49424018002303A90390684604
:101AB00000F03EFF08E003990A9A0023081803A9E2
:101AC0000390684600F0DEFE6B4607C30004000C7E
:101AD00003D00020C043410800E01046189A002AB5
:101AE00003D00022009215461EE0751E05D4FFF7B4
:101AF000DDFE303262556D1EF9D50122084307968E
:101B000002D000227F1C04E02078302801D100227E
:101B10007F1E002A069787D01EE0112D07DAFFF7F7
:101B2000C5FE303262556D1C02460A43F5D10843AA
:101B300003D00098002819D00EE00021681E05E0AF
:101B4000235C625C63542254401E491C8142F7DBD3
:101B5000A81B401E07950690079A18990020A054CC
:101B60000F98079B069A81600CC07CE71126002025
:101B7000189059E7D21DF0B50D460446D10893B030
:101B8000C90003C90C900D9109F0BAFA02460D98EC
:101B9000C00F01D02D2007E02068810701D52B2040
:101BA00002E04007C00F4001032A0F9001D0072A2E
:101BB00005DB03462946204600F09AFB0EE120781B
:101BC000800601D5E76900E006272846652D04D088
:101BD000662814D0672D69D12DE00020112F0090C8
:101BE00001DB112300E07B1C0CAA03A910A8FFF75E
:101BF000F3FE1199002610987D1C0E9142E0012001
:101C00003B460CAAC0070B900120009003A910A826
:101C1000FFF7E2FE119D12981099002600280E95FC
:101C200001D1781C0D18781B02D446427D1C761E0B
:101C3000E81B00903AE0012F00DA01270020112F65
:101C4000009001DD112300E03B460CAA03A910A877
:101C5000FFF7C2FE11993D46109800260E9121789B
:101C600009070BD40E99A94200DA0D4603A9012DEC
:101C700004DD4A19203AD27F302A06D0B84201DA70
:101C8000011D04DA012100910FE06D1EEFE700282D
:101C900002DC86192D1A03E0411CA94200DD0D4625
:101CA000801B401C00900120C0070B90207800078B
:101CB00005D40098A84202DB0020C043009069468A
:101CC0000020C8720B98012102AF0337C907884270
:101CD00025D0022010902B2011900B9800280BDAB1
:101CE00040420B902D20119006E00B9800F039FA3D
:101CF00030317F1E0B9039701099481E00291090CA
:101D0000F3DC0B980028F0D111987F1E38702088E2
:101D1000000501D5452000E065207F1E387001A830
:101D2000C01BC01D0B900F98002800D00120411946
:101D30000098C01709180B980818A169081A401EC6
:101D4000A0612078C00602D42046FFF706FB0F985A
:101D5000002805D06268A1689047206A401C206274
:101D60002078C00625D52046FFF7F7FA21E0002E9F
:101D700007DB0E98B04204DD03A86268805DA168AD
:101D800002E06268A16830209047206A761C401CFF
:101D900020620098401E002800900AD100F0A4FAAA
:101DA000C06862680168405CA1689047206A401C76
:101DB000206228466D1E0028D9DC07E0626838786A
:101DC000A1687F1C9047206A401C20620B99481E26
:101DD00000290B90F2DC2046FFF7D5FA032042E6FB
:101DE00001FCFFFF104D0000E1DFFFFFD21DF0B549
:101DF00004460D46D0088DB0C000466807683146DD
:101E0000384609F07DF90246F00F01D02D2307E096
:101E10002068810701D52B2302E04007C00F430152
:101E20006846002B037001D0012000E00020032A47
:101E30000A9001D0072A04DB2946204600F058FA10
:101E40002DE12078800601D40D2500E0E5697000C1
:101E5000400D0D2D01904BDA300D00210B900846FE
:101E60000020C046032189050840002E05DA8200C3
:101E70008018C20F1018401008408015012801DD9D
:101E80000020C043A9000023182906D39C460A4617
:101E90000123183A1B07D34003E001221205CA4070
:101EA00094460C31202902D33A46203900E03246CC
:101EB0008A40002802DD002A06D119E0002817D147
:101EC0000121C9078A4213D3194663467F185E4130
:101ED000002806D10120C007824202D1084687436C
:101EE0009E430B98310D814202D00198401C019015
:101EF0002088000502D57149794402E06F49794490
:101F000019396B460A9830221A540A980A7C401CE8
:101F10001A54401C0A900198002801DC302000E08F
:101F200031201872019A0120002A02D0644BD21885
:101F300004E072003A4302D0614A521C0192002D23
:101F400002DC2278120703D56A462E205072022046
:101F50000022864694460CE032033601120F6D1EB5
:101F60008B5C02AA13546246521C401C9446052AFC
:101F700001DA002DF0DC002202AE08E03B0F3F0149
:101F8000CB5C521C6D1E3354401C082A01DA002D14
:101F9000F4DC23689A0601D511E0401E704504DD8B
:101FA0003218203AD27F302AF7D0002807DD3218C5
:101FB000203AD27F2E2A02D11A0700D4401E002DCB
:101FC00003DD3E223254401C6D1E497C3154019980
:101FD000401C002906DA2D21471C3154019840424B
:101FE000019003E02B21471C315401987D21C90049
:101FF000884206DBFEF764FA3030F0557F1C019111
:1020000001E0642808DB01986421FEF759FA3030BA
:10201000F0557F1C019101E00A2806DB01980A2196
:10202000FEF74EFA3030F0557F1C01980A21FEF77A
:1020300047FA3031F1550A98A1697F1C7A191018B6
:10204000081AA0612078C00602D42046FFF785F95F
:10205000216A6E460A980818206204E062683078A7
:10206000A168761C90470A98401E0A90401CF5D142
:102070002078C00602D52046FFF76FF902AE09E0CE
:102080003078761C3E280DD06268A1689047206A9F
:10209000401C20627F1EF3D22046FFF774F90DB07A
:1020A0000320F0BD206A4019206203E06268A16845
:1020B000302090476D1EEDD3F8E700003C980000FB
:1020C00001FCFFFF10B54369002B02D0C046C0469B
:1020D00001E0FFF77BF9012010BD127801462431A1
:1020E0000A7000224A700122ECE711680022D243F4
:1020F000E8E710B54369002B02D0C046C04601E0B6
:10210000FFF7F6F9012010BD1288014624318284C0
:102110000022C2840122ECE711680022D243E8E7E2
:10212000F8B516460C46054600F0D6F80368FF20C1
:102130000230C05C012807D0FF2C0FD8185D0028A2
:102140000CD001202C70F8BDFF33324621460833F5
:102150001868C71828460023B847F8BD0020C043B8
:10216000F8BD01468008081A02091018020A101862
:10217000020C1018C008820012185200891A01E0DF
:10218000401C0A390A29FBD270470000F8B5264CDA
:102190004E00069DA6420AD8A64201D1002806D1CB
:1021A0005E00A64203D8A6420AD1002A08D00D2418
:1021B0002404254233D02946002000F011FCF8BD4C
:1021C0000C461C4311D4994207D0C81A02D3EFF32E
:1021D0000080F8BDEFF30080F8BD801A02D3EFF362
:1021E0000080F8BDEFF30080F8BD09242407E50066
:1021F0008B4207D0581A02D3EFF3008006E0EFF3CA
:10220000008007E0101A03D3EFF30080A04303E03F
:10221000EFF30080A043284380F30088F8BD0095C9
:1022200000F0F6FBF8BD00000000E0FF10B5FF2352
:102230001B0644009C421DD84C009C421AD8034601
:10224000124A0B4307D4401A02D3EFF3008010BDAB
:10225000EFF3008010BD081A03D3EFF30080904322
:1022600005E0EFF3008001219043C907084380F3A4
:10227000008810BD0D231B041A4204D01146002013
:1022800000F0AEFB10BD00F0CDFB10BD00000090D3
:1022900000487047F80020207546FFF7F9FFAE466A
:1022A000050069465346C008C000854618B020B5F1
:1022B000FEF70EF860BCB64600260027C0C5C0C5B4
:1022C000C0C5C0C5C0C5C0C5C0C5C0C5403D490822
:1022D00049008D467047000010B500F005F8001D5C
:1022E00010BD00BF258F0000004870471801202056
:1022F000F8B51F46044601230068DB0203260146A9
:102300001840072A05DB002801D017A506E017A50D
:1023100004E0002801D016A500E016A51020814396
:102320002160A069C01E002FA06101D0401EA061E5
:102330002046FFF712F8002F09D038466268A168DE
:102340009047206A401C2062C01C206206E0206A80
:10235000FAE762682878A1686D1C9047761EF8D26B
:102360002046FFF710F8F8BD4E414E006E616E003A
:10237000494E4600696E6600F7B516468AB0334886
:1023800078446C4603467C33C06F5A689B680DC422
:102390002E487844763003AC0DC80DC43720C001F8
:1023A000081837211B30FEF78BF805460C46803D98
:1023B0001B3C02D56442012000E000200027099068
:1023C00010E0E0070CD00C202049784379443246D5
:1023D0004C3941186846012300F054FA6B4607C394
:1023E00064107F1C002CECD1184F7F442E3F16E068
:1023F000E80712D02001C0190EC806910893079271
:102400000068F04201D1981908903246012306A9CC
:1024100003A800F037FA03AB07C36D10641C002D4E
:10242000E6D10998002806D032466946012303A860
:1024300000F07EFA05E001233246694603A800F069
:1024400021FA0A9B07C30DB0F0BD0000C89300003D
:10245000034640000A4610B5400D0BD00121C907C4
:102460000F24A40200191C0364082143540D2143C6
:10247000D20207E000210120F2E7D40F49002143F6
:102480005200401E0029F8DADB0FDB07184310BDAD
:10249000FFB50D46144685B04868516808F018FE2F
:1024A00000910190A868A16808F012FE02910390C3
:1024B000A868616808F00CFE029A12188242029223
:1024C00001D2012000E00020019A0B18D218002848
:1024D000019202D08A4202D903E08A4201D201204D
:1024E00000E000200099081800906868A16808F0D2
:1024F000EFFD029A12188242029201D2012000E0FE
:102500000020019A0B18D2180028019202D08A42AA
:1025100002D903E08A4201D2012000E000200099A4
:1025200008180090286821684000490040084908C0
:102530004018FA49471814E001994000C90F0843B0
:102540000090019802994000C90F08430190029839
:1025500003994000C90F08430290039840007F1E72
:10256000039000980028E7DA0898002801D0EC4E84
:1025700000E00026B74201DA012000E00020002838
:1025800004902AD0F71BF806C00E15D0029B20211C
:10259000091A039A8B401A430392029A019BC24084
:1025A0008B401A430292019A009BC2408B400099D3
:1025B0001A430192C14000917B110DD06F46032058
:1025C000C11A03D500218200B95003E08A008100BE
:1025D000BA587A50401EF3D537460398029900281E
:1025E00000D00120014308980291002808460CD031
:1025F000002800D001200199019A490508430121D2
:10260000D20AC902D202019200E001210E9B0122EE
:10261000D207012B02D0002B03D013E0002807D1F2
:1026200020E0904204D890420CD1019B0B4209D08B
:10263000019B5918019105D10099491C009101D1C4
:102640007F1C009200280DD0102108460020C046B3
:102650000498002806D00F98002803D008210846C7
:102660000020C04628682168019B009A4840C10F9D
:102670000598C90739430EC009B0F0BDFFB587B052
:10268000099A08980899536892684068896896463C
:102690000022039317469446089A12685300099A39
:1026A0005B081268520052089A1A9E4BD4180A9A74
:1026B000002A01D0352200E04022069200220123A8
:1026C00015460492DB07059324E0002D05D17546DD
:1026D0000346039E4D1BB34109D375466646039BD3
:1026E000491B049D9841059B7519AC465F416346A3
:1026F0003B4308D0059B049EDD0776082E435B080C
:102700000496059301E0521E641EC50FED0749189B
:102710004041521C069B9A42D7DB002D04D17546DE
:10272000039A6B1A824101D203200CE0039A0B46F4
:102730006B404240134303D0014303D0012002E029
:10274000022000E0002061460191002100970291E3
:102750000A99002905D0614640020143704B01915E
:1027600002E08007002302909C4201DA012000E091
:10277000002007003AD01A1BD006C00E15D0029DCB
:102780002021019C091AC5408C402543029C8C40A5
:1027900000D001242543019C0295009DC4408D403A
:1027A00000992C430194C140009154111DD06D46F5
:1027B0000221002202290CD10320001B07E000287F
:1027C00004DB8600AE59002E00D00122401C0328F5
:1027D000F5DB081B02D588002A5004E08000285849
:1027E00010438A00A850491EE3D51C460A980028C9
:1027F00002980CD0002800D001200199019A4905C7
:1028000008430121D20AC902D202019200E001214B
:10281000109B0122D207012B02D0002B03D013E022
:10282000002807D11FE0904204D890420CD1019BB0
:102830000B4209D0019B5918019105D10099491CFF
:10284000009101D1641C009200280CD01021084690
:102850000020C046002F06D01198002803D0082180
:1028600008460020C04608980999019A009B006814
:1028700009684840C10F0798C907214382600AC010
:102880000BB0F0BD00B585B0019300920A46014639
:10289000002302A8FFF7FCFD02A807C805B000BD91
:1028A000FFB50A461F4685B00799019301230091A1
:1028B000014602A8FFF7ECFD02990398049ECA0F97
:1028C0004900D20700920F22490892028C1A002177
:1028D000002800DB0C46450013486D08844214D3E1
:1028E000079A002A04DA441E0026104DF64302E03F
:1028F00004460D460E46102108460020C046002F13
:1029000003D0042108460020C0462005E90A0843F8
:10291000009908436905F20A1143ADE602C0FFFFC2
:10292000013C0000FF3F0000FF070000FFFFFF7FAA
:1029300000B585B0019300920A460146002302A823
:10294000FFF79CFE02A807C8A8E7FFB50A461F4686
:1029500085B00799019301230091014602A8FFF772
:102960008DFE02990398049ECA0F4900D207009277
:102970000F22490892028C1A0021002800DB0C4625
:10298000450011486D08844214D3079A002A04DADE
:10299000441E00260D4DF64302E004460D460E4649
:1029A000102108460020C046002F03D0042108460D
:1029B0000020C0462005E90A08430099084369053C
:1029C000F20A114358E60000FF070000FFFFFF7FF7
:1029D00010B50446C046C0462046FDF74FFC10BD6A
:1029E000C80212D54803400F002804D0C803C043D2
:1029F000012188407047EFF30080000100090321A6
:102A00000907084380F300887047002070470000E2
:102A100010B500200249029A00F00CF810BD000029
:102A20000000F87F10B5024800F004F810BD000067
:102A30000000C07F10B50C461107090F092904D00A
:102A40000A290AD008290CD104E011460820FFF712
:102A5000C7FF06E0510606D501E0510601D5012069
:102A6000C007214610BDD10607D501010909CC08D0
:102A70004907000E0006044309E0410F2002490700
:102A8000000A0143200E00061D22D14101430846E1
:102A9000E7E7000081B0009000990120C20266487B
:102AA000885001B07047C04681B000900099674AD5
:102AB0006748885001B0704783B00290019100923E
:102AC00002980199084300990843A149086003B09E
:102AD0007047C0469E480068072108407047C046BE
:102AE00082B001900199881E001F00BFFCD20090A7
:102AF00002B0704784B0039002910192039800687D
:102B00000090009801998843009000980299019ADA
:102B1000114008430399086004B0704784B00390E3
:102B200002910192039800680090009801998843EF
:102B3000009000980299019A114008430399086097
:102B400004B0704784B0039002910192039800682A
:102B50000090009801998843009000980299019A8A
:102B6000114008430399086004B0704784B0039093
:102B7000029101920398006800900098019988439F
:102B8000009000980299019A114008430399086047
:102B900004B0704781B0009000990120C20226481D
:102BA000885001B07047C04681B000900099012064
:102BB000C2022148885001B07047C04610B584B0A9
:102BC000069C039002910192009302980199084398
:102BD000009908430699084303490843039989006B
:102BE000074A885004B010BD8100040081B00090F5
:102BF00000988100024A0020885001B07047C0460A
:102C00000480424081B000900099104A10488850DA
:102C100001B0704781B0009000990C4A0C48885070
:102C200001B0704781B0009000990120C2020248B3
:102C3000885001B07047C0460100002681B0009066
:102C40000099024A0248885001B070470408000009
:102C5000030000B180B584B0039002910192039902
:102C600002980143019801433F200204CE48FFF738
:102C70007DFF04B080BDC04680B586B0059000F0F1
:102C800087F8FFE700F0B8F801218903084088427F
:102C900001D0FFE7F6E70598417E2948039001221D
:102CA0000192FFF763FF05982021415C25480290BF
:102CB0000322FFF75BFFFFF70DFF01460198049128
:102CC00000210422FFF7F8FE02980599496A096875
:102CD0001D4A11600599496A49681C4A11600499A6
:102CE0001B4A11600599C9694906490C7F221202E5
:102CF000FFF73CFF0398059A11680907090B536811
:102D00001B039BB2C91893681B071B0DC918D36816
:102D100019431369194353691943127E11430D4A2C
:102D2000FFF724FF00F05CF8FFE700F065F80121F1
:102D300049020840884201D0FFE7F6E706B080BDAF
:102D400020010B4024010B4028010B402C010B40BB
:102D50000013404072FF0F007049086801221207FB
:102D6000904308607047C0465F490868012290435D
:102D7000086070475C49086801229043086070470A
:102D80005949086801221202904308607047C04602
:102D90005549086801221202904308607047C046F6
:102DA0005E49086801221207104308607047C04658
:102DB000A149086801221203104308607047C04609
:102DC0000249086810221043086070473C010B401C
:102DD0004549086801221202104308607047C04646
:102DE0004149086801221202104308607047C0463A
:102DF000034800687047C046014800687047C046F5
:102E000004020B4080B5FFF7F3FF0121490608409B
:102E1000400E80BD014800687047C04650010B401D
:102E200081B001466846017000780249086001B02F
:102E30007047C04608030B4080B582B001900199ED
:102E40001F2002065848FFF769FE02B080BDC04649
:102E500080B582B0014601A8018001880F200202DE
:102E60007548FFF75BFE02B080BDC04680B582B0FA
:102E7000014601A80170007801030F2002034A48AF
:102E8000FFF74CFE02B080BD80B586B005AB019364
:102E90001880049103A802900270FFF76BFF01985D
:102EA000008800F023F8049800F02EF802980E4AEB
:102EB00011680123194311600078C00700280DD064
:102EC000FFE7FFF76DFFFFE7FFF796FF012109021C
:102ED0000840884201D0FFE7F6E702E0FFF73CFF39
:102EE000FFE706B080BDC04608010B4080B582B048
:102EF000014601A801800188032002030748FFF76B
:102F000035FE02B080BDC04680B582B00190019907
:102F10000248FF22FFF72AFE02B080BD10010B40DD
:102F200081B001466846017000780249086001B02E
:102F30007047C0460C010B4080B582B001900199EA
:102F40000878C007C00D89784118FF2204320B4869
:102F5000FFF70CFE0A490B48086001984078C0074B
:102F6000002806D0FFE705490868102210430860D2
:102F7000FFE703490448086002B080BD14010B401C
:102F800014030B40010000910200009180B582B053
:102F9000014601A801800188012042020248FFF792
:102FA000BDFD02B080BDC04638010B4080B582B087
:102FB000014601A80170017802480322FFF7AEFD27
:102FC00002B080BD00010B4080B582B0014601A86F
:102FD0000170017818483022FFF7A0FD02B080BDD3
:102FE00001490248086070472C030B400100000EA5
:102FF00080B582B0014601A801700078FFF790FF0C
:10300000FFE7FFF7F9FE012149050840884201D09A
:10301000FFE7F6E708490868012212041043086038
:10302000FFE7FFF7E9FE10210840102801D0FFE775
:10303000F7E702B080BDC04604010B4009490868AB
:10304000052210430860704781B0009005490420B4
:1030500008600098401E0449086004490020086088
:1030600001B0704710E000E014E000E018E000E07C
:1030700081B0009000990120C2029548885001B0AB
:103080007047C04681B0009000999A4A4F488850D6
:1030900001B0704782B00190009100980199024AF6
:1030A000885002B07047C0464810000081B00090C0
:1030B000009911200202885801239843885001B0DA
:1030C0007047000082B001900091009B01990F4A67
:1030D00088589843885002B07047C04681B000902D
:1030E000009911200202885801231843885001B02A
:1030F0007047000082B001900091009B0199034A43
:1031000088581843885002B07047C0462810000005
:1031100081B0009000990120C2026D48885001B032
:103120007047C04681B00090009881214901405805
:10313000C0B201B07047000080B582B0019000912C
:103140000198FFF7B3FF0198112109024018009A76
:1031500011889378194392881143084AFFF7F2FCCB
:1031600001982D494018009A9179D3791943127A20
:1031700011437E22FFF7E6FC02B080BD1867020013
:1031800081B000900098474940580121084001B0A3
:103190007047C04681B000900098424940580421D1
:1031A0000840800801B0704781B000900098024943
:1031B0004058C0B201B070472411000081B00090A7
:1031C00000994C4A0148885001B07047030000B193
:1031D00080B584B003900291019203980B49401886
:1031E00002990B4AFFF786FC03980A494018019997
:1031F0003F22FFF77FFC0399074A8818895801226C
:103200001140FFF777FC04B080BDC04610110000EC
:10321000FFFF0000141100000411000082B00190B3
:103220000091009800780199044A885000984078ED
:10323000019901221203885002B070470810000063
:1032400080B582B0019000910198112109024018C7
:1032500000990322D203FFF74DFC02B080BD82B07B
:1032600001906846017000780199892252018850C6
:1032700002B0704782B001900091009908784A78B6
:10328000104349880843019911221202885000997D
:1032900048688968090408430199024A885002B0C5
:1032A0007047C0460811000081B0009000990120CD
:1032B000C2020748885001B07047C04681B00090F4
:1032C00000990120C2020248885001B07047C046F0
:1032D0000100002681B000900099064A06488850F7
:1032E00001B0704781B000900099024A02488850AE
:1032F00001B0704704080000010000B180B584B03F
:1033000003A90020087002A908703B4800688121C9
:103310004901405801900198002830D0FFE70198FA
:10332000411E03A8017000780F280EDCFFE7324829
:1033300000683249405803A909780907C90EC840F6
:103340000321084002A908700EE02B4800689D2167
:103350004901405803A909780907C90EC84003214B
:10336000084002A90870FFE703A8007883002448FA
:10337000C25802A800782349C95890473AE01E482D
:10338000406881214901405801900198002830D0BF
:10339000FFE70198411E03A8017000780F280EDC9A
:1033A000FFE7154840681549405803A909780907FF
:1033B000C90EC8400321084002A908700EE00E485B
:1033C00040689D214901405803A909780907C90EA1
:1033D000C8400321084002A90870FFE703A800784D
:1033E00083000748C25802A800780649C958904788
:1033F000FFE7FFE704B080BD940020209013000099
:10340000140020205843202080B582B00920FFF707
:10341000EDFB0A20FFF7EAFB0720FFF7E7FB082098
:10342000FFF7E4FB0021009101200204C3042720E0
:10343000FFF7C4FB02B080BD80B586B005A90020AF
:1034400001900870FFF7F8FC019801221105920421
:10345000FFF700FCFFF7C4FDFFE7FFF7D3FC0028F0
:1034600001D1FFE7F9E7FFF7D5FC03900120010543
:1034700042040020FFF7EEFBFFF7B2FDFFE7FFF786
:10348000C1FC002801D1FFE7F9E7FFF7C3FC049076
:1034900003997D20C00048430499FDF707F8029086
:1034A0000298FDF7ECFC00220D4B07F04AFE0028C5
:1034B0000FD1FFE70298FDF7E2FC0022D243094B4F
:1034C00007F034FE002804D1FFE705A901200870A9
:1034D000FFE705A800780121084006B080BDC0467E
:1034E00000289F40FF579F4080B582B00020009089
:1034F000FFF796FC012001904002FFF7A9FC00981D
:10350000FFF754FDFFF730FCFFF73AFC019A032068
:1035100000030A21FFF7B8FC1648FFF7ADFBFFE7F1
:10352000FFF78AFF00280FD1FFE7FFF729FCFFF71D
:103530004FFCFFE7FFF75CFC01214902084088428D
:1035400001D0FFE7F6E7EBE71020FFF73DFD09208C
:10355000FFF78CFC0848FFF7EFFCFFF729FCFFF7AB
:103560002FFC01204002FFF711FD0020FFF740FD76
:1035700002B080BD00BB0000FCBA000080B5502046
:10358000FFF762FDFFF75AFD80BD000080B50249DC
:103590001848FFF76FFE80BD28BB000080B500F023
:1035A00009F8FFF731FFFFF79FFFFFF7EFFFFFF786
:1035B000E5FF80BD80B584B00C480190FFF72AFB81
:1035C0000B480290FFF726FB0A480390FFF78AFE9C
:1035D0000198FFF7E9FA0298FFF7E6FA0398FFF778
:1035E0006DFE1020FFF77CFA04B080BD00000A4099
:1035F00000200A400000034080B51B4802681B48B9
:1036000001680020904780BD80B517484268174880
:1036100041680020904780BD80B5134882681348F8
:1036200081680020904780BD80B50F4882690F48AF
:1036300081690020904780BD80B50B48C2680B4867
:10364000C1680020904780BD80B5074802690748DF
:1036500001690020904780BD80B503484269034856
:1036600041690020904780BD58442020A0002020C0
:1036700080B582B01148FFF755FD014601910B2836
:103680000BD0FFE701980C2810D1FFE74B480268E8
:103690004B4801680220904709E0484802684848C2
:1036A00001680120904703F099F900E0FFE7044822
:1036B00001680248FFF7EEFC02B080BD00801040B8
:1036C0003090104080B582B01248FFF72BFD0146C4
:1036D00001910B280BD0FFE701980C2811D1FFE7CF
:1036E0003648426836484168022090470AE033482D
:1036F0004268334841680120904707480068804786
:1037000000E0FFE7054801680248FFF7C3FC02B08C
:1037100080BDC04600001040EC002020301010405A
:1037200080B582B01048FFF7FDFC014601910B28DF
:103730000BD0FFE701980C280ED1FFE71F488268E5
:103740001F4881680220904707E01C4882681C4897
:1037500081680120904700E0FFE7044801680248C3
:10376000FFF798FC02B080BD0020104030301040C0
:1037700080B582B01048FFF7D5FC014601910B28B7
:103780000BD0FFE701980C280ED1FFE70B48C26869
:103790000B48C1680220904707E00848C268084803
:1037A000C1680120904700E0FFE706480168024831
:1037B000FFF770FC02B080BD00005040C000202028
:1037C000884420203010504081B001466846017086
:1037D0000021405600280DD4FFE7684601781F20DD
:1037E00001400120884004490860BFF34F8FBFF3B8
:1037F0006F8FFFE701B0704780E100E081B00146C4
:103800006846017000214056002809D4FFE7684649
:1038100001781F2001400120884002490860FFE72D
:1038200001B0704700E100E081B0009001B0704746
:1038300010B58AB009AC207008A8017007A90A70F9
:1038400006A90B70007810280AD1FFE708A80178B4
:1038500006A80078014001201029029014D0FFE74B
:1038600008A801780020002901900AD1FFE708A8E4
:10387000007806A9097808401038411E8841019057
:10388000FFE701980290FFE70298012108403A49BA
:10389000E72203F04FF809A80178490905AA117039
:1038A00000781F21084004A9087007A80078039039
:1038B000039832490843039006A80078401E009000
:1038C00013284BD80098810001A040588746C04675
:1038D000213900002739000029390000353900005E
:1038E0005D3900005D3900005D3900005D39000080
:1038F0005D3900005D3900005D3900005D39000070
:103900005D3900005D3900005D3900005D3900005F
:1039100041390000433900004F390000513900009F
:10392000002003901AE019E00398012109040843DC
:10393000039013E0039801214904084303900DE02C
:103940000CE00398012149060843039006E005E0D6
:1039500003980121490608430390FFE7039805A94E
:103960000978490104AA12788A180549895C8900F6
:10397000044A88500AB010BD73C2000080000400E1
:1039800034BB00000480424081B0009000990020C8
:10399000086000994860009988600099C8600099A3
:1039A000086101B0704780B582B00190019800684D
:1039B00000900198FFF7E8FF00980199086002B0B5
:1039C00080BD000080B582B001900091FFE70098B3
:1039D000164907F0E4FB002806D1FFE700981649D6
:1039E00007F08CFC0090F2E7FFE70098104907F021
:1039F000C0FB002806D1FFE700980E4907F07EFCC7
:103A00000090F2E700980199096807F0A7FB0028E9
:103A100006D1FFE701990020C86001998860FFE79F
:103A200000980199086002B080BDC0460000344390
:103A3000000034C30000B4430000B4C310B590B01C
:103A4000159C149C139C129C0F900E910D920C933C
:103A50000F9800680E9907F06DFD0B900B9807F01A
:103A60000DFB0F9948600F9A089250681599D2681B
:103A7000079207F007FD079907F040FC0899C86016
:103A80000F98C068149903F0DEFD0F99C8600F9974
:103A90004868896807F04EFD099015981D4907F0A0
:103AA0007EFB002803D1FFE71598069002E01A4834
:103AB0000690FFE709980699FDF732FB0A900F99E7
:103AC000486888600D9802900F99059148680190A8
:103AD0000C98C96807F0D6FC019902460298039237
:103AE00007F0D0FC039907F009FC049012980A999A
:103AF00007F0C8FC049907F001FC059908610F98CC
:103B00000069139903F09FFD0F9908610F980069F0
:103B100010B010BD6F12833A0AD7233C81B00090D9
:103B200000990020C88100990882009A01219174AF
:103B30000099C874009948610099886101B0704784
:103B400082B00146684601700078052803D3FFE77C
:103B50003148019006E068460078810003484058EB
:103B60000190FFE7019802B07047C04608BA000014
:103B700080B582B001900198002801D1FFE70CE0E8
:103B800001980749FCF74BFC019900200870019946
:103B900048700198FFF7C2FFFFE702B080BDC04642
:103BA0001C08000083B001900198002804D1FFE7B1
:103BB00002A90020087013E0019801780120012972
:103BC000009007D0FFE701980078801E41424841ED
:103BD0000090FFE700980121084002A90870FFE764
:103BE00002A8007803B0704782B0014668460170B1
:103BF00000780B2803D3FFE70748019006E06846EA
:103C000000788100034840580190FFE7019802B016
:103C10007047C0461CBA0000E4BC000081B00090B0
:103C20000099087800024978401800B201B0704746
:103C300080B582B001900198002107F09AFA00281F
:103C400006D1FFE701980121C9074840009002E032
:103C500001980090FFE7009802B080BD80B586B063
:103C6000374804901321C901FCF7D9FB0499354862
:103C700008627F20C005486200200590886207F036
:103C80002DF8059A3020102100911123019303F0A3
:103C900045FB0099019B072002900122039203F04B
:103CA0003DFB06F0A7F907F089F904987C3005F090
:103CB00047FF0498983005F043FF04F0B7F90498E3
:103CC000BC3003F0FDFD04982121C9004018FFF726
:103CD0004FFF04981C494018FFF756FE04981B49F3
:103CE000401805F005F804F073FB01F0A9FB184833
:103CF000184900F089FF0298059903F00DFCC820CF
:103D000006F0FCF80298039903F006FC059807F00A
:103D10002DF9049A01460398516707F027F9049991
:103D2000024605988A670C4A885400F0EDFF0B485C
:103D300000F078FE0A4800F075FE06B080BDC0466F
:103D40005801202000004041580900006C09000083
:103D5000C1530000755700002C0900007CBD000015
:103D600044BD0000F0B5DBB0FFE70A2006F0C6F85E
:103D7000FE490868401C086001F0C6F901465AA8CF
:103D80000170007800F058FC00205990589057902E
:103D9000569055905490539053A8C078002840D026
:103DA000FFE7F248007C002805D0FFE7F048F14922
:103DB00005F034F834E05699EC482A90016257999E
:103DC0004162589981627C3005F0F2FE2A98983061
:103DD00005F0EEFE2A98006AFDF778F902462A9867
:103DE0002B922C91406AFDF771F902462A982D9288
:103DF0002E91806AFDF76AF92B9A2C9B04462D9828
:103E00000D462E990395029401910090DA4930A84D
:103E10002F90FCF76DFA2F99D84804F0FFFFFFE7C9
:103E2000FFE753A84078002807D0FFE702F04EF9DB
:103E3000D348D44904F0F2FFFFE753A88078002864
:103E400011D0FFE702F042F9C849299101204874D6
:103E500007F050F82999002048678867CA48CB497D
:103E600004F0DCFFFFE753A80079002813D0FFE738
:103E7000BE48807B002805D1FFE7BC48007C0028B5
:103E800005D0FFE7BA48C24904F0C8FF02E001F0DC
:103E9000F7FEFFE7FFE753A8007800281CD0FFE7F4
:103EA00002F014F9B1482790012101745599C161BC
:103EB000016841610068289059980A21FCF7F6FAD8
:103EC0002799024628988018886100F07DFEB14845
:103ED000B14904F0A3FFFFE7A448007C00280DD0FF
:103EE000FFE7A24908688969884207D3FFE702F023
:103EF000EDF8A348A94904F091FFFFE79B48407CF7
:103F0000002842D0FFE799480168A54848430121AD
:103F1000C841A449884238D8FFE7944801680A207C
:103F2000484326900020219007F020F82199239003
:103F3000084607F027F80146219824910121229193
:103F400007F020F801462198259107F02DF8044646
:103F5000229807F00BF821990546229807F012F8ED
:103F600022990646084607F00DF80746229807F002
:103F70001BF82399249A259B049026980397029670
:103F80000195009404F05EFFFFE7784820900068F8
:103F900006F0E0FE2099086893221201891806F0C5
:103FA00039FE2098B43004F05DF82098807B00281A
:103FB00008D0FFE76D48C07C072803D0FFE704F076
:103FC000C7FC02E004F0ECFAFFE704F0F5F96749FA
:103FD000086302F0D5F8002803D0FFE700F026FDC3
:103FE000C3E66248807B00280AD0FFE75F488088EC
:103FF000312805D8FFE75D498888401C8880FFE7A5
:104000005A48817B002000291F900DD0FFE75748B8
:104010008188012000221D9231291E9001D81D980F
:104020001E901E981F90FFE71F98012108404AA983
:1040300008704E48007C002810D0FFE74B4801680C
:1040400042696432012000231B9391421C9001D2EB
:104050001B981C901C984AA90870FFE74AA8007892
:10406000002819D0FFE74148806E002814D1FFE7EF
:104070003E487021405C00280ED1FFE73B48C07CE1
:10408000032805D0FFE73948C07C052804D1FFE7A5
:10409000364908688866FFE70020499048904AA89A
:1040A0000078002800D18FE030486221405C002871
:1040B00000D089E02D48C07C072800D184E02B483F
:1040C000C07C03280ED0FFE72848C07C052809D013
:1040D000FFE726482121C9004018FFF763FD0028AB
:1040E00072D0FFE704F070F9159004F069F91690AA
:1040F00004F006FA17901D481A902B49401804F056
:10410000F1FD159A169B1A990446179848AD199512
:10411000039549AD18950295019400900846BC306E
:10412000B43103F07BFC1898199900F021FA189823
:10413000199901F069FF1A98E021405C042842D1E6
:10414000FFE7FC4914910020887301F03DFD01F068
:1041500097FE14985021405A00282ED0FFE7F548CA
:104160005321405C002828D120E0C046580120207F
:1041700068BC00001BC10000A7C0000046C00000D2
:1041800004C0000094C0000060BC00006BC00000D0
:10419000E5C000000CC0000081C000002DC100007F
:1041A000CDCCCCCC999999196C09000001F068FD2F
:1041B000E049532201208854FFE7DE490020C874FB
:1041C00000F098FDD1E5FFE74AA80078002831D03B
:1041D000FFE7D848C07C05282CD1FFE7D548D64951
:1041E000401804F07FFDD54906F0E6FF002821D1F4
:1041F000FFE7D34800F016FCCE48002181737123FD
:104200000122C254722281544AAA117049914891E4
:104210007021405C00280CD1FFE7C648806E002862
:1042200007D0FFE7C3490868C86670220120885498
:10423000FFE7FFE74AA81090007802F005F9109810
:10424000002111915291519150914F914E914D9168
:104250004C914B914A9A4BAC12942270F34A1346FC
:10426000B4339D7865709B886380499B4C93489BD1
:104270004D9393231D01531913935E7C26739E7CEB
:104280006673565D02273E407608A673555D042688
:104290003540AD08E5739D7B25745D8865829D88FA
:1042A000A582DD88E5821D8925835D8965839B89DB
:1042B000A383499CA34BD450D218489B53600378E6
:1042C0005C1EA341137251720078002805D0FFE7ED
:1042D000D6489C4940580F9002E000200F90FFE71D
:1042E0000F9847904AA80078002805D0FFE7CF48EC
:1042F000954940580E9002E000200E90FFE70E987E
:104300004690CA48007C00281DD0FFE74AA80078E4
:10431000002804D0FFE7C548C0690D9002E00020E6
:104320000D90FFE70D9847904AA80078002804D028
:10433000FFE7BE48C0690C9002E000200C90FFE748
:104340000C984690FFE74AA80078002871D0FFE754
:10435000B648C07C07286CD1FFE7B4490B917C4874
:1043600008180A90C96AFFF72DFB0A980B99096B88
:10437000784A0392412212060292774A0192002360
:104380000093764AFFF75AFB0A9902460B9845922A
:1043900049684491C07B002812D1FFE744987049D6
:1043A00006F0FDFE002807D1FFE744986D4906F0AE
:1043B00003FF002804D1FFE79C490120C8731CE0DB
:1043C0009A48C07B002817D0FFE74498664906F05A
:1043D000E6FE002810D1FFE744987F21C90506F0CA
:1043E000C8FE002808D1FFE790480021C173584952
:1043F0004018FFF7D8FAFFE7FFE78C48C07B00289A
:1044000003D1FFE700204590FFE745980121C90748
:104410004840479045984690844808907C305349DE
:10442000099105F0D9FB08980999983005F0D4FB5B
:104430000CE07E4806907C304449079105F0CCFBA7
:1044400006980799983005F0C7FBFFE77748622187
:10445000405C002805D0FFE747A846A900F02CFBE8
:10446000FFE74699479802F05BF870487121405C7D
:10447000002816D0FFE76D487221405CFF2806D067
:10448000FFE76A497222885C401C8854FFE767484E
:104490007221405C0A2803D3FFE700F0C7FA64E406
:1044A000FFE762480189491C0181008914280AD369
:1044B000FFE75E49002008814AA80078469A47999C
:1044C00001F02EFDFFE7FC48C188491CC180C0886F
:1044D000322807D3FFE7F8490020C880302003F0D6
:1044E0004DF8FFE7F4484189491C41814089322851
:1044F0000DD3FFE700F0FAFB002808D1FFE7EE49F3
:10450000002048814AA8007801F0CCF9FFE7EA488A
:104510008189491C81818089C8280AD3FFE7E6493F
:10452000002088814AA80078469A479900F0DAF975
:10453000FFE71AE4580120206C0900000000164330
:10454000A1BD0000240900002809000000007A44F1
:10455000580900000AD7233C00009041CDCC4C3FC5
:10456000000020C000002040000080BF0000164472
:1045700080B58CB00B900A91CF4800214165CE21C7
:10458000405C00280BD0FFE7CB48E021405C0028CE
:1045900005D1FFE703F0B4FF002801D1FFE742E0B7
:1045A000234809900998C449486503F009FFFFF7BB
:1045B0003FFB089008980121890706F0DAFD0028E2
:1045C00001D1FFE72FE00998089906F0B3FFBF4932
:1045D00006F058FF07900798164900F0D1FA0790A7
:1045E000B5480490EC210391405807990B9A029228
:1045F0001268019206F046FF019906F07FFE029BC9
:104600000399024604981A60405807990A9A06923C
:104610001268059206F036FF0146059806F08AFFFB
:1046200006990860FFE70CB080BDC0465801202005
:10463000771206420000C04080B59AB0014619A822
:1046400001700078002801D1FFE733E1F049002034
:104650000874487419A80078012803D1FFE701F015
:1046600035FD27E119A80078022818D1FFE701F0ED
:104670002DFD924900200A9001F07CF87D200B90DE
:10468000800003F05DFD0A9803F052FF0B98C00014
:1046900005F034FC00F02EFB00F036FB0AE119A80F
:1046A0000078082824D1FFE70020089000F088FE59
:1046B0008A4913A80990FBF71BFE0999089801F095
:1046C00059F8FC48D549401804F00CFBFCF7FEFCF7
:1046D000024609980B468249FBF70AFE0999032016
:1046E00001F048F87C4805F009FC00F00DFBE1E022
:1046F00019A80078042805D0FFE719A80078062833
:1047000012D1FFE77349002001F034F819A80078AE
:1047100000F0B8FC0146022001F02CF86E4805F0CC
:10472000EDFB00F0F1FAC5E019A80078092801D1E5
:10473000FFE7BFE019A80078032805D0FFE719A814
:104740000078052828D1FFE703F0DAFE002823D1FE
:10475000FFE75A490020079001F00CF85849022061
:1047600001F008F87D20800003F0EAFC079803F0D0
:10477000DFFE03F0C5FE00280DD1FFE701F0A6FC27
:104780005049002000F0F6FF7D20C00005F0B6FB88
:1047900000F0BAFA8EE0FFE71999F8480690C17464
:1047A000012181730021059181808166C16670229B
:1047B00081547122815472228154C1734163816397
:1047C000C1630164816441644D2281548165C16586
:1047D0006022815461228154622281546422815278
:1047E000662281548D49401804F091FA01F03AFB99
:1047F00003F0E2FD0699C86219A80078072809D1DC
:10480000FFE70020049003F093FE0498DB49C862A0
:104810000863FFE7D94803902B4940180290FFF73F
:10482000C2F802980399C96AFFF7CCF803982121CE
:10483000C9004018FFF79CF90398BC3003F040F81A
:1048400019A8007803280AD0FFE719A800780528DE
:1048500005D0FFE719A80078062826D1FFE700F069
:10486000BBF900F0BDF91290129800680C901298F4
:1048700040680D90129880680E901298C0680F9052
:104880001248109012481190BC480190BC300CA9FD
:1048900003F08EF801991298006908621298406935
:1048A0004862129880698862FFE701F08DF900F094
:1048B0008BF9FFE71AB080BD580120201BC0000013
:1048C0004CC00000F5BF000058090000CDCC4C3EA4
:1048D000000096425CC00000DC0500003DC0000006
:1048E000CDC00000F0B5EFB003466EA803706D9127
:1048F0006C9200781990A14818904649401816907B
:10490000007AFFF771F9014616981A91407AFFF77D
:1049100017F9014618982A91B421415C219101466A
:10492000B43104228C5E9321090140181B90457C10
:10493000867C877B4188299181882891C18827912D
:10494000008926906D98FCF79BFC25906C98FCF7ED
:1049500097FC014618982491842140582E491791BC
:1049600006F090FDFCF78CFC1799024618982392EC
:10497000A022805806F086FDFCF782FC01461898BC
:104980002291006BFCF7A2FB0246189820921F911F
:104990002249401804F0A6F9FCF798FB199A1A9BD3
:1049A0001E901B9840691D901B9880691C901B9855
:1049B000006A14901C9813901D9812901E981191E3
:1049C0001F99109020980F9121990E9022980D9088
:1049D00023980C9024980B9025980A90269809907B
:1049E0002798089028980790299806902A98059764
:1049F0000496039502940191009009492CA82B90EC
:104A0000FBF776FC2B9800F00DF86FB0F0BDC046B8
:104A100058012020240900000000C8426C09000051
:104A200045BF000081B0009001B0704780B582B0F2
:104A300052487021405C00280CD1FFE74F48806E3F
:104A4000002807D0FFE74D490868C866702201209A
:104A50008854FFE749490191002000908873712232
:104A600088547222885401F0AFF8009801996222AC
:104A70008854642288526622885401F001FA019811
:104A80005021405A00280DD0FFE73C485321405C9C
:104A9000002807D1FFE701F0F3F83849532201203D
:104AA0008854FFE7354900208880C87300F0FAFE7B
:104AB00002B080BD5801202084B0039002910020F4
:104AC00001902E486221405C0090042818D800987C
:104AD000810001A040588746FF4A0000ED4A0000CF
:104AE000F34A0000F34A0000F94A00000B48019025
:104AF00007E00948019004E00648019001E0FFE763
:104B0000FFE701980399086001980299086004B0D2
:104B10007047C04600004041000090C1000020C224
:104B200082B01648E021405C0090002812D0FFE7D8
:104B30000098401E022805D3FFE70098C01E0228F7
:104B400004D308E001A90220087012E001A90320A3
:104B500008700EE0FFE70948CE21405C002804D031
:104B6000FFE701A90120087003E001A900200870F7
:104B7000FFE701A8007802B07047C0465801202026
:104B800080B584B0029001910298019906F007FB6C
:104B9000002803D1FFE70198039012E002980199E1
:104BA0000122D207514006F0E4FA002806D1FFE7BF
:104BB00001980121C9074840039002E00298039040
:104BC000FFE7039804B080BDBC4900200870BE49CF
:104BD0000870BE4908707047434800787047C04667
:104BE00081B00146684601700078042804DBFFE7C5
:104BF000694603200870FFE7684600781C2141439E
:104C0000B648401801B0704780B584B00390029157
:104C10000398AB4908600298AA490860A748012197
:104C20000170AC4A00201070A94A1070A74A117098
:104C30002C490870A44908702B490978A64A1170BC
:104C400001A90870FFE701A8007803280FDCFFE73F
:104C500001A80178E948405C00210122042302F008
:104C60005DFBFFE70198401C01A90870EBE70220FB
:104C700005F044F901A900200870FFE701A80078B9
:104C800003282CDCFFE701A800900178DB48405C9A
:104C900002F02AFB009A1178CB00EF49C854107833
:104CA000C0000B18012058701378DB00CB189870E7
:104CB0001078C0000B180020D8701378DB00CB18D8
:104CC00098801378DB00CB1898711278D20089187D
:104CD000C871FFE70198401C01A90870CEE704B035
:104CE00080BDC04674442020100020207348007806
:104CF0007047C046714901200870734A0021117045
:104D0000724908707047C04610B59AB06B48007879
:104D100000280AD0FFE76A480068002805D0FFE7AE
:104D200068480068002801D1FFE7C5E064480168D1
:104D3000002088476448007800283AD0FFE766489A
:104D4000069000781C2141436448401812905D4849
:104D50000B900268624900200C90904706980B99CE
:104D600009680791007800F04BF9079A0146022084
:104D70009047129808900068FCF7A8FA0146089836
:104D800009914068FCF7A2FA099A0346554913A80D
:104D90000A90FBF7ADFA0A990B9802680420904735
:104DA0000B9802685049062090470C9847490870B4
:104DB00082E019A900200870FFE719A800780328ED
:104DC00076D8FFE7424800781999401811A9087071
:104DD00010A900200870FFE710A8007814280BD84D
:104DE000FFE710A8027813A920208854FFE7109845
:104DF000401C10A90870EFE713A90020487511A8FE
:104E00000078072847D8FFE711A80178CA00BB49F6
:104E1000891849680F910EAA002111700DAA02216C
:104E2000117001782B4802783E2020230493914290
:104E3000059001D004980590059813A90870FFE724
:104E40000F980EA9097841560020002903900DD033
:104E5000FFE70DA801780120002201921529029098
:104E600001D30198029002980390FFE70398C007CE
:104E700000280FD0FFE70F980EAA1178405C0DA90B
:104E80000C7813AB18550E98401C10700D98401CF0
:104E90000870D5E7FFE70B48026819984000C0B2D8
:104EA00013A99047FFE71998401C19A9087084E7D7
:104EB000064900200870FFE71AB010BD34442020D6
:104EC000304420203844202077442020754420207E
:104ED000DC43202076442020784420208CBA000037
:104EE00047C10000D4C100008BC1000080B586B06E
:104EF000014605A801700178CA006149891804912A
:104F000001783E48415C03A80170007802F0ECF99A
:104F1000014602A8017001AA0021117000780499CD
:104F20000978884207D0FFE702980499087004992D
:104F30000020C87044E00498C07802283FD8FFE7FA
:104F40000499C878401CC8700498C078032835D1EB
:104F5000FFE70498407802A9097888422DD0FFE73E
:104F600002980499487001A8007802A9097888423B
:104F700006D1FFE70499002088800499C8711BE0DE
:104F80000498807802A90978884214D1FFE7049830
:104F90008088632809D8FFE70498C079002804D1E5
:104FA000FFE7049901208871FFE7049900208880B9
:104FB0000499C871FFE7FFE7FFE7FFE7FFE7FFE7B7
:104FC00001A8007804994978884214D1FFE7049831
:104FD000808863280ED8FFE704998888401C888061
:104FE00004988088642804D1FFE704990120C871DF
:104FF000FFE7FFE7FFE706B080BDC04688BA0000C4
:1050000081B001466846017000788100014840582F
:1050100001B070470000202082B001466846017050
:105020000078C10016484018C07901280BD1FFE76D
:1050300068460078C100124841180220C87101A9D1
:105040000120087003E001A900200870FFE701A813
:10505000007802B07047C046F243202082B001AA17
:1050600010701078C00006490818837968460370EC
:105070001278D2008A1800219171007802B070472E
:10508000F243202083B0014601A801700078012876
:1050900003D1FFE71B4802902BE001A80078082805
:1050A00003D1FFE71648029023E06946002008700C
:1050B000FFE768460078072818D8FFE768460078B9
:1050C000C100AB48405C01A90978884208D1FFE7DC
:1050D00068460078C100A64840184068029008E081
:1050E000FFE70098401C69460870E2E7024802901A
:1050F000FFE7029803B07047E4BC000048BA000024
:105100003DC0000052BC000080B586B003A900205D
:10511000087004A90870FFE704A8007803281DDCC4
:10512000FFE704A801900078FFF7E0FE01980178FE
:105130009248405C02F0D8F8012809D1FFE704A8A2
:105140000078012181400398084303A90870FFE714
:10515000FFE70498401C04A90870DDE703A8007865
:105160007F490978884207D0FFE703987C49087097
:105170007C4901200870FFE77B48007800285AD05E
:10518000FFE70320FFF748FF002806D1FFE70320D1
:10519000FFF764FF002809D0FFE77349002008707B
:1051A000704A0121117005A90870D4E00020FFF7B2
:1051B00055FF002812D0FFE76F480078002804D17F
:1051C000FFE76D490320087004E06B490878401E32
:1051D0000870FFE7634901200870FFE70120FFF72F
:1051E0003DFF00280AD0FFE763490878401C0322EE
:1051F000104008705B4901200870FFE70220FFF7AC
:105200002DFF00280BD0FFE75B4800785949087054
:10521000554900200870534901200870FFE75148A4
:105220000078002803D0FFE7FFF76EFDFFE705A930
:10523000002008708FE00320FFF7EEFE002806D163
:10524000FFE70320FFF70AFF002806D0FFE7FFF77C
:1052500051FD05A9012008707DE044480078002830
:105260000ED1FFE700200090FFF7F8FE0120FFF7C6
:10527000F5FE0220FFF7F2FE009805A908706AE02B
:105280000020FFF7EBFE002814D0FFE74A48007823
:10529000002804D1FFE748490720087004E0464988
:1052A0000878401E0870FFE700F06AF82D490120D9
:1052B0000870FFE70120FFF7D1FE002812D0FFE7BA
:1052C0003D480178491C01700078082804D3FFE7A5
:1052D000394900200870FFE700F052F82149012009
:1052E0000870FFE70220FFF7B9FE002827D0FFE78C
:1052F00031480078C1001E48415C02A80170007866
:1053000009280DD1FFE71B4800781B490870164992
:10531000012008701349087005A9002008701AE0E0
:1053200002A80078082804D1FFE7029805A90870B0
:1053300011E0FFF749FC029805A908700BE0094845
:105340000078002803D0FFE7FFF7DEFCFFE705A9A0
:1053500000200870FFE705A8007806B080BDC046B1
:105360007444202075442020774420203444202099
:1053700048BA0000100020207844202088BA00009D
:105380000D4800780D490978884205DAFFE70A4898
:1053900000780A4908700EE0074800780749097844
:1053A000091D884206D3FFE703480078C01E034961
:1053B0000870FFE7FFE7704776442020DC43202099
:1053C00080B584B003A90870212000F0EBFB002019
:1053D000019000F0E7FB7F2000F0E4FB222000F0CA
:1053E000E1FB019800F0DEFB072000F0DBFBE0486A
:1053F000009004F0EDF90098017A4906090E04F0D6
:1054000055F90098402104F051F9019802A908804B
:10541000FFE702A80088800A00280BD1FFE703A855
:105420000178D34804F042F9FFE70298401C02A932
:105430000880EEE7CE4804F037FA04B080BDC046DD
:1054400080B584B01C200090C9483C210A221F234B
:1054500003F06AFF642004F051FDAE2000F0A2FBCF
:10546000D52000F09FFB802000F09CFBA82000F0DE
:1054700099FB3F2000F096FBD32000F093FB002027
:10548000039000F08FFB4020029000F08BFB8D20FA
:1054900000F088FB142000F085FB202000F082FB48
:1054A000039800F07FFBA12000F07CFBC82000F0F7
:1054B00079FBDA2000F076FB122000F073FB8120EC
:1054C00000F070FB7F2000F06DFBD92000F06AFB3C
:1054D000F12000F067FBDB2000F064FB029800F095
:1054E00061FBA42000F05EFBA62000F05BFBAF2078
:1054F00000F058FB0398FFF763FF04B080BDC0467F
:1055000080B596B015901598FBF7E0FD02460B4666
:10551000964911A8FAF7ECFE00200A90FFF750FF19
:105520000A9810A90870FFE710A80078012800D990
:1055300019E1212000F036FB0020099000F032FB39
:105540007F2000F02FFB222000F02CFB1098801C05
:10555000C0B200F027FB1098801CC0B200F022FB04
:10556000CE48089004F034F90898017A4906090EEB
:1055700004F09CF80898402104F098F809980FA9C5
:105580000870FFE70FA800780C21FAF78FFF01469B
:1055900011A841560020002907900DD0FFE70FA861
:1055A00001780120002205927829069001D3059800
:1055B000069006980790FFE70798C007002800D1DB
:1055C000B8E00FA800780C21FAF770FF014611A887
:1055D000415C0CA801700078202805D3FFE70CA8D7
:1055E00000787F2803D3FFE70020049004E00C98A4
:1055F0002038C0B20490FFE704980EA90391087008
:105600000FA80078400806210291FAF74FFF029A8E
:1056100003980B460DA90B7000784243A0488018F0
:105620000978405C0CA908700BA90020087010A82C
:10563000007800283AD1FFE70CA801780122114038
:105640000B9A0A430BA901910A700078C007820FD8
:105650000B98104308700C984200042002400B98ED
:10566000104308700C988200082002400B981043E9
:1056700008700C988200102002400B9810430870AC
:105680000C98C200202002400B98104308700C9820
:10569000C200402002400B98104308700C98020191
:1056A000802002400B981043087039E00C98C00627
:1056B000C10F0B9808430BA9009108700C98C20801
:1056C000022002400B98104308700C98C208042076
:1056D00002400B98104308700C9882080820024082
:1056E0000B98104308700C988208102002400B9809
:1056F000104308700C984208202002400B98104379
:1057000008700C984208402002400B981043087023
:105710000CA80278802002400B9810430870FFE725
:105720000BA801785D4803F0C1FF0F98401C0FA93A
:10573000087027E7FFE700210FA84056002809D48A
:10574000FFE75648002103F0B1FF0F98401C0FA956
:105750000870F0E7514804F0A7F8FFE71098401CE4
:1057600010A90870E0E616B080BDC04612C1000066
:10577000D80A202080B58CB00BAA059210700A912F
:1057800009A9002004900870212000F00BFA049869
:1057900000F008FA7F2000F005FA222000F002FA5B
:1057A0000598007800F0FEF90598007800F0FAF905
:1057B0003A48069004F00CF80698017A4906090E5A
:1057C00003F074FF0698402103F070FFFFE70A9989
:1057D00000200956002903900DD0FFE709A80178A1
:1057E0000120002201927A29029001D301980290AF
:1057F00002980390FFE70398C007002839D0FFE71D
:105800000A9800214056202806DBFFE70A9800216D
:1058100040567F2804DBFFE708A90020087005E058
:105820000A980078203808A90870FFE707A9002027
:105830000870FFE707A80078052816D8FFE708A832
:105840000078062141431648401807A90978415CB1
:10585000DC4803F02BFF0998401C09A90870FFE7FA
:105860000798401C07A90870E4E70A98401C0A90B2
:10587000ADE7FFE7002109A84056002809D4FFE75B
:10588000D048002103F012FF0998401C09A90870B4
:10589000F0E7CC4804F008F80CB080BDD80A20200E
:1058A000E0B7000010B5A4B023A90870D448C17CAB
:1058B00001200329169007D0FFE7D148C07C401F84
:1058C000414248411690FFE71698012108401CA963
:1058D0000870CB48C07C032817D1FFE7C848702167
:1058E000405C002811D0FFE7C549C86E896E401A98
:1058F0001B901B98FBF72EFDDF4905F0C3FD98496F
:10590000FBF70EFCFFF7FCFD26E1BD48C07C052837
:1059100000D08AE000201A90B948806E002821D07B
:10592000FFE7B7487021405C002806D1FFE7B44983
:105930000868896E884215D3FFE7B1487021405C42
:10594000002806D0FFE7AE49C86E896E401A159050
:1059500005E0AB490868896E401A1590FFE7159875
:105960001A90FFE71A98FBF7F5FCC34905F08AFD8A
:105970007B49FBF7D5FB19901998FBF7A7FB02466B
:105980000B4681491DA81190FAF7B2FC119900202D
:105990001090FFF7EFFEF14812907C49401803F099
:1059A000A1F9FBF793FB024611980B461099784C2E
:1059B000019400917749FAF79BFC11990220FFF7B7
:1059C000D9FE1298B621415C7348744A139200299B
:1059D000149001D1139814901198149A7049FAF701
:1059E00087FC11990420FFF7C5FE23A801786348BE
:1059F000634A0E9200290F9001D10E980F901298D1
:105A00000F990C91006BFBF761FB0C9A0346119800
:105A10000D930B460D99019300915A49FAF768FCD2
:105A200011990620FFF7A6FE96E01CA80078002832
:105A300044D0FFE7C9487021405C002810D0FFE740
:105A4000C648C06E00280BD0FFE7C448806E00280F
:105A500006D0FFE7C149C86E896E401A189014E05D
:105A6000BE48806E00280CD0FFE7FC487021405CE7
:105A7000002806D1FFE7F9490868896E401A189096
:105A800002E000201890FFE7FFE71898FBF762FCA0
:105A9000794905F0F7FC3249FBF742FB179017985C
:105AA000FBF714FB02460B462E491DA80B90FAF794
:105AB0001FFC0B990020FFF75DFE04E02749002042
:105AC000FFF758FEFFE7ED4807902749405CFEF7D7
:105AD0008BF8024625491DA80690FAF709FC06999D
