:200000000080202097AD0000C7530000C753000000000000000000000000000000000000A8
:20002000000000000000000000000000C75300000000000000000000C7530000C753000072
:20004000C7530000F59B000081AA0000ADA40000C7530000C7530000C7530000C753000012
:2000600000000000C7530000C7530000000000000000000045A4000079A4000039A100006C
:2000800021AA000051AA0000F1A9000009AA000069AA000039AA0000000000000000000057
:2000A000C7530000C75300000000000000000000C753000000000000C7530000C7530000BE
:2000C00000B5EDB07D20C100159122908000169001202A90F54E01E007F062F80A2007F081
:2000E000EBFE3068401C306003F064FE002800D158E1054600243482801E062828D8C04615
:200100007844007940008744032B0303D09DAC000AF00AFD002823D100263046EA4906F070
:200120008DFE0220E94906F089FE169804F0A6FD3046DE4E08F044F90AF0F6FC00280FD153
:2001400006F0E2FD0020E24906F078FE1598A7E0FB2D00D1BDE0FA2D02D106F0D5FD21E185
:20016000F574F481B4804D20345464203452662034547463B463F46334647464B464B4657A
:20018000F4653046583004818472B466F46630466830847204816B20800030180AF08AFDBC
:2001A0004E20345434650AF0ADFDF0623320C0003746361830460AF092FDF96A304608F00C
:2001C00035FA3846C83009F01DFE38468830214606F052FA3846A430214606F04DFA20462B
:2001E0000AF0A2FD8021785001200AF09DFD8421785009F0C1FF0AF09BFB0AF077FD0246DC
:20020000386800905520800038182946234608F0F7FD0646204605F069FD0020002E0CD06E
:20022000AC4906F00BFE28460AF0F6FA0146022006F004FE0620A84900E0A84906F0FEFD38
:200240009A4EAFE006F060FD002420469E4906F0F5FD169804F012FD204608F0B1F8159816
:2002600030E0204605F042FD2DAD2C729C482E909C482D902046294606F0E0FD6B20800066
:2002800030180AF08CFD09F0B7FF02460B46284695490AF083F80320294606F0CFFD93485B
:2002A00007F00AFE05F050FC7CE00024204605F01DFD20468E4906F0C1FD02208D4906F02A
:2002C000BDFD8A4807F0F8FD0AF0B2F905F03CFC68E00AF00BFD014632685520800030186C
:2002E00009F068F9002851D0FF205630305CF0740125B573B480306860217452622174541A
:20030000B066F46630466C30848084716B20800030180AF0CFFC4E2034543465634EC8360C
:20032000304609F06FFD0AF0E1FC0AF035FC074600682D9078682E90B8682F90F8683090D1
:200340006D4831906D4832902DA93046574E0AF00EFC3869306278697062B869B06230462C
:200360008830214606F088F93046A430214606F083F920460AF0D8FC8021705028460AF0C7
:20038000D3FC8421705009F0F7FE0BE00024204605F0ACFC20465A4906F050FD02204E4924
:2003A00006F04CFD307C3468B1698C4201D3002100E0012100282A9800D00846002806D1D0
:2003C00006F0A2FC4F4850490AF0BCF93468757C0A212046269109F0EFFE002D36D0002993
:2003E00034D126984443002528460AF09DFC2990284629460AF022FC28900126284631461B
:200400000AF01CFC279028460AF04EF9259030460AF08AFC2490304629460AF00FFC0546D0
:20042000304631460AF00AFC074630461F4E0AF03BF925990091249901AAA2C2049020465C
:200440002999289A279B09F0F7FE3468204606F01BFE3068092149017418214608F018F850
:200460000AF044FC0246336855208700F5192846214604F08BFE2497F05D2299715C8842A9
:2004800000D183E0229970540024204605F02EFC2498305C401E052800D977E078440079C8
:2004A00040008744053A33457348C046403820200020084906F0C2FCFF205630305C0AF0B1
:2004C000ABF9014602202EE0CDB7000050B70000A0B7000006B80000E1B00000AFB700006A
:2004E000455445524F444F4D32B90000DC05000090B7000070B70000CDCC4C3E0000964268
:20050000BEB700004AB9000014B800000020EF4906F094FC0220EE4936E00020ED4906F0FE
:200520008DFC0220EC4906F089FC0620EB492BE00020EB4928E0B47330468830214606F0ED
:200540009BF83046A430214606F096F820460AF0EBFB8021705001200AF0E6FB84217050CB
:2005600009F00AFE2046DF4906F068FC2B20C000325C2DAC2046DC4909F010FF0220214604
:2005800006F05CFC0620D94906F058FC3046C030259006F00DFFB07B002805D0F07C1F2883
:2005A00002D003F0BDFD01E003F00CF80AF0AAFB3063C120305C042809D3C020305C0F21A1
:2005C00001404A1E91410F2803D8002002E0002001E00120084062212991715C002911D00E
:2005E0006424305BC249884201D0401C30538120C00507F0B5FF002800D06DE5305B6428F1
:200600006ED369E5B17B002969D0BA49C97C052901D0022963D16024B64A115D00294AD0E2
:20062000002859D06127D05DFF2803D0411CD155002854D06B208000AE490C1820460AF065
:20064000AEFBAD4909F0C3FA002848D020460AF0A6FB09F0D1FD02460B462DA8A74909F0E6
:200660009DFE7020A34E315C002906D1B16E002903D03168F1660121315401202999705478
:2006800064200024345266203454F455B76D3846214609F0A5FA002800D107467767F76DAC
:2006A0003846214609F09CFA002800D10746B7677C20345413E0002811D16B2080008D4960
:2006C00008180AF06CFB8E4909F081FA002806D001208849085302E0612000211154854E47
:2006E000B07B00240028274619D028460AF034FA002804D0B088312801D8401CB080B07B7A
:20070000002827460BD028460AF026FA0028274605D0B088312801D8002700E00127317C31
:200720003068726964320123904227931A4600D22246002900D01746B16E4A1E9141002F88
:2007400000D12A9970222092B25C531E9A4100292A9B00D11346F17C002B07D1052905D8D4
:2007600001228A4034231A4200D0B06600202C9023902B902998305CC0B2424242413A4069
:200780007125012A2197289500D0D2E2705D002800D0CEE21F2900D1CBE2052900D9C8E2B3
:2007A0000122104688403421084200D1C1E21F920AF0B4FA1E900AF0ABFA05460AF0B4F94D
:2007C000344606466B208000271838460AF0E7FA2BA903912CA90291019000962046C8305B
:2007E00025991E9A2B4601F005FC38460AF0D7FA0546E07C052805D0042800D18CE002289B
:2008000000D023E128463F4909F0E1F9002800D11CE128463C4907F02EFC3C4908F010FEA6
:2008200005460024214609F0C9F9002819D17F20C4052846214609F0CAF9002811D12846A4
:20084000294608F031FD04462846294607F013FC01462F4807F00AFC0146204608F024FD55
:2008600004462120C00023490D582A48294607F0FDFB214608F018FD294607F0FCFB06466F
:200880002C9D2B9C2846214609F0AAF900282F4600D127463846314609F090F9002800D00D
:2008A000D4E03846314607F0E1FB06462846314607F0DCFB07462C902046314607F0D6FB0F
:2008C00004462B9000253846B2E0C04606B90000F8B7000068B9000095B80000E1B000006B
:2008E00042B90000EAB700002AB900002FB80000FFFF0000403820200000FA4302B60000E7
:200900000000204100800944008009C40000484200004040000070422846C34909F057F9DD
:20092000002834D12846C14909F051F9002800D18CE02846BE4907F09EFBBE4908F080FDE9
:2009400005460024214609F039F9002819D17F20C4052846214609F03AF9002811D12846A3
:20096000294608F0A1FC04462846294607F083FB0146B14807F07AFB0146204608F094FCF6
:2009800004462120C000AD490D58AD486EE72846AC4907F070FBAC4908F052FD04460021FB
:2009A00009F00CF90028A64D1FD17F20C105204609F00DF90028A54D17D12046214608F09D
:2009C00073FC05462046214607F055FB01469A4807F04CFB0146284608F066FC9C4908F0F6
:2009E00063FC974907F047FB05462C9E2B9C3046214609F0F5F80028374600D1274638467F
:200A0000294609F0DBF8002820D13846294607F02DFB05463046294607F028FB06462C9024
:200A20002046294607F022FB04462B9000253046294609F0BAF8002800D02C9500212046D3
:200A400009F0B3F8002801D000202B9000247B4E74651F9800021E903058214609F0AEF863
:200A6000EC27F15D4B1E0A469A4100282A9800D110460028289D64D125940AF055F8002826
:200A80005CD0432080006D4E305811210901715807F0F1FA3F21090608F006FC6D4908F006
:200AA00003FC6D4908F0CCFC6C4908F0C9FCFE4908F0FAFB044670650AF02AF90646002172
:200AC00009F073F8002801D11F9902E01F99C80746408907304609F068F800282ED1204625
:200AE000314607F0C3FAFA4908F0DEFB0446F94909F076F806462046F74D294609F055F819
:200B0000002800D12546002EF24800D128464B4C1E99615808F0C8FB014641208000205868
:200B20002C9C08F0C1FB0646214607F0A4FA2C902B98314607F09AFA2B90289D3F4EF15D15
:200B4000259C002900D18BE02C982B9AB065F2650429219F00D0ECE0B47330468830214635
:200B600005F08AFD3046A430214605F085FD259420460AF0D9F880217050012738460AF0E6
:200B8000D3F88421705009F0F7FA746BB36BF16B356C1A195218521930D02698424344436F
:200BA00028944343414345434424345B27944624345B24944824345B23944A24345B219420
:200BC000D224345B20942997D627F75BD824345B44430897299F099400930191029527983C
:200BE0000390249804902398059021980690209807902DA8B949289B09F0D0FB5020315ACB
:200C00005324305D421E904100292A9900D00146002902D107F004F837552598F07409F007
:200C200007FDFFF75BFAC04600000C430000DC420000DCC20000F0410000404040382020EB
:200C400000005C4200000CC3000020410000C8410000F0C100004343000070420000FA4397
:200C6000B06D00251D90294608F09FFF07462C981E90294608F0B4FF8121CE050028984C26
:200C800000D13446002F00D134469648C06D1F90294608F08AFF07462B982590294608F0B9
:200CA0009FFF00288E4800D13046002F00D130461C901D9F3846214607F0DDF906461E9CBB
:200CC0002046314608F08CFF05463846864907F0D2F907462046394608F067FF002800D1D1
:200CE0002746002D1C9900D13E467E4886651F9D284607F0C0F90446259F3846214608F0DA
:200D00006FFF1E902846784907F0B5F905463846294608F04AFF002800D13D461E98002810
:200D200000D12C466F48C4652C9606462B94219F289D279A7A40F07C011F481E8141002AE5
:200D40002A9800D10846715D4A1E914100282A9800D1084600282ED16B20800030180AF02D
:200D60001EF8624908F033FF002824D0012528983554722023993154B46D204608F030FF7C
:200D8000002800D104467467F46D2046239908F027FF002800D10446B4677C202399315459
:200DA0002098305C002806D1B06E002803D03068F06620983554002F00D1A8E0F07C02288A
:200DC00004D01F280DD0052800D0A0E0EC20305C401EC1B2042944D2C006010E4448C84089
:200DE00047E03320C0003418F16A204607F01EFC316B41200006002500953E4A0192029031
:200E00003D480390209420463C4A2B4605F0A4FA25906720800031463658CF7B0124E007FF
:200E2000279086433046364908F0D1FE41424141002F2A9800D1084600283DD0002F00D12C
:200E40007CE37F20C105304608F0AFFE0028254E259C00D174E3F573209809F040FFF77B65
:200E60006EE3012000023058002108F0B9FE411E88414D21725C4C23002AC2B202D0F45C13
:200E8000A2420DD0540034194425655B1D4EB54202D044346D1C2580124EF0540120705464
:200EA00002A18A5C52009744E12E6542032F0B0F706B401C70632AE00A4EF473259C43E3C0
:200EC000F06B401CF06322E0306C401C30641EE0CDCC4C3E0000C0400000C0C0A5B2000082
:200EE0000000404140382020000020C10000164302020303000090410AD7233CCDCC4C3F40
:200F000000002040FFFF0000B06B401CB063307C002F07D13A4607D0F16907D02C9B0028BF
:200F200007D107E02B9AF7D13946F7D13B46002800D00A46259200D00B4627938B4C37466F
:200F400088373846214609F02BFD3546A4352846214609F025FD2998305C002808D128987A
:200F6000305C0028259C279904D0814807F0F8FA716FB46F3846279105F07EFB284621463A
:200F800005F07AFB3078C00700D01AE2259400201E9009F0C9FE064601201F9009F0C4FE8E
:200FA0008021744A5258921B29928422714B9B58C41A704B5E506F4EB0506B208000301814
:200FC0002999224607F07AFD326A736AB06A00903846299905F000FC2990326A736AB06AD9
:200FE00000902846214605F0F7FB074690201D903058614908407F21CC05214608F0D5FDDF
:2010000005465E48209738181F9F80B25C49884200D31E9FAC201F90305857490840214697
:2010200008F0C3FD411E88413840317C002D2A9A00D10246514B299FFB189BB2504CA3425C
:2010400000D302460029259C0FD0002A0DD0B07C322803D2411CB174312808D105F054FE4F
:201060004848494909F06EFBABE10020B0742098404201B20025284609F002FB39460127FF
:20108000384609F0FDFA307C002857D01C951E973168269841431B911D9830581A901F985C
:2010A00030581990274600242798214608F074FD454245413846214608F06EFD444244417F
:2010C0002C43C020305C1890C420305E1790EC20305C401EC1B2042905D2C006010E2B48BF
:2010E000C8401E9F07E01E9F38023058002108F077FD411E8841334634330ECB1D4E366C4A
:20110000269D69436A436B436E4308AD4CC5194EC0B2199A0092299A0192209A0292039435
:20112000189A0492179A0592069007911B982799259C22461A9B06F039FA1C9DF07C052825
:2011400002D0022800D03CE14E20315C491CCAB23154052A00D234E135545021705A169ABB
:201160006332904214D9522037542AE100007A440000404040382020FFFFFF7FB4E200000B
:2011800069C500004AB90000DCB7000002020303421C72523146182646430868269941436E
:2011A000F14881512798EE4908F07EF8044600211A9108F00CFDBF21090619913F210906A1
:2011C00000281C9100D11999204606F054FF0546E64908F005FD2690C72004062846214618
:2011E00008F0E3FC00281B9400D12C461E97204609F00CF926990029D74900D10146DA48A3
:201200008019269081802598D54908F04DF804461A9908F0DCFC00281C9900D119992046D3
:2012200006F029FF0546D14908F0DAFC044628461B9E314608F0B9FC00283046C74E00D144
:20124000284609F0E3F8002CC34900D101462698C1801D983058C24908F026F804461A99A2
:2012600008F0B5FC00281C9900D11999204606F002FF0546BD4908F0B3FC044628461B9F9E
:20128000394608F092FC002800D12F46384609F0BDF8002CB04900D10146269801811F987B
:2012A0003058AF4908F000F804461A9908F08FFC00281C9900D11999204606F0DCFE05465D
:2012C000AA4908F08DFC044628461B9F394608F06CFC002800D12F46384609F097F8002CA9
:2012E0009D4900D10146269A5181299890812098D081C420305A108209F00AFD984907F0AB
:20130000D3FF04461A9908F062FC00281C9900D11999204606F0AFFE0546944908F060FCC3
:20132000044628461B9F394608F03FFC002800D12F46384609F06AF8002C874900D101462E
:2013400026984182706D864907F0AEFF04461A9908F03DFC002801D119981C9020461C991C
:2013600006F089FE0546814908F03AFC044628461B9F394608F019FC002800D12F463846C3
:2013800009F044F8002C744900D10146269A9182C020305C9075EC20305C401EC1B204293D
:2013A000259C04D2C006010E6A48C84007E01E9800023058002108F013FC411E88412699D1
:2013C000C8752898305C00280FD07221705CFF2803D105F0E5FEFEF781FE421C72547C2116
:2013E000715C0929F5D86328F3D23089401C81B2132900D8239023983081F088401C81B24F
:20140000F0803229219F04D30020F080302009F0CBF87089401C81B27081322908D309F026
:201420006BFC002804D100207081384602F0ECFAB089401C81B2B081C82901D2FEF74EFEE3
:201440000020B0812498305C25902B20C000305C2990C020305C2890C420305E2690FF2083
:201460003830305C24902720C000305C23902520C000305C209049208000305E1F90932064
:201480004000305E1E90279808F0C0FF2790204608F0BCFF1D9090203058354C214607F0C6
:2014A00003FF08F0B3FF1C90AC203058214607F0FBFE08F0ABFF1B90306B08F09DFE054663
:2014C0000E466B2080002549081809F068FC08F093FE4F229200214B9A5805239B011F4FA6
:2014E000FB582927FF001D4CE7590E950F961B4E10901191129213931497259B089327989F
:2015000009901D980A901C980B901B980C9029980090289801902698029024980390239849
:201520000490209805901F9806901E9807902DA81049219A08F032FFFEF7D0FD074E259C46
:20154000F8B2002800D104462798259460402790044CF4E402020303FF7F00004038202067
:2015600000002041000016440000202000FEFF460000C842F0B10000F0B5FFB08EB0049359
:2015800006920646929802900025E84305908C913468204609F095FB21188B9503918C4263
:2015A00000D3C2E00020879087A908738890059889902F46049D2078002800D1B8E025287A
:2015C00005D0641C34600699A8477F1CF3E78B97601C306087AC2046314600F0C1F88CAA02
:2015E0002046314600F0DDF8306801787A2925D0682919D06A2908D06C290ED0742908D0D3
:201600004C2922D1879980221BE087990122D20217E087990122520313E0427887996C2A9C
:201620006AD10122120205E042788799682A66D10122520211438791801C05E08799012209
:2016400012030A438792401C0178441C346087A80173732913D06E291DD1879836490840B9
:20166000411E02464A408A423DD900282DD04142014032484143C80E31A1085C26E087A82F
:201680000078400619D4009587A88CAA8BAB069900F046F92BE007AD87A98CAA284600F01E
:2016A00095F9024628460699029B9847411C059D00D0C5198B9503991BE0009587A88CAA6D
:2016C0008BAB069900F0C9F811E02020401F082809D8C0467844007940008744210404155F
:2016E0001C04150404008C9802C88C900F6003998B9D681C1BD052E7401C402201E0401CCD
:201700002022114387919FE7F8178C9904C98C9117605060EBE78C9802C88C900F70E6E728
:201720008C9802C88C900F80E1E72F4600E0059F38467FB00EB0F0BD603F000031B57C072F
:2017400000011C021D0E18031E16140F191104081F1B0D17151310071A0C12060B050A0999
:2017600010B50A680124E3071AD01378302B0CD0232B0ED02B2B0AD02D2B04D00024202B80
:20178000F1D1042306E0012304E0102302E0022300E0082304681C430460521C0A60E1E75E
:2017A00010BDFEB516460D460446086802782A2A10D13068011D316000686060002805D520
:2017C0004042606020680121014321602868471C2F6017E00021303A092A08D84218531C78
:2017E0002B60435C6F467B545278491CF3E76A460023535412784718002A03D0684608F02C
:2018000035FC606038782E2826D1781C286079782A2908D13068011D31600068A060286862
:20182000401C2860FEBD00203039092908D839188A1C2A604A786B461A548978401CF3E7D5
:201840006A46002111541078002804D0684608F00DFCA060FEBDA160FEBDF0B587B01E4668
:201860000C9F13681C1D14601D68002D3AD0049106908468002C04D4284609F0D7F98442C1
:2018800003D3284609F0D2F9044606984068A042039000DC20460146306801914018059497
:2018A0000399A142029630600EDD06980078C0070AD1059801990E1A0024B44204DA202047
:2018C0000499B847641CF8E70026049C069805998E420ADA2868010A18D12D1D2146B84723
:2018E000761CF3E70020B84718E00599039A8A4214DD0078C00711D00198451A0024AC4243
:201900000CDA20200499B847641CF8E70020C0430299086009F032FA5821016007B0F0BD1D
:20192000F0B585B00C4606460A9D1068011D116000680490002844D00393B768002F04D48D
:20194000049809F0BEF9874203D3049809F0B9F9074602967268BA42114600DC3946039B4A
:201960001868009140180192BA4218600FDD02980078C0070BD10098C01B0390002603988F
:20198000864204DA20202146A847761CF7E70026BE4205DA0498805D2146A847761CF7E757
:2019A0000198B84210DD02980078C0070CD00098C61B0027B74207DA20202146A8477F1C47
:2019C000F8E700202146A84705B0F0BDF0B58BB004920D460446FF210846FA302718686896
:2019E0000590002609960691FE3120222046029208F0E4FF7F20800021180A9103973E7174
:201A0000287B0246613A172A08952BD8012393402546C34C23422C4609D009A90AAA089D33
:201A20002846049B00F082F900260796B9E0712423422C46089D22D1022A13D1049B18689F
:201A4000021D1A600068C2B2534253410793069AFC32A2180A9208702868022188432860AC
:201A600000269EE001464539032908D3252800D180E0412803D058280796CED092E001947A
:201A8000049A1068C01D07218843014608311160076846682D7B2C467B3C384631463A460C
:201AA000334608F051FD002800D021E10120C007314681439B48484038431FD0F60F002050
:201AC00007902846413806283FD9613D062D019C00D922E1A80002A21058089D8746C046CC
:201AE000611B0000A31B0000A31B0000A31B0000991B00008D1B0000811B00000022384698
:201B000031460792134608F022F81921CA436921049149216E254E2366274626944200D3D4
:201B20003E46039AD670019C00D32B46937000D3049951703F21C90061180A910028089D1F
:201B400014D02D20107004262BE0019C089DC0467844007940008744032424241F1913005D
:201B60000AAB38462A4603F02FFC1AE02B201070032616E00020607025202070012086E074
:201B80000AAB38462A4603F025FD0AE00AAB38462A4608F087F804E00AAB38462A4605F00D
:201BA00087FC287B012501466F39092904D801228A405D490A4201D158286AD1059B059536
:201BC000E5180A9808990978C907274609D10399091D091A089A52689142274601DC691A4C
:201BE0004F1C411C0698430000263846324608F0F0FD0A900799002903D0411C0A91067097
:201C000000E00146A94206D8481E691A491C202208F0D4FE2E70089D2878C00605D4391BA4
:201C20002022204608F0CAFE2CE0A7422AD0391B30262046324608F0C1FE09984142414168
:201C400005980140012905D12878400702D43846214604E03878611C2070781C3E702A7B7C
:201C6000412A0CD0582A05D0612A08D0782A01D0702A07D12B781B0701D4612A02D14278CC
:201C80004A704670204609F01CF8079940180BB0F0BD002E09D0012E059B90D10120099010
:201CA000089801680220084007E0099A0898016802200840002A08D0059B0A994A1E0A926B
:201CC0002D220A704542454179E70028059B08D1480700D473E70A98411E0A910299017008
:201CE0006DE70A98411E0A912B210170002566E71920C543612241216E234E20AC4200D3DF
:201D00001846039BD87000D31146039A91700A925070002007900226019C089D41E7C0460C
:201D200008C190000000F07F43020000F8B514460F4605468068002804D42868102188437B
:201D4000286001E00120A860287B1026582808D0782806D0702804D06F2801D1082600E067
:201D60000A262846194600F055F8AA68002A09D102460A4306D12878000749D52B7B00201C
:201D8000024612E02B7B642B03D16423002905D40AE0692B08D1002906D5692301223A60D3
:201DA000002240428A4100E00A4600941146324600F0CEF8A968884206DA401C21684A1E63
:201DC000226030220A70F5E7287B582803D0782801D070280FD1297809070CD5702800D1FF
:201DE000782021684A1E226008702068411E216030210170287B6F280AD12878000707D59E
:201E000020684178302903D0411E216030210170F8BDC04610B5037B702B05D10868021DB5
:201E20000A60006800227BE002683E481040421E04465440944216D9002807D0424202404B
:201E400039485043C00E39A2105C00E02020401F082808D878440079400087444C04041E18
:201E600038041E04040000221846643814280DD801248440354804420AD12120044205D0E0
:201E80000868021D0A600068C21749E0582B46D10868031D0B60006842E01846643814288A
:201EA00007D8012282402948024206D12120024203D10020582B024632D10868C21D072015
:201EC00082431046083008601068526828E0002218466438142807D8012484401B48044244
:201EE00004D121200442CBD1582B18D10868031D0B60007814E0002218466438142807D8E0
:201F0000012484401148044204D121200442B7D1582B04D10868031D0B60008800E0104644
:201F2000114610BD603F000031B57C0700011C021D0E18031E16140F191104081F1B0D1725
:201F4000151310071A0C12060B050A0900081200FEB501920D460646582B01D0174800E04F
:201F600015480090089802903046284305D1029A1068411E116030210170019C3046284367
:201F800013D030462946224600F01AF807460D46224608F0FBFB301A0099085C029B1968B4
:201FA0004A1E1A6008703E46E8E70298006808F088FE401EFEBDC046FEB600000FB700005B
:201FC00080B5102A06D0082A09D1C0084A078018C90880BD00090A078018090980BD0029C7
:201FE00004D1114608F0E8F8002180BD002308F0DDFD80BDF0B591B01E4606920C460546CE
:202000001798944F01210D91890706F034F80E90288BB84203D0411C2983312801D3002048
:202020000D90199B189A1699284613300F90A0780028109520D00020E8712872A6880996E9
:202040006E8005942478802C0C930B92049101D0012C43D1287BFF2808D0002804D1E989BD
:20206000B94201D0491CE981401C2873298A81420F9935D2288233E0284600254563C47974
:20208000FF2C00D193E00F46002C10990C9307D14B897048834218460C9B01D0401C4881E4
:2020A000601C0E90C871002F00D181E00B920120C00786436849304607F092FD002800D178
:2020C00051E3022C0C9B0B9A72D803200F99487415601D600520109E3072F1E228730F9904
:2020E000887C0A905D490E9D284607F070FD002820D05B4E594F0E9D2846314605F0BBFF77
:202100000546394607F063FD002813D02846314605F0B1FF0546394607F059FD002809D0F1
:202120002846314605F0A7FF0546394607F04FFD0028E1D100262846314607F036FD0028DB
:202140001ED0464F2846394605F095FF0546002107F02BFD002813D02846394605F08BFF84
:202160000546002107F021FD002809D02846394605F081FF0546002107F017FD0028E1D12A
:202180003849284607F011FD00280F9F36D13649284607F00AFD002801D001262EE03349D9
:2021A000284607F002FD002827D1032626E00E94109E307A002808D0401E307203200F99A7
:2021C0004874002515601D607AE20E98052800D9B9E2144600200F99487402201099085E7A
:2021E0000028234A2348114600D4014600D41046224611601860109E62E202260A9A96425C
:202200001BD1BE74032020403F2C109D09D8002807D02879FF2801D0401C2871002068719E
:2022200036E0402C32D3002830D16879FF2801D0401C6871002028712AE0B00001A108586B
:202240008746C0467922000017270000E7260000FF260000FFFF000000004842CD8C194462
:20226000CD8C19C400001643CD8C9943CD8CE4430000344200007042032AC2D1FE4928467D
:2022800007F0AEFC0028BCD00326BAE70020A880787C411E012910D8E106890F00D1D7E16A
:2022A000A979491CCAB2A971052A00D2D2E100207874A8710999298002E00020787409994D
:2022C00028882F460D1A08B208F010F83C6B0290214605F0CBFEE94906F0E6FF214605F031
:2022E000CAFE099038632FB2384607F0FFFF0446E34D294607F059FC002800D12546642F62
:2023000000DDE04D109F7C6B2846214605F0AEFEDD4906F0C9FF214605F0ADFE0890786349
:202320000021099D2846079107F03FFC01210A91CF07002800D07D40089C2046079907F0B5
:2023400034FC002801D1274600E06740CF49384606F0AAFF294605F08EFE08F057F80146AC
:202360001098056C0191084607F0C0FFC84906F09BFF294605F07FFE0446002EC54802D0D5
:20238000022E34D1C44803940E9905F06FFE0746C24907F00AFC002821D00021384607F058
:2023A0001FFC00281BD01098416C28460D4605F05DFE0446B949384607F042F801462046E1
:2023C00006F072FF294605F056FE0446039D2846214607F005FC002809D12C4607E00021AB
:2023E000384607F0EBFB002800D0A0E1039C109D0F9FAB490E9807F0EAFB002802D0002E71
:202400000A980DD0B01E0396264644424441A5490E9807F0DCFB411E884120403446039E5A
:20242000049900290AD00A990E40064306D0E87C411E88410D99084300D144E1A87C00282D
:20244000079800D0A874F870B87078703870AE6C2046314607F0A9FB00280D9600D1264637
:20246000AC6A3046214607F0A0FB05460127B907204605F000FE0446314607F0B1FB32466F
:202480000028314600D12146002D089800D10A46109E0F92B262F46C316D06F005FF0546D1
:2024A0002046099906F000FF2946354605F0E3FD0646A86B0A9900290ED0F94905F0DBFD48
:2024C000A86300240E90214607F06FFB002814D0AC63EC630E9410E00A97F04905F0CBFDD4
:2024E00007467F20C4053846214607F079FB002800D13C460E94AC630A9F6D6D3046294643
:2025000007F06EFB0446FF076F403046394607F04CFB002800D13746002C00D13D46002112
:202520000E9807F05DFB002800D181E01098416C0D9805F0A0FD3F21090606F0B5FE0D900B
:20254000D649089806F0B0FE0446D649099806F0ABFE214605F08FFD074641200106384654
:202560000A9107F03DFB0446C12006063846314607F01BFB002800D13E46002C0A9C00D138
:2025800034461098C06B0D9906F08EFEC64906F08BFEC64906F054FF0146204605F06BFDD6
:2025A00007460021284607F012FB06460F9C2046294605F05BFD0A902846214605F05BFD66
:2025C0000546002E00D00F9D01D00A980F900D9E3046394605F04FFD04463046394605F0DF
:2025E00045FD0D902046294605F040FD01460E9806F05AFE294605F03EFD0B990860109E61
:20260000B46B0D980F9D294605F030FD0146204606F04AFE294605F02EFD0C990860059895
:20262000808830803846394605F025FD054647E00021284607F0CBFA0028059C34D12846D5
:202640000F9905F018FD0B990860109EB06A33E00021A9710128964996480A4600D0024658
:20266000034600D00B460B990A600C990B60A8622E46914D24E0C046CD4C18449A99993EED
:202680000000C8C20000C842CDCC4C3ECDCCCC3DEC5138BE00001643CD8CE4430000A041F4
:2026A00000000243CD8CDA430B980F990160109EB06A294605F0DAFC0C990860A0883080CC
:2026C000F56211B0F0BD0F94A87C0028069C6FD16D49099807F07BFA002857D10020687554
:2026E0000A98079064E0012A00D08AE56349284607F05BFA002800D183E5012681E5022A73
:2027000000D07EE55C49284607F04FFA002800D177E5022675E5002A00D072E558492846FC
:2027200007F043FA002800D16BE5002669E5109D6C6C0398214607F053FA00280F9F00D037
:2027400057E6039C55E6232810D8144603200F99487402201099085E00284A4A5948114669
:2027600000D442E542E50C9B0B9A21E541287CD8144603200F99487402201099085E0028EE
:202780004E4A4F48114600D42FE52FE5687DFF2805D0411C697502280A98079008D301203C
:2027A000A8747F20C005E863EC6100200790A875E969204605F05AFC0546344F394607F0E6
:2027C0000FFA0646324C2846214607F0EEF9002800D12C46002E00D1274600263846314681
:2027E00007F0E3F901240028109D01D0E00747402F62E86B029906F057FD264907F0DEF9C7
:2028000000281AD100202875079800280F9C1ED12149384607F0DBF900281AD001983C28C5
:2028200017DCA87DFF2803D0411CA975042811D30020A8746875A87509E6287DFF2803D037
:20284000411C29750428DFD3200268820F9CAE75FDE5AE7527466C6C3846214607F0C0F9E6
:20286000002800D13C460A96F1E504200F99487400210846BDE4C046CD0CE743CD0C9C430E
:2028800000001B430000A041000020420000B4430000B4C3000016C300002043CDCC4C3DCB
:2028A000CDCC4CBD0AD7233D0000514300007A44000040C100004842000078420000A0C13D
:2028C00000000C4200005C42F0B58BB0002800D1F3E115460F460646099300240029234611
:2028E000224611D00420385E07F000FD484906F0DBFC0A95254604460620385E07F0F6FC8A
:2029000023462C460A9D0246307802280A962AD0012800D06DE17778012F48D1002D00D104
:20292000D5E03C4D2B40412001061846174607F045F9002800D1CAE03A462A403649104634
:2029400007F03CF9002800D1C1E0F068401CF060232800D24DE102200A9948700024099820
:2029600048608860E6E07678012E6BD1002D00D1C2E00A99C868401CC860052800D238E199
:2029800016460A9D0998A860224C23402349184607F01DF9002800D0D0E0304620402049FC
:2029A00007F015F9002800D0C8E00220C7E0002D00D18FE008927568002474610120059016
:2029C000C107079306918B431649184607F0FFF8002800D09DE0B81E0828099900D908E1A6
:2029E0004F1B800001A10858079A8746292A0000BF2C0000812D0000B72D0000ED2D000093
:202A0000FD2C0000332D0000F32B0000D92E0000CDCCCC3DFFFFFF7F0000A04100001041B8
:202A20000000F0410000D242192F00D2E9E203200A994870099848600020C8600861088369
:202A4000E94CD6E00121002D5AD008920691CF070024184621461D4607F0A7F80028079565
:202A600000D07D40FD49284607F0B1F800285AD1092E6CD0022E00D0BBE0F949284607F06D
:202A8000A6F8002800D085E0089CBC43F549204607F09DF800287DD10A9E31461931707E9B
:202AA000079DBD43002800D1FAE10F46EC49284607F08DF8002806D1EB49204607F087F81B
:202AC000002800D100E200203870E84F74E00024F4608EE07069632805D8411C0A9A5161EE
:202AE000632800D085E001200A9988760B2048700998486000241DE000240A98C46078E0C5
:202B00000A984170099941600024C460046104836FE00220B0760B20707009987060F46084
:202B20003461348365E002200A9988760B20487009984860CC600C610C835AE009206870B2
:202B4000099868600024EC602C612C8351E041200106284607F032F8002825D0089CBC4378
:202B6000C149204607F02AF800281DD00A9EF068401CF06028281AD302207070099870605B
:202B80000020F06030613083304619300990079DBD4386E109200A9E7070099870600020DC
:202BA000F0603061307602E000200A9EF06000207076079DBD43AE4F41200106284607F020
:202BC00006F8002801D0AB4800E0AB4801D0AB4900E0AB491422069B9B070091019002976B
:202BE0000393049200213046079A089B03F07CFC0446A44D2046294606F0D7FF0746812099
:202C0000C6052046314606F0EBFF002800D12646002F2C4600D134460A98046220462946FE
:202C200006F0C3FF002800D1254600272846394606F0BBFF0121CC072E46002800D06640AD
:202C40009149304606F0B1FF002834D17F20C105304606F0B3FF00280ED17F49304606F093
:202C6000ADFF00280DD18949304605F004FA884906F01AFB87490CE08749304606F014FB84
:202C800009E08649304605F0F6F9814906F00CFB814905F0F0F93F21090605F0ECF906461E
:202CA0000021284606F09CFF002800D16640304607F0ACFB07460A9887830BB0F0BD664C2E
:202CC0000F2F96D33F200106104606F080FF0646401E8641EC49089806F079FF0546401EBF
:202CE00085413540E649089806F071FF411E88412843402F00D9A0E100219FE1E9491046DF
:202D000006F05CFF089C06998C43002800D18FE0E549204606F052FF002800D188E0082084
:202D20000A994870099848600020C86008610883D1E0DB49104605F09EF9D84C2040CF4960
:202D400006F03CFF002800D1C2E008980440CA49204606F033FF002800D1B9E00A99C868BD
:202D6000401CC8601428079A00D2B5E00A200A994870099848600020C86008610883ABE0F6
:202D8000D549104606F023FF002800D1FEE0142F00D2FBE00124E10708988843B84906F071
:202DA0000DFF411E88411B2F0A9900D80024204300D0EEE04FE1C3491046144605F05BF9C0
:202DC0000121C9078843C04906F0F8FE00280A9900D1E7E006204870099848600020C8606F
:202DE000086108832DE0C046000040401E2F0A9D27D3A149104606F0E1FE0446AB4908986B
:202E000006F0DCFE2043411E88417C2F059900D800210843012814D1072068700998686054
:202E20000020E860286128830120C007089C84439F49204606F0CBFE002800D0EEE09E4AE8
:202E4000EDE0A249089806F0CBFE002801D1A14CCFE69F4CCDE6C046000040400000D24287
:202E6000000010410000F04100004041CDCC4C409A9979406F12033D295C0F3DEC51383DFA
:202E80000AD7233D000080C0CDCCCC3C000040C000002042000020430000A042000080BF2A
:202EA000099141200106284606F088FE754F002800D181E67449204606F080FE002800D172
:202EC0007AE606980999087000243476346190E600200A99C860079A7A48114605F0C6F8A9
:202EE00004460A98407E06998C43002815D07F49089806F06CFE00280A9D0BD17C490898D5
:202F000006F05CFE002805D16F49204606F05FFE002817D0002068761CE05749089806F0B3
:202F20004DFE00280A9D15D07249089806F04FFE00280FD05149204606F040FE002809D0B8
:202F4000059868766C49089806F038FE00280AD16B4C4EE641200106204606F038FE002865
:202F600003D14C4802E0654C43E64B48089B01D1464900E046490C220492504A0392504A9A
:202F800000AC07C44F492846079A2FE61C2F0A9961D305204870099848600020C860086105
:202FA0000883079C4E49204606F0FFFD002808D003208107089806F001FE002801D0404C2F
:202FC00017E64849089806F002FE414C002800D00FE64549079806F0FAFD002806D03A49B8
:202FE000089806F0F4FD002800D002E60120C107089888432E4906F0EAFD00282DD12E4B23
:203000002CE00C2004902D4803902D4802902A4801902148009000210A98E6E5254A0A983A
:20302000089B0C21049125490391254902911A49009101922349079AD8E501210843012841
:2030400000D0D6E504200A994870099848600020C86008610883214CCBE5164B0A98079A20
:203060000C21049115490391154902910A49009101930B49B9E5C046000040410000104169
:203080000000F041CDCC4C400000A040295C0F3D6F12033D0AD7233DEC51383DFFFFFF7FF9
:2030A00000004842000020C2000070420000C8C20000BE42A69BC43CBC74933C66662640F6
:2030C00000004040000048C2000020410000A041000040C0CDCCCCBF00002842CDCC0CC031
:2030E000000020420000B4420000184200007041000096C2000070C20000F0C19A99993E28
:20310000CDCC4CBEF0B583B015460E460446411E8841FD49B02206F03BF8002E06D0217835
:203120000520014205D0042003B0F0BD032003B0F0BD0296A71C0422114321703A7B7B7B3A
:203140001B029A18BB7B1B042E46FD7B2D06EB189A18964200D930E23546387C797C090285
:203160000818B97C0904FA7C12065118091838797A7912021018BA791204FB791B069A1865
:2031800010180E1A6178B5423AD9022900D1D9E001296FD0002900D0FBE139787A78120252
:2031A0005118BA781204FB781B069A18511808180299324607F0E6FD3879797909020818D4
:2031C000B9790904FA7912065118081801968119387C7A7C12021018BA7C1204FB7C1B06A1
:2031E0009A1812185342914200D28FE1881A59188A4200D98BE1801A811A5018F3D386E15B
:20320000022900D1D1E0012969D0002900D0C0E1A178E278120251182279120463791B0666
:203220009A185118081802992A4607F0ABFD3879797909020818B9790904FA7912065118A8
:2032400008184119387C7A7C12021018BA7C1204FB7C1B069A1812185342914200D290E1A3
:20326000881A59188A4200D98CE1801A811A5018F3D387E1A178E2781202511822791204BD
:2032800063791B069A1851184000081872000299009207F077FD3879797909020818B979AC
:2032A0000904FA7912065118081801968119387C7A7C12021018BA7C1204FB7C1B069A1840
:2032C00012185342914200D2A2E0881A59188A4200D99EE0801A811A5018F3D399E0A178DD
:2032E000E278120251182279120463791B069A185118400008186A00029907F043FD3879E1
:20330000797909020818B9790904FA791206511808184119387C7A7C12021018BA7C1204B1
:20332000FB7C1B069A1812185342914200D228E1881A59188A4200D924E1801A811A50187C
:20334000F3D31FE1A178E278120251182279120463791B069A18511880000818B200029901
:20336000009207F00FFD3879797909020818B9790904FA7912065118081801968119387CB2
:203380007A7C12021018BA7C1204FB7C1B069A181218534291427AD3881A59188A4277D858
:2033A000801A811A5018F5D372E0A178E278120251182279120463791B069A18511880001D
:2033C0000818AA00029907F0DDFC3879797909020818B9790904FA7912065118081841193D
:2033E000387C7A7C12021018BA7C1204FB7C1B069A1812185342914200D2C2E0881A591838
:203400008A4200D9BEE0801A811A5018F3D3B9E008463871010EF971010CB971010A7971D1
:2034200039787A7812025118BA781204FB781B069A185118400008180299009A8918019AA4
:20344000AE1A720007F09EFC3879797909020818B9790904FA791206511808188119387C32
:203460007A7C12021018BA7C1204FB7C1B069A1812185342914200D283E0881A59188A42DE
:2034800000D97FE0801A811A5018F3D37AE008463871010EF971010CB971010A79713978EA
:2034A0007A7812025118BA781204FB781B069A185118800008180299009A8918019AAE1ACD
:2034C000B20007F05FFC3879797909020818B9790904FA791206511808188119387C7A7C83
:2034E00012021018BA7C1204FB7C1B069A1812185342914245D3881A59188A4242D8801ABD
:20350000811A5018F5D33DE057B5000008463871010EF971010CB971010A797139787A7878
:2035200012025118BA781204FB781B069A1851180818019A02998918AE1A324607F022FCCB
:203540003879797909020818B9790904FA791206511808188119387C7A7C12021018BA7C94
:203560001204FB7C1B069A1812185342914208D3881A59188A4205D8801A811A5018F5D35D
:2035800000E008463871010EF971010CB971000A7871387B797B09020818B97B0904FA7B29
:2035A000120651180818401B3873010CB973010EF973000A787321780020FB220A40227009
:2035C00003B0F0BDF0B591B0E4480078012800D0B0E1E34880690321C9024058E1490A7830
:2035E000002A1DD0E0490A68002A1DD0841A0860DE480460204607F07FF80646DC4905F038
:203600001FFF0546DB48844200D83546DA4928460C9106F0CAFA00280ED0D84CD84814E0DF
:2036200001220A70D04984E10860D04800210160D848016011B0F0BDD249284606F0D0FA35
:20364000002800D178E1D04CD048D24908600894D2483B210DAE0E23324603F013FA0D9846
:2036600000027178401800B206F040FE7121CF05394605F019FE0B90B0780002F1784018AA
:2036800000B206F033FE394605F00EFE09900E9800027179401800B206F028FE394605F00C
:2036A00003FE0A900F980002717A401800B206F01DFEBB4D294605F0C3FE0446B07A00021D
:2036C000F17A401800B206F011FE294605F0B8FE074610980002717B401800B206F006FE6F
:2036E000294605F0ADFE0546AE4801682046049104F0BCFC0446AC480460AC4801683846ED
:20370000059104F0B3FC0746A9480760A94801682846069104F0AAFC0646A7480660A74842
:2037200000680790A64801680297384605F0BCFD054601942046079905F0B6FD294604F07D
:203740009AFC04469F4801680396304605F0ACFD214604F090FC05460120C1072846884338
:203760007D21C90506F021FA00260028344600D12C462046804906F033FA0746924D2046DD
:20378000294606F012FA002800D12546002F00D10C958E480C9F07608D48046820463146AD
:2037A00006F0FAF905462046394604F064FC3F210906079105F078FD002D00D10746089840
:2037C000394605F071FD0C99814A1160814905F06BFD0446804E314606F002FA07467F4D65
:2037E0002046294606F0E1F9002800D12546002F00D12E467A4C2068314604F03CFC054610
:203800002060784F3868314604F035FC38607649284606F0E5F9002820D0744E724F284683
:20382000314604F028FC0546394606F0D9F9002813D02846314604F01EFC0546394606F0A9
:20384000CFF9002809D02846314604F014FC0546394606F0C5F90028E1D1256064492846BE
:2038600006F0A3F9002820D0624E614F2846314604F001FC0546394606F097F9002813D00D
:203880002846314604F0F7FB0546394606F08DF9002809D02846314604F0EDFB054639468B
:2038A00006F083F90028E1D125600998014605F0FBFC04460B98014605F0F6FC214604F0ED
:2038C000DAFB04460A98014605F0EEFC214604F0D2FB494904F0CFFB484C204048490D787F
:2038E000484906F062F9002824D0002D22D00C982040079906F059F900281BD0244C0198A3
:20390000214605F0D1FC049904F0B5FB254908600298214605F0C8FC059904F0ACFB234908
:2039200008600398214605F0BFFC069904F0A3FB2049086011B0F0BD1549284605F0B4FC8C
:20394000144908601449284605F0AEFC0446002106F034F90028EDD179E6C0468E3D202054
:2039600074B60000903D2020583D20206C3D20200000A042400D03000000FA430BD7233CA2
:203980000000204100504347CDCC4C3D000048426F12833A5C3D2020BD3786353C3B2020C3
:2039A00033338341443D2020603D2020483D2020643D20204C3D2020683D2020703D2020FE
:2039C000743D2020783D20200000FAC3403D2020543D20201904963F0000A0400000A0C084
:2039E000803D2020843D2020000034430000B4C3000034C30000B443000080BFFFFFFF7F32
:203A00008D3D20209A99993EF0B58FB00646D54FF87C062801D3002200E00122831E591E8B
:203A20008B41441F611E8C417021795C234200D0DDE0002900D1DAE00126B86EF96E081A29
:203A400006F05AFEC94905F02FFCC94905F0F8FC06F0D2FB02460B46C64908AD284606F067
:203A60009DFC0020039002F041F9287804900224CE4D07E0284604F0A1FE03240798C007E4
:203A800000D16DE107960EA9039F0F702120487002262846324604F0BFFB0EA90F704F70E8
:203AA0002846324604F0B8FB0EA90F707F2048702846324604F0B0FB0EA90F702220487037
:203AC0002846324604F0A8FB0EA90F704C702846324604F0A1FB0EA90F704C702846324629
:203AE00004F09AFB284604F005FE287A4006010E284602F0CDF940212846069102F0C8F9A2
:203B00000498002857D00024049805942E4601467F39C9B2A129059D01D320380546600828
:203B20000627394606F048FBE8B27843A04A1018405C0799C90716D0012101404A00830710
:203B4000DB0F9D00AA18DB00D2184307DB0F1D0152195B01D218C308C000069D2840101896
:203B6000DA01024315E0C106C90F4A008306DB0F9D005219DB00D2184306DB0F1D0152194B
:203B80005B01D2184308069D2B40D318802202401A430A43D1B23546304602F079F9671CB2
:203BA0000C21384606F008FB08A9762C03D8085C00283C46AAD100262846314602F068F94C
:203BC000781C40B2002800D554E70021284602F05FF9B81C40B2002800D54BE700212846CA
:203BE00002F056F9FF1C78B20028E4D542E704280ED10796BA6E0026002A304628D0481E41
:203C00000D4685413B680020934214D2044613E03F2318403423C3401A4009D0B86E00293A
:203C20004ED0FA6E002A4BD0002849D0101A51E04D49002061E001242543012D08D1002969
:203C400000D0FB6E981A06F057FD484905F02CFB474905F0F5FB06F0CFFA02460B464D491F
:203C600008AD284606F09AFB3046294603F0E6F86B208000381807F092F806F0BDFA02460F
:203C80000B464548009601904449284606F086FB0220294603F0D2F8C220385C002801D0F0
:203CA000404A00E03E4A079C3F49284606F076FB0420294603F0C2F8002C42D1324C41E0F4
:203CC0004A1E9141424242410A4301D0002001E03968081A06F010FD244905F0E5FA244910
:203CE00005F0AEFB06F088FA02460B46214908AD284606F053FB0020294603F09FF8FA7CB5
:203D0000552080003B5C1C4908AD284606F046FB0220294603F092F8FF203830385C002807
:203D200001D0174A00E0154A2520C0003B5C1549284606F033FB0420294603F07FF8002E5B
:203D4000BCD0124C386B06F057FA0090019110492846224606F022FB0620294603F06EF83D
:203D60000FB0F0BD40382020ADB800000000204100007A4418B9000022B8000090B90000A7
:203D800098B90000C5B8000087B9000094B90000B9B800007DB8000000C0624080B7000089
:203DA00078B900009BB900003AB900001C3B2020B0AD0000F0B581B001242D2006F04CFD10
:203DC000CD4D297888421AD1A97802291AD84A1CAA706978431A59425941032A224600D1DC
:203DE0000A46002A0ED16870002800D1EAE0287A002801D10120A8710020A88002E0287037
:203E00000020A8706878002809D1A888632806D8401CA880642802D10120E87128723720A1
:203E200006F01AFDA97A88421AD1297B02291AD84A1C2A73E97A431A59425941032A22464F
:203E400000D10A46002A0ED1E872002800D1BDE0A87C002801D1012028740020E88102E002
:203E6000A87200202873E87A002809D1E889632806D8401CE881642802D101206874A874F2
:203E80003A2006F0E9FC297D88421AD1A97D02291AD84A1CAA75697D431A59425941032A25
:203EA000224600D10A46002A0ED16875002800D190E0287F002801D10120A876002028837F
:203EC00002E028750020A875687D002809D1288B632806D8401C2883642802D10120E8763E
:203EE00028773B2006F0B8FCA97F88421CD120216A5C022A1CD8521C6A54E97F431A59428C
:203F00005941032A224600D10A46002A10D1E877002863D02620285C002802D12420012161
:203F200029540020688403E0A877202000212954E87F00280BD1688C632808D8401C688406
:203F4000642804D12520012129542620295425216A5C00206854002A05D12422AB5C002103
:203F6000A954002B14D065490A78012A06D108706449087064490C7001B0F0BD604A1470B1
:203F800008706049087060480470FA2001B0F0BD5B48007800280ED0584F3978A879002634
:203FA000AE7101291FD100282CD05C480178002926D0491E25E0A87EA97600281BD0FB2089
:203FC00001B0F0BD0020A88028721BE70020E881A87448E700202883287775E700206884F9
:203FE00026216854A4E7002840D048480078002825D0431E24E0A9712974084601B0F0BD0E
:2040000003210170287C00262E74002805D043480178491C03220A400270A87EAE760028E6
:204020005AD0384908783D4A12783B4B1A700E7033490E703E7034490E7001B0F0BD07238B
:2040400033480078D9B281420A4600D30246171D81422E48037001D38F4204D88F4200D8AA
:20406000DA1E2B48027028480470244F287C2E7400281AD025490878401C07230340244891
:20408000027893421F4600D31746381D93420B7002D3C1B2994205D8C0B2984200D8DF1E76
:2040A0001B48077018480470144FA87EAE76002814D016480078C0001649085C062812D828
:2040C00001218140742211420DD00E49087012480078124908703C700B48047001F034FD2E
:2040E000304601B0F0BD0021054A11703970064A117001B0F0BDC046C03A2020A73B2020C1
:204100009C3B20209F3B2020A13B2020A63B2020983B2020E8B30000893D20208F3D202071
:20412000F0B585B0AA480078012800D04EE1A94880690321C9024058A7490A78002A1DD029
:20414000A6490A68002A1FD0841A0860A4480460204606F0D1FA0646A24905F071F9054687
:20416000A148844200D83546A04C2846214605F01CFD002810D09E4D9E4816E001220A7002
:204180009649086005B0F0BD08609548002101609D48016005B0F0BD9749284605F020FDA7
:2041A000002800D101E1954D954897490860019502949748432103AF06233A4602F062FC03
:2041C000039800027978401800B206F08FF8914C214605F035F99049096803F047FF064694
:2041E0008E480660B8780002F978401800B206F07DF8214605F024F98949096803F036FF87
:20420000054688480560049800027979401800B206F06CF8214605F013F98349096803F092
:2042200025FF0746814807608148046881480168284605F039F805463046214605F034F899
:20424000294603F018FF04467B480168384605F02BF8214603F00FFF07460120C1073846BD
:2042600088437D21C90505F0A0FC002500282E4600D13E4630465D4905F0B2FC04466F4F99
:204280003046394605F091FC002800D13746002C00D102976A48029F07606A4E3468204627
:2042A000294605F079FC05462046394603F0E3FE3F21090604F0F8FF002D394600D1014603
:2042C000019804F0F1FF37605F4904F0EDFF04465E4D294605F084FC07465D4E2046314694
:2042E00005F063FC002800D12646002F00D13546584F3868294603F0BEFE04463860564E9F
:204300003068294603F0B7FE30605449204605F067FC002820D0524D504E2046294603F0E6
:20432000AAFE0446314605F05BFC002813D02046294603F0A0FE0446314605F051FC00282C
:2043400009D02046294603F096FE0446314605F047FC0028E1D13C604249204605F025FCB2
:20436000002833D0404D3F4E2046294603F083FE0446314605F019FC002813D02046294604
:2043800003F079FE0446314605F00FFC002809D02046294603F06FFE0446314605F005FC05
:2043A0000028E1D13C6005B0F0BD1649284604F07BFF154908601549284604F075FF0546A5
:2043C000002105F0FBFB002800D1F0E605B0F0BD8E3D202074B60000903D2020583D202089
:2043E0006C3D20200000A042400D03000000FA430BD7233C0000204100504347CDCC4C3DC7
:20440000000048426F12833A5C3D2020BD3786353C3B202033338341443D2020603D2020CD
:20442000483D2020643D20204C3D2020683D2020703D2020743D2020783D20200000FAC398
:20444000403D2020543D20201904963F0000A0400000A0C0803D2020843D20200000344327
:204460000000B4C3000034C30000B443F0B591B00F90012548000D90400D5C00670D594091
:204480001095EE070E40AB494D1E44198C4200D203E17C198C4200D2FFE0049610990C058C
:2044A000611E00910B400025E9430E91A449019423430C93C01B40180290401C0390D002A4
:2044C0000A90500DD9020B9247189E48C41B3846294622462B4606F059F9484229462246DA
:2044E0002B4606F053F94900C00F4418204629463A462B4606F04AF94A42204629462B46C4
:2045000006F044F94900C00F4418204629463A462B4606F03BF94A42204629462B4606F03C
:2045200035F94900C00F4018441E3846294622462B4606F02BF906460F460A982946224681
:204540002B4606F023F970186F411099081A0A902A46BA41204629462B4606F017F9C20FB3
:2045600049008918099146000A98294622462B4606F00CF94A00C00F8018CF0F341809990F
:204580004F41E13C0994AF410F9AD00F0D9909180691520008920E98401E0D902E46AE410B
:2045A00008463040034607902046294606F0EEF80A910698C043614AD1430143521A05926A
:2045C0002C466C4109982946234606F0DFF80690099138462946089A079B06F0D7F80890B8
:2045E000079138462946059A234606F0CFF805900A9A069BD0182B466B41079F3E400D9CC5
:20460000089A224082185E41059838186941099A80186941841969410E98401C4748684160
:2046200081424BD2002201988142109800D310460F9B01D3039A029281401F2242406708A9
:20464000D7400F4384405E05204639460B9A0C9B06F09CF840428E4102994A1E3449491ED7
:204660008A423EDC012A48DB00990F401205C10F73005B1840001099214040183A43049995
:204680000A430021651C51410B9E301A0C98984100D3254644D3114642E0002F28D02449C7
:2046A0008F4204D0002823D0884200D0F5E62248064300253146284611B0F0BD6008CA0761
:2046C00084184F080F980605204639460B9A0C9B06F05CF840428E41039A1549491E8A423B
:2046E000C0DD1548049901430025284611B0F0BD00252946284611B0F0BD002A13D10E99B9
:204700004C400E494F4027430DD1019A56403043294605D1049911430025284611B0F0BD04
:20472000284611B0F0BD2946284611B0F0BDC046FF07000002F8FFFF0000F07FFFFF1F00C2
:20474000FE03000033F30475F0B5D9B01C4603920F46029058A80026068057A8068056AD79
:204760002E8055A8068054A80680084606F042F828808F4D2888002802D08E4800688047D5
:204780008D480078002800D10DE1288800283CD08A48036854A801884A1C02803046029A45
:2047A0009847384606F026F856A90880844800888449097805F000FD55A90880384606F073
:2047C00019F8381857A90E800988012913D9421C56A8805F002827D4521C2AE05799491C18
:2047E00057AA11805699491E56AA118057A90988401E0229EBD256A9895F0029E7D4017825
:204800005C29EBD02F29E9D0ECE70120010214A806F0DBF8704E316802988847002C00D10E
:20482000B8E000946D49B6E057A80088002800D1BBE0654914A805F0B1FD58A806800588C5
:2048400014E057A8008804AA16545C4803686048007854994D1C54AF3D80484381B230464C
:2048600098475898401C58A908800D8814A805F0C1FF55A9895F05F09FFC401CA84228D9C1
:2048800057A80680008855A9895F8842D9DA14A805F0B0FF57A9098858AA128855AB9B5F21
:2048A000534359188842CCD357A90A8858AB1B8855AFBD5F5D4314AB5B199A5C0B8804AD23
:2048C000EA54579A521C0A800988BA5F9142E1DBB7E7404914AE3046039A05F05FFD3748AC
:2048E00003683B48007854994A1C54AD2A80484381B20025284632469847002C53D058A85D
:204900000580068814E057A8008804AA15542B4803682F48007854994E1C54AF3E80484382
:2049200081B2284698475898401C58A908800E88204605F05FFF55A9495F05F03DFC401CA3
:20494000B04230D957A80580008855A9495F8842D9DA204605F04EFF57A9098858AA128858
:2049600055AB5B5F534359188842CCD357A90A8858AB1B8855AE775F5F43E3199A5C0B88D5
:2049800004AFFA54579A521C0A800988725F9142E2DBB8E7124914A83A46039B05F0FEFC78
:2049A000316814A8884759B0F0BD084942E7C046943B2020683B2020923D2020643B2020BD
:2049C0001A3B2020963B20200FB900003CB80000973B202021B90000603B202090B6000068
:2049E000C2B60000F0B587B09F4C0727B9010497204605F0EAFF9D487F210391C905206248
:204A0000616203F09FFF04F07BFB0026304604F0A9FE55208000201806F056F830201024AC
:204A20001125214632462B4602F0B6FE01220592384621462B4602F0AFFE04F0CBFA04F0EE
:204A400015FB894C2046883006F07AF82046A43006F076F804F052FE2046C83005F0D2F9EB
:204A60003320C000201806F009F96B208000201806F019F900F04CFA1C2000907C4F3C217E
:204A80000A221F23384604F09BFF642003F014FA06A90E70AE204870022538462A4603F05C
:204AA000BBFB06A90E70D520487038462A4603F0B3FB06A90E7080200290487038462A46D2
:204AC00003F0AAFB06A90E70A820487038462A4603F0A2FB06A90E703F20487038462A46E1
:204AE00003F09AFB06A90E70D320487038462A4603F092FB06A90E704E7038462A4603F01C
:204B00008BFB06A90E7040200190487038462A4603F082FB06A90E708D20487038462A465B
:204B200003F07AFB06A90E701420487038462A4603F072FB06A90E702020487038462A4693
:204B400003F06AFB06A90E704E7038462A4603F063FB06A90E70A120487038462A4603F04C
:204B60005BFB06A90E70C8244C7038462A4603F053FB06A90E70DA20487038462A4603F01B
:204B80004BFB06A90E701220487038462A4603F043FB06A90E708120487038462A4603F032
:204BA0003BFB06A90E700398487038462A4603F033FB06A90E70D920487038462A4603F071
:204BC0002BFB06A90E70F120487038462A4603F023FB06A90E70DB20487038462A4603F0F9
:204BE0001BFB06A90E700198487038462A4603F013FB06A90E70A420487038462A4603F0A8
:204C00000BFB06A90E70A620487038462A4603F003FB06A90E70AF20487038462A4603F06F
:204C2000FBFA304601F062F81248134903F08AFA049D2846314605F00FFD204603F03CF97C
:204C40002846059C214605F007FD304606F06CF8054D02996850204606F066F88421685059
:204C600000F072FF07B0F0BD40382020000040411C3B2020ED5C00003D6E0000F0B58BB0CB
:204C800093490978012900D01FE1002801D17D20800002900027059706973C463E463D462B
:204CA000049703963B2107AE0E238A48324601F0E9FE079800027178401800B2049909180A
:204CC0000491B0780002F178401800B2059909180591089800027179401800B206990918F7
:204CE000069109980002717A401800B23F18B07A0002F17A401800B22D180A980002717BB8
:204D0000039E401800B23618042003F0D5F8641CA0B202998842C4D301970395049805F027
:204D2000E5FA0446029805F0E7FC05462046294604F086FB0746059805F0D8FA294604F02F
:204D40007FFB0446069805F0D1FA0695294604F077FB054620460494214604F0A5FA044634
:204D600038460597394604F09FFA214603F083F904462846294604F097FA214603F07BF9BD
:204D800007467F20C4053846214604F029FF00285DD07120C105384604F086FA8D21C90543
:204DA00003F069F93F210C06214604F07DFA029505463846294604F043FB0146284603F0B1
:204DC0005AF9214604F070FA05463846294604F037FB0146284603F04EF9214604F064FAB5
:204DE00005463846294604F02BFB0146284603F042F9214604F058FA05463846294604F0A5
:204E00001FFB0146284603F036F9214604F04CFA05463846294604F013FB0146284603F01E
:204E20002AF9214604F040FA04460598214604F007FB294908600498214604F001FB274939
:204E400008600298214604F0FBFA044604E022480021016021480160039D019820490C600E
:204E600005F044FA069F394604F0EAFA1D4C214604F0E6FA1C490860284605F037FA39467F
:204E800004F0DEFA214604F0DBFA18490860304605F02CFA394604F0D3FA214604F0D0FA57
:204EA0001349086013480021016013480160134801601348017013480121017012488069DC
:204EC0000321C9024058114908600BB0F0BDC0468E3D20203C3B2020703D2020743D20207B
:204EE000783D202033338341443D2020483D20204C3D2020803D2020403D2020543D2020B9
:204F0000903D20208D3D202074B60000583D2020F0B583B002A80027077000978E4D682160
:204F20000A220123284604F04BFD642002F0C4FF752102AE012428463246234601F0A2FDF4
:204F40003078682800D1B6E0702800D1B3E0284603F034FC142002F0AFFF752102AE0123E7
:204F60002846324601F08EFD3078682800D1A2E0702800D19FE0284603F020FC142002F0B9
:204F80009BFF752102AE01232846324601F07AFD3078682800D18EE0702800D18BE0284606
:204FA00003F00CFC142002F087FF752102AE01232846324601F066FD307868287BD070288B
:204FC00079D0284603F0FAFB142002F075FF752102AE01232846324601F054FD30786828CE
:204FE00069D0702867D0284603F0E8FB142002F063FF752102AE01232846324601F042FD5D
:205000003078682857D0702855D0284603F0D6FB142002F051FF752102AE0123284632467C
:2050200001F030FD3078682845D0702843D0284603F0C4FB142002F03FFF752102AE01236C
:205040002846324601F01EFD3078682833D0702831D0284603F0B2FB142002F02DFF752194
:2050600002AE01232846324601F00CFD3078682821D070281FD0284603F0A0FB142002F0AA
:205080001BFF752102AE01232846324601F0FAFC307868280FD070280DD0284603F08EFB49
:2050A000142002F009FF38460A300A2F074600D23EE702A80078682801D0702842D1264EEB
:2050C0006B213046224604F0F3FF322002F0F4FE19210722304604F0EBFF1A2103273046B8
:2050E0003A4604F0E5FF1B211822304604F0E0FF1C21002530462A4604F0DAFF06263046E2
:20510000214603F0BDFB304605F03CFC13488069F9024058124908601248047012480570A3
:20512000124805601248056012480560124805601248056012480560124805601248057067
:2051400003B0F0BD074800210170074801700C48016003B0F0BDC0463C3B202074B6000052
:20516000583D20208E3D20208D3D2020443D2020483D20204C3D2020803D2020843D2020F8
:20518000403D2020543D2020903D2020F0B585B00492002800D114E10F46002900D110E1D6
:2051A0001C4605460126184600F042FF297AB87D002902D0E97988420BD001212972E8719C
:2051C000387C6978884204D1787CE978461A701E8641287804282DD003281CD0012800D0B8
:2051E000BDE0002E07D1787D402804D1B87C002801D1012068716879002829D06878801F31
:205200000226F143884203D305F028FD00281FD02E70EC60A3E0002E05D1787D412802D1BF
:20522000B87C00284ED0E868201A1E2800D296E00B2091E0002E2CD1787D432823D0442856
:2052400027D1387D002800D10C20287106201FE0A869201A322800D281E0287F02282FD80E
:205260006978EA781E202B5E0A2060430026049F009701960290302004F03CFFAC61287F9B
:20528000401C28776BE06878032802D06C61052028706878811F0222D24391424CD3039221
:2052A000397E0022002914D03978814211D17878E97888420DD17889972809D3002208E013
:2052C0000A2049E00120A87104202870EC6046E001222E462036304639462346FDF7F4FAE6
:2052E000304605F076FC002807D03A20285C1430287106262E70039A1EE03C20285E214669
:2053000002F0D2F968780328039A15D12878042812D1304605F066FC039A00280CD06C6158
:20532000304605F0B9FC204603F0C6FC05260028E0D105F04FF8DDE76878801F904207D303
:2053400005F084FC002803D01E20287106202870F87D002803D11F202871062028702878A1
:20536000411EC9B202290FD86978891F0222D243914214D305F06AFC002804D01E20287197
:205380000620287002E02878062806D105F022F82846203005F080FC2878002811D0A969CF
:2053A000611A14290DD36978EA781E23EB5E0A266643049F009701900296332004F09AFE6D
:2053C000AC6105B0F0BDFEE7F0B5A5B0059308920D46074600260A967A4C3246234604F04C
:2053E000BFFB002800D12C46354600D13D46284621463246334604F0A1FB4642464100282C
:2054000007D10AAA2846214604F06AFB0A98401E0A900898007B0BAF412801D06B4800E096
:20542000694809900898806801903020049038700022284621460292134604F088FB012100
:20544000002801D0C80744400391781C0790002E0DD024AA2846214604F042FB2498012184
:205460000A1A2846214602F0B9FC05460C462846214604F06BFD0646079904F0E7FB069066
:20548000304605F0A9F802460B462846214600F099FE04460D460198471C20D30798069941
:2054A0004618002220462946134604F047FB002848D1002220462946454B05F05BFC0446AA
:2054C0000D4604F043FD0999095C771C317005F083F805F034FC04460D463E46E1E70BA8D9
:2054E00006994618002F16D07F1E002220462946374B05F03FFC04460D4604F027FD0999FD
:20550000095C3246761C517005F066F805F017FC04460D46E6E73178099C204605F074FB7E
:20552000001B08280EDB0196741E089D029F099E2178304605F068FB801B0E2805DD277070
:20554000641EF5E7089D029F04E00999081840782070019E37700A98297B4129059C01D051
:20556000702100E05021069E079F224604F09EFCAA68501C04D1384605F0A3FB421EAA603B
:2055800038463146234604F0F7FFA8680028039A02D128680007C20F38463146234604F061
:2055A00015F9287B412801D0782000E0582021684A1E226008702068411E216004990170AF
:2055C00025B0F0BD0000F0FFFEB600000FB7000000003040F0B5A3B01E460F4604460392E0
:2055E0009168002903D0002904D5062100E001210398816007910AA8302108910170002248
:20560000204639460992134604F0A1FA01210028049101D0C8074740634D20463946614ADC
:205620002B4604F0AFFA00280BD00022204639465F4B05F09BFB04460F460998401C0990E8
:20564000EBE70025204639462A462B4604F076FA002813D1002220463946544B04F077FA12
:2056600000280BD0002220463946514B05F082FB04460F460998401E0990E3E702960AA8C7
:20568000461C2046394604F061FC0596314604F0DDFA07998842019004DD481C0AA90B187F
:2056A000085C20E0C9430E180AA90B180793581C06902046394604F049FC04F08DFF0246F4
:2056C0000B462046394600F07DFD0022384B05F051FB04460F4604F039FC069B30300799DB
:2056E0004870761CE2D3C0B23528029E039F0DD3581E0178491CCAB201703A2A03D33021EE
:205700000170401EF5E70AA9884241D0099801990C181D700220C043844202DBB8688442B6
:2057200007DD601E397B891EC9B2324604F0BEFB0124059805F0C5FA401E0499A0421ADBC4
:205740000028089A01D4059A125C1346303B5D1EAB41C9431943C90705D13978090702D4CD
:205760000025049905E031684B1E33600A7001250021401EE2E73868082202402A43501E1E
:20578000824105982146334604F020F823B0F0BD581E00210170099801990818441C0AA8C8
:2057A0000590B7E70000C0FFFFFFDF410000F03F00002440F0B58DB00792089000220126EA
:2057C0000B9149004F0D5900490D0C91694C651E09977919A142314600D31146F7070A97AF
:2057E0001F460B9847400C984519A542344600D314465F4D0A980740214301290AD10C98E8
:20580000002800D184E0A8427BD0099800287FD0A84276D00096069700260125079A500D31
:20582000D90208180590D00203903146089C2246334604F0ABFF049007910195EF07059884
:205840000743384631462246334604F09FFF089005910B98C0434949CA4302438A1A0292A6
:205860003446744103983146234604F08FFF05460B913846049F3146029A234604F086FFFF
:205880003F4A17401540079AAA18334673410B9C20187141059C00197141089C12195841DE
:2058A0007141099B0C9CE318CC0221D4354C1B19C40F490009194000D40F0019FC0F5200A0
:2058C00012197D002A4C641EA342069F19DC019C2405002B21DD641E21401B050B4319460A
:2058E00039436B420A9C2346934126D2401C2AE0244C1B195B1C1E4C3D46641EA342069F2A
:20590000E5DD1D4807430026394630460DB0F0BD0026314630460DB0F0BD1B4D6940C04300
:20592000002A15DB0843002B009916D0002817D0009800283146E8D117E06240154303D194
:20594000019A024080187141064630460DB0F0BD01960843002B0099E8D101990028E7D11B
:205960000091009800283146CFD12743CBE7C046FF07000002F8FFFF0000F07FFFFF0F0023
:2059800000F8FFFF01FCFFFFFFFF1F00F0B587B002910546411E88416849C32203F0F8FB9B
:2059A00028681F2241090592104001242246824088006349085895214B01C15811430193FF
:2059C000C150E86806900698411E0691002809D00698411E0691002804D00698411E069117
:2059E0000028F0D168684109059A104022468240880053490858534BC1581143C1500026C5
:205A0000072003940DE0B10044000C43287904F023FF064626430499881EC9B20129039CA4
:205A200068D0049029684A0905980140204688409100434A5158434A89180A6902430A6192
:205A4000EA680692069B5F1E0697002B09D0069B5F1E0697002B04D0069B5F1E0697002BFD
:205A6000F0D10B6803430B6006920698411E0691002809D00698411E0691002804D00698E6
:205A8000411E06910028F0D1287904F0E5FE2A68530905990A40214691409A00284B9A58A2
:205AA000284BD21813690B431361EB680693069F7C1E0694002F09D0069C671E0697002C8E
:205AC00004D0069C671E0697002CF0D114680C431460069306994A1E0692002993D006999F
:205AE0004A1E069200298ED006994A1E06920029F0D188E72868059901408C404009800023
:205B00000F490858019A815821438150E86806900698411E0691002809D00698411E069115
:205B2000002804D00698411E06910028F0D12846029902F067FFF0B207B0F0BDD1B4000000
:205B4000143D202090120000F0B587B057480078574E31780140C843564909684A424A415E
:205B60000243554F3868434243411343D80700D084E000242046884750480078012824D1A3
:205B80003A6853490020904752480078800052490B58524A01AD18262846314604F020FAC5
:205BA0003A680220294690474D4803784D4A2846314604F015FA3A68042029463C4E9047B6
:205BC0003A6849490620904757E03D480078072853D83C490978884201D0202300E03E23E1
:205BE000C0003949081840680090384A01AD1821284604F0F5F93A680020294690473048D2
:205C00000078401CC0B2072837D82E490978884201D0202300E03E23C0002B4908184068ED
:205C200000902A4A01AD1821284604F0D9F93A6802202946904722480078801CC0B207281C
:205C40001BD820490978884201D0202300E03E23C0001D490818406800901C4A01AD18217D
:205C6000284604F0BDF93A6804202946904714480078C01CC0B2072802D9347007B0F0BDCC
:205C800010490978884201D0202300E03E23C0000D490818406800900C4A01AD18212846F2
:205CA00004F09EF93A68062029468CE79C3B2020A13B2020583B2020903B2020A73B20207C
:205CC000983B2020A63B2020E8B3000073B9000056B800008F3D202040B700007DB9000082
:205CE0009F3B202052B90000D7B60000F0B587B0044601A900270F7021204870624D0226AC
:205D00002846324602F088FA02A90F704F702846324602F081FA03A90F707F2048702846FD
:205D2000324602F079FA04A90F70222048702846324602F071FA05A90F704F70284632464B
:205D400002F06AFA06A90F70072048702846324602F062FA284602F0CDFC287A4006010E8C
:205D6000284600F095F84021284600F091F82846214600F08DF82846214600F089F82846F2
:205D8000214600F085F82846214600F081F82846214600F07DF82846214600F079F8284613
:205DA000214600F075F82846214600F071F82846214600F06DF82846214600F069F8284633
:205DC000214600F065F82846214600F061F82846214600F05DF82846214600F059F8284653
:205DE000214600F055F82846214600F051F82846214600F04DF82846214600F049F8284673
:205E0000214600F045F82846214600F041F82846214600F03DF82846214600F039F8284692
:205E2000214600F035F82846214600F031F82846214600F02DF82846214600F029F82846B2
:205E4000214600F025F82846214600F021F82846214600F01DF82846214600F019F82846D2
:205E6000214600F015F81F263E432846214600F00FF820370548864200D278E7024802F053
:205E80009DFC07B0F0BDC0461C3B2020FF030000F0B587B001910646411E88416249A8220F
:205EA00003F076F98020009602E0800800D1B1E00199084201D05B4901E05A4910310290CE
:205EC00073681F225D091340012703979F40AB005648C3585D583D435D50F5686B0806939D
:205EE00006994F1E0697002909D006994F1E0697002904D006994F1E06970029F0D1316825
:205F00004E091140039F8F40B100484846584548311834583C4334500595059C651E0595CC
:205F2000002C09D0059C651E0595002C04D0059C651E0595002CF0D10C693C430C610493FB
:205F4000029804994B1E0493002909D004994B1E0493002904D004994B1E04930029F0D1E7
:205F60004408009E73685909890030484158019D2C4201D02B4D01E02A4D10351340039C7C
:205F80009C404B5923434B51F5686B08069306994C1E0694002909D006994C1E06940029A5
:205FA00004D006994C1E06940029F0D131680A40039F9740490989001C48425819481118C1
:205FC00014583C4314500595059A541E0594002A09D0059A541E0594002A04D0059A541E72
:205FE0000594002AF0D10A693A430A610493029804994A1E0492002900D156E704994A1EBA
:206000000492002900D150E704994A1E04920029EED14AE7304601F035FC0399484007B092
:20602000F0BDC04690120000D1B40000143D2020F0B587B0029055480078554E3178401ACC
:206040008006000F00D184E003A8801D0190514C09E0781C084030704C4800783178401A8C
:206060008006000F75D03078235C3078401C3F210840205C3278921C0A40A25C3578ED1CA1
:206080000D40655D3778012BE3D16B2DE1D13B1D0B40337040490A709F2ADDD0022A2DD12F
:2060A0003E4A1168491C116000223D490A703D490978814201D13B490A703B490978F3282D
:2060C00037D1012935D13A48039003A9394888800198C27082704270027002274F816B20D9
:2060E000087301200D2201F043FCFD202D4908700298314908603149086027E0304A116842
:20610000491C116026490978FF2906D04A1C244B1A70012901D8002100E00121214A127841
:20612000824202D100201F4A1070002994D005270CE0FD2805D1022903D11C48028004270F
:2061400004E0FD2888D1032986D104271648077082E714480178002916D017490968029AA0
:20616000511A0C2910D30021017015480168491C01600B490878FF2803D0421C0A700228AE
:2061800002D309480521017007B0F0BDA33B2020A53B2020803A2020993B2020543B2020C3
:2061A000513B20209E3B2020A83B2020523B202001FD00001E640000883B20207C3B202090
:2061C0006C3B2020FCB40124E407634002E0FCB40124E40708B41D03ED08D60D354356024F
:2061E0005F007F0D06D12C00344300D0AEE001B0FCBC7047A408254307242402FF34A7423B
:2062000005D10020190D090501B0FCBC7047002B03D50024A61BAC4125000B03DB08C20D7A
:20622000134342024800400D07D11C00144300D08CE00EBC1000F0BC704701246407234375
:2062400007242402FF34A04205D10020090D090501B0FCBC7047002903D50024A21A9C41E0
:206260002300C11B08D51C002B0025001400320026000024611A3800362925D502B4393912
:2062800049420C00203C03D22F008F40374301E03700A740002F01D040210E4302BC202906
:2062A0000BD500290ED04C42203420B4A5402C0020BC0D41CE40361904E000292E000D4120
:2062C00020390E4192196B411C0014433ED00024002B04D5012400218A1A99410B00401EE9
:2062E00052005B41FBD50121890215000D400CD0521800277B4101D3401C0BE00721C9019B
:2063000015000D4001D189008A43072109028A4352005B41801C19DD07210902FF31884246
:2063200009D30EBC0020C90F0902FF31C900C91D0905F0BC7047190B00050143E4072143A8
:206340001805120B104301B0FCBC70470021002001B0FCBC70477047F0B587B00393049270
:206360000690006801F082FE0746594903F038FC00281FD0574C564D3846214601F07BFEEC
:206380000746294603F02CFC002813D03846214601F071FE0746294603F022FC002809D008
:2063A0003846214601F067FE0746294603F018FC0028E1D10F9D0E9805904749384603F01D
:2063C000F4FB00281FD0454C434E3846214601F052FE0746314603F0E8FB002813D038464C
:2063E000214601F048FE0746314603F0DEFB002809D03846214601F03EFE0746314603F0A5
:20640000D4FB0028E1D106984760C46838460295294602F049FF214601F02DFE0646059C34
:20642000214603F0DDFB05460120C007019044403046214603F0B9FB002800D13446002DBE
:20644000059E00D126460D9805900C9800900698C6608168384601F009FE05462049029C79
:20646000204603F0BDFB002800D11E4C2846214602F0E6FF0546069887600398314602F028
:2064800013FF06460498394602F00EFF314601F0F2FD06460098294602F006FF314601F07B
:2064A000EAFD0546059F394603F09AFB0646019C7C402846214603F078FB002800D12C46B4
:2064C000002E00D1274606980761384607B0F0BD000034430000B4C3000034C30000B4438C
:2064E0006F12833A0AD7233CF0B587B01C4606900E9D0C9805900D9E0846114601F0B6FD72
:20650000074630460494214602F0CEFE064605980597394602F0C8FE314601F0A7FD0646E7
:2065200001200190C0072C46029044403046214603F03BFB07463046294603F051FB0028BB
:20654000039500D13546002F00D12C46474E059D2846304041210F06394603F038FB00288C
:206560002DD0049806403046394603F027FB002825D0109F2846214602F096FE002103F0F7
:206580002FFB411E8841069A117E00291ED0002819D00498294602F087FE002103F020FBA1
:2065A000069A002807D08120C105304603F00FFB069A002807D11069401C10610FE0069AED
:2065C000107E00282DD0002010762BE0002828D01069401C1061B84225D301991176C01B03
:2065E00004F08AF8224902F05FFE05460021059803F0F6FA002819D01E49284601F03BFD70
:2066000005462046294603F0EBFA0028039E0AD12846314603F0E4FA002800D12E46344641
:2066200001E000201061204607B0F0BD0F98294601F021FD0746002103F0B7FA064638461D
:20664000039D294603F0CCFA002800D13D46002E02D10298454000E0029D2046294603F08F
:20666000A4FA0028DFD12C46DDE7C046FFFFFF7FCCCCCC3CCDCC0C40F0B585B00C460546F0
:2066800000260846314603F087FA00282ED104942C6800272046394603F0A2FA411E884185
:2066A0000390049839462746049C03F07EFA002805D00021384603F093FA002816D13C4607
:2066C00000272046394603F070FA411E88410290049839462746049C03F082FA00280DD0FB
:2066E0000021384603F061FA002807D06E60AE60EE602E616E612C6005B0F0BD0021384699
:2067000003F065FA0121CE07002800D177407F20C1053846019103F063FA0028EBD00021B7
:20672000204603F054FA0028214601D121467140384601F09BFC07463F200106384603F00F
:2067400046FA0028D7D00096412006063846314603F03DFA8121C905002800D0314601D058
:20676000194E00E0174E384602F09EFD0746314603F036FA002800D13E46029800280199A2
:2067800000D10099EF680398002800D00F490846314602F089FD394601F06DFC07460C4995
:2067A00003F01EFA03900B4E3846314603F0FDF9002800D13E4603980028054800D1304630
:2067C000E86098E70000204200002043000080BF00A00C4600A00CC6F0B585B00393049284
:2067E0000446084603F082FD4D4902F05DFD4D4902F026FE6060A568294601F037FC7D2103
:20680000C90502F051FD294601F035FC0746A060256800262846314603F0BEF9002806D04C
:20682000201D066046608660C660066175E00A98019002952846394601F018FC05462669B1
:20684000314601F013FC00900398294602F02CFD07460498009902F027FD394601F00BFCFD
:20686000074630460396314601F005FC01460495284601F0FBFB616901F0FDFB014601988B
:2068800002F012FD394601F0F6FB0146E06801F0F2FB0646244903F0A3F90746234D3046AE
:2068A000294603F082F9002800D13546002F1E4900D129460191E160049820610398606165
:2068C0000026029D2846314603F08AF907462846314603F06AF9002800D01548002F124E2C
:2068E00001D07F20C005114FA16902F0DDFC019901F0C1FB0446314603F072F90546204617
:20690000394603F052F9002800D12746002D00D13E46304603F07AFD0646304605B0F0BDCE
:2069200000606A4700683F4700A00C4600A00CC6000080BFF0B585B0144601910490000358
