:2000000000802020C3A60000C74D0000C74D0000000000000000000000000000000000008F
:20002000000000000000000000000000C74D00000000000000000000C74D0000C74D000084
:20004000C74D000021950000ADA30000D99D0000C74D0000C74D0000C74D0000C74D0000C0
:2000600000000000C74D0000C74D00000000000000000000719D0000A59D0000659A000009
:200080004DA300007DA300001DA3000035A3000095A3000065A30000000000000000000078
:2000A000C74D0000C74D00000000000000000000C74D000000000000C74D0000C74D0000DC
:2000C00000B5E9B07D20C100159180001F9001202590F14F01E006F061FD0A2007F0E8FB50
:2000E0003868401C386003F067FB002800D145E1054600243C82801E062826D878440079CC
:2001000040008744032A0303CB98A7000AF0A2F9002822D100263046E04906F0F5FA02201B
:20012000DF4906F0F1FA1F9804F0A8FA304607F043FE0AF08FF900280FD106F07DFB0020A3
:20014000D84906F0E1FA1598A3E0FB2D00D1B9E0FA2D02D106F070FB10E1FD74FC81BC8075
:200160004D203C5464203C5266203C547C63BC63FC633C647C64BC64BC65FC6538465830D5
:2001800004818472BC66FC6638466830847204816520800038180AF023FA4E203C543C65C4
:2001A0000AF046FAF8620320C0013E1830460AF02CFAF96A304607F0CFFE3846BC3009F0DB
:2001C0000BFB38467C30214605F056FF38469830214605F051FF20460AF03CFA78670120B6
:2001E0000AF038FAB86709F05DFC0AF037F80AF013FA0246386800904F208000381829460C
:20020000234608F093FA0646204605F06FFA0020002E0CD0A44906F077FA284609F092FF6A
:200220000146022006F070FA0620A04900E0A04906F06AFAA2E006F0FFFA002420469749E8
:2002400006F062FA1F9804F019FA204607F0B4FD159830E0204605F049FA29AD2C729548D4
:200260002A90954829902046294606F04DFA6520800038180AF029FA09F054FC02460B46C8
:2002800028468E4909F020FD0320294606F03CFA8B4807F00DFB05F057F96FE00024204655
:2002A00005F024FA2046874906F02EFA0220864906F02AFA824807F0FBFA09F04FFE05F0DB
:2002C00043F95BE00AF0A8F901463A684F208000381808F005FE002800D109E2FF203E3078
:2002E000385CF8740125BD73BC80386860217C5262217C54B866FC6638466C308480847197
:200300006520800038180AF06BF94E203C543C653E46BC36304609F05FFA0AF07DF90AF0E3
:20032000D1F807460068299078682A90B8682B90F8682C9065482D9065482E9029A93046D8
:200340000AF0ABF838695449086278694862B869514FB86238467C30214605F08DFE384663
:200360009830214605F088FE20460AF073F9786728460AF06FF9B86709F094FB387C3C6859
:20038000B9698C4201D3002100E001210028259800D00846002806D106F04EFA4D484E490A
:2003A00009F066FE3C687D7C0A212046239109F099FB002D36D0002934D1239844430025A9
:2003C00028460AF047F92690284629460AF0CCF824900126284631460AF0C6F8229028468C
:2003E00009F0F8FD219030460AF034F92090304629460AF0B9F80546304631460AF0B4F8A3
:200400000746304609F0E6FD21990091209901AAA2C2214F049020462699249A229B09F08D
:20042000A1FB3C68204606F02DFB38682121C9007D18294607F028FD0AF0EEF802463B6862
:200440004F20840038192690294604F09FFB2194385D73217A5C904200D17DE07854002500
:20046000284605F043F92198385C401E052873D87844007940008744023831436F460020F7
:20048000094906F041F9FF203E30385C09F05AFE014602202FE0C04640382020EDB0000095
:2004A00070B00000C0B0000026B1000001AA0000CFB00000455445524F444F4D52B2000048
:2004C000DC050000B0B00000A0B00000CDCC4C3E000096426AB2000034B100000020EF4937
:2004E00006F012F90220EE4934E00020ED4906F00BF90220EC4906F007F90620EB4929E08E
:200500000020EB4926E0BD7338467C30294605F0B3FD38469830294605F0AEFD28460AF056
:2005200099F8786701200AF095F8B86709F0BAFA2846E04906F0E8F8052080013A5C29AD58
:200540002846DD4909F0C0FB0220294606F0DCF80620DA4906F0D8F83E46B436304606F00F
:2005600023FCB87B002805D0F87C1F2802D003F0D9FA01E002F028FD0AF05AF83863B52025
:20058000385C042809D3B420395C0F200840421E90410F2903D8002502E0002501E0012568
:2005A00005406220C64F2490385C00282ED06424385BC449884200D18DE5411C39531F991B
:2005C000CA3989B2884200D985E565208000381822900AF07AF8BC4908F08FFF002800D0DA
:2005E00079E52498385CC11E02296CD3022800D188E00128B24F00D0B2E0385B0C2800D27C
:20060000AEE0002D00D08DE003228CE0B87B002800D1C0E0F87C022802D0052800D0A2E096
:20062000002D4CD06125785DFF2804D0411C7955002800D194E06020395C002950D06520A0
:2006400080003C1820460AF040F8A04908F055FF002800D184E0229420460AF036F809F05F
:2006600061FA02460B4629A8994909F02DFB7020395C002906D1B96E002903D03968F9666A
:20068000012139540121209124983954642000243C5266203C547C55229809F0A1FF3846A1
:2006A0007C30214605F0E8FC38469830214605F0E3FC204609F0CEFF786720984BE061205E
:2006C000002139544CE0002D28D066217C4F785CFF2800D1FFE4421C7A54002840D0FAE4D8
:2006E0000121395265208000381809F079FF37E00024204604F0FAFF2046764906F004F8E2
:20070000022092E5002D6E4F2AD104202499785400253D5366203D5422980BE06620002196
:20072000674FCEE70222229824997A5400253D5366217D5409F054FF38467C30294605F0FE
:200740009BFC38469830294605F096FC284609F081FF7867012009F07DFFB86709F0A2F9B7
:20076000B87B002817D0269C204609F08BFE002804D0B888312801D8401CB880B87B002533
:20078000002809D0204609F07DFE002804D0B888312800D980E00025397C38687A696432BD
:2007A000904203D20022002903D103E00122002900D01546B96E4A1E9141002D00D12599FC
:2007C00070222292BA5C531E9A410029259B00D11346F97C002B07D1052905D801228A40EE
:2007E00034231A4200D0B86600202890269027902498385CC0B2424242412A40012A00D0E5
:2008000078E11F2900D175E1052900D972E10122104688403421084200D16BE11D92209555
:2008200009F012FF1E9009F009FF054609F012FE3C46074665208000201809F046FF27A991
:20084000039128A90291019000972046BC3031461E9A2B4601F0A8FE00266665CE20225C92
:20086000E027E05D431E01469941002A259A00D00A46002A65D109F0EDFD00285FD01048B7
:20088000D549416509F0DAFE0546002108F023FE002821D11D9922E001257DE726B200000A
:2008A00018B1000088B20000C1B1000001AA000062B200000AB100004AB2000042B100005A
:2008C00040382020FFFF00000000A0410080094422AF0000DEB000001D99C80745408907BB
:2008E000284608F0F8FD002829D11E96BA48294607F0B8F8FA4908F06DF90546F94908F089
:2009000005FE06462846F84C214608F0E4FD002800D12C46002EF34900D12146EC20F34A40
:200920001058289D08F056F90646294607F09FF828902798314607F095F827901E9EEB48E2
:20094000C05D0028209D6DD02899279AE74FB965FA65042800D0CDE0BE7338467C303146A8
:2009600005F08AFB38469830314605F085FB1E96304609F06FFE78670120269009F06AFE24
:20098000B86709F08FF87C6BBB6BF96B3E6C1A195218921930D02398424344432294434352
:2009A0004143464344257D5B249546257C5B219448257C5B20944A257C5B1D94C6257C5B88
:2009C0001C94CA27C94CE75BCC25655B45430897C64F0995009301910296249803902198CF
:2009E0000490209805901D9806901C98079029A8BF49229B09F068F95020395A5325785D40
:200A0000421E90410029259900D0014600291E9C03D106F001FE26987855FC7409F09EFA6F
:200A2000FFF75BFBB148806D00271B90394608F052FD054628981C90394608F067FD8121B8
:200A4000CC050028AB4E00D12646002D00D12646A648C06D1D90394608F03DFD054627987A
:200A60001E90394608F052FD0028A24800D12046002D00D120461A901B9D2846314606F018
:200A8000F6FF04461C9E3046214608F03FFD07462846994906F0EBFF05463046294608F0A7
:200AA0001AFD002800D13546002F1E9E1A9900D12C468E4884651D9F384606F0D8FF0546B9
:200AC0003046294608F022FD1C9038468A4906F0CEFF07463046394608F0FDFC002800D12E
:200AE00037461C98002800D13D46804FFD6528942795209DF87CC1B2081F424242412A4064
:200B0000012A0BD165208000381809F0DEFD7B4908F0F3FC002817D1F97C06E0002D269AA2
:200B200013461446104600D1A5E0052901D0022957D1E020385C401EC1B2042920D2C006BA
:200B4000010E6F48C8401FE00022BA7371200121395472203A5428922792229D785D0028EA
:200B60000AD1B86E002813461446104600D182E03868F866795500221346144610467AE0BF
:200B8000CE20385C411E88414D217A5C4C23002AC2B202D0FC5CA2420CD054003C1944255E
:200BA000655B584EB54202D044346D1C2580F854012078547A44127952009744010F050993
:200BC000786B401C78630CE0F86B401CF86308E0386C401C386404E077120642B86B401C3D
:200BE000B863F87C1F2842D10320C0013C18F96A204607F0B1F9396B4120000600250095A5
:200C0000414A01920290414803902046404A2B4605F0A2F82290612080003E58FF7B012034
:200C20002090C0072690864330463A4908F065FC41424141002F259800D10846002825D03F
:200C4000002F0CD07F20C105304608F044FC002805D0264EF573204609F0D7FCF77BF8B24F
:200C60000028229900D10146204F269813E0279C289AF8690123397C002900D004462294A1
:200C8000209300D002462692234E08E0174F2098F873269822992291484026901F4E3D4695
:200CA0007C352846314609F011FB3C4698342046314609F00BFB2498385C042839D8800062
:200CC00002A108582699229E8746C046370D00002D0D0000210D0000210D0000270D0000B1
:200CE000CDCC4C3E0000C0400000C0C040382020C5AB000000004041000020C1000016436E
:200D000002020303FFFF0000000090410AD7233CCDCC4C3F0000204000007A44000016441E
:200D20007E4E314607E07E4E314604E07D4E314601E000210E462846269105F09DF92046B4
:200D40002296314605F098F93878C00700D00BE200201C9009F07EFC07460120249009F050
:200D600079FC7149496F704A926FCE1B821A1D926D494F676C4FB86765208000381831468B
:200D800007F032FB3A6A7B6AB86A00902846314605F022FA1E903A6A7B6AB86A00902046AF
:200DA0001D9905F019FA064684201B9038585F4908407F21CD05294608F08DFB04465C480B
:200DC0001D96301880B25B49884201D31C982490A026B85955490840294608F07CFB411E42
:200DE000884124990840397C002C259A00D102464F4B1E9DEB189BB24E4CA34200D302462D
:200E000000290FD0002A0DD0B87C322803D2411CB974312808D105F00FFD4748474909F08B
:200E200027F9A1E10020B8741D98404201B20024204609F0BBF801201690294609F0B6F8C7
:200E4000387C002851D01C943C68239844431B9838581A902496B859199000262698314643
:200E600008F030FB474247412298314608F02AFB4142414139432C4DB420285C1890B8221C
:200E8000A85E1790E023EB5C5B1EDEB2042E04D2DB061E0E2A4BF34003E0CE23EB5C5E1EFE
:200EA000B3416E6B2048876BC56B006C239A564357435543504308971B4F09950A90D8B289
:200EC000199A00921E9D01951D9B0293039118990491179905910690079620462699229AFB
:200EE0001A9B06F05FF8249E1C9CF87C052802D0022800D038E14E20395C491CCAB239547F
:200F0000052A00D230E13C545021785AC2084B2A18D352201699395426E1C046000090C1B6
:200F200000004041000020C240382020FFFFFF7FB4E2000069C500006AB20000FCB000008E
:200F4000020203032496421C7A5218254543386823994143E14841512698E14907F03AFE2C
:200F600004460021199108F0C8FABF21090618913F21090600281C9100D11899204606F0E8
:200F800076FD0646D74908F0C1FA2390C72004063046214608F09FFA00281A9400D134468C
:200FA000204608F0C9FE23990029CA4900D10146CA484019239081802298C94907F00AFE12
:200FC0000446199908F099FA00281C9900D11899204606F04CFD0646C24908F097FA04465C
:200FE00030461A9D294608F076FA002800D13546284608F0A1FE002CB64900D10146239876
:20100000C1801B983858B64907F0E4FD0446199908F073FA00281C9900D11899204606F059
:2010200026FD0646AF4908F071FA044630461A9D294608F050FA002800D13546284608F0E4
:201040007BFE002CA34900D101462398018124983858A34907F0BEFD0446199908F04DFA85
:2010600000281C9900D11899204606F000FD06469C4908F04BFA044630461A9D294608F06C
:201080002AFA002800D13546284608F055FE002C904900D10146239A51811E9890811D98D7
:2010A000D081B820385A108209F0C8FA8C4907F091FD0446199908F020FA00281C9900D112
:2010C0001899204606F0D3FC0646864908F01EFA044630461A9D294608F0FDF9002800D13C
:2010E0003546284608F028FE002C7A4900D1014623984182786D7A4907F06CFD0446199960
:2011000008F0FBF9002801D118981C9020461C9906F0ADFC0646734908F0F8F90446304622
:201120001A9D294608F0D7F9002800D13546284608F002FE002C674900D10146239A918223
:20114000B420385C9075E020385C401EC1B2042904D2C006010E5E48C84003E0CE20385CD2
:20116000411E88412399C8757120385C00280BD07221785CFF2803D0421C7A54092803D392
:2011800005F00CFDFEF7A9FF3889401C81B2132900D900203881F888401C81B2F880322994
:2011A00004D30020F880302008F094FE7889401C81B27881322908D309F034FA002804D103
:2011C00000207881209802F021F9B889401C81B2B881C82901D2FEF780FF0020B8812198DF
:2011E000385C1E9005208001385C2490B420385C2390B820385E2190FF202030385C1D90D5
:2012000009204001385C1C9011200001385C1B9043208000385E1A9087204000385E19906A
:20122000269808F089FD2690229808F085FD2290842038582C4C214607F0CCFC08F07CFD93
:201240001890A0203858214607F0C4FC08F074FD1790386B08F066FC04460E4665208000C8
:20126000381809F032FA08F05DFC49229200BA582523DB00FB5813273F01174DEF590E945B
:201280000F9610901191129213931497124F1E9B08932698099022980A9018980B90179818
:2012A0000C902498009023980190219802901D9803901C9804901B9805901A9806901998DE
:2012C000079029A80949209A08F0FEFCFEF705FF02020303FF7F000040382020000020202F
:2012E0000000204100FEFF460000C84210AB0000F0B5FFB08EB004930692064692980290BC
:201300000025E84305908C913468204609F06FF921188B9503918C4200D3C2E00020879001
:2013200087A908738890059889902F46049D2078002800D1B8E0252805D0641C3460069920
:20134000A8477F1CF3E78B97601C306087AC2046314600F0C1F88CAA2046314600F0DDF86A
:20136000306801787A2925D0682919D06A2908D06C290ED0742908D04C2922D187998022CD
:201380001BE087990122D20217E087990122520313E0427887996C2A6AD10122120205E0F2
:2013A00042788799682A66D10122520211438791801C05E08799012212030A438792401C0C
:2013C0000178441C346087A80173732913D06E291DD1879836490840411E02464A408A4216
:2013E0003DD900282DD04142014032484143C80E31A1085C26E087A80078400619D400956F
:2014000087A88CAA8BAB069900F046F92BE007AD87A98CAA284600F095F9024628460699FD
:20142000029B9847411C059D00D0C5198B9503991BE0009587A88CAA8BAB069900F0C9F84C
:2014400011E02020401F082809D8C0467844007940008744210404151C04150404008C9806
:2014600002C88C900F6003998B9D681C1BD052E7401C402201E0401C2022114387919FE77C
:20148000F8178C9904C98C9117605060EBE78C9802C88C900F70E6E78C9802C88C900F8046
:2014A000E1E72F4600E0059F38467FB00EB0F0BD603F000031B57C0700011C021D0E1803E6
:2014C0001E16140F191104081F1B0D17151310071A0C12060B050A0910B50A680124E3073B
:2014E0001AD01378302B0CD0232B0ED02B2B0AD02D2B04D00024202BF1D1042306E0012356
:2015000004E0102302E0022300E0082304681C430460521C0A60E1E710BDFEB516460D46A4
:201520000446086802782A2A10D13068011D316000686060002805D54042606020680121E5
:20154000014321602868471C2F6017E00021303A092A08D84218531C2B60435C6F467B5438
:201560005278491CF3E76A460023535412784718002A03D0684608F00FFA606038782E288D
:2015800026D1781C286079782A2908D13068011D31600068A0602868401C2860FEBD00201D
:2015A0003039092908D839188A1C2A604A786B461A548978401CF3E76A4600211154107859
:2015C000002804D0684608F0E7F9A060FEBDA160FEBDF0B587B01E460C9F13681C1D1460FF
:2015E0001D68002D3AD0049106908468002C04D4284608F0B1FF844203D3284608F0ACFF51
:20160000044606984068A042039000DC2046014630680191401805940399A142029630607A
:201620000EDD06980078C0070AD1059801990E1A0024B44204DA20200499B847641CF8E775
:201640000026049C069805998E420ADA2868010A18D12D1D2146B847761CF3E70020B84715
:2016600018E00599039A8A4214DD0078C00711D00198451A0024AC420CDA20200499B8478E
:20168000641CF8E70020C0430299086009F00CF85821016007B0F0BDF0B585B00C46064612
:2016A0000A9D1068011D116000680490002844D00393B768002F04D4049808F098FF874294
:2016C00003D3049808F093FF074602967268BA42114600DC3946039B186800914018019207
:2016E000BA4218600FDD02980078C0070BD10098C01B039000260398864204DA20202146C1
:20170000A847761CF7E70026BE4205DA0498805D2146A847761CF7E70198B84210DD02980C
:201720000078C0070CD00098C61B0027B74207DA20202146A8477F1CF8E700202146A8478E
:2017400005B0F0BDF0B58BB004920D460446FF210846FA302718686805900026099606917C
:20176000FE3120222046029208F0BEFD7F20800021180A9103973E71287B0246613A172A48
:2017800008952BD8012393402546C34C23422C4609D009A90AAA089D2846049B00F082F905
:2017A00000260796B9E0712423422C46089D22D1022A13D1049B1868021D1A600068C2B225
:2017C000534253410793069AFC32A2180A920870286802218843286000269EE0014645393B
:2017E000032908D3252800D180E0412803D058280796CED092E00194049A1068C01D07214B
:201800008843014608311160076846682D7B2C467B3C384631463A46334608F02BFB0028EA
:2018200000D021E10120C007314681439B48484038431FD0F60F002007902846413806280D
:201840003FD9613D062D019C00D922E1A80002A21058089D8746C046D91800001B190000D5
:201860001B1900001B1900001119000005190000F91800000022384631460792134607F0A7
:20188000FCFD1921CA436921049149216E254E2366274626944200D33E46039AD670019CD5
:2018A00000D32B46937000D3049951703F21C90061180A910028089D14D02D2010700426CB
:2018C0002BE0019C089DC0467844007940008744032424241F1913000AAB38462A4603F025
:2018E00073FA1AE02B201070032616E00020607025202070012086E00AAB38462A4603F0B5
:2019000069FB0AE00AAB38462A4607F061FE04E00AAB38462A4605F0C7FA287B0125014633
:201920006F39092904D801228A405D490A4201D158286AD1059B0595E5180A98089909788A
:20194000C907274609D10399091D091A089A52689142274601DC691A4F1C411C06984300E6
:2019600000263846324608F0CAFB0A900799002903D0411C0A91067000E00146A94206D8FA
:20198000481E691A491C202208F0AEFC2E70089D2878C00605D4391B2022204608F0A4FCFF
:2019A0002CE0A7422AD0391B30262046324608F09BFC09984142414105980140012905D19D
:2019C0002878400702D43846214604E03878611C2070781C3E702A7B412A0CD0582A05D03F
:2019E000612A08D0782A01D0702A07D12B781B0701D4612A02D142784A704670204608F01F
:201A0000F6FD079940180BB0F0BD002E09D0012E059B90D10120099008980168022008400F
:201A200007E0099A0898016802200840002A08D0059B0A994A1E0A922D220A70454245418A
:201A400079E70028059B08D1480700D473E70A98411E0A91029901706DE70A98411E0A9170
:201A60002B210170002566E71920C543612241216E234E20AC4200D31846039BD87000D33A
:201A80001146039A91700A925070002007900226019C089D41E7C04608C190000000F07FDE
:201AA00043020000F8B514460F4605468068002804D4286810218843286001E00120A86034
:201AC000287B1026582808D0782806D0702804D06F2801D1082600E00A262846194600F08F
:201AE00055F8AA68002A09D102460A4306D12878000749D52B7B0020024612E02B7B642B1D
:201B000003D16423002905D40AE0692B08D1002906D5692301223A60002240428A4100E075
:201B20000A4600941146324600F0CEF8A968884206DA401C21684A1E226030220A70F5E70A
:201B4000287B582803D0782801D070280FD1297809070CD5702800D1782021684A1E2260A0
:201B600008702068411E216030210170287B6F280AD12878000707D520684178302903D0BE
:201B8000411E216030210170F8BDC04610B5037B702B05D10868021D0A60006800227BE056
:201BA00002683E481040421E04465440944216D9002807D04242024039485043C00E39A260
:201BC000105C00E02020401F082808D878440079400087444C04041E38041E0404000022D4
:201BE0001846643814280DD801248440354804420AD12120044205D00868021D0A60006886
:201C0000C21749E0582B46D10868031D0B60006842E018466438142807D801228240294838
:201C2000024206D12120024203D10020582B024632D10868C21D0720824310460830086011
:201C40001068526828E0002218466438142807D8012484401B48044204D121200442CBD189
:201C6000582B18D10868031D0B60007814E0002218466438142807D80124844011480442D2
:201C800004D121200442B7D1582B04D10868031D0B60008800E01046114610BD603F00008C
:201CA00031B57C0700011C021D0E18031E16140F191104081F1B0D17151310071A0C1206EE
:201CC0000B050A0900081200FEB501920D460646582B01D0174800E0154800900898029030
:201CE0003046284305D1029A1068411E116030210170019C3046284313D0304629462246D9
:201D000000F01AF807460D46224608F0D5F9301A0099085C029B19684A1E1A6008703E46B0
:201D2000E8E70298006808F062FC401EFEBDC0461EB000002FB0000080B5102A06D0082A39
:201D400009D1C0084A078018C90880BD00090A078018090980BD002904D1114607F0C2FEDD
:201D6000002180BD002308F0B7FB80BDF0B58BB0002800D1F3E115460F4606460993002492
:201D800000292346224611D00420385E07F044FF484906F01FFF0A95254604460620385EBF
:201DA00007F03AFF23462C460A9D0246307802280A962AD0012800D06DE17778012F48D13E
:201DC000002D00D1D5E03C4D2B40412001061846174607F089FB002800D1CAE03A462A4031
:201DE0003649104607F080FB002800D1C1E0F068401CF060232800D24DE102200A99487036
:201E00000024099848608860E6E07678012E6BD1002D00D1C2E00A99C868401CC86005282A
:201E200000D238E116460A9D0998A860224C23402349184607F061FB002800D0D0E03046FF
:201E40002040204907F059FB002800D0C8E00220C7E0002D00D18FE0089275680024746128
:201E600001200590C107079306918B431649184607F043FB002800D09DE0B81E08280999D6
:201E800000D908E14F1B800001A10858079A8746CD1E000063210000252200005B220000F3
:201EA00091220000A1210000D7210000972000007D230000CDCCCC3DFFFFFF7F0000A0415F
:201EC000000010410000F0410000D242192F00D2E9E203200A994870099848600020C86078
:201EE00008610883E94CD6E00121002D5AD008920691CF070024184621461D4607F0EBFA5B
:201F00000028079500D07D40FD49284607F0F5FA00285AD1092E6CD0022E00D0BBE0F94933
:201F2000284607F0EAFA002800D085E0089CBC43F549204607F0E1FA00287DD10A9E31464D
:201F40001931707E079DBD43002800D1FAE10F46EC49284607F0D1FA002806D1EB4920467E
:201F600007F0CBFA002800D100E200203870E84F74E00024F4608EE07069632805D8411CF3
:201F80000A9A5161632800D085E001200A9988760B2048700998486000241DE000240A9856
:201FA000C46078E00A984170099941600024C460046104836FE00220B0760B207070099898
:201FC0007060F4603461348365E002200A9988760B20487009984860CC600C610C835AE0FB
:201FE00009206870099868600024EC602C612C8351E041200106284607F076FA002825D040
:20200000089CBC43C149204607F06EFA00281DD00A9EF068401CF06028281AD3022070704E
:20202000099870600020F06030613083304619300990079DBD4386E109200A9E70700998C6
:2020400070600020F0603061307602E000200A9EF06000207076079DBD43AE4F4120010600
:20206000284607F04AFA002801D0AB4800E0AB4801D0AB4900E0AB491422069B9B07009155
:20208000019002970393049200213046079A089B03F02AFF0446A44D2046294607F01BFAD7
:2020A00007468120C6052046314607F02FFA002800D12646002F2C4600D134460A98046211
:2020C0002046294607F007FA002800D1254600272846394607F0FFF90121CC072E4600283B
:2020E00000D066409149304607F0F5F9002834D17F20C105304607F0F7F900280ED17F4977
:20210000304607F0F1F900280DD18949304605F0AEFC884906F05EFD87490CE08749304657
:2021200006F058FD09E08649304605F0A0FC814906F050FD814905F09AFC3F21090605F0CF
:2021400096FC06460021284607F0E0F9002800D16640304607F0F0FD07460A9887830BB095
:20216000F0BD664C0F2F96D33F200106104607F0C4F90646401E8641EC49089807F0BDF9F6
:202180000546401E85413540E649089807F0B5F9411E88412843402F00D9A0E100219FE1EA
:2021A000E949104607F0A0F9089C06998C43002800D18FE0E549204607F096F9002800D17A
:2021C00088E008200A994870099848600020C86008610883D1E0DB49104605F048FCD84C07
:2021E0002040CF4907F080F9002800D1C2E008980440CA49204607F077F9002800D1B9E006
:202200000A99C868401CC8601428079A00D2B5E00A200A994870099848600020C8600861A4
:202220000883ABE0D549104607F067F9002800D1FEE0142F00D2FBE00124E107089888437E
:20224000B84907F051F9411E88411B2F0A9900D80024204300D0EEE04FE1C349104614463E
:2022600005F005FC0121C9078843C04907F03CF900280A9900D1E7E00620487009984860EC
:202280000020C860086108832DE0C046000040401E2F0A9D27D3A149104607F025F90446E2
:2022A000AB49089807F020F92043411E88417C2F059900D800210843012814D10720687055
:2022C000099868600020E860286128830120C007089C84439F49204607F00FF9002800D061
:2022E000EEE09E4AEDE0A249089807F00FF9002801D1A14CCFE69F4CCDE6C0460000404011
:202300000000D242000010410000F04100004041CDCC4C409A9979406F12033D295C0F3D03
:20232000EC51383D0AD7233D000080C0CDCCCC3C000040C000002042000020430000A04222
:20234000000080BF099141200106284607F0CCF8754F002800D181E67449204607F0C4F819
:20236000002800D17AE606980999087000243476346190E600200A99C860079A7A481146CE
:2023800005F070FB04460A98407E06998C43002815D07F49089807F0B0F800280A9D0BD106
:2023A0007C49089807F0A0F8002805D16F49204607F0A3F8002817D0002068761CE05749D2
:2023C000089807F091F800280A9D15D07249089807F093F800280FD05149204607F084F8D2
:2023E000002809D0059868766C49089807F07CF800280AD16B4C4EE641200106204607F0EE
:202400007CF8002803D14C4802E0654C43E64B48089B01D1464900E046490C220492504A98
:202420000392504A00AC07C44F492846079A2FE61C2F0A9961D305204870099848600020D2
:20244000C86008610883079C4E49204607F043F8002808D003208107089807F045F80028E7
:2024600001D0404C17E64849089807F046F8414C002800D00FE64549079807F03EF80028A0
:2024800006D03A49089807F038F8002800D002E60120C107089888432E4907F02EF800282C
:2024A0002DD12E4B2CE00C2004902D4803902D4802902A4801902148009000210A98E6E540
:2024C000254A0A98089B0C21049125490391254902911A49009101922349079AD8E5012110
:2024E0000843012800D0D6E504200A994870099848600020C86008610883214CCBE5164B5B
:202500000A98079A0C21049115490391154902910A49009101930B49B9E5C04600004041E2
:20252000000010410000F041CDCC4C400000A040295C0F3D6F12033D0AD7233DEC51383D8F
:20254000FFFFFF7F00004842000020C2000070420000C8C20000BE42A69BC43CBC74933C17
:202560006666264000004040000048C2000020410000A041000040C0CDCCCCBF00002842CF
:20258000CDCC0CC0000020420000B4420000184200007041000096C2000070C20000F0C138
:2025A0009A99993ECDCC4CBEF0B58BB00D4607467648398B814201D0491C3983139A12995F
:2025C00009913C462434A97800291ED0119E0021F9713972AB8804937B802B78802B0793BD
:2025E000089201D0012B39D1397BFF2908D0002904D1FA89824201D0501CF881491C39737A
:20260000388A88422BD2398229E0FE79FF2E00D18BE008921099002E04D17A89824201D0AF
:20262000501C7881751CFD71002900D1FBE10120C00783435649184606F068FF002800D15F
:20264000F1E1022E089A00D9EEE10320207000250998056015600520387205E239730595DF
:202660000A97607806904B49304606F046FF00281FD0494D474F3046294605F0F8F90646AC
:20268000394606F03AFF002813D03046294605F0EEF90646394606F030FF002809D0304659
:2026A000294605F0E4F90646394606F026FF0028E1D100273046394606F00DFF00281ED0E5
:2026C000FA4D3046294605F0D2F90646002106F002FF002813D03046294605F0C8F90646B8
:2026E000002106F0F8FE002809D03046294605F0BEF90646002106F0EEFE0028E1D1EC49DD
:20270000304606F0E8FE002812D1EA49304606F0E2FE002801D001270AE0E749304606F036
:20272000DAFE002803D1032702E035467CE10227069B9F42079A1CD16770032010403F2AF5
:202740000AD8002808D00A9F3879FF2801D0401C3871002078712EE0402A0A9F29D30028F2
:2027600027D17879FF2801D0401C78710020387121E0B80001A108588746C0469D27000018
:20278000F5290000C1290000DB290000FFFF000000004842CD8C1944CD8C19C4032BCBD1EF
:2027A000C649304606F0B2FE079A0028C4D00327C2E70020B8802078411E012910D8D10686
:2027C000890F00D1EAE0B979491CCAB2B971052A00D2E5E000202070B871049A3A8002E0B0
:2027E00000202070049A3888101A03B211B2C9134A40541A0693D9134840401A00B207F045
:202800000BFAB24906F0E6F907F096FA20187C6B05B2284607F000FAAD4906F0DBF9214600
:2028200005F025F904465A2D06DBBF6B2046394606F06CFE002800D127460A98817C0491CA
:20284000002906D0866B3846314606F05FFE002800D13E460A98C76B3046394606F03BFECB
:20286000002800D137460A98846A3846214606F032FE0646012003908107204605F0F7F875
:202880000446394606F042FE0028384600D12046002E00D107460A9EB762306C0290059884
:2028A0008088079000B207F0B7F90546746C069807F0B2F901462046019106F08BF90446B2
:2028C00002980595294606F085F9214605F0CFF80446B56C294606F019FE06900398C607D9
:2028E0006E402046314606F0F6FD002800D126460698002800D13546049800283ED075495D
:202900000A9881627449019806F064F904467349059806F05FF9214605F0A9F807464120ED
:2029200005063846294606F0F1FD0446C12006063846314606F0CFFD002800D13E46002C24
:2029400000D135460A9F386B654906F043F9294605F08DF806465F4905F089F809990860A2
:20296000B86A314605F07EF808990860079838803046314605F07BF8054675E000210A9C37
:202980002163284606F0B9FD002840D12846394605F06DF809990860A06A3EE00021B9719C
:2029A0000128504950480A4600D00246034600D00B4609990A6008990B60B8624B4D53E0EE
:2029C000012B00D0B8E63F49304606F084FD079A002800D1B0E60127AEE6022B00D0ABE66E
:2029E0003749304606F077FD079A002800D1A3E60227A1E6002B00D09EE63349304606F03D
:202A00006AFD079A002800D196E6002794E609980760A06A294605F025F82746089908608F
:202A20000798208020E0089A387A002808D0401E387203202070002509980560156013E0B5
:202A4000052D14D81346002020700220385E00282B4A2C48114600D4014600D410461A468A
:202A6000099B196010600025FD620BB0F0BD232D0AD81346032020700220385E00281E4A57
:202A80001E481146E8D5E8E7412D0AD81346032020700220385E0028154A16481146DBD5ED
:202AA000DBE70420207000210846D9E7CD8C194400001643CD8C9943CD8CE443CD4C184438
:202AC000CD0CE743CD0C9C4300001B43CDCCCC3DEC5138BE0000B442CDCC4C3D0AD7233DAF
:202AE000E17A9641000040C100004842000078420000A0C100000C420000A04100005C4231
:202B00000000344200007042F0B583B015460E460446411E8841FD49B02205F0CFFF002E8B
:202B200006D021780520014205D0042003B0F0BD032003B0F0BD0296A71C0422114321707C
:202B40003A7B7B7B1B029A18BB7B1B042E46FD7B2D06EB189A18964200D930E23546387CE0
:202B6000797C09020818B97C0904FA7C12065118091838797A7912021018BA791204FB793E
:202B80001B069A1810180E1A6178B5423AD9022900D1D9E001296FD0002900D0FBE139788B
:202BA0007A7812025118BA781204FB781B069A18511808180299324607F07AFD387979796B
:202BC00009020818B9790904FA7912065118081801968119387C7A7C12021018BA7C120414
:202BE000FB7C1B069A1812185342914200D28FE1881A59188A4200D98BE1801A811A5018F6
:202C0000F3D386E1022900D1D1E0012969D0002900D0C0E1A178E27812025118227912043C
:202C200063791B069A185118081802992A4607F03FFD3879797909020818B9790904FA799E
:202C40001206511808184119387C7A7C12021018BA7C1204FB7C1B069A181218534291426B
:202C600000D290E1881A59188A4200D98CE1801A811A5018F3D387E1A178E2781202511831
:202C80002279120463791B069A1851184000081872000299009207F00BFD387979790902BF
:202CA0000818B9790904FA7912065118081801968119387C7A7C12021018BA7C1204FB7CC7
:202CC0001B069A1812185342914200D2A2E0881A59188A4200D99EE0801A811A5018F3D3A2
:202CE00099E0A178E278120251182279120463791B069A185118400008186A00029907F046
:202D0000D7FC3879797909020818B9790904FA791206511808184119387C7A7C120210187F
:202D2000BA7C1204FB7C1B069A1812185342914200D228E1881A59188A4200D924E1801A39
:202D4000811A5018F3D31FE1A178E278120251182279120463791B069A1851188000081851
:202D6000B2000299009207F0A3FC3879797909020818B9790904FA79120651180818019626
:202D80008119387C7A7C12021018BA7C1204FB7C1B069A181218534291427AD3881A59182B
:202DA0008A4277D8801A811A5018F5D372E0A178E278120251182279120463791B069A18F1
:202DC000511880000818AA00029907F071FC3879797909020818B9790904FA791206511840
:202DE00008184119387C7A7C12021018BA7C1204FB7C1B069A1812185342914200D2C2E0D7
:202E0000881A59188A4200D9BEE0801A811A5018F3D3B9E008463871010EF971010CB971B9
:202E2000010A797139787A7812025118BA781204FB781B069A185118400008180299009AF1
:202E40008918019AAE1A720007F032FC3879797909020818B9790904FA79120651180818B6
:202E60008119387C7A7C12021018BA7C1204FB7C1B069A1812185342914200D283E0881AD3
:202E800059188A4200D97FE0801A811A5018F3D37AE008463871010EF971010CB971010A4E
:202EA000797139787A7812025118BA781204FB781B069A185118800008180299009A89189B
:202EC000019AAE1AB20007F0F3FB3879797909020818B9790904FA7912065118081881193D
:202EE000387C7A7C12021018BA7C1204FB7C1B069A1812185342914245D3881A59188A42CD
:202F000042D8801A811A5018F5D33DE077AE000008463871010EF971010CB971010A797154
:202F200039787A7812025118BA781204FB781B069A1851180818019A02998918AE1A324643
:202F400007F0B6FB3879797909020818B9790904FA791206511808188119387C7A7C120250
:202F60001018BA7C1204FB7C1B069A1812185342914208D3881A59188A4205D8801A811A35
:202F80005018F5D300E008463871010EF971010CB971000A7871387B797B09020818B97B81
:202FA0000904FA7B120651180818401B3873010CB973010EF973000A787321780020FB2269
:202FC0000A40227003B0F0BDF0B591B0E4480078012800D0B0E1E34880690321C902405806
:202FE000E1490A78002A1DD0E0490A68002A1DD0841A0860DE480460204607F013F8064618
:20300000DC4905F0B3FE0546DB48844200D83546DA4928460C9106F05EFA00280ED0D84CB8
:20302000D84814E001220A70D04984E10860D04800210160D848016011B0F0BDD2492846E7
:2030400006F064FA002800D178E1D04CD048D24908600894D2483B210DAE0E23324603F0AA
:2030600011FA0D9800027178401800B206F0D4FD7121CF05394605F0ADFD0B90B07800029B
:20308000F178401800B206F0C7FD394605F0A2FD09900E9800027179401800B206F0BCFD0C
:2030A000394605F097FD0A900F980002717A401800B206F0B1FDBB4D294605F057FE044621
:2030C000B07A0002F17A401800B206F0A5FD294605F04CFE074610980002717B401800B21C
:2030E00006F09AFD294605F041FE0546AE4801682046049104F0B6FC0446AC480460AC48BF
:2031000001683846059104F0ADFC0746A9480760A94801682846069104F0A4FC0646A748C2
:203120000660A74800680790A64801680297384605F050FD054601942046079905F04AFD69
:20314000294604F094FC04469F4801680396304605F040FD214604F08AFC05460120C1078C
:20316000284688437D21C90506F0B5F900260028344600D12C462046804906F0C7F90746C9
:20318000924D2046294606F0A6F9002800D12546002F00D10C958E480C9F07608D480468B8
:2031A0002046314606F08EF905462046394604F05EFC3F210906079105F00CFD002D00D134
:2031C00007460898394605F005FD0C99814A1160814905F0FFFC0446804E314606F096F9DD
:2031E00007467F4D2046294606F075F9002800D12546002F00D12E467A4C2068314604F0EC
:2032000036FC05462060784F3868314604F02FFC38607649284606F079F9002820D0744EAD
:20322000724F2846314604F022FC0546394606F06DF9002813D02846314604F018FC05466D
:20324000394606F063F9002809D02846314604F00EFC0546394606F059F90028E1D1256048
:203260006449284606F037F9002820D0624E614F2846314604F0FBFB0546394606F02BF9E2
:20328000002813D02846314604F0F1FB0546394606F021F9002809D02846314604F0E7FBC8
:2032A0000546394606F017F90028E1D125600998014605F08FFC04460B98014605F08AFCC8
:2032C000214604F0D4FB04460A98014605F082FC214604F0CCFB494904F0C9FB484C2040BE
:2032E00048490D78484906F0F6F8002824D0002D22D00C982040079906F0EDF800281BD076
:20330000244C0198214605F065FC049904F0AFFB254908600298214605F05CFC059904F0F6
:20332000A6FB234908600398214605F053FC069904F09DFB2049086011B0F0BD154928469C
:2033400005F048FC144908601449284605F042FC0446002106F0C8F80028EDD179E6C04605
:20336000763D202094AF0000783D2020403D2020543D20200000A042400D03000000FA4325
:203380000BD7233C0000204100504347CDCC4C3D000048426F12833A443D2020BD37863557
:2033A000243B2020333383412C3D2020483D2020303D20204C3D2020343D2020503D2020E2
:2033C000583D20205C3D2020603D20200000FAC3283D20203C3D20201904963F0000A04075
:2033E0000000A0C0683D20206C3D2020000034430000B4C3000034C30000B443000080BF84
:20340000FFFFFF7F753D20209A99993EF0B58FB00646D54FF87C062801D3002200E0012245
:20342000831E591E8B41441F611E8C417021795C234200D0DDE0002900D1DAE00126B86EA0
:20344000F96E081A06F0EEFDC94905F0C3FBC94905F08CFC06F066FB02460B46C64908ADFA
:20346000284606F031FC0020039002F03FF9287804900224CE4D07E0284604F035FE0324C6
:203480000798C00700D16DE107960EA9039F0F702120487002262846324604F0B9FB0EA9CC
:2034A0000F704F702846324604F0B2FB0EA90F707F2048702846324604F0AAFB0EA90F7005
:2034C000222048702846324604F0A2FB0EA90F704C702846324604F09BFB0EA90F704C7027
:2034E0002846324604F094FB284604F099FD287A4006010E284602F0CBF9402128460691EA
:2035000002F0C6F90498002857D00024049805942E4601467F39C9B2A129059D01D3203830
:20352000054660080627394606F0DCFAE8B27843A04A1018405C0799C90716D001210140A4
:203540004A008307DB0F9D00AA18DB00D2184307DB0F1D0152195B01D218C308C000069D58
:2035600028401018DA01024315E0C106C90F4A008306DB0F9D005219DB00D2184306DB0F4A
:203580001D0152195B01D2184308069D2B40D318802202401A430A43D1B23546304602F024
:2035A00077F9671C0C21384606F09CFA08A9762C03D8085C00283C46AAD10026284631461F
:2035C00002F066F9781C40B2002800D554E70021284602F05DF9B81C40B2002800D54BE710
:2035E0000021284602F054F9FF1C78B20028E4D542E704280ED10796BA6E0026002A304618
:2036000028D0481E0D4685413B680020934214D2044613E03F2318403423C3401A4009D031
:20362000B86E00294ED0FA6E002A4BD0002849D0101A51E04D49002061E001242543012D22
:2036400008D1002900D0FB6E981A06F0EBFC484905F0C0FA474905F089FB06F063FA0246BC
:203660000B464D4908AD284606F02EFB3046294603F04AF865208000381807F026F806F0A7
:2036800051FA02460B464548009601904449284606F01AFB0220294603F036F8B620385C70
:2036A000002801D0404A00E03E4A079C3F49284606F00AFB0420294603F026F8002C42D1A8
:2036C000324C41E04A1E9141424242410A4301D0002001E03968081A06F0A4FC244905F030
:2036E00079FA244905F042FB06F01CFA02460B46214908AD284606F0E7FA0020294603F02D
:2037000003F8FA7C4F2080003B5C1C4908AD284606F0DAFA0220294602F0F6FFFF20203079
:20372000385C002801D0174A00E0154A112000013B5C1549284606F0C7FA0420294602F08B
:20374000E3FF002EBCD0124C386B06F0EBF90090019110492846224606F0B6FA0620294666
:2037600002F0D2FF0FB0F0BD40382020A9B100000000204100007A4438B2000083B10000CB
:20378000B0B20000B8B200009DB10000A7B20000B4B20000E5B10000D9B1000000C06240CE
:2037A00090B000009DB20000BBB200005AB20000043B2020D0A60000F0B581B001242D20C4
:2037C00006F0E0FCCD4D297888421AD1A97802291AD84A1CAA706978431A59425941032A49
:2037E000224600D10A46002A0ED16870002800D1EAE0287A002801D10120A8710020A8807E
:2038000002E028700020A8706878002809D1A888632806D8401CA880642802D10120E8711E
:203820002872372006F0AEFCA97A88421AD1297B02291AD84A1C2A73E97A431A5942594166
:20384000032A224600D10A46002A0ED1E872002800D1BDE0A87C002801D1012028740020BE
:20386000E88102E0A87200202873E87A002809D1E889632806D8401CE881642802D10120A5
:203880006874A8743A2006F07DFC297D88421AD1A97D02291AD84A1CAA75697D431A594266
:2038A0005941032A224600D10A46002A0ED16875002800D190E0287F002801D10120A87689
:2038C0000020288302E028750020A875687D002809D1288B632806D8401C2883642802D1F8
:2038E0000120E87628773B2006F04CFCA97F88421CD120216A5C022A1CD8521C6A54E97F77
:20390000431A59425941032A224600D10A46002A10D1E877002863D02620285C002802D1D5
:203920002420012129540020688403E0A877202000212954E87F00280BD1688C632808D8EE
:20394000401C6884642804D12520012129542620295425216A5C00206854002A05D12422E9
:20396000AB5C0021A954002B14D065490A78012A06D108706449087064490C7001B0F0BDBD
:20398000604A147008706049087060480470FA2001B0F0BD5B48007800280ED0584F397853
:2039A000A8790026AE7101291FD100282CD05C480178002926D0491E25E0A87EA97600284E
:2039C0001BD0FB2001B0F0BD0020A88028721BE70020E881A87448E700202883287775E705
:2039E0000020688426216854A4E7002840D048480078002825D0431E24E0A9712974084666
:203A000001B0F0BD03210170287C00262E74002805D043480178491C03220A400270A87EDA
:203A2000AE7600285AD0384908783D4A12783B4B1A700E7033490E703E7034490E7001B01C
:203A4000F0BD072333480078D9B281420A4600D30246171D81422E48037001D38F4204D882
:203A60008F4200D8DA1E2B48027028480470244F287C2E7400281AD025490878401C07239D
:203A800003402448027893421F4600D31746381D93420B7002D3C1B2994205D8C0B29842A2
:203AA00000D8DF1E1B48077018480470144FA87EAE76002814D016480078C0001649085C71
:203AC000062812D801218140742211420DD00E49087012480078124908703C700B4804703E
:203AE00001F032FD304601B0F0BD0021054A11703970064A117001B0F0BDC046A83A2020E1
:203B00008F3B2020843B2020873B2020893B20208E3B2020803B202008AD0000713D2020EF
:203B2000773D2020F0B585B0AA480078012800D04EE1A94880690321C9024058A7490A7852
:203B4000002A1DD0A6490A68002A1FD0841A0860A4480460204606F065FA0646A24905F097
:203B600005F90546A148844200D83546A04C2846214605F0B0FC002810D09E4D9E4816E0C9
:203B800001220A709649086005B0F0BD08609548002101609D48016005B0F0BD9749284622
:203BA00005F0B4FC002800D101E1954D954897490860019502949748432103AF06233A46B4
:203BC00002F060FC039800027978401800B206F023F8914C214605F0C9F89049096803F0B7
:203BE00041FF06468E480660B8780002F978401800B206F011F8214605F0B8F88949096802
:203C000003F030FF054688480560049800027979401800B206F000F8214605F0A7F88349B3
:203C2000096803F01FFF0746814807608148046881480168284604F0CDFF054630462146C8
:203C400004F0C8FF294603F012FF04467B480168384604F0BFFF214603F009FF07460120C0
:203C6000C107384688437D21C90505F034FC002500282E4600D13E4630465D4905F046FC39
:203C800004466F4F3046394605F025FC002800D13746002C00D102976A48029F07606A4E93
:203CA00034682046294605F00DFC05462046394603F0DDFE3F21090604F08CFF002D3946FD
:203CC00000D10146019804F085FF37605F4904F081FF04465E4D294605F018FC07465D4EA3
:203CE0002046314605F0F7FB002800D12646002F00D13546584F3868294603F0B8FE044677
:203D00003860564E3068294603F0B1FE30605449204605F0FBFB002820D0524D504E204685
:203D2000294603F0A4FE0446314605F0EFFB002813D02046294603F09AFE0446314605F0BE
:203D4000E5FB002809D02046294603F090FE0446314605F0DBFB0028E1D13C604249204639
:203D600005F0B9FB002833D0404D3F4E2046294603F07DFE0446314605F0ADFB002813D0A9
:203D80002046294603F073FE0446314605F0A3FB002809D02046294603F069FE04463146A5
:203DA00005F099FB0028E1D13C6005B0F0BD1649284604F00FFF154908601549284604F04D
:203DC00009FF0546002105F08FFB002800D1F0E605B0F0BD763D202094AF0000783D202094
:203DE000403D2020543D20200000A042400D03000000FA430BD7233C00002041005043474A
:203E0000CDCC4C3D000048426F12833A443D2020BD378635243B2020333383412C3D2020D6
:203E2000483D2020303D20204C3D2020343D2020503D2020583D20205C3D2020603D20203E
:203E40000000FAC3283D20203C3D20201904963F0000A0400000A0C0683D20206C3D202047
:203E6000000034430000B4C3000034C30000B443F0B591B00F90012548000D90400D5C002D
:203E8000670D59401095EE070E40AB494D1E44198C4200D203E17C198C4200D2FFE004963F
:203EA00010990C05611E00910B400025E9430E91A449019423430C93C01B40180290401C55
:203EC0000390D0020A90500DD9020B9247189E48C41B3846294622462B4606F0EDF84842BF
:203EE000294622462B4606F0E7F84900C00F4418204629463A462B4606F0DEF84A422046AD
:203F000029462B4606F0D8F84900C00F4418204629463A462B4606F0CFF84A4220462946A3
:203F20002B4606F0C9F84900C00F4018441E3846294622462B4606F0BFF806460F460A98D1
:203F4000294622462B4606F0B7F870186F411099081A0A902A46BA41204629462B4606F030
:203F6000ABF8C20F49008918099146000A98294622462B4606F0A0F84A00C00F8018CF0FFC
:203F8000341809994F41E13C0994AF410F9AD00F0D9909180691520008920E98401E0D9086
:203FA0002E46AE4108463040034607902046294606F082F80A910698C043614AD14301437C
:203FC000521A05922C466C4109982946234606F073F80690099138462946089A079B06F08E
:203FE0006BF80890079138462946059A234606F063F805900A9A069BD0182B466B41079F63
:204000003E400D9C089A224082185E41059838186941099A80186941841969410E98401C77
:204020004748684181424BD2002201988142109800D310460F9B01D3039A029281401F2268
:2040400042406708D7400F4384405E05204639460B9A0C9B06F030F840428E4102994A1E3C
:204060003449491E8A423EDC012A48DB00990F401205C10F73005B184000109921404018D1
:204080003A4304990A430021651C51410B9E301A0C98984100D3254644D3114642E0002F18
:2040A00028D024498F4204D0002823D0884200D0F5E62248064300253146284611B0F0BD3B
:2040C0006008CA0784184F080F980605204639460B9A0C9B05F0F0FF40428E41039A1549A1
:2040E000491E8A42C0DD1548049901430025284611B0F0BD00252946284611B0F0BD002A17
:2041000013D10E994C400E494F4027430DD1019A56403043294605D10499114300252846ED
:2041200011B0F0BD284611B0F0BD2946284611B0F0BDC046FF07000002F8FFFF0000F07F77
:20414000FFFF1F00FE03000033F30475F0B5D9B01C4603920F46029058A80026068057A8EB
:20416000068056AD2E8055A8068054A80680084605F0D6FF28808F4D2888002802D08E48E7
:20418000006880478D480078002800D10DE1288800283CD08A48036854A801884A1C02802E
:2041A0003046029A9847384605F0BAFF56A90880844800888449097805F094FC55A90880AE
:2041C000384605F0ADFF381857A90E800988012913D9421C56A8805F002827D4521C2AE065
:2041E0005799491C57AA11805699491E56AA118057A90988401E0229EBD256A9895F00290A
:20420000E7D401785C29EBD02F29E9D0ECE70120010214A806F06FF8704E31680298884749
:20422000002C00D1B8E000946D49B6E057A80088002800D1BBE0654914A805F045FD58A84D
:204240000680058814E057A8008804AA16545C4803686048007854994D1C54AF3D804843E8
:2042600081B2304698475898401C58A908800D8814A805F055FF55A9895F05F033FC401CE1
:20428000A84228D957A80680008855A9895F8842D9DA14A805F044FF57A9098858AA1288A2
:2042A00055AB9B5F534359188842CCD357A90A8858AB1B8855AFBD5F5D4314AB5B199A5C73
:2042C0000B8804ADEA54579A521C0A800988BA5F9142E1DBB7E7404914AE3046039A05F049
:2042E000F3FC374803683B48007854994A1C54AD2A80484381B20025284632469847002C18
:2043000053D058A80580068814E057A8008804AA15542B4803682F48007854994E1C54AFAE
:204320003E80484381B2284698475898401C58A908800E88204605F0F3FE55A9495F05F062
:20434000D1FB401CB04230D957A80580008855A9495F8842D9DA204605F0E2FE57A909883F
:2043600058AA128855AB5B5F534359188842CCD357A90A8858AB1B8855AE775F5F43E319C8
:204380009A5C0B8804AFFA54579A521C0A800988725F9142E2DBB8E7124914A83A46039BE4
:2043A00005F092FC316814A8884759B0F0BD084942E7C0467C3B2020503B20207A3D202067
:2043C0004C3B2020023B20207E3B20202FB200004FB100007F3B202041B20000483B20200F
:2043E000B0AF0000E2AF0000F0B587B09E4C3520C100204605F07FFF9C487F210391C90532
:2044000020626162274603F033FF04F00FFB0025284604F03DFE4F208000201805F0EAFF00
:2044200030201024112621462A46334602F0B0FE07200490012205922146334602F0A8FEE4
:2044400004F05EFA04F0A8FA38467C3006F00EF83846983006F00AF804F0E6FD3846BC30D5
:2044600005F0BAF90320C001381806F09DF865208000381806F0ADF800F04AFA1C200090E5
:204480007B4E3C210A221F23304604F02FFF642003F00EFA06A90D70AE2048700227304620
:2044A0003A4603F0B5FB06A90D70D520487030463A4603F0ADFB06A90D7080204870304675
:2044C0003A4603F0A5FB06A90D70A820487030463A4603F09DFB06A90D703F2048703046E3
:2044E0003A4603F095FB06A90D70D320487030463A4603F08DFB06A90D704D7030463A4692
:2045000003F086FB06A90D7040200290487030463A4603F07DFB06A90D708D2048703046E9
:204520003A4603F075FB06A90D701420487030463A4603F06DFB06A90D7020204870304695
:204540003A4603F065FB06A90D704D7030463A4603F05EFB06A90D70A120487030463A46C2
:2045600003F056FB06A90D70C8244C7030463A4603F04EFB06A90D70DA20487030463A461D
:2045800003F046FB06A90D701220487030463A4603F03EFB06A90D708120487030463A4634
:2045A00003F036FB06A90D700398487030463A4603F02EFB06A90D70D920487030463A4673
:2045C00003F026FB06A90D70F120487030463A4603F01EFB06A90D70DB20487030463A46FB
:2045E00003F016FB06A90D700298487030463A4603F00EFB06A90D70A420487030463A46A9
:2046000003F006FB06A90D70A620487030463A4603F0FEFA06A90D70AF20487030463A4672
:2046200003F0F6FA284601F061F81248124903F085FA049E3046294605F0A4FC204603F043
:2046400037F93046059C214605F09CFC284606F001F8054D6867204605F0FCFFA86700F04C
:2046600073FF07B0F0BDC0464038202000004041043B2020ED56000009670000F0B58BB013
:2046800093490978012900D01FE1002801D17D20800002900027059706973C463E463D4631
:2046A000049703963B2107AE0E238A48324601F0E9FE079800027178401800B20499091810
:2046C0000491B0780002F178401800B2059909180591089800027179401800B206990918FD
:2046E000069109980002717A401800B23F18B07A0002F17A401800B22D180A980002717BBE
:20470000039E401800B23618042003F0D1F8641CA0B202998842C4D301970395049805F031
:204720007BFA0446029805F07DFC05462046294604F01CFB0746059805F06EFA294604F0DD
:2047400015FB0446069805F067FA0695294604F00DFB054620460494214604F03BFA0446E2
:2047600038460597394604F035FA214603F07FF904462846294604F02DFA214603F077F99F
:2047800007467F20C4053846214604F0BFFE00285DD07120C105384604F01CFA8D21C9051E
:2047A00003F065F93F210C06214604F013FA029505463846294604F0D9FA0146284603F090
:2047C00056F9214604F006FA05463846294604F0CDFA0146284603F04AF9214604F0FAF903
:2047E00005463846294604F0C1FA0146284603F03EF9214604F0EEF905463846294604F085
:20480000B5FA0146284603F032F9214604F0E2F905463846294604F0A9FA0146284603F069
:2048200026F9214604F0D6F904460598214604F09DFA294908600498214604F097FA274984
:2048400008600298214604F091FA044604E022480021016021480160039D019820490C607E
:2048600005F0DAF9069F394604F080FA1D4C214604F07CFA1C490860284605F0CDF939462F
:2048800004F074FA214604F071FA18490860304605F0C2F9394604F069FA214604F066FA70
:2048A0001349086013480021016013480160134801601348017013480121017012488069E2
:2048C0000321C9024058114908600BB0F0BDC046763D2020243B2020583D20205C3D2020E1
:2048E000603D2020333383412C3D2020303D2020343D2020683D2020283D20203C3D202067
:20490000783D2020753D202094AF0000403D2020F0B583B002A80027077000978E4D682195
:204920000A220123284604F0E1FC642002F0C0FF752102AE012428463246234601F0A2FD69
:204940003078682800D1B6E0702800D1B3E0284603F0CAFB142002F0ABFF752102AE01235C
:204960002846324601F08EFD3078682800D1A2E0702800D19FE0284603F0B6FB142002F02A
:2049800097FF752102AE01232846324601F07AFD3078682800D18EE0702800D18BE0284610
:2049A00003F0A2FB142002F083FF752102AE01232846324601F066FD307868287BD0702800
:2049C00079D0284603F090FB142002F071FF752102AE01232846324601F054FD3078682842
:2049E00069D0702867D0284603F07EFB142002F05FFF752102AE01232846324601F042FDD1
:204A00003078682857D0702855D0284603F06CFB142002F04DFF752102AE012328463246F0
:204A200001F030FD3078682845D0702843D0284603F05AFB142002F03BFF752102AE0123E0
:204A40002846324601F01EFD3078682833D0702831D0284603F048FB142002F029FF752108
:204A600002AE01232846324601F00CFD3078682821D070281FD0284603F036FB142002F01A
:204A800017FF752102AE01232846324601F0FAFC307868280FD070280DD0284603F024FBBD
:204AA000142002F005FF38460A300A2F074600D23EE702A80078682801D0702842D1264EF5
:204AC0006B213046224604F089FF322002F0F0FE19210722304604F081FF1A210327304696
:204AE0003A4604F07BFF1B211822304604F076FF1C21002530462A4604F070FF0626304626
:204B0000214603F053FB304605F0D2FB13488069F90240581249086012480470124805707E
:204B200012480560124805601248056012480560124805601248056012480560124805706D
:204B400003B0F0BD074800210170074801700C48016003B0F0BDC046243B202094AF000057
:204B6000403D2020763D2020753D20202C3D2020303D2020343D2020683D20206C3D2020BE
:204B8000283D20203C3D2020783D2020F0B585B00492002800D114E10F46002900D110E124
:204BA0001C4605460126184600F042FF297AB87D002902D0E97988420BD001212972E871A2
:204BC000387C6978884204D1787CE978461A701E8641287804282DD003281CD0012800D0BE
:204BE000BDE0002E07D1787D402804D1B87C002801D1012068716879002829D06878801F37
:204C00000226F143884203D305F0BEFC00281FD02E70EC60A3E0002E05D1787D412802D130
:204C2000B87C00284ED0E868201A1E2800D296E00B2091E0002E2CD1787D432823D044285C
:204C400027D1387D002800D10C20287106201FE0A869201A322800D281E0287F02282FD814
:204C60006978EA781E202B5E0A2060430026049F009701960290302004F0D2FEAC61287F0C
:204C8000401C28776BE06878032802D06C61052028706878811F0222D24391424CD3039227
:204CA000397E0022002914D03978814211D17878E97888420DD17889972809D3002208E019
:204CC0000A2049E00120A87104202870EC6046E001222E462036304639462346FDF746F89C
:204CE000304605F00CFC002807D03A20285C1430287106262E70039A1EE03C20285E2146D9
:204D000002F0CEF968780328039A15D12878042812D1304605F0FCFB039A00280CD06C61CD
:204D2000304605F04FFC204603F05CFC05260028E0D104F0E5FFDDE76878801F904207D341
:204D400005F01AFC002803D01E20287106202870F87D002803D11F20287106202870287811
:204D6000411EC9B202290FD86978891F0222D243914214D305F000FC002804D01E20287107
:204D80000620287002E02878062806D104F0B8FF2846203005F016FC2878002811D0A969A3
:204DA000611A14290DD36978EA781E23EB5E0A266643049F009701900296332004F030FEDD
:204DC000AC6105B0F0BDFEE7F0B5A5B0059308920D46074600260A967A4C3246234604F052
:204DE00055FB002800D12C46354600D13D46284621463246334604F037FB46424641002806
:204E000007D10AAA2846214604F000FB0A98401E0A900898007B0BAF412801D06B4800E006
:204E2000694809900898806801903020049038700022284621460292134604F01EFB012170
:204E4000002801D0C80744400391781C0790002E0DD024AA2846214604F0D8FA24980121F5
:204E60000A1A2846214602F0B5FC05460C462846214604F001FD0646079904F07DFB069044
:204E8000304605F03FF802460B462846214600F099FE04460D460198471C20D307980699B1
:204EA0004618002220462946134604F0DDFA002848D1002220462946454B05F0F1FB044686
:204EC0000D4604F0D9FC0999095C771C317005F019F805F0CAFB04460D463E46E1E70BA81F
:204EE00006994618002F16D07F1E002220462946374B05F0D5FB04460D4604F0BDFC0999D9
:204F0000095C3246761C517004F0FCFF05F0ADFB04460D46E6E73178099C204605F00AFBBD
:204F2000001B08280EDB0196741E089D029F099E2178304605F0FEFA801B0E2805DD2770E1
:204F4000641EF5E7089D029F04E00999081840782070019E37700A98297B4129059C01D057
:204F6000702100E05021069E079F224604F00AFCAA68501C04D1384605F039FB421EAA603F
:204F800038463146234604F08DFFA8680028039A02D128680007C20F38463146234604F0D1
:204FA000ABF8287B412801D0782000E0582021684A1E226008702068411E21600499017020
:204FC00025B0F0BD0000F0FF1EB000002FB0000000003040F0B5A3B01E460F4604460392B3
:204FE0009168002903D0002904D5062100E001210398816007910AA830210891017000224E
:20500000204639460992134604F037FA01210028049101D0C8074740634D20463946614A4C
:205020002B4604F045FA00280BD00022204639465F4B05F031FB04460F460998401C0990C2
:20504000EBE70025204639462A462B4604F00CFA002813D1002220463946544B04F00DFAEC
:2050600000280BD0002220463946514B05F018FB04460F460998401E0990E3E702960AA837
:20508000461C2046394604F0F7FB0596314604F073FA07998842019004DD481C0AA90B185A
:2050A000085C20E0C9430E180AA90B180793581C06902046394604F0DFFB04F023FF0246CF
:2050C0000B462046394600F07DFD0022384B05F0E7FA04460F4604F0CFFB069B30300799B7
:2050E0004870761CE2D3C0B23528029E039F0DD3581E0178491CCAB201703A2A03D33021F4
:205100000170401EF5E70AA9884241D0099801990C181D700220C043844202DBB8688442BC
:2051200007DD601E397B891EC9B2324604F02AFB0124059805F05BFA401E0499A0421ADBC8
:205140000028089A01D4059A125C1346303B5D1EAB41C9431943C90705D13978090702D4D3
:205160000025049905E031684B1E33600A7001250021401EE2E73868082202402A43501E24
:20518000824105982146334603F0B6FF23B0F0BD581E00210170099801990818441C0AA832
:2051A0000590B7E70000C0FFFFFFDF410000F03F00002440F0B58DB00792089000220126F0
:2051C0000B9149004F0D5900490D0C91694C651E09977919A142314600D31146F7070A97B5
:2051E0001F460B9847400C984519A542344600D314465F4D0A980740214301290AD10C98EE
:20520000002800D184E0A8427BD0099800287FD0A84276D00096069700260125079A500D37
:20522000D90208180590D00203903146089C2246334604F041FF049007910195EF070598F4
:205240000743384631462246334604F035FF089005910B98C0434949CA4302438A1A029216
:205260003446744103983146234604F025FF05460B913846049F3146029A234604F01CFFD9
:205280003F4A17401540079AAA18334673410B9C20187141059C00197141089C12195841E4
:2052A0007141099B0C9CE318CC0221D4354C1B19C40F490009194000D40F0019FC0F5200A6
:2052C00012197D002A4C641EA342069F19DC019C2405002B21DD641E21401B050B43194610
:2052E00039436B420A9C2346934126D2401C2AE0244C1B195B1C1E4C3D46641EA342069F30
:20530000E5DD1D4807430026394630460DB0F0BD0026314630460DB0F0BD1B4D6940C04306
:20532000002A15DB0843002B009916D0002817D0009800283146E8D117E06240154303D19A
:20534000019A024080187141064630460DB0F0BD01960843002B0099E8D101990028E7D121
:205360000091009800283146CFD12743CBE7C046FF07000002F8FFFF0000F07FFFFF0F0029
:2053800000F8FFFF01FCFFFFFFFF1F00F0B587B002910546411E88416849C32203F08EFB0B
:2053A00028681F2241090592104001242246824088006349085895214B01C1581143019305
:2053C000C150E86806900698411E0691002809D00698411E0691002804D00698411E06911D
:2053E0000028F0D168684109059A104022468240880053490858534BC1581143C1500026CB
:20540000072003940DE0B10044000C43287904F0B9FE064626430499881EC9B20129039C15
:2054200068D0049029684A0905980140204688409100434A5158434A89180A6902430A6198
:20544000EA680692069B5F1E0697002B09D0069B5F1E0697002B04D0069B5F1E0697002B03
:20546000F0D10B6803430B6006920698411E0691002809D00698411E0691002804D00698EC
:20548000411E06910028F0D1287904F07BFE2A68530905990A40214691409A00284B9A5812
:2054A000284BD21813690B431361EB680693069F7C1E0694002F09D0069C671E0697002C94
:2054C00004D0069C671E0697002CF0D114680C431460069306994A1E0692002993D00699A5
:2054E0004A1E069200298ED006994A1E06920029F0D188E72868059901408C404009800029
:205500000F490858019A815821438150E86806900698411E0691002809D00698411E06911B
:20552000002804D00698411E06910028F0D12846029902F0FDFEF0B207B0F0BDF1AD000058
:20554000FC3C202090120000F0B587B057480078574E31780140C843564909684A424A417D
:205560000243554F3868434243411343D80700D084E000242046884750480078012824D1A9
:205580003A6853490020904752480078800052490B58524A01AD18262846314604F0B6F936
:2055A0003A680220294690474D4803784D4A2846314604F0ABF93A68042029463C4E904727
:2055C0003A6849490620904757E03D480078072853D83C490978884201D0202300E03E23E7
:2055E000C0003949081840680090384A01AD1821284604F08BF93A68002029469047304842
:205600000078401CC0B2072837D82E490978884201D0202300E03E23C0002B4908184068F3
:2056200000902A4A01AD1821284604F06FF93A6802202946904722480078801CC0B207288C
:205640001BD820490978884201D0202300E03E23C0001D490818406800901C4A01AD182183
:20566000284604F053F93A6804202946904714480078C01CC0B2072802D9347007B0F0BD3C
:2056800010490978884201D0202300E03E23C0000D490818406800900C4A01AD18212846F8
:2056A00004F034F93A68062029468CE7843B2020893B2020403B2020783B20208F3B202064
:2056C000803B20208E3B202008AD000093B2000069B10000773D202060B0000098B2000064
:2056E000873B202072B20000F7AF0000F0B587B0044601A900270F7021204870624D022698
:205700002846324602F084FA02A90F704F702846324602F07DFA03A90F707F20487028460B
:20572000324602F075FA04A90F70222048702846324602F06DFA05A90F704F702846324659
:2057400002F066FA06A90F70072048702846324602F05EFA284602F063FC287A4006010E04
:20576000284600F095F84021284600F091F82846214600F08DF82846214600F089F82846F8
:20578000214600F085F82846214600F081F82846214600F07DF82846214600F079F8284619
:2057A000214600F075F82846214600F071F82846214600F06DF82846214600F069F8284639
:2057C000214600F065F82846214600F061F82846214600F05DF82846214600F059F8284659
:2057E000214600F055F82846214600F051F82846214600F04DF82846214600F049F8284679
:20580000214600F045F82846214600F041F82846214600F03DF82846214600F039F8284698
:20582000214600F035F82846214600F031F82846214600F02DF82846214600F029F82846B8
:20584000214600F025F82846214600F021F82846214600F01DF82846214600F019F82846D8
:20586000214600F015F81F263E432846214600F00FF820370548864200D278E7024802F059
:2058800033FC07B0F0BDC046043B2020FF030000F0B587B001910646411E88416249A82297
:2058A00003F00CF98020009602E0800800D1B1E00199084201D05B4901E05A49103102903E
:2058C00073681F225D091340012703979F40AB005648C3585D583D435D50F5686B080693A3
:2058E00006994F1E0697002909D006994F1E0697002904D006994F1E06970029F0D131682B
:205900004E091140039F8F40B100484846584548311834583C4334500595059C651E0595D2
:20592000002C09D0059C651E0595002C04D0059C651E0595002CF0D10C693C430C61049301
:20594000029804994B1E0493002909D004994B1E0493002904D004994B1E04930029F0D1ED
:205960004408009E73685909890030484158019D2C4201D02B4D01E02A4D10351340039C82
:205980009C404B5923434B51F5686B08069306994C1E0694002909D006994C1E06940029AB
:2059A00004D006994C1E06940029F0D131680A40039F9740490989001C48425819481118C7
:2059C00014583C4314500595059A541E0594002A09D0059A541E0594002A04D0059A541E78
:2059E0000594002AF0D10A693A430A610493029804994A1E0492002900D156E704994A1EC0
:205A00000492002900D150E704994A1E04920029EED14AE7304601F031FC0399484007B09C
:205A2000F0BDC04690120000F1AD0000FC3C2020F0B587B0029055480078554E3178401AD2
:205A40008006000F00D184E003A8801D0190514C09E0781C084030704C4800783178401A92
:205A60008006000F75D03078235C3078401C3F210840205C3278921C0A40A25C3578ED1CA7
:205A80000D40655D3778012BE3D16B2DE1D13B1D0B40337040490A709F2ADDD0022A2DD135
:205AA0003E4A1168491C116000223D490A703D490978814201D13B490A703B490978F32833
:205AC00037D1012935D13A48039003A9394888800198C27082704270027002274F816B20DF
:205AE000087301200D2201F03FFCFD202D4908700298314908603149086027E0304A11684C
:205B0000491C116026490978FF2906D04A1C244B1A70012901D8002100E00121214A127847
:205B2000824202D100201F4A1070002994D005270CE0FD2805D1022903D11C480280042715
:205B400004E0FD2888D1032986D104271648077082E714480178002916D017490968029AA6
:205B6000511A0C2910D30021017015480168491C01600B490878FF2803D0421C0A700228B4
:205B800002D309480521017007B0F0BD8B3B20208D3B2020683A2020813B20203C3B202041
:205BA000393B2020863B2020903B20203A3B202001FD00001E640000703B2020643B202026
:205BC000543B2020FCB40124E407634002E0FCB40124E40708B41D03ED08D60D354356026D
:205BE0005F007F0D06D12C00344300D0AEE001B0FCBC7047A408254307242402FF34A74241
:205C000005D10020190D090501B0FCBC7047002B03D50024A61BAC4125000B03DB08C20D80
:205C2000134342024800400D07D11C00144300D08CE00EBC1000F0BC70470124640723437B
:205C400007242402FF34A04205D10020090D090501B0FCBC7047002903D50024A21A9C41E6
:205C60002300C11B08D51C002B0025001400320026000024611A3800362925D502B4393918
:205C800049420C00203C03D22F008F40374301E03700A740002F01D040210E4302BC20290C
:205CA0000BD500290ED04C42203420B4A5402C0020BC0D41CE40361904E000292E000D4126
:205CC00020390E4192196B411C0014433ED00024002B04D5012400218A1A99410B00401EEF
:205CE00052005B41FBD50121890215000D400CD0521800277B4101D3401C0BE00721C901A1
:205D000015000D4001D189008A43072109028A4352005B41801C19DD07210902FF3188424C
:205D200009D30EBC0020C90F0902FF31C900C91D0905F0BC7047190B00050143E4072143AE
:205D40001805120B104301B0FCBC70470021002001B0FCBC70477047F0B587B00393049276
:205D60000690006801F07EFE0746594903F0CEFB00281FD0574C564D3846214601F077FE65
:205D80000746294603F0C2FB002813D03846214601F06DFE0746294603F0B8FB002809D0E8
:205DA0003846214601F063FE0746294603F0AEFB0028E1D10F9D0E9805904749384603F092
:205DC0008AFB00281FD0454C434E3846214601F04EFE0746314603F07EFB002813D038462A
:205DE000214601F044FE0746314603F074FB002809D03846214601F03AFE0746314603F01D
:205E00006AFB0028E1D106984760C46838460295294602F0DFFE214601F029FE0646059C13
:205E2000214603F073FB05460120C007019044403046214603F04FFB002800D13446002D98
:205E4000059E00D126460D9805900C9800900698C6608168384601F005FE05462049029C83
:205E6000204603F053FB002800D11E4C2846214602F07CFF0546069887600398314602F002
:205E8000A9FE06460498394602F0A4FE314601F0EEFD06460098294602F09CFE314601F0C6
:205EA000E6FD0546059F394603F030FB0646019C7C402846214603F00EFB002800D12C4692
:205EC000002E00D1274606980761384607B0F0BD000034430000B4C3000034C30000B44392
:205EE0006F12833A0AD7233CF0B587B01C4606900E9D0C9805900D9E0846114601F0B2FD7C
:205F0000074630460494214602F064FE064605980597394602F05EFE314601F0A3FD0646C5
:205F200001200190C0072C46029044403046214603F0D1FA07463046294603F0E7FA002897
:205F4000039500D13546002F00D12C46474E059D2846304041210F06394603F0CEFA0028FD
:205F60002DD0049806403046394603F0BDFA002825D0109F2846214602F02CFE002103F0D2
:205F8000C5FA411E8841069A117E00291ED0002819D00498294602F01DFE002103F0B6FAE7
:205FA000069A002807D08120C105304603F0A5FA069A002807D11069401C10610FE0069A5E
:205FC000107E00282DD0002010762BE0002828D01069401C1061B84225D301991176C01B09
:205FE00004F020F8224902F0F5FD05460021059803F08CFA002819D01E49284601F037FDB9
:2060000005462046294603F081FA0028039E0AD12846314603F07AFA002800D12E4634461B
:2060200001E000201061204607B0F0BD0F98294601F01DFD0746002103F04DFA0646384691
:20604000039D294603F062FA002800D13D46002E02D10298454000E0029D2046294603F0FF
:206060003AFA0028DFD12C46DDE7C046FFFFFF7FCCCCCC3CCDCC0C40F0B585B00C46054660
:2060800000260846314603F01DFA00282ED104942C6800272046394603F038FA411E88415F
:2060A0000390049839462746049C03F014FA002805D00021384603F029FA002816D13C46E1
:2060C00000272046394603F006FA411E88410290049839462746049C03F018FA00280DD0D5
:2060E0000021384603F0F7F9002807D06E60AE60EE602E616E612C6005B0F0BD002138460A
:2061000003F0FBF90121CE07002800D177407F20C1053846019103F0F9F90028EBD0002193
:20612000204603F0EAF90028214601D121467140384601F097FC07463F200106384603F084
:20614000DCF90028D7D00096412006063846314603F0D3F98121C905002800D0314601D034
:20616000194E00E0174E384602F034FD0746314603F0CCF9002800D13E460298002801997D
:2061800000D10099EF680398002800D00F490846314602F01FFD394601F069FC07460C4909
:2061A00003F0B4F903900B4E3846314603F093F9002800D13E4603980028054800D130460B
:2061C000E86098E70000204200002043000080BF00A00C4600A00CC6F0B585B0039304928A
:2061E0000446084603F018FD4D4902F0F3FC4D4902F0BCFD6060A568294601F033FC7D214D
:20620000C90502F0E7FC294601F031FC0746A060256800262846314603F054F9002806D02B
:20622000201D066046608660C660066175E00A98019002952846394601F014FC05462669BB
:20624000314601F00FFC00900398294602F0C2FC07460498009902F0BDFC394601F007FCE1
:20626000074630460396314601F001FC01460495284601F0F7FB616901F0F9FB014601989D
:2062800002F0A8FC394601F0F2FB0146E06801F0EEFB0646244903F039F90746234D304691
:2062A000294603F018F9002800D13546002F1E4900D129460191E1600498206103986061D5
:2062C0000026029D2846314603F020F907462846314603F000F9002800D01548002F124E06
:2062E00001D07F20C005114FA16902F073FC019901F0BDFB0446314603F008F905462046F5
:20630000394603F0E8F8002800D12746002D00D13E46304603F010FD0646304605B0F0BDA9
:2063200000606A4700683F4700A00C4600A00CC6000080BFF0B585B014460191049000035E
:20634000060F0321304603F0A5FF4549642202F0B5FB00270125434803948442284600D3CB
:20636000384666223E4902F0A9FB304603F084FF0499C8B209040A0F1021132302F070FC0C
:20638000B00039490C583949112222206050022E3748034600D0374B12022903052E00D033
:2063A0001846324BE3180293A51861180091019903F098FB062E3E4613D0020C070E01903C
:2063C000000205D0791C104603F08CFB064607E07F1EF8B2411C104603F084FB0646FF3661
:2063E0000198FFB2791C03F07DFBF6B2711C03F079FB401E0821009A91601760EE60029F3F
:2064000078600498010D0F2008400126324682402B6813432B60012808D8812189054143F1
:206420008200A218154BD15013490BE080054A07801831408A00A218104BD0500E4A083228
:2064400008461146611880000D4A0A500498039902F074F838683043386005B0F0BDC04644
:20646000F8AE00001127000094AF000004180000005A620200B4C4047018000030180000D5
:2064800001040000F0B587B01C46164606910546411E88414C494D4F3A4602F00FFB711E17
:2064A00004968E417A1C3046474902F007FB284601F0B6FD287A4006010E2846FFF7E8F995
:2064C00028460699FFF7E4F9284601F0A9FD287A4000401CC1B22846FFF7DAF92A46002C53
:2064E0006CD01546601E032103F0FCFA491C0020032900D0084602D12746049932E0614219
:2065000003910121091A029140420190022600942746049880190590811E0691039884199B
:20652000601E414241412846FEF730FF0599491E069A107002988019022811D0BF1E06916F
:20654000614261412846FEF721FF06990870B61C019880190228DCD104988019811E00E0CD
:206560007F1E009C032C2A4628D3B81E0690781E0590F81E0490002603978D190598801B69
:206580000F464142414110461446FEF7FFFEB8550698801B414241412046FEF7F7FE68708C
:2065A0000498801B414241412046FEF7EFFE22463946A870039FF61CB742DED1104601F0B5
:2065C00093FD07B0F0BDC046F1AD0000FF010000F0B585B01D4616463021029000910170A5
:2065E0000024104619462246234602F046FF002802D00120C00745400B9801900A980490E9
:206600003E4F304629463C4A3B4602F051FF002809D00022304629463A4B04F03DF80646BD
:206620000D46641CEDE70027304629463A463B4602F01AFF002811D1002230462946304B0F
:2066400002F01BFF002809D00022304629462D4B04F026F806460D46641EE5E70298401CB9
:2066600003900498001904903046294603F004F9039902F081FF039909180019019A10607A
:206680000498441C012C1ADB04913046294603F0F3F803F037FC02460B4630462946FFF7EA
:2066A00091FA0022174B03F0FBFF06460D4603F0E3F83030049A511C1070641EE4D1481EE9
:2066C0000278352A0DD3891E009C0A78521CD3B20A703A2B02D30C70491EF6E7029A914266
:2066E00003D00770039805B0F0BD077001990868401C08600298F6E70000C0FFFFFFDF41BA
:206700000000F03F00002440F0B587B00091044601A900260E7021204870454D02272846BF
:206720003A4601F075FA02A90E704E7028463A4601F06EFA03A90E707F20487028463A46DC
:2067400001F066FA04A90E702220487028463A4601F05EFA05A90E704C7028463A4601F0C5
:2067600057FA06A90E704C7028463A4601F050FA284601F055FC287A4006010E2846FFF7AB
:2067800087F840212846FFF783F800990878002830D04D1C0027264C009701467F39C9B2E6
:2067A000A129009901D320380146C8B20621414320484618415C2046FFF76AF8717820466E
:2067C000FFF766F8B1782046FFF762F8F1782046FFF75EF831792046FFF75AF871792046C3
:2067E000FFF756F8BE1D2878002803D06D1C742F3746D2D30E4C00212046FFF749F8701CED
:2068000040B200280FD400212046FFF741F8B01C40B2002807D400212046FFF739F8F61C44
:2068200070B20028E7D5024801F05EFC07B0F0BD043B2020D0A60000F0B5CBB0484E50203E
:20684000305A129032684F20800030180124214602F0EAFF7020315C002905D1B16E002970
:2068600002D03168F16634540024B473712034547220345430467C302146FFF7FDFB304663
:2068800098302146FFF7F8FB204603F0E3FE70670120119003F0DEFEB06703F003F9706B5D
:2068A000B36BF16B376C1A185218D21930D00A256A43684310906B4369436F434420305A13
:2068C0000F904620305A0E904820305A0D904A20305A0C90C620305A0B90CA20305A0A9053
:2068E000CC20305A68430A9D089509900093019102970F9803900E9804900D9805900C988A
:2069000006900B980790174913A8109B03F0DCF91298002807D05325705D002803D100F03F
:206920007BFE119870554D203454B480622034546420345266203454F47334747474B47406
