:200000000080202027A60000DB5B0000DB5B000000000000000000000000000000000000E7
:20002000000000000000000000000000DB5B00000000000000000000DB5B0000DB5B00001E
:20004000DB5B00008994000009A30000359D0000DB5B0000DB5B0000DB5B0000DB5B0000F7
:2000600000000000DB5B0000DB5B00000000000000000000CD9C0000019D0000C1990000B3
:20008000A9A20000D9A2000079A2000091A20000F1A20000C1A20000000000000000000056
:2000A000DB5B0000DB5B00000000000000000000DB5B000000000000DB5B0000DB5B000032
:2000C00000B5E9B07D20C100159180001F9001202590F14F01E006F067FD0A2007F0EEFB44
:2000E0003868401C386003F07BFB002800D145E1054600243C82801E062826D878440079B8
:2001000040008744032A0303CB98A7000AF05CF9002822D100263046E04906F0FBFA02205B
:20012000DF4906F0F7FA1F9804F072F9304607F049FE0AF049F900280FD106F083FB00200E
:20014000D84906F0E7FA1598A3E0FB2D00D1B9E0FA2D02D106F076FB10E1FD74FC81BC8069
:200160004D203C5464203C5266203C547C63BC63FC633C647C64BC64BC65FC6538465830D5
:2001800004818472BC66FC6638466830847204811920000138180AF0D6F94E203C543C65DD
:2001A0000AF0F8F9F8625F2080003E1830460AF0DFF9F96A304607F0D5FE3846BC3009F057
:2001C000BFFA38467C30214605F05CFF38469830214605F057FF20460AF0EEF97867012046
:2001E0000AF0EAF9B86709F00BFC09F0E5FF0AF0C5F90246386800904F2080003818294648
:20020000234608F047FA0646204605F07BFA0020002E0CD0A44906F07DFA284609F040FFF6
:200220000146022006F076FA0620A04900E0A04906F070FAA2E006F005FB002420469749D5
:2002400006F068FA1F9804F0E3F8204607F0BAFD159830E0204605F055FA29AD2C729548F4
:200260002A90954829902046294606F053FA1920000138180AF0DBF909F002FC02460B462E
:2002800028468E4909F0CEFC0320294606F042FA8B4807F013FB05F063F96FE00024204690
:2002A00005F030FA2046874906F034FA0220864906F030FA824807F001FB09F0FDFD05F00F
:2002C0004FF95BE00AF05AF901463A684F208000381808F0B9FD002800D109E2FF203E3007
:2002E000385CF8740125BD73BC80386860217C5262217C54B866FC6638466C308480847197
:200300001920000138180AF01EF94E203C543C653E46BC36304609F013FA0AF02FF90AF095
:200320008BF807460068299078682A90B8682B90F8682C9065482D9065482E9029A930461E
:200340000AF065F838695449086278694862B869514FB86238467C30214605F093FE3846A3
:200360009830214605F08EFE20460AF025F9786728460AF021F9B86709F042FB387C3C6841
:20038000B9698C4201D3002100E001210028259800D00846002806D106F054FA4D484E4904
:2003A00009F014FE3C687D7C0A212046239109F047FB002D36D0002934D12398444300254D
:2003C00028460AF0F9F82690284629460AF086F824900126284631460AF080F82290284667
:2003E00009F0A6FD219030460AF0E6F82090304629460AF073F80546304631460AF06EF8D0
:200400000746304609F094FD21990091209901AAA2C2214F049020462699249A229B09F0DF
:200420004FFB3C68204606F033FB38682121C9007D18294607F02EFD0AF0A0F802463B68F6
:200440004F20840038192690294604F0AFFB2194385D73217A5C904200D17DE078540025F0
:20046000284605F04FF92198385C401E052873D87844007940008744023831436F460020EB
:20048000094906F047F9FF203E30385C09F008FE014602202FE0C046403820205DB0000071
:2004A000E0AF000030B0000096B0000071A900003FB00000455445524F444F4DC2B10000AC
:2004C000DC05000020B0000010B00000CDCC4C3E00009642DAB10000A4B000000020EF4979
:2004E00006F018F90220EE4934E00020ED4906F011F90220EC4906F00DF90620EB4929E07C
:200500000020EB4926E0BD7338467C30294605F0B9FD38469830294605F0B4FD28460AF04A
:200520004BF8786701200AF047F8B86709F068FA2846E04906F0EEF8052080013A5C29AD40
:200540002846DD4909F06EFB0220294606F0E2F80620DA4906F0DEF83E46B436304606F055
:2005600029FCB87B002805D0F87C1F2802D003F0EDFA01E002F03CFD0AF00CF83863B52045
:20058000385C042809D3B420395C0F200840421E90410F2903D8002502E0002501E0012568
:2005A00005406220C64F2490385C00282ED06424385BC449884200D18DE5411C39531F991B
:2005C000CA3989B2884200D985E519200001381822900AF02CF8BC4908F043FF002800D03F
:2005E00079E52498385CC11E02296CD3022800D188E00128B24F00D0B2E0385B0C2800D27C
:20060000AEE0002D00D08DE003228CE0B87B002800D1C0E0F87C022802D0052800D0A2E096
:20062000002D4CD06125785DFF2804D0411C7955002800D194E06020395C002950D01920EC
:2006400000013C18204609F0F2FFA04908F009FF002800D184E02294204609F0E8FF09F0BA
:200660000FFA02460B4629A8994909F0DBFA7020395C002906D1B96E002903D03968F9660F
:20068000012139540121209124983954642000243C5266203C547C55229809F054FF3846EE
:2006A0007C30214605F0EEFC38469830214605F0E9FC204609F080FF786720984BE06120A0
:2006C000002139544CE0002D28D066217C4F785CFF2800D1FFE4421C7A54002840D0FAE4D8
:2006E0000121395219200001381809F02CFF37E00024204605F006F82046764906F00AF8EE
:20070000022092E5002D6E4F2AD104202499785400253D5366203D5422980BE06620002196
:20072000674FCEE70222229824997A5400253D5366217D5409F007FF38467C30294605F04B
:20074000A1FC38469830294605F09CFC284609F033FF7867012009F02FFFB86709F050F999
:20076000B87B002817D0269C204609F045FE002804D0B888312801D8401CB880B87B002579
:20078000002809D0204609F037FE002804D0B888312800D980E00025397C38687A69643203
:2007A000904203D20022002903D103E00122002900D01546B96E4A1E9141002D00D12599FC
:2007C00070222292BA5C531E9A410029259B00D11346F97C002B07D1052905D801228A40EE
:2007E00034231A4200D0B86600202890269027902498385CC0B2424242412A40012A00D0E5
:2008000078E11F2900D175E1052900D972E10122104688403421084200D16BE11D92209555
:2008200009F0C4FE1E9009F0BBFE054609F0CCFD3C46074619200001201809F0F8FE27A990
:20084000039128A90291019000972046BC3031461E9A2B4601F0BCFE00266665CE20225C7E
:20086000E027E05D431E01469941002A259A00D00A46002A65D109F0A7FD00285FD01048FD
:20088000D549416509F08CFE0546002108F0D7FD002821D11D9922E001257DE796B1000036
:2008A00088B00000F8B1000031B1000071A90000D2B100007AB00000BAB10000B2B00000E1
:2008C00040382020FFFF00000000A0410080094492AE00004EB000001D99C80745408907DC
:2008E000284608F0ACFD002829D11E96BA48294607F0BEF8FA4908F021F90546F94908F01B
:20090000B9FD06462846F84C214608F098FD002800D12C46002EF34900D12146EC20F34AD9
:200920001058289D08F00AF90646294607F0A5F828902798314607F09BF827901E9EEB4822
:20094000C05D0028209D6DD02899279AE74FB965FA65042800D0CDE0BE7338467C303146A8
:2009600005F090FB38469830314605F08BFB1E96304609F021FE78670120269009F01CFEB4
:20098000B86709F03DF87C6BBB6BF96B3E6C1A195218921930D023984243444322944343A4
:2009A0004143464344257D5B249546257C5B219448257C5B20944A257C5B1D94C6257C5B88
:2009C0001C94CA27C94CE75BCC25655B45430897C64F0995009301910296249803902198CF
:2009E0000490209805901D9806901C98079029A8BF49229B09F016F95020395A5325785D92
:200A0000421E90410029259900D0014600291E9C03D106F007FE26987855FC7409F04CFABB
:200A2000FFF75BFBB148806D00271B90394608F006FD054628981C90394608F01BFD812150
:200A4000CC050028AB4E00D12646002D00D12646A648C06D1D90394608F0F1FC05462798C7
:200A60001E90394608F006FD0028A24800D12046002D00D120461A901B9D2846314606F064
:200A8000FCFF04461C9E3046214608F0F3FC07462846994906F0F1FF05463046294608F0E8
:200AA000CEFC002800D13546002F1E9E1A9900D12C468E4884651D9F384606F0DEFF054600
:200AC0003046294608F0D6FC1C9038468A4906F0D4FF07463046394608F0B1FC002800D1C1
:200AE00037461C98002800D13D46804FFD6528942795209DF87CC1B2081F424242412A4064
:200B0000012A0BD119200001381809F090FD7B4908F0A7FC002817D1F97C06E0002D269A07
:200B200013461446104600D1A5E0052901D0022957D1E020385C401EC1B2042920D2C006BA
:200B4000010E6F48C8401FE00022BA7371200121395472203A5428922792229D785D0028EA
:200B60000AD1B86E002813461446104600D182E03868F866795500221346144610467AE0BF
:200B8000CE20385C411E88414D217A5C4C23002AC2B202D0FC5CA2420CD054003C1944255E
:200BA000655B584EB54202D044346D1C2580F854012078547A44127952009744010F050993
:200BC000786B401C78630CE0F86B401CF86308E0386C401C386404E077120642B86B401C3D
:200BE000B863F87C1F2842D15F2080003C18F96A204607F0B7F9396B412000060025009584
:200C0000414A01920290414803902046404A2B4604F0E4FF22900320C0013E58FF7B012009
:200C20002090C0072690864330463A4908F019FC41424141002F259800D10846002825D08B
:200C4000002F0CD07F20C105304608F0F8FB002805D0264EF573204609F08AFCF77BF8B2E9
:200C60000028229900D10146204F269813E0279C289AF8690123397C002900D004462294A1
:200C8000209300D002462692234E08E0174F2098F873269822992291484026901F4E3D4695
:200CA0007C352846314609F0BFFA3C4698342046314609F0B9FA2498385C042839D8800008
:200CC00002A108582699229E8746C046370D00002D0D0000210D0000210D0000270D0000B1
:200CE000CDCC4C3E0000C0400000C0C04038202035AB000000004041000020C100001643FE
:200D000002020303FFFF0000000090410AD7233CCDCC4C3F0000204000007A44000016441E
:200D20007E4E314607E07E4E314604E07D4E314601E000210E462846269105F0A3F92046AE
:200D40002296314605F09EF93878C00700D00BE200201C9009F030FC07460120249009F098
:200D60002BFC7149496F704A926FCE1B821A1D926D494F676C4FB8671920000138183146A4
:200D800007F038FB3A6A7B6AB86A00902846314605F028FA1E903A6A7B6AB86A00902046A3
:200DA0001D9905F01FFA064684201B9038585F4908407F21CD05294608F041FB04465C4851
:200DC0001D96301880B25B49884201D31C982490A026B85955490840294608F030FB411E8E
:200DE000884124990840397C002C259A00D102464F4B1E9DEB189BB24E4CA34200D302462D
:200E000000290FD0002A0DD0B87C322803D2411CB974312808D105F015FD4748474909F085
:200E2000D5F8A1E10020B8741D98404201B20024204609F069F801201690294609F064F8BE
:200E4000387C002851D01C943C68239844431B9838581A902496B859199000262698314643
:200E600008F0E4FA474247412298314608F0DEFA4142414139432C4DB420285C1890B822B6
:200E8000A85E1790E023EB5C5B1EDEB2042E04D2DB061E0E2A4BF34003E0CE23EB5C5E1EFE
:200EA000B3416E6B2048876BC56B006C239A564357435543504308971B4F09950A90D8B289
:200EC000199A00921E9D01951D9B0293039118990491179905910690079620462699229AFB
:200EE0001A9B06F065F8249E1C9CF87C052802D0022800D038E14E20395C491CCAB2395479
:200F0000052A00D230E13C545021785AC2084B2A18D352201699395426E1C046000090C1B6
:200F200000004041000020C240382020FFFFFF7FB4E2000069C50000DAB100006CB00000AF
:200F4000020203032496421C7A5218254543386823994143E14841512698E14907F0EEFD79
:200F600004460021199108F07CFABF21090618913F21090600281C9100D11899204606F034
:200F80007CFD0646D74908F075FA2390C72004063046214608F053FA00281A9400D134461E
:200FA000204608F077FE23990029CA4900D10146CA484019239081802298C94907F0BEFDB1
:200FC0000446199908F04DFA00281C9900D11899204606F052FD0646C24908F04BFA0446EE
:200FE00030461A9D294608F02AFA002800D13546284608F04FFE002CB64900D10146239814
:20100000C1801B983858B64907F098FD0446199908F027FA00281C9900D11899204606F0F1
:201020002CFD0646AF4908F025FA044630461A9D294608F004FA002800D13546284608F076
:2010400029FE002CA34900D101462398018124983858A34907F072FD0446199908F001FA6F
:2010600000281C9900D11899204606F006FD06469C4908F0FFF9044630461A9D294608F0B3
:20108000DEF9002800D13546284608F003FE002C904900D10146239A51811E9890811D9876
:2010A000D081B820385A108209F07AFA8C4907F045FD0446199908F0D4F900281C9900D1F9
:2010C0001899204606F0D9FC0646864908F0D2F9044630461A9D294608F0B1F9002800D1CF
:2010E0003546284608F0D6FD002C7A4900D1014623984182786D7A4907F020FD04461999FF
:2011000008F0AFF9002801D118981C9020461C9906F0B3FC0646734908F0ACF904463046B4
:201120001A9D294608F08BF9002800D13546284608F0B0FD002C674900D10146239A9182C2
:20114000B420385C9075E020385C401EC1B2042904D2C006010E5E48C84003E0CE20385CD2
:20116000411E88412399C8757120385C00280BD07221785CFF2803D0421C7A54092803D392
:2011800005F012FDFEF7A9FF3889401C81B2132900D900203881F888401C81B2F88032298E
:2011A00004D30020F880302008F042FE7889401C81B27881322908D309F0E6F9002804D1A4
:2011C00000207881209802F035F9B889401C81B2B881C82901D2FEF780FF0020B8812198CB
:2011E000385C1E9005208001385C2490B420385C2390B820385E2190FF202030385C1D90D5
:2012000009204001385C1C9011200001385C1B9043208000385E1A9087204000385E19906A
:20122000269808F037FD2690229808F033FD2290842038582C4C214607F080FC08F02AFDD5
:201240001890A0203858214607F078FC08F022FD1790386B08F014FC04460E461920000183
:20126000381809F0E4F908F00BFC49229200BA582523DB00FB5813273F01174DEF590E94FC
:201280000F9610901191129213931497124F1E9B08932698099022980A9018980B90179818
:2012A0000C902498009023980190219802901D9803901C9804901B9805901A9806901998DE
:2012C000079029A80949209A08F0ACFCFEF705FF02020303FF7F0000403820200000202081
:2012E0000000204100FEFF460000C84280AA0000F0B5FFB08EB0049306920646929802904D
:201300000025E84305908C913468204609F022F921188B9503918C4200D3C2E0002087904E
:2013200087A908738890059889902F46049D2078002800D1B8E0252805D0641C3460069920
:20134000A8477F1CF3E78B97601C306087AC2046314600F0C1F88CAA2046314600F0DDF86A
:20136000306801787A2925D0682919D06A2908D06C290ED0742908D04C2922D187998022CD
:201380001BE087990122D20217E087990122520313E0427887996C2A6AD10122120205E0F2
:2013A00042788799682A66D10122520211438791801C05E08799012212030A438792401C0C
:2013C0000178441C346087A80173732913D06E291DD1879836490840411E02464A408A4216
:2013E0003DD900282DD04142014032484143C80E31A1085C26E087A80078400619D400956F
:2014000087A88CAA8BAB069900F046F92BE007AD87A98CAA284600F095F9024628460699FD
:20142000029B9847411C059D00D0C5198B9503991BE0009587A88CAA8BAB069900F0C9F84C
:2014400011E02020401F082809D8C0467844007940008744210404151C04150404008C9806
:2014600002C88C900F6003998B9D681C1BD052E7401C402201E0401C2022114387919FE77C
:20148000F8178C9904C98C9117605060EBE78C9802C88C900F70E6E78C9802C88C900F8046
:2014A000E1E72F4600E0059F38467FB00EB0F0BD603F000031B57C0700011C021D0E1803E6
:2014C0001E16140F191104081F1B0D17151310071A0C12060B050A0910B50A680124E3073B
:2014E0001AD01378302B0CD0232B0ED02B2B0AD02D2B04D00024202BF1D1042306E0012356
:2015000004E0102302E0022300E0082304681C430460521C0A60E1E710BDFEB516460D46A4
:201520000446086802782A2A10D13068011D316000686060002805D54042606020680121E5
:20154000014321602868471C2F6017E00021303A092A08D84218531C2B60435C6F467B5438
:201560005278491CF3E76A460023535412784718002A03D0684608F09BF9606038782E2802
:2015800026D1781C286079782A2908D13068011D31600068A0602868401C2860FEBD00201D
:2015A0003039092908D839188A1C2A604A786B461A548978401CF3E76A4600211154107859
:2015C000002804D0684608F073F9A060FEBDA160FEBDF0B587B01E460C9F13681C1D146073
:2015E0001D68002D3AD0049106908468002C04D4284608F06BFF844203D3284608F066FFDD
:20160000044606984068A042039000DC2046014630680191401805940399A142029630607A
:201620000EDD06980078C0070AD1059801990E1A0024B44204DA20200499B847641CF8E775
:201640000026049C069805998E420ADA2868010A18D12D1D2146B847761CF3E70020B84715
:2016600018E00599039A8A4214DD0078C00711D00198451A0024AC420CDA20200499B8478E
:20168000641CF8E70020C0430299086008F0BEFF5821016007B0F0BDF0B585B00C4606465A
:2016A0000A9D1068011D116000680490002844D00393B768002F04D4049808F04BFF8742E1
:2016C00003D3049808F046FF074602967268BA42114600DC3946039B186800914018019254
:2016E000BA4218600FDD02980078C0070BD10098C01B039000260398864204DA20202146C1
:20170000A847761CF7E70026BE4205DA0498805D2146A847761CF7E70198B84210DD02980C
:201720000078C0070CD00098C61B0027B74207DA20202146A8477F1CF8E700202146A8478E
:2017400005B0F0BDF0B58BB004920D460446FF210846FA302718686805900026099606917C
:20176000FE3120222046029208F06CFD7F20800021180A9103973E71287B0246613A172A9A
:2017800008952BD8012393402546C34C23422C4609D009A90AAA089D2846049B00F082F905
:2017A00000260796B9E0712423422C46089D22D1022A13D1049B1868021D1A600068C2B225
:2017C000534253410793069AFC32A2180A920870286802218843286000269EE0014645393B
:2017E000032908D3252800D180E0412803D058280796CED092E00194049A1068C01D07214B
:201800008843014608311160076846682D7B2C467B3C384631463A46334608F0D9FA00283D
:2018200000D021E10120C007314681439B48484038431FD0F60F002007902846413806280D
:201840003FD9613D062D019C00D922E1A80002A21058089D8746C046D91800001B190000D5
:201860001B1900001B1900001119000005190000F91800000022384631460792134607F0A7
:20188000B0FD1921CA436921049149216E254E2366274626944200D33E46039AD670019C21
:2018A00000D32B46937000D3049951703F21C90061180A910028089D14D02D2010700426CB
:2018C0002BE0019C089DC0467844007940008744032424241F1913000AAB38462A4603F025
:2018E0007FFA1AE02B201070032616E00020607025202070012086E00AAB38462A4603F0A9
:2019000075FB0AE00AAB38462A4607F015FE04E00AAB38462A4605F0CDFA287B012501466D
:201920006F39092904D801228A405D490A4201D158286AD1059B0595E5180A98089909788A
:20194000C907274609D10399091D091A089A52689142274601DC691A4F1C411C06984300E6
:2019600000263846324608F078FB0A900799002903D0411C0A91067000E00146A94206D84C
:20198000481E691A491C202208F05CFC2E70089D2878C00605D4391B2022204608F052FCA3
:2019A0002CE0A7422AD0391B30262046324608F049FC09984142414105980140012905D1EF
:2019C0002878400702D43846214604E03878611C2070781C3E702A7B412A0CD0582A05D03F
:2019E000612A08D0782A01D0702A07D12B781B0701D4612A02D142784A704670204608F01F
:201A0000A9FD079940180BB0F0BD002E09D0012E059B90D10120099008980168022008405C
:201A200007E0099A0898016802200840002A08D0059B0A994A1E0A922D220A70454245418A
:201A400079E70028059B08D1480700D473E70A98411E0A91029901706DE70A98411E0A9170
:201A60002B210170002566E71920C543612241216E234E20AC4200D31846039BD87000D33A
:201A80001146039A91700A925070002007900226019C089D41E7C04608C190000000F07FDE
:201AA00043020000F8B514460F4605468068002804D4286810218843286001E00120A86034
:201AC000287B1026582808D0782806D0702804D06F2801D1082600E00A262846194600F08F
:201AE00055F8AA68002A09D102460A4306D12878000749D52B7B0020024612E02B7B642B1D
:201B000003D16423002905D40AE0692B08D1002906D5692301223A60002240428A4100E075
:201B20000A4600941146324600F0CEF8A968884206DA401C21684A1E226030220A70F5E70A
:201B4000287B582803D0782801D070280FD1297809070CD5702800D1782021684A1E2260A0
:201B600008702068411E216030210170287B6F280AD12878000707D520684178302903D0BE
:201B8000411E216030210170F8BDC04610B5037B702B05D10868021D0A60006800227BE056
:201BA00002683E481040421E04465440944216D9002807D04242024039485043C00E39A260
:201BC000105C00E02020401F082808D878440079400087444C04041E38041E0404000022D4
:201BE0001846643814280DD801248440354804420AD12120044205D00868021D0A60006886
:201C0000C21749E0582B46D10868031D0B60006842E018466438142807D801228240294838
:201C2000024206D12120024203D10020582B024632D10868C21D0720824310460830086011
:201C40001068526828E0002218466438142807D8012484401B48044204D121200442CBD189
:201C6000582B18D10868031D0B60007814E0002218466438142807D80124844011480442D2
:201C800004D121200442B7D1582B04D10868031D0B60008800E01046114610BD603F00008C
:201CA00031B57C0700011C021D0E18031E16140F191104081F1B0D17151310071A0C1206EE
:201CC0000B050A0900081200FEB501920D460646582B01D0174800E0154800900898029030
:201CE0003046284305D1029A1068411E116030210170019C3046284313D0304629462246D9
:201D000000F01AF807460D46224608F083F9301A0099085C029B19684A1E1A6008703E4602
:201D2000E8E70298006808F015FC401EFEBDC0468EAF00009FAF000080B5102A06D0082AA8
:201D400009D1C0084A078018C90880BD00090A078018090980BD002904D1114607F070FE2F
:201D6000002180BD002308F071FB80BDF0B58DB0002800D184E215460F4606460B93002442
:201D80000029234622460C9012D00420385E07F0F1FEC14906F0D2FE2E462546044606200C
:201DA000385E07F0E7FE23462C4635460C9E0246307802282DD0012800D0FDE177780A2F9B
:201DC00000D19CE0012F00D0CBE00C36002D00D192E0B24D2B40412001061846174607F0D5
:201DE00037FB002800D187E03A462A40AC49104607F02EFB00287FD03068401C30602328B6
:201E000000D2D9E102200C9948700B9848608860E6E030467678012E20D106460C36002D7F
:201E20006AD03068401C3060052800D2C4E115460C980B998160994C23409A49184607F03C
:201E400010FB002800D0C6E028462040964907F008FB002800D0BEE00220BDE00121002D8E
:201E600000D1A4E00A920791CF07002118460C461D4607F0E4FA00280995089700D07D4008
:201E80008A49284607F0EDFA002800D098E0092E00D1AAE0022E00D08EE18249284607F082
:201EA000E0FA0028089F00D055E10A9CBC437E49204607F0D6FA002800D04CE106940C9E71
:201EC00031461531707D0028099C0B9100D1B4E02546BD437349284607F0C3FA002806D142
:201EE0007349069807F0BDFA002800D1BBE000200B9908706F4E42E1002434605CE1002D08
:201F000048D00A920120C1071846884367491F4607F0A7FA00283FD167483D46394605F070
:201F2000A7FD31460646487D0124E1078E43002800D1D8E061490A9807F093FA00280CD111
:201F40005F490A9807F084FA002806D15D49304607F087FA002800D1D9E000200C994875FB
:201F6000DDE0002D16D00A927068089001200790C5070993AB434D49184607F072FA0028F8
:201F80000AD1B0680B99081A80087C286FD903200C9E03E0012000E002200B99B0750B204D
:201FA000707071600024F4603461B48204E10C9841700B9941600024C46004618482FBE020
:201FC00002200C9988750B2048700B984860CC600C618C82F0E009200C9948700B984860C7
:201FE0000024346074603481E6E041200106284607F02EFA0C9E35460C35002800D1B5E0F1
:202000000A9C089884432A49204607F021FA002800D1ABE006942868401C28602828099C41
:20202000089F00D2A6E0022070700B987060002028606860288115360B962546BD4341205B
:202040000106284607F004FA1A4E002800D196E01D49069807F0FCF90028079C00D18FE044
:202060000B9804700C9E002434753461A4E0B81E0628099A00D99FE00B9B08995F1A4000BA
:20208000784480884000874421005A0120013B01FD007C019601C046CDCCCC3DFFFFFF7F63
:2020A0000000A041000010410000F0410000D24200004041CDCC4C40000048C20000704148
:2020C000000096C2000020410000A040192F00D2D5E103200C9948704B600020C8600861BB
:2020E0008882FC4C68E0FC490A9807F0B1F9002815D0FA490A9807F0B4F900280FD0F849E0
:20210000304607F0A5F9002809D00C984475FE490A9807F09DF900280AD1FC4C4CE0412008
:202120000106304607F09DF9002803D1F84B02E0F84C41E0F84B0C9801D1F84900E0F849F4
:202140000C220492F84A0392EE4A029201910093FD492A462CE009200C9E70700B9870600B
:202160000020F0603061B082099C03E000202860099C089F002070752546BD43F64E079C59
:2021800041200106284607F06CF9002801D0F54800E0F34801D0F54900E0F3491422A307B1
:2021A0000091019002960393049200210C98099A0A9B03F0DBFD0446DA4D2046294607F024
:2021C0003EF907468120C6052046314607F052F9002800D12646002F2C4600D134460C98FB
:2021E000C4612046294607F02AF9002800D1254600272846394607F022F90121CC072E46D8
:20220000002800D06640EE49304607F018F9002834D17F20C105304607F01AF900280ED152
:20222000DC49304607F014F900280DD1DC49304605F023FCDE4906F081FCE4490CE0E1496D
:20224000304606F07BFC09E0DF49304605F015FCD74906F073FCDB4905F00FFC3F210906F6
:2022600005F00BFC06460021284607F003F9002800D16640304607F00DFD07460C98078303
:202280000DB0F0BD1E2F0C9E51D3B049104607F0DFF80446BA490A9807F0DAF82043411E22
:2022A00088417C2F079900D80021084301280B993DD10720707071600020F0603061B082E0
:2022C0000120C0070A9C8443FBE0B749104607F0C8F8002800D196E0142F00D293E00124A5
:2022E000E1070A9888439B4907F0B2F8411E88411B2F00D80024204300D087E0AB4C5BE7C3
:20230000A5491046144605F0B8FB0121C9078843A24907F09DF800280C9900D180E006201F
:2023200048700B9848600020C8600861888291490A9807F09FF8002863D19A4C3CE7954C8F
:202340000F2F00D238E73F200106104607F089F80646401E864181490A9C204607F081F863
:202360000546401E854135407A49204607F079F8411E88412843874C402F00D990E00021A9
:202380008FE07D49104607F063F80A9CAC43002800D195E07949204607F05AF800280C9E1A
:2023A00000D18EE0082070700B9870600020F0603061B08272E08149104605F05EFB6C4DB7
:2023C0002840634907F044F80C9E34460C34002862D00A9805405D49284607F039F80028AD
:2023E0005AD02068401C20601428099F00D293E50A2070700B9870600020206060602081A3
:202400008AE5674CD8E61C2F00D277E705200C9948700B9848600020C86008618882099C34
:202420006349204607F00BF8002808D0032081070A9807F00DF8002801D0564CBCE65D4964
:202440000A9807F00EF8564C002800D0B4E65A49099807F006F8002806D050490A9807F040
:2024600000F8002800D0A7E60120C1070A988843444906F0F6FF002858D1444B57E00C20CE
:2024800004904348039043480290404801903748009000210C988BE600202060099F3BE5A7
:2024A00001210843012800D086E604200C9948700B9848600020C860086188823B4C7BE6DB
:2024C0000C9E3049204606F0CCFF00280AD12F4809E0C0460000404000004041000070C216
:2024E0000000104128480A9B0C21049128490391284902911D490091019027493046099A9A
:2025000057E6C046000040400000F0C1CDCC4CBE0AD7233D9A99993EEC51383D295C0F3DD6
:202520006F12033D000080C066662640164B0C98099A0C21049116490391164902910B49C5
:20254000009101931D4933E6000048C200004041000010410000F0419A9979400000A040FE
:20256000295C0F3D6F12033D0AD7233DEC51383DFFFFFF7F0000A041000020C200007042E5
:202580000000C8C20000BE42A69BC43CBC74933C6666264000004040000048C20000204154
:2025A000000040C0CDCCCCBF00002842CDCC0CC0000020420000B4420000184200004842EC
:2025C000CDCCCC3C0000A042000080BF00002043F0B58BB00D4607467648398B814201D040
:2025E000491C3983139A129909913C462434A97800291ED0119E0021F9713972AB88049307
:202600007B802B78802B0793089201D0012B39D1397BFF2908D0002904D1FA89824201D06C
:20262000501CF881491C3973388A88422BD2398229E0FE79FF2E00D18BE008921099002E06
:2026400004D17A89824201D0501C7881751CFD71002900D1FBE10120C00783435649184628
:2026600006F008FF002800D1F1E1022E089A00D9EEE10320207000250998056015600520A0
:20268000387205E2397305950A97607806904B49304606F0E6FE00281FD0494D474F3046B7
:2026A000294605F0EAF90646394606F0DAFE002813D03046294605F0E0F90646394606F0BB
:2026C000D0FE002809D03046294605F0D6F90646394606F0C6FE0028E1D100273046394607
:2026E00006F0ADFE00281ED0FA4D3046294605F0C4F90646002106F0A2FE002813D03046C1
:20270000294605F0BAF90646002106F098FE002809D03046294605F0B0F90646002106F0C2
:202720008EFE0028E1D1EC49304606F088FE002812D1EA49304606F082FE002801D00127C1
:202740000AE0E749304606F07AFE002803D1032702E035467CE10227069B9F42079A1CD162
:202760006770032010403F2A0AD8002808D00A9F3879FF2801D0401C3871002078712EE056
:20278000402A0A9F29D3002827D17879FF2801D0401C78710020387121E0B80001A1085858
:2027A0008746C046C52700001D2A0000E9290000032A0000FFFF000000004842CD8C194496
:2027C000CD8C19C4032BCBD1C649304606F052FE079A0028C4D00327C2E70020B88020780E
:2027E000411E012910D8D106890F00D1EAE0B979491CCAB2B971052A00D2E5E000202070AB
:20280000B871049A3A8002E000202070049A3888101A03B211B2C9134A40541A0693D9134C
:202820004840401A00B207F0A5F9B24906F086F907F030FA20187C6B05B2284607F09AF910
:20284000AD4906F07BF9214605F017F904465A2D06DBBF6B2046394606F00CFE002800D1F2
:2028600027460A98817C0491002906D0866B3846314606F0FFFD002800D13E460A98C76B8F
:202880003046394606F0DBFD002800D137460A98846A3846214606F0D2FD064601200390C5
:2028A0008107204605F0E9F80446394606F0E2FD0028384600D12046002E00D107460A9EE5
:2028C000B762306C029005988088079000B207F051F90546746C069807F04CF901462046D0
:2028E000019106F02BF9044602980595294606F025F9214605F0C1F80446B56C294606F046
:20290000B9FD06900398C6076E402046314606F096FD002800D126460698002800D1354678
:20292000049800283ED075490A9881627449019806F004F904467349059806F0FFF8214642
:2029400005F09BF80746412005063846294606F091FD0446C12006063846314606F06FFD37
:20296000002800D13E46002C00D135460A9F386B654906F0E3F8294605F07FF806465F49C8
:2029800005F07BF809990860B86A314605F070F808990860079838803046314605F06DF828
:2029A000054675E000210A9C2163284606F059FD002840D12846394605F05FF809990860F6
:2029C000A06A3EE00021B9710128504950480A4600D00246034600D00B4609990A600899AB
:2029E0000B60B8624B4D53E0012B00D0B8E63F49304606F024FD079A002800D1B0E6012780
:202A0000AEE6022B00D0ABE63749304606F017FD079A002800D1A3E60227A1E6002B00D0C6
:202A20009EE63349304606F00AFD079A002800D196E6002794E609980760A06A294605F0F6
:202A400017F82746089908600798208020E0089A387A002808D0401E38720320207000257E
:202A600009980560156013E0052D14D81346002020700220385E00282B4A2C48114600D4CD
:202A8000014600D410461A46099B196010600025FD620BB0F0BD232D0AD8134603202070AE
:202AA0000220385E00281E4A1E481146E8D5E8E7412D0AD81346032020700220385E002849
:202AC000154A16481146DBD5DBE70420207000210846D9E7CD8C194400001643CD8C994349
:202AE000CD8CE443CD4C1844CD0CE743CD0C9C4300001B43CDCCCC3DEC5138BE0000B442FD
:202B0000CDCC4C3D0AD7233DE17A9641000040C100004842000078420000A0C100000C422C
:202B20000000A04100005C420000344200007042F0B583B015460E460446411E8841FD49AF
:202B4000B02205F06FFF002E06D021780520014205D0042003B0F0BD032003B0F0BD0296C7
:202B6000A71C0422114321703A7B7B7B1B029A18BB7B1B042E46FD7B2D06EB189A1896420C
:202B800000D930E23546387C797C09020818B97C0904FA7C12065118091838797A791202E9
:202BA0001018BA791204FB791B069A1810180E1A6178B5423AD9022900D1D9E001296FD00C
:202BC000002900D0FBE139787A7812025118BA781204FB781B069A185118081802993246D6
:202BE00007F018FD3879797909020818B9790904FA7912065118081801968119387C7A7CCD
:202C000012021018BA7C1204FB7C1B069A1812185342914200D28FE1881A59188A4200D956
:202C20008BE1801A811A5018F3D386E1022900D1D1E0012969D0002900D0C0E1A178E27841
:202C4000120251182279120463791B069A185118081802992A4607F0DDFC38797979090285
:202C60000818B9790904FA791206511808184119387C7A7C12021018BA7C1204FB7C1B06BD
:202C80009A1812185342914200D290E1881A59188A4200D98CE1801A811A5018F3D387E1BD
:202CA000A178E278120251182279120463791B069A1851184000081872000299009207F065
:202CC000A9FC3879797909020818B9790904FA7912065118081801968119387C7A7C12023F
:202CE0001018BA7C1204FB7C1B069A1812185342914200D2A2E0881A59188A4200D99EE0FA
:202D0000801A811A5018F3D399E0A178E278120251182279120463791B069A1851184000DE
:202D200008186A00029907F075FC3879797909020818B9790904FA7912065118081841198B
:202D4000387C7A7C12021018BA7C1204FB7C1B069A1812185342914200D228E1881A591877
:202D60008A4200D924E1801A811A5018F3D31FE1A178E278120251182279120463791B06A8
:202D80009A18511880000818B2000299009207F041FC3879797909020818B9790904FA79E5
:202DA00012065118081801968119387C7A7C12021018BA7C1204FB7C1B069A181218534206
:202DC00091427AD3881A59188A4277D8801A811A5018F5D372E0A178E27812025118227963
:202DE000120463791B069A18511880000818AA00029907F00FFC3879797909020818B979BE
:202E00000904FA791206511808184119387C7A7C12021018BA7C1204FB7C1B069A18121891
:202E20005342914200D2C2E0881A59188A4200D9BEE0801A811A5018F3D3B9E0084638716D
:202E4000010EF971010CB971010A797139787A7812025118BA781204FB781B069A185118B6
:202E6000400008180299009A8918019AAE1A720007F0D0FB3879797909020818B979090478
:202E8000FA791206511808188119387C7A7C12021018BA7C1204FB7C1B069A181218534249
:202EA000914200D283E0881A59188A4200D97FE0801A811A5018F3D37AE008463871010E30
:202EC000F971010CB971010A797139787A7812025118BA781204FB781B069A1851188000C5
:202EE00008180299009A8918019AAE1AB20007F091FB3879797909020818B9790904FA79C4
:202F00001206511808188119387C7A7C12021018BA7C1204FB7C1B069A1812185342914268
:202F200045D3881A59188A4242D8801A811A5018F5D33DE0E7AD000008463871010EF971FA
:202F4000010CB971010A797139787A7812025118BA781204FB781B069A1851180818019A73
:202F600002998918AE1A324607F054FB3879797909020818B9790904FA791206511808186E
:202F80008119387C7A7C12021018BA7C1204FB7C1B069A1812185342914208D3881A59189B
:202FA0008A4205D8801A811A5018F5D300E008463871010EF971010CB971000A7871387BD6
:202FC000797B09020818B97B0904FA7B120651180818401B3873010CB973010EF973000AB7
:202FE000787321780020FB220A40227003B0F0BDF0B591B0E4480078012800D0B0E1E34895
:2030000080690321C9024058E1490A78002A1DD0E0490A68002A1DD0841A0860DE4804603B
:20302000204606F0ADFF0646DC4905F053FE0546DB48844200D83546DA4928460C9106F026
:20304000FEF900280ED0D84CD84814E001220A70D04984E10860D04800210160D84801609D
:2030600011B0F0BDD249284606F004FA002800D178E1D04CD048D24908600894D2483B214A
:203080000DAE0E23324603F003FA0D9800027178401800B206F06EFD7121CF05394605F007
:2030A0004DFD0B90B0780002F178401800B206F061FD394605F042FD09900E98000271795C
:2030C000401800B206F056FD394605F037FD0A900F980002717A401800B206F04BFDBB4D77
:2030E000294605F0F7FD0446B07A0002F17A401800B206F03FFD294605F0ECFD0746109819
:203100000002717B401800B206F034FD294605F0E1FD0546AE4801682046049104F0A8FC11
:203120000446AC480460AC4801683846059104F09FFC0746A9480760A948016828460691E9
:2031400004F096FC0646A7480660A74800680790A64801680297384605F0F0FC054601942B
:203160002046079905F0EAFC294604F086FC04469F4801680396304605F0E0FC214604F0B4
:203180007CFC05460120C107284688437D21C90506F055F900260028344600D12C46204629
:2031A000804906F067F90746924D2046294606F046F9002800D12546002F00D10C958E48DF
:2031C0000C9F07608D4804682046314606F02EF905462046394604F050FC3F21090607912B
:2031E00005F0ACFC002D00D107460898394605F0A5FC0C99814A1160814905F09FFC0446AD
:20320000804E314606F036F907467F4D2046294606F015F9002800D12546002F00D12E467A
:203220007A4C2068314604F028FC05462060784F3868314604F021FC38607649284606F03C
:2032400019F9002820D0744E724F2846314604F014FC0546394606F00DF9002813D0284699
:20326000314604F00AFC0546394606F003F9002809D02846314604F000FC0546394606F08B
:20328000F9F80028E1D125606449284606F0D7F8002820D0624E614F2846314604F0EDFBC5
:2032A0000546394606F0CBF8002813D02846314604F0E3FB0546394606F0C1F8002809D04F
:2032C0002846314604F0D9FB0546394606F0B7F80028E1D125600998014605F02FFC044621
:2032E0000B98014605F02AFC214604F0C6FB04460A98014605F022FC214604F0BEFB4949C1
:2033000004F0BBFB484C204048490D78484906F096F8002824D0002D22D00C982040079905
:2033200006F08DF800281BD0244C0198214605F005FC049904F0A1FB254908600298214695
:2033400005F0FCFB059904F098FB234908600398214605F0F3FB069904F08FFB20490860B5
:2033600011B0F0BD1549284605F0E8FB144908601449284605F0E2FB0446002106F068F818
:203380000028EDD179E6C046723D202004AF0000743D20203C3D2020503D20200000A042E7
:2033A000400D03000000FA430BD7233C0000204100504347CDCC4C3D000048426F12833A1A
:2033C000403D2020BD378635203B202033338341283D2020443D20202C3D2020483D2020E8
:2033E000303D20204C3D2020543D2020583D20205C3D20200000FAC3243D2020383D2020C5
:203400001904963F0000A0400000A0C0643D2020683D2020000034430000B4C3000034C3CF
:203420000000B443000080BFFFFFFF7F713D20209A99993EF0B58FB00646D54FF87C0628EC
:2034400001D3002200E00122831E591E8B41441F611E8C417021795C234200D0DDE000295F
:2034600000D1DAE00126B86EF96E081A06F088FDC94905F063FBC94905F02CFC06F000FBEB
:2034800002460B46C64908AD284606F0CBFB0020039002F037F9287804900224CE4D07E074
:2034A000284604F027FE03240798C00700D16DE107960EA9039F0F702120487002262846D5
:2034C000324604F0ABFB0EA90F704F702846324604F0A4FB0EA90F707F20487028463246F9
:2034E00004F09CFB0EA90F70222048702846324604F094FB0EA90F704C702846324604F0DC
:203500008DFB0EA90F704C702846324604F086FB284604F08BFD287A4006010E284602F095
:20352000C3F940212846069102F0BEF90498002857D00024049805942E4601467F39C9B28E
:20354000A129059D01D32038054660080627394606F076FAE8B27843A04A1018405C07996B
:20356000C90716D0012101404A008307DB0F9D00AA18DB00D2184307DB0F1D0152195B0137
:20358000D218C308C000069D28401018DA01024315E0C106C90F4A008306DB0F9D0052190A
:2035A000DB00D2184306DB0F1D0152195B01D2184308069D2B40D318802202401A430A4372
:2035C000D1B23546304602F06FF9671C0C21384606F036FA08A9762C03D8085C00283C468D
:2035E000AAD100262846314602F05EF9781C40B2002800D554E70021284602F055F9B81C9B
:2036000040B2002800D54BE70021284602F04CF9FF1C78B20028E4D542E704280ED10796CC
:20362000BA6E0026002A304628D0481E0D4685413B680020934214D2044613E03F231840B0
:203640003423C3401A4009D0B86E00294ED0FA6E002A4BD0002849D0101A51E04D49002071
:2036600061E001242543012D08D1002900D0FB6E981A06F085FC484905F060FA474905F085
:2036800029FB06F0FDF902460B464D4908AD284606F0C8FA3046294603F03CF819200001CA
:2036A000381806F0C4FF06F0EBF902460B464548009601904449284606F0B4FA02202946AA
:2036C00003F028F8B620385C002801D0404A00E03E4A079C3F49284606F0A4FA04202946C2
:2036E00003F018F8002C42D1324C41E04A1E9141424242410A4301D0002001E03968081AC6
:2037000006F03EFC244905F019FA244905F0E2FA06F0B6F902460B46214908AD284606F005
:2037200081FA0020294602F0F5FFFA7C4F2080003B5C1C4908AD284606F074FA0220294620
:2037400002F0E8FFFF202030385C002801D0174A00E0154A112000013B5C1549284606F069
:2037600061FA0420294602F0D5FF002EBCD0124C386B06F085F90090019110492846224615
:2037800006F050FA0620294602F0C4FF0FB0F0BD4038202019B100000000204100007A4492
:2037A000A8B10000F3B0000020B2000028B200000DB1000017B2000024B2000055B10000FE
:2037C00049B1000000C0624000B000000DB200002BB20000CAB10000003B202040A6000065
:2037E000F0B581B001242D2006F07AFCCD4D297888421AD1A97802291AD84A1CAA70697806
:20380000431A59425941032A224600D10A46002A0ED16870002800D1EAE0287A002801D120
:203820000120A8710020A88002E028700020A8706878002809D1A888632806D8401CA88055
:20384000642802D10120E8712872372006F048FCA97A88421AD1297B02291AD84A1C2A73C8
:20386000E97A431A59425941032A224600D10A46002A0ED1E872002800D1BDE0A87C002858
:2038800001D1012028740020E88102E0A87200202873E87A002809D1E889632806D8401CBF
:2038A000E881642802D101206874A8743A2006F017FC297D88421AD1A97D02291AD84A1CC0
:2038C000AA75697D431A59425941032A224600D10A46002A0ED16875002800D190E0287FA5
:2038E000002801D10120A8760020288302E028750020A875687D002809D1288B632806D805
:20390000401C2883642802D10120E87628773B2006F0E6FBA97F88421CD120216A5C022ADF
:203920001CD8521C6A54E97F431A59425941032A224600D10A46002A10D1E877002863D0F2
:203940002620285C002802D12420012129540020688403E0A877202000212954E87F002844
:203960000BD1688C632808D8401C6884642804D12520012129542620295425216A5C002090
:203980006854002A05D12422AB5C0021A954002B14D065490A78012A06D108706449087022
:2039A00064490C7001B0F0BD604A147008706049087060480470FA2001B0F0BD5B4800780A
:2039C00000280ED0584F3978A8790026AE7101291FD100282CD05C480178002926D0491E42
:2039E00025E0A87EA97600281BD0FB2001B0F0BD0020A88028721BE70020E881A87448E739
:203A000000202883287775E70020688426216854A4E7002840D048480078002825D0431E88
:203A200024E0A9712974084601B0F0BD03210170287C00262E74002805D043480178491CB8
:203A400003220A400270A87EAE7600285AD0384908783D4A12783B4B1A700E7033490E704F
:203A60003E7034490E7001B0F0BD072333480078D9B281420A4600D30246171D81422E48FC
:203A8000037001D38F4204D88F4200D8DA1E2B48027028480470244F287C2E7400281AD0FD
:203AA00025490878401C072303402448027893421F4600D31746381D93420B7002D3C1B212
:203AC000994205D8C0B2984200D8DF1E1B48077018480470144FA87EAE76002814D0164848
:203AE0000078C0001649085C062812D801218140742211420DD00E4908701248007812490E
:203B000008703C700B48047001F02AFD304601B0F0BD0021054A11703970064A117001B0B2
:203B2000F0BDC046A43A20208B3B2020803B2020833B2020853B20208A3B20207C3B2020B9
:203B400078AC00006D3D2020733D2020F0B585B0AA480078012800D04EE1A94880690321FD
:203B6000C9024058A7490A78002A1DD0A6490A68002A1FD0841A0860A4480460204606F02D
:203B8000FFF90646A24905F0A5F80546A148844200D83546A04C2846214605F050FC0028ED
:203BA00010D09E4D9E4816E001220A709649086005B0F0BD08609548002101609D4801600B
:203BC00005B0F0BD9749284605F054FC002800D101E1954D95489749086001950294974803
:203BE000432103AF06233A4602F052FC039800027978401800B205F0BDFF914C214605F044
:203C000069F89049096803F033FF06468E480660B8780002F978401800B205F0ABFF214699
:203C200005F058F88949096803F022FF054688480560049800027979401800B205F09AFF40
:203C4000214605F047F88349096803F011FF0746814807608148046881480168284604F043
:203C60006DFF05463046214604F068FF294603F004FF04467B480168384604F05FFF214643
:203C800003F0FBFE07460120C107384688437D21C90505F0D4FB002500282E4600D13E4673
:203CA00030465D4905F0E6FB04466F4F3046394605F0C5FB002800D13746002C00D1029754
:203CC0006A48029F07606A4E34682046294605F0ADFB05462046394603F0CFFE3F21090605
:203CE00004F02CFF002D394600D10146019804F025FF37605F4904F021FF04465E4D294679
:203D000005F0B8FB07465D4E2046314605F097FB002800D12646002F00D13546584F386878
:203D2000294603F0AAFE04463860564E3068294603F0A3FE30605449204605F09BFB002812
:203D400020D0524D504E2046294603F096FE0446314605F08FFB002813D02046294603F0C7
:203D60008CFE0446314605F085FB002809D02046294603F082FE0446314605F07BFB0028E6
:203D8000E1D13C604249204605F059FB002833D0404D3F4E2046294603F06FFE0446314660
:203DA00005F04DFB002813D02046294603F065FE0446314605F043FB002809D020462946C6
:203DC00003F05BFE0446314605F039FB0028E1D13C6005B0F0BD1649284604F0AFFE154909
:203DE00008601549284604F0A9FE0546002105F02FFB002800D1F0E605B0F0BD723D202049
:203E000004AF0000743D20203C3D2020503D20200000A042400D03000000FA430BD7233CC8
:203E20000000204100504347CDCC4C3D000048426F12833A403D2020BD378635203B202056
:203E400033338341283D2020443D20202C3D2020483D2020303D20204C3D2020543D20201D
:203E6000583D20205C3D20200000FAC3243D2020383D20201904963F0000A0400000A0C04F
:203E8000643D2020683D2020000034430000B4C3000034C30000B443F0B591B00F900125D5
:203EA00048000D90400D5C00670D59401095EE070E40AB494D1E44198C4200D203E17C19AA
:203EC0008C4200D2FFE0049610990C05611E00910B400025E9430E91A449019423430C933D
:203EE000C01B40180290401C0390D0020A90500DD9020B9247189E48C41B38462946224654
:203F00002B4606F087F84842294622462B4606F081F84900C00F4418204629463A462B4640
:203F200006F078F84A42204629462B4606F072F84900C00F4418204629463A462B4606F0B9
:203F400069F84A42204629462B4606F063F84900C00F4018441E3846294622462B4606F04F
:203F600059F806460F460A98294622462B4606F051F870186F411099081A0A902A46BA411E
:203F8000204629462B4606F045F8C20F49008918099146000A98294622462B4606F03AF8FB
:203FA0004A00C00F8018CF0F341809994F41E13C0994AF410F9AD00F0D9909180691520012
:203FC00008920E98401E0D902E46AE4108463040034607902046294606F01CF80A9106988D
:203FE000C043614AD1430143521A05922C466C4109982946234606F00DF806900991384677
:204000002946089A079B06F005F80890079138462946059A234605F0FDFF05900A9A069B0A
:20402000D0182B466B41079F3E400D9C089A224082185E41059838186941099A80186941F5
:20404000841969410E98401C4748684181424BD2002201988142109800D310460F9B01D332
:20406000039A029281401F2242406708D7400F4384405E05204639460B9A0C9B05F0CAFF9D
:2040800040428E4102994A1E3449491E8A423EDC012A48DB00990F401205C10F73005B18FF
:2040A00040001099214040183A4304990A430021651C51410B9E301A0C98984100D3254615
:2040C00044D3114642E0002F28D024498F4204D0002823D0884200D0F5E6224806430025AF
:2040E0003146284611B0F0BD6008CA0784184F080F980605204639460B9A0C9B05F08AFFE0
:2041000040428E41039A1549491E8A42C0DD1548049901430025284611B0F0BD00252946B0
:20412000284611B0F0BD002A13D10E994C400E494F4027430DD1019A56403043294605D14B
:20414000049911430025284611B0F0BD284611B0F0BD2946284611B0F0BDC046FF0700003A
:2041600002F8FFFF0000F07FFFFF1F00FE03000033F30475F0B5D9B01C4603920F4602900F
:2041800058A80026068057A8068056AD2E8055A8068054A80680084605F070FF28808F4D02
:2041A0002888002802D08E48006880478D480078002800D10DE1288800283CD08A480368FB
:2041C00054A801884A1C02803046029A9847384605F054FF56A90880844800888449097892
:2041E00005F02EFC55A90880384605F047FF381857A90E800988012913D9421C56A8805FA1
:20420000002827D4521C2AE05799491C57AA11805699491E56AA118057A90988401E02291B
:20422000EBD256A9895F0029E7D401785C29EBD02F29E9D0ECE70120010214A806F009F882
:20424000704E316802988847002C00D1B8E000946D49B6E057A80088002800D1BBE0654960
:2042600014A805F0DFFC58A80680058814E057A8008804AA16545C480368604800785499F0
:204280004D1C54AF3D80484381B2304698475898401C58A908800D8814A805F0EFFE55A9DC
:2042A000895F05F0CDFB401CA84228D957A80680008855A9895F8842D9DA14A805F0DEFE15
:2042C00057A9098858AA128855AB9B5F534359188842CCD357A90A8858AB1B8855AFBD5FEF
:2042E0005D4314AB5B199A5C0B8804ADEA54579A521C0A800988BA5F9142E1DBB7E740492A
:2043000014AE3046039A05F08DFC374803683B48007854994A1C54AD2A80484381B2002584
:20432000284632469847002C53D058A80580068814E057A8008804AA15542B4803682F486F
:20434000007854994E1C54AF3E80484381B2284698475898401C58A908800E88204605F0FC
:204360008DFE55A9495F05F06BFB401CB04230D957A80580008855A9495F8842D9DA2046C5
:2043800005F07CFE57A9098858AA128855AB5B5F534359188842CCD357A90A8858AB1B881F
:2043A00055AE775F5F43E3199A5C0B8804AFFA54579A521C0A800988725F9142E2DBB8E782
:2043C000124914A83A46039B05F02CFC316814A8884759B0F0BD084942E7C046783B20203E
:2043E0004C3B2020763D2020483B2020FE3A20207A3B20209FB10000BFB000007B3B20201E
:20440000B1B10000443B202020AF000052AF0000F0B58BB093490978012900D01FE100284C
:2044200001D17D20800002900027059706973C463E463D46049703963B2107AE0E238A48CA
:20444000324602F025F8079800027178401800B2049909180491B0780002F178401800B251
:20446000059909180591089800027179401800B206990918069109980002717A401800B262
:204480003F18B07A0002F17A401800B22D180A980002717B039E401800B23618042003F03F
:2044A0000DFA641CA0B202998842C4D301970395049805F05FFB0446029805F061FD05468A
:2044C0002046294604F006FC0746059805F052FB294604F0FFFB0446069805F04BFB0695CA
:2044E000294604F0F7FB054620460494214604F025FB044638460597394604F01FFB21464B
:2045000003F0BBFA04462846294604F017FB214603F0B3FA07467F20C4053846214604F031
:20452000A9FF00285DD07120C105384604F006FB8D21C90503F0A1FA3F210C06214604F0DD
:20454000FDFA029505463846294604F0C3FB0146284603F092FA214604F0F0FA05463846A1
:20456000294604F0B7FB0146284603F086FA214604F0E4FA05463846294604F0ABFB0146AC
:20458000284603F07AFA214604F0D8FA05463846294604F09FFB0146284603F06EFA2146DC
:2045A00004F0CCFA05463846294604F093FB0146284603F062FA214604F0C0FA0446059887
:2045C000214604F087FB294908600498214604F081FB274908600298214604F07BFB044624
:2045E00004E022480021016021480160039D019820490C6005F0BEFA069F394604F06AFBE9
:204600001D4C214604F066FB1C490860284605F0B1FA394604F05EFB214604F05BFB1849BC
:204620000860304605F0A6FA394604F053FB214604F050FB134908601348002101601348A4
:2046400001601348016013480170134801210170124880690321C9024058114908600BB03C
:20466000F0BDC046723D2020203B2020543D2020583D20205C3D202033338341283D2020AF
:204680002C3D2020303D2020643D2020243D2020383D2020743D2020713D202004AF0000FB
:2046A0003C3D2020F0B587B09C4C69208100204605F0CFFD9A487F210391C9052062616223
:2046C000274603F0DBFD04F065F94F208000201805F04AFE302010240025112621462A4635
:2046E000334602F05BFD07200490012205922146334602F053FD04F0B7F804F001F9384651
:204700007C3005F06DFE3846983005F069FE04F03FFC3846BC3005F013F85F208000381803
:2047200005F0FCFE19200001381805F005FF00F0FFF81C2000907B4E3C210A221F2330464A
:2047400004F088FD642003F0B9F806A90D70AE204870022730463A4603F060FA06A90D706E
:20476000D520487030463A4603F058FA06A90D708020487030463A4603F050FA06A90D706E
:20478000A820487030463A4603F048FA06A90D703F20487030463A4603F040FA06A90D70DC
:2047A000D320487030463A4603F038FA06A90D704D7030463A4603F031FA06A90D704020AA
:2047C0000290487030463A4603F028FA06A90D708D20487030463A4603F020FA06A90D70C4
:2047E0001420487030463A4603F018FA06A90D702020487030463A4603F010FA06A90D708F
:204800004D7030463A4603F009FA06A90D70A120487030463A4603F001FA06A90D70C8244E
:204820004C7030463A4603F0F9F906A90D70DA20487030463A4603F0F1F906A90D701220D2
:20484000487030463A4603F0E9F906A90D708120487030463A4603F0E1F906A90D700398C6
:20486000487030463A4603F0D9F906A90D70D920487030463A4603F0D1F906A90D70F120F8
:20488000487030463A4603F0C9F906A90D70DB20487030463A4603F0C1F906A90D7002986D
:2048A000487030463A4603F0B9F906A90D70A420487030463A4603F0B1F906A90D70A62078
:2048C000487030463A4603F0A9F906A90D70AF20487030463A4603F0A1F9284600F012FFF0
:2048E0001148124903F030F9049E3046294605F0F7FA204602F0E2FF3046059C214605F0CF
:20490000EFFA284605F058FE044D6867204605F053FEA86700F024FE07B0F0BD40382020EC
:2049200000004041003B20200557000015670000F0B583B002A80027077000978E4D682188
:204940000A220123284604F085FC642002F0B6FF752102AE012428463246234601F098FDB9
:204960003078682800D1B6E0702800D1B3E0284603F0C0FB142002F0A1FF752102AE012350
:204980002846324601F084FD3078682800D1A2E0702800D19FE0284603F0ACFB142002F01E
:2049A0008DFF752102AE01232846324601F070FD3078682800D18EE0702800D18BE0284604
:2049C00003F098FB142002F079FF752102AE01232846324601F05CFD307868287BD07028FE
:2049E00079D0284603F086FB142002F067FF752102AE01232846324601F04AFD3078682840
:204A000069D0702867D0284603F074FB142002F055FF752102AE01232846324601F038FDCE
:204A20003078682857D0702855D0284603F062FB142002F043FF752102AE012328463246E4
:204A400001F026FD3078682845D0702843D0284603F050FB142002F031FF752102AE0123DE
:204A60002846324601F014FD3078682833D0702831D0284603F03EFB142002F01FFF752106
:204A800002AE01232846324601F002FD3078682821D070281FD0284603F02CFB142002F00E
:204AA0000DFF752102AE01232846324601F0F0FC307868280FD070280DD0284603F01AFBBB
:204AC000142002F0FBFE38460A300A2F074600D23EE702A80078682801D0702842D1264EE0
:204AE0006B213046224604F027FF322002F0E6FE19210722304604F01FFF1A210327304644
:204B00003A4604F019FF1B211822304604F014FF1C21002530462A4604F00EFF062630462B
:204B2000214603F049FB304605F070FB13488069F9024058124908601248047012480570CA
:204B400012480560124805601248056012480560124805601248056012480560124805704D
:204B600003B0F0BD074800210170074801700C48016003B0F0BDC046203B202004AF0000CB
:204B80003C3D2020723D2020713D2020283D20202C3D2020303D2020643D2020683D2020BE
:204BA000243D2020383D2020743D2020F0B585B00492002800D111E10F46002900D10DE116
:204BC0001C4605460126184601F098F9297AB87D002902D0E97988420BD001212972E87131
:204BE000387C6978884204D1787CE978461A701E86412878401E042800D9BDE078440079A2
:204C00004000874402B91C2F2B00002E07D1787D402804D1B87C002801D101206871687917
:204C200000282DD06878801F0226F143884203D305F064FC002823D02E70EC609CE0002ED0
:204C400005D1787D412802D1B87C002851D0E868201A1E2800D28FE00B208AE0687803281F
:204C600000D089E0002E2BD1787D432822D0442826D1387D002800D10C20287106201EE085
:204C8000A869201A322877D3287F02282FD86978EA781E202B5E0A2060430026049F009716
:204CA00001960290302004F069FEAC61287F401C287761E06878032802D06C6105202870C9
:204CC0006878811F0222D243914242D30392397E0022002914D03978814211D17878E97811
:204CE00088420DD17889972809D3002208E00A203FE00120A87104202870EC603CE001229C
:204D00002E462036304639462346FDF72FF8304605F0AFFB002807D03620285C1430287185
:204D20000620039A287014E03820285E214602F0BDF968780328039A0BD12878042808D10E
:204D4000304605F09FFB039A002802D06C610520E8E76878801F904207D305F0C7FB0028EC
:204D600003D01E20287106202870F87D002803D11F202871062028702878411EC9B202291F
:204D80000FD86978891F0222D243914214D305F0ADFB002804D01E2028710620287002E0A0
:204DA0002878062806D104F059FF2846203005F0BCFB2878002811D0A969611A14290DD345
:204DC0006978EA781E23EB5E0A266643049F009701900296332004F0D1FDAC6105B0F0BD46
:204DE000F0B5A5B0059308920D46074600260A967A4C3246234604F0FDFA002800D12C4624
:204E0000354600D13D46284621463246334604F0DFFA46424641002807D10AAA2846214698
:204E200004F0A8FA0A98401E0A900898007B0BAF412801D06B4800E06948099008988068CE
:204E400001903020049038700022284621460292134604F0C6FA0121002801D0C80744402F
:204E60000391781C0790002E0DD024AA2846214604F080FA249801210A1A2846214602F08E
:204E8000AFFC05460C462846214604F081FC0646079904F025FB0690304604F0E1FF02465C
:204EA0000B462846214600F0CFFD04460D460198471C20D3079806994618002220462946F1
:204EC000134604F085FA002848D1002220462946454B05F097FB04460D4604F059FC09992F
:204EE000095C771C317004F0BBFF05F070FB04460D463E46E1E70BA806994618002F16D05D
:204F00007F1E002220462946374B05F07BFB04460D4604F03DFC0999095C3246761C517074
:204F200004F09EFF05F053FB04460D46E6E73178099C204605F0B8FA001B08280EDB01960D
:204F4000741E089D029F099E2178304605F0ACFA801B0E2805DD2770641EF5E7089D029F3A
:204F600004E00999081840782070019E37700A98297B4129059C01D0702100E05021069E55
:204F8000079F224604F0B2FBAA68501C04D1384605F0E0FA421EAA6038463146234604F006
:204FA0002FFFA8680028039A02D128680007C20F38463146234604F053F8287B412801D039
:204FC000782000E0582021684A1E226008702068411E21600499017025B0F0BD0000F0FF0F
:204FE0008EAF00009FAF000000003040F0B5A3B01E460F46044603929168002903D0002908
:2050000004D5062100E001210398816007910AA83021089101700022204639460992134672
:2050200004F0DFF901210028049101D0C8074740634D20463946614A2B4604F0EDF90028EB
:205040000BD00022204639465F4B05F0D7FA04460F460998401C0990EBE7002520463946ED
:205060002A462B4604F0B4F9002813D1002220463946544B04F0B5F900280BD000222046CF
:205080003946514B05F0BEFA04460F460998401E0990E3E702960AA8461C2046394604F0C2
:2050A00077FB0596314604F01BFA07998842019004DD481C0AA90B18085C20E0C9430E18B7
:2050C0000AA90B180793581C06902046394604F05FFB04F0C5FE02460B462046394600F0FE
:2050E000B3FC0022384B05F08DFA04460F4604F04FFB069B303007994870761CE2D3C0B2F1
:205100003528029E039F0DD3581E0178491CCAB201703A2A03D330210170401EF5E70AA9E6
:20512000884241D0099801990C181D700220C043844202DBB868844207DD601E397B891E3D
:20514000C9B2324604F0D2FA0124059805F002FA401E0499A0421ADB0028089A01D4059AD9
:20516000125C1346303B5D1EAB41C9431943C90705D13978090702D40025049905E03168B1
:205180004B1E33600A7001250021401EE2E73868082202402A43501E824105982146334604
:2051A00003F05EFF23B0F0BD581E00210170099801990818441C0AA80590B7E70000C0FFB8
:2051C000FFFFDF410000F03F00002440F0B58DB007920890002201260B9149004F0D590028
:2051E000490D0C91694C651E09977919A142314600D31146F7070A971F460B9847400C98FC
:205200004519A542344600D314465F4D0A980740214301290AD10C98002800D184E0A842B9
:205220007BD0099800287FD0A84276D00096069700260125079A500DD90208180590D002FC
:2052400003903146089C2246334604F0E3FE049007910195EF0705980743384631462246EE
:20526000334604F0D7FE089005910B98C0434949CA4302438A1A02923446744103983146BB
:20528000234604F0C7FE05460B913846049F3146029A234604F0BEFE3F4A17401540079AE2
:2052A000AA18334673410B9C20187141059C00197141089C121958417141099B0C9CE318A1
:2052C000CC0221D4354C1B19C40F490009194000D40F0019FC0F520012197D002A4C641EDF
:2052E000A342069F19DC019C2405002B21DD641E21401B050B43194639436B420A9C234658
:20530000934126D2401C2AE0244C1B195B1C1E4C3D46641EA342069FE5DD1D4807430026B0
:20532000394630460DB0F0BD0026314630460DB0F0BD1B4D6940C043002A15DB0843002BED
:20534000009916D0002817D0009800283146E8D117E06240154303D1019A024080187141E3
:20536000064630460DB0F0BD01960843002B0099E8D101990028E7D1009100980028314660
:20538000CFD12743CBE7C046FF07000002F8FFFF0000F07FFFFF0F0000F8FFFF01FCFFFFE0
:2053A000FFFF1F00F0B587B002910546411E88416849C32203F036FB28681F224109059282
:2053C000104001242246824088006349085895214B01C15811430193C150E8680690069802
:2053E000411E0691002809D00698411E0691002804D00698411E06910028F0D1686841098F
:20540000059A104022468240880053490858534BC1581143C1500026072003940DE0B10051
:2054200044000C43287904F05BFE064626430499881EC9B20129039C68D0049029684A09FF
:2054400005980140204688409100434A5158434A89180A6902430A61EA680692069B5F1E20
:205460000697002B09D0069B5F1E0697002B04D0069B5F1E0697002BF0D10B6803430B6006
:2054800006920698411E0691002809D00698411E0691002804D00698411E06910028F0D1D2
:2054A000287904F01DFE2A68530905990A40214691409A00284B9A58284BD21813690B4308
:2054C0001361EB680693069F7C1E0694002F09D0069C671E0697002C04D0069C671E069703
:2054E000002CF0D114680C431460069306994A1E0692002993D006994A1E069200298ED096
:2055000006994A1E06920029F0D188E72868059901408C40400980000F490858019A815863
:2055200021438150E86806900698411E0691002809D00698411E0691002804D00698411E2E
:2055400006910028F0D12846029902F0F7FEF0B207B0F0BD61AD0000F83C202090120000B1
:20556000F0B587B057480078574E31780140C843564909684A424A410243554F3868434269
:2055800043411343D80700D084E000242046884750480078012824D13A6853490020904762
:2055A00052480078800052490B58524A01AD18262846314604F036F93A68022029469047C1
:2055C0004D4803784D4A2846314604F02BF93A68042029463C4E90473A6849490620904760
:2055E00057E03D480078072853D83C490978884201D0202300E03E23C000394908184068EE
:205600000090384A01AD1821284604F00BF93A6800202946904730480078401CC0B2072836
:2056200037D82E490978884201D0202300E03E23C0002B490818406800902A4A01AD18215D
:20564000284604F0EFF83A6802202946904722480078801CC0B207281BD820490978884231
:2056600001D0202300E03E23C0001D490818406800901C4A01AD1821284604F0D3F83A683B
:2056800004202946904714480078C01CC0B2072802D9347007B0F0BD10490978884201D0F7
:2056A000202300E03E23C0000D490818406800900C4A01AD1821284604F0B4F83A680620E5
:2056C00029468CE7803B2020853B20203C3B2020743B20208B3B20207C3B20208A3B202045
:2056E00078AC000003B20000D9B00000733D2020D0AF000008B20000833B2020E2B100008E
:2057000067AF0000F0B587B0044601A900270F7021204870624D02262846324602F07EFADD
:2057200002A90F704F702846324602F077FA03A90F707F2048702846324602F06FFA04A9C7
:205740000F70222048702846324602F067FA05A90F704F702846324602F060FA06A90F704B
:20576000072048702846324602F058FA284602F05DFC287A4006010E284600F095F8402124
:20578000284600F091F82846214600F08DF82846214600F089F82846214600F085F82846E2
:2057A000214600F081F82846214600F07DF82846214600F079F82846214600F075F8284609
:2057C000214600F071F82846214600F06DF82846214600F069F82846214600F065F8284629
:2057E000214600F061F82846214600F05DF82846214600F059F82846214600F055F8284649
:20580000214600F051F82846214600F04DF82846214600F049F82846214600F045F8284668
:20582000214600F041F82846214600F03DF82846214600F039F82846214600F035F8284688
:20584000214600F031F82846214600F02DF82846214600F029F82846214600F025F82846A8
:20586000214600F021F82846214600F01DF82846214600F019F82846214600F015F81F26F1
:205880003E432846214600F00FF820370548864200D278E7024802F02DFC07B0F0BDC0464F
:2058A000003B2020FF030000F0B587B001910646411E88416249A82203F0B4F8802000963F
:2058C00002E0800800D1B1E00199084201D05B4901E05A491031029073681F225D09134077
:2058E000012703979F40AB005648C3585D583D435D50F5686B08069306994F1E0697002986
:2059000009D006994F1E0697002904D006994F1E06970029F0D131684E091140039F8F40C3
:20592000B100484846584548311834583C4334500595059C651E0595002C09D0059C651EA2
:205940000595002C04D0059C651E0595002CF0D10C693C430C610493029804994B1E0493D3
:20596000002909D004994B1E0493002904D004994B1E04930029F0D14408009E73685909DD
:20598000890030484158019D2C4201D02B4D01E02A4D10351340039C9C404B5923434B5107
:2059A000F5686B08069306994C1E0694002909D006994C1E0694002904D006994C1E069496
:2059C0000029F0D131680A40039F9740490989001C4842581948111814583C431450059535
:2059E000059A541E0594002A09D0059A541E0594002A04D0059A541E0594002AF0D10A694A
:205A00003A430A610493029804994A1E0492002900D156E704994A1E0492002900D150E7CF
:205A200004994A1E04920029EED14AE7304601F02BFC0399484007B0F0BDC04690120000F4
:205A400061AD0000F83C2020FCB40124E407634002E0FCB40124E40708B41D03ED08D60D0B
:205A6000354356025F007F0D06D12C00344300D0AEE001B0FCBC7047A4082543072424020E
:205A8000FF34A74205D10020190D090501B0FCBC7047002B03D50024A61BAC4125000B0398
:205AA000DB08C20D134342024800400D07D11C00144300D08CE00EBC1000F0BC704701241C
:205AC0006407234307242402FF34A04205D10020090D090501B0FCBC7047002903D5002430
:205AE000A21A9C412300C11B08D51C002B0025001400320026000024611A3800362925D529
:205B000002B4393949420C00203C03D22F008F40374301E03700A740002F01D040210E436C
:205B200002BC20290BD500290ED04C42203420B4A5402C0020BC0D41CE40361904E000291C
:205B40002E000D4120390E4192196B411C0014433ED00024002B04D5012400218A1A99415D
:205B60000B00401E52005B41FBD50121890215000D400CD0521800277B4101D3401C0BE0AB
:205B80000721C90115000D4001D189008A43072109028A4352005B41801C19DD07210902D6
:205BA000FF31884209D30EBC0020C90F0902FF31C900C91D0905F0BC7047190B0005014385
:205BC000E40721431805120B104301B0FCBC70470021002001B0FCBC7047FEE7F0B587B0A7
:205BE000039304920690006801F042FF0746594903F040FC00281FD0574C564D38462146E9
:205C000001F03BFF0746294603F034FC002813D03846214601F031FF0746294603F02AFC94
:205C2000002809D03846214601F027FF0746294603F020FC0028E1D10F9D0E98059047494B
:205C4000384603F0FCFB00281FD0454C434E3846214601F012FF0746314603F0F0FB0028F2
:205C600013D03846214601F008FF0746314603F0E6FB002809D03846214601F0FEFE0746AC
:205C8000314603F0DCFB0028E1D106984760C46838460295294602F051FF214601F0EDFE6F
:205CA0000646059C214603F0E5FB05460120C007019044403046214603F0C1FB002800D1F0
:205CC0003446002D059E00D126460D9805900C9800900698C6608168384601F0C9FE0546A1
:205CE0002049029C204603F0C5FB002800D11E4C2846214602F0EEFF054606988760039802
:205D0000314602F01BFF06460498394602F016FF314601F0B2FE06460098294602F00EFF28
:205D2000314601F0AAFE0546059F394603F0A2FB0646019C7C402846214603F080FB002845
:205D400000D12C46002E00D1274606980761384607B0F0BD000034430000B4C3000034C3C7
:205D60000000B4436F12833A0AD7233CF0B587B01C4606900E9D0C9805900D9E08461146A6
:205D800001F076FE074630460494214602F0D6FE064605980597394602F0D0FE314601F0EA
:205DA00067FE064601200190C0072C46029044403046214603F043FB07463046294603F0FE
:205DC00059FB0028039500D13546002F00D12C46474E059D2846304041210F06394603F0F3
:205DE00040FB00282DD0049806403046394603F02FFB002825D0109F2846214602F09EFE20
:205E0000002103F037FB411E8841069A117D00291ED0002819D00498294602F08FFE002113
:205E200003F028FB069A002807D08120C105304603F017FB069A002807D11069401C1061E5
:205E40000FE0069A107D00282DD0002010752BE0002828D01069401C1061B84225D301995F
:205E60001175C01B04F08CF8224902F067FE05460021059803F0FEFA002819D01E492846AD
:205E800001F0FBFD05462046294603F0F3FA0028039E0AD12846314603F0ECFA002800D1BE
:205EA0002E46344601E000201061204607B0F0BD0F98294601F0E1FD0746002103F0BFFAB9
:205EC00006463846039D294603F0D4FA002800D13D46002E02D10298454000E0029D2046A7
:205EE000294603F0ACFA0028DFD12C46DDE7C046FFFFFF7FCCCCCC3CCDCC0C40F0B587B0A9
:205F0000029052480078524E3178401A8006000F7ED003A8801D01904E4C09E0781C08401F
:205F200030704A4800783178401A8006000F6FD03078235C3078401C3F210840205C3278E7
:205F4000921C0A40A25C3578ED1C0D40655D3778012BE3D16B2DE1D13B1D0B4033703E49E0
:205F60000A709F2ADDD0022A2DD13C4A1168491C116000223A490A703A490978814201D17A
:205F800038490A7038490978F32837D1012935D13748039003A9374888800198C2708270AF
:205FA0004270027002274F816B20087301200D2201F0E0F9FD202B49087002982E49086022
:205FC0002E49086021E02E4A1168491C116024490978FF2906D04A1C214B1A70012901D8CF
:205FE000002100E001211F4A1278824202D100201C4A1070002994D0042706E0FD2890D1CA
:2060000002298ED11948028003271748077088E714480178002916D017490968029A511AE8
:206020000C2910D30021017015480168491C01600B490878FF2803D0421C0A70022802D385
:2060400009480421017007B0F0BDC046873B2020893B2020643A20207D3B2020383B202060
:20606000353B2020823B20208C3B2020363B202001FD00001E6400006C3B2020603B202079
:20608000503B2020F0B585B00C46054600260846314603F0CBF900282ED104942C680027A2
:2060A0002046394603F0E6F9411E88410390049839462746049C03F0C2F9002805D000217A
:2060C000384603F0D7F9002816D13C4600272046394603F0B4F9411E88410290049839466D
:2060E0002746049C03F0C6F900280DD00021384603F0A5F9002807D06E60AE60EE602E61F4
:206100006E612C6005B0F0BD0021384603F0A9F90121CE07002800D177407F20C105384604
:20612000019103F0A7F90028EBD00021204603F098F90028214601D121467140384601F064
:2061400097FC07463F200106384603F08AF90028D7D00096412006063846314603F081F9D1
:206160008121C905002800D0314601D0194E00E0174E384602F0E2FC0746314603F07AF94B
:20618000002800D13E4602980028019900D10099EF680398002800D00F490846314602F0C3
:2061A000CDFC394601F069FC07460C4903F062F903900B4E3846314603F041F9002800D14A
:2061C0003E4603980028054800D13046E86098E70000204200002043000080BF00A00C4627
:2061E00000A00CC6F0B585B0039304920446084603F0C0FC4D4902F0A1FC4D4902F06AFDCC
:206200006060A568294601F033FC7D21C90502F095FC294601F031FC0746A06025680026A6
:206220002846314603F002F9002806D0201D066046608660C660066175E00A9801900295B2
:206240002846394601F014FC05462669314601F00FFC00900398294602F070FC0746049822
:20626000009902F06BFC394601F007FC074630460396314601F001FC01460495284601F0B9
:20628000F7FB616901F0F9FB0146019802F056FC394601F0F2FB0146E06801F0EEFB064627
:2062A000244903F0E7F80746234D3046294603F0C6F8002800D13546002F1E4900D1294602
:2062C0000191E16004982061039860610026029D2846314603F0CEF807462846314603F0EA
:2062E000AEF8002800D01548002F124E01D07F20C005114FA16902F021FC019901F0BDFB23
:206300000446314603F0B6F805462046394603F096F8002800D12746002D00D13E4630460C
:2063200003F0B8FC0646304605B0F0BD00606A4700683F4700A00C4600A00CC6000080BFF0
:20634000F0B585B01446019104900003060F0321304603F04DFF4549642202F063FB002767
:206360000125434803948442284600D3384666223E4902F057FB304603F02CFF0499C8B252
:2063800009040A0F1021132302F01EFCB00039490C583949112222206050022E374803462F
:2063A00000D0374B12022903052E00D01846324BE3180293A51861180091019903F040FB4E
:2063C000062E3E4613D0020C070E0190000205D0791C104603F034FB064607E07F1EF8B210
:2063E000411C104603F02CFB0646FF360198FFB2791C03F025FBF6B2711C03F021FB401EBB
:206400000821009A91601760EE60029F78600498010D0F2008400126324682402B6813431F
:206420002B60012808D88121890541438200A218154BD15013490BE080054A078018314031
:206440008A00A218104BD0500E4A083208461146611880000D4A0A500498039902F074F806
:2064600038683043386005B0F0BDC04668AE00001127000004AF000004180000005A62022E
:2064800000B4C404701800003018000001040000F0B587B01C46164606910546411E884107
:2064A0004C494D4F3A4602F0BDFA711E04968E417A1C3046474902F0B5FA284601F0B6FD3B
:2064C000287A4006010E2846FFF7EEF928460699FFF7EAF9284601F0A9FD287A4000401C51
:2064E000C1B22846FFF7E0F92A46002C6CD01546601E032103F0A4FA491C0020032900D005
:20650000084602D12746049932E0614203910121091A029140420190022600942746049857
:2065200080190590811E069103988419601E414241412846FEF736FF0599491E069A10707F
:2065400002988019022811D0BF1E0691614261412846FEF727FF06990870B61C01988019A0
:206560000228DCD104988019811E00E07F1E009C032C2A4628D3B81E0690781E0590F81E10
:206580000490002603978D190598801B0F464142414110461446FEF705FFB8550698801B80
:2065A000414241412046FEF7FDFE68700498801B414241412046FEF7F5FE22463946A8701F
:2065C000039FF61CB742DED1104601F093FD07B0F0BDC04661AD0000FF010000F0B585B036
:2065E0001D46164630210290009101700024104619462246234602F0F4FE002802D001204E
:20660000C00745400B9801900A9804903E4F304629463C4A3B4602F0FFFE002809D0002239
:20662000304629463A4B03F0E9FF06460D46641CEDE70027304629463A463B4602F0C8FE5D
:20664000002811D1002230462946304B02F0C9FE002809D00022304629462D4B03F0D2FFB1
:2066600006460D46641EE5E70298401C03900498001904903046294603F08AF8039902F073
:206680002FFF039909180019019A10600498441C012C1ADB04913046294603F079F803F0FC
:2066A000DFFB02460B4630462946FFF7CDF90022174B03F0A7FF06460D4603F069F8303056
:2066C000049A511C1070641EE4D1481E0278352A0DD3891E009C0A78521CD3B20A703A2B42
:2066E00002D30C70491EF6E7029A914203D00770039805B0F0BD077001990868401C08600A
:206700000298F6E70000C0FFFFFFDF410000F03F00002440F0B587B00091044601A900260B
:206720000E7021204870454D022728463A4601F075FA02A90E704E7028463A4601F06EFAAB
:2067400003A90E707F20487028463A4601F066FA04A90E702220487028463A4601F05EFA1D
:2067600005A90E704C7028463A4601F057FA06A90E704C7028463A4601F050FA284601F090
:2067800055FC287A4006010E2846FFF78DF840212846FFF789F800990878002830D04D1CD8
:2067A0000027264C009701467F39C9B2A129009901D320380146C8B206214143204846186E
:2067C000415C2046FFF770F871782046FFF76CF8B1782046FFF768F8F1782046FFF764F8A9
:2067E00031792046FFF760F871792046FFF75CF8BE1D2878002803D06D1C742F3746D2D3DD
:206800000E4C00212046FFF74FF8701C40B200280FD400212046FFF747F8B01C40B200282F
:2068200007D400212046FFF73FF8F61C70B20028E7D5024801F05EFC07B0F0BD003B20203D
:2068400040A60000F0B5CBB0484E5020305A129032684F20800030180124214603F04AF86E
:206860007020315C002905D1B16E002902D03168F16634540024B4737120345472203454EC
:2068800030467C302146FFF7FDFB304698302146FFF7F8FB204603F08FFE70670120119074
:2068A00003F08AFEB06703F0ABF8706BB36BF16B376C1A185218D21930D00A256A436843AA
:2068C00010906B4369436F434420305A0F904620305A0E904820305A0D904A20305A0C90D2
:2068E000C620305A0B90CA20305A0A90CC20305A68430A9D089509900093019102970F981C
:2069000003900E9804900D9805900C9806900B980790174913A8109B03F084F912980028F4
:2069200007D05325705D002803D100F07BFE119870554D203454B48062203454642034522B
